:100000000C94410C0C94620C0C94620C0C94620CD9
:100010000C94620C0C94620C0C94620C0C94620CA8
:100020000C94F6140C94620C0C94620C0C94620CFC
:100030000C94620C0C9400150C94620C0C94620CE1
:100040000C94620C0C94620C0C94620C0C94620C78
:100050000C94620C0C94620C0C94620C0C94620C68
:100060000C94620C0C9402260C94620C0C94620C9E
:100070000C94620C0C948B160C94620C0C94620C15
:100080000C94620C0C94620C0C94620C0C94620C38
:100090000C94E1260C94620C0C94620C0C94620C8F
:1000A0000C94620C0C94620C0C94620C0C94620C18
:1000B0000C94620C0C94620C0C94620C0C94620C08
:1000C0000C94620C0C94620C0C94620C0C94620CF8
:1000D0000C94620C0C94620C0C94620C0C94620CE8
:1000E0000C94620C6E616E00696E660000407A10BE
:1000F000F35A00A0724E18090010A5D4E80000E8D9
:100100007648170000E40B54020000CA9A3B000036
:1001100000E1F505000080969800000040420F00C5
:100120000000A08601000000102700000000E80386
:10013000000000006400000000000A000000000051
:100140000100000000002C76D888DC674F0823DF10
:10015000C1DFAE59E1B1B796E5E3E453C63AE651E3
:10016000997696E8E6C28426EB898C9B62ED407C0A
:100170006FFCEFBC9C9F40F2BAA56FA5F490055AA6
:100180002AF75C936B6CF9676DC11BFCE0E40D47CB
:10019000FEF520E6B500D0ED902E030094357705EE
:1001A0000080841E080000204E0A000000C80C33A6
:1001B0003333330F986E12831141EF8D2114893B35
:1001C000E65516CFFEE6DB18D1844B381BF77C1DB5
:1001D000901DA4BBE424203284725E228100C9F108
:1001E00024ECA1E53D27464C4153482077726974C1
:1001F00065206661696C65640A00464C415348207D
:1002000072656164206661696C65640A00756E6B75
:100210006E6F776E2041444332353138206F7363FF
:10022000696C61746F7253706565640A004F535254
:100230003A206C6F673273616D706C6573203E207D
:1002400037000A00256420004552524F523A204E92
:100250006F20414443204368616E6E656C7320617A
:1002600063746976650A000A5374616C6520507284
:1002700065737375726520496E7465726E616C206A
:100280004661756C742025640A000A5374616C65BC
:100290002050726573737572652052656164696E72
:1002A000672025640A000A53656E736F7220256407
:1002B00020696E2050726F6772616D6D696E672084
:1002C0004D6F64650A0077726974696E67207061AA
:1002D00067652030782530386C782C206279746519
:1002E00061646472203078253034780A0073706954
:1002F0005F466C6173685772697465546F506167CB
:10030000653A20466C617368206E6576657220726E
:10031000656164792061667465722064617461202E
:100320006C6F61640A007370695F466C6173685733
:1003300072697465546F506167653A20466C6173E9
:1003400068206E65766572207265616479206166E9
:100350007465722064617461206C6F61640A00735B
:1003600070695F466C6173685772697465546F5049
:100370006167653A20466C61736820776F6E2774F9
:1003800020656E61626C652077726974650A00731E
:1003900070695F466C6173685772697465546F5019
:1003A0006167653A20466C617368206E6576657298
:1003B000207265616479206166746572207061677E
:1003C0006520726561640A007370695F466C6173D1
:1003D000685772697465546F506167653A20466C5E
:1003E000617368206E657665722072656164790A52
:1003F000007370695F466C61736857726974655405
:100400006F506167653A2062756666657220637237
:100410006F73736573207061676520626F756E64BA
:100420006172792C206F6F62203D2025640A00578D
:10043000726974696E6720746F2030782530386C6B
:10044000783A2025730A007370695F466C6173689F
:1004500057726974653A20326E6420706167652056
:100460007772697465206661696C65640A007370EF
:10047000695F466C61736857726974653A20326EC1
:100480006420706167652061646472657373206DB8
:10049000617070696E67206661696C65640A0073DB
:1004A00070695F466C61736857726974653A203190
:1004B0007374207061676520777269746520666166
:1004C000696C65640A000A72656164696E6720661A
:1004D000726F6D20706167652030782530386C78D8
:1004E0002C20627974656164647220307825303420
:1004F000780A007370695F466C6173685265616465
:1005000046726F6D506167653A20466C6173682072
:100510006E657665722072656164792061667465C6
:1005200072207061676520726561640A007370698A
:100530005F466C6173685265616446726F6D5061AD
:1005400067653A20466C617368206E657665722037
:1005500072656164790A007370695F466C617368E3
:100560005265616446726F6D506167653A206275CD
:10057000666665722063726F73736573207061675E
:100580006520626F756E646172792C206F6F6220D6
:100590003D2025640A007370695F466C6173685280
:1005A0006561643A20326E6420706167652072650F
:1005B0006164206661696C65640A007370695F46F6
:1005C0006C617368526561643A20317374207061A4
:1005D00067652072656164206661696C65640A0004
:1005E0007370695F466C6173684572617365426CD4
:1005F0006F636B3A20577269746520646961736236
:100600006C65206661696C65640A007370695F4699
:100610006C6173684572617365426C6F636B3A20FD
:10062000466C617368206E657665722072656164E0
:100630007920616674657220626C6F636B206572ED
:100640006173650A007370695F466C617368457217
:10065000617365426C6F636B3A20466C617368200E
:10066000776F6E277420656E61626C6520777269A2
:1006700074650A007370695F466C617368457261E6
:100680007365426C6F636B3A20466C617368206ED1
:10069000657665722072656164790A007370695FBE
:1006A000466C6173684572617365426C6F636B3A47
:1006B0002041646472657373206578636565647353
:1006C00020617661696C61626C6520626C6F636B3E
:1006D000730A004920616D2074686520766572791F
:1006E000206D6F64656C206F662061206D6F64659E
:1006F000726E204D616A6F722D47656E6572616C16
:100700000A000000000000000000000000000000DF
:10071000004927766520696E666F726D6174696F36
:100720006E20766567657461626C652C20616E6908
:100730006D616C2C20616E64206D696E6572616CF8
:100740000A00000000000000000000000000004956
:10075000206B6E6F7720746865206B696E677320FD
:100760006F6620456E676C616E642C20616E64203C
:10077000492071756F7465207468652066696768C3
:1007800074730A0000000000000000000048697354
:10079000746F726963616C0A000000000000000061
:1007A0000000000000000000000000000000000049
:1007B0000000000000000000000000000000000039
:1007C000000000000000000000000046726F6D2075
:1007D0004D61726174686F6E20746F20576174652B
:1007E000726C6F6F2C20696E206F7264657220636B
:1007F000617465676F726963616C0A0000000000D4
:1008000000000000000000000049276D207665729E
:10081000792077656C6C206163717561696E7465B0
:10082000642C20746F6F2C2077697468206D61745C
:10083000746572730A0000000000000000000000F0
:10084000000000000000004D617468656D6174690E
:1008500063616C0A0000000000000000000000005E
:100860000000000000000000000000000000000088
:100870000000000000000000000000000000000078
:1008800000000000004920756E6465727374616E2B
:1008900064206571756174696F6E732C20626F746A
:1008A00068207468652073696D706C6520616E6482
:1008B00020717561647261746963616C0A00000083
:1008C00000000041626F75742062696E6F6D69612E
:1008D0006C207468656F72656D2049276D207465A2
:1008E000656D696E6720776974682061206C6F742C
:1008F000206F27206E6577730A000000000000005B
:100900000057697468206D616E792063686565724F
:1009100066756C2066616374732061626F75742004
:1009200074686520737175617265206F66207468E4
:10093000650A000000000000000000000000004800
:1009400079706F74656E7573650A000000000000B1
:100950000000000000000000000000000000000097
:100960000000000000000000000000000000000087
:100970000000000000000000000000000057697443
:1009800068206D616E7920636865657266756C209C
:1009900066616374732061626F757420746865208A
:1009A000737175617265206F66207468650A000056
:1009B00000000000000000000000004879706F7423
:1009C000656E7573650A00000000000000000000FD
:1009D0000000000000000000000000000000000017
:1009E0000000000000000000000000000000000007
:1009F00000000000000000000057697468206D616D
:100A00006E7920636865657266756C2066616374D3
:100A1000732061626F7574207468652073717561ED
:100A20007265206F66207468650A0000000000008F
:100A3000000000000000004879706F74656E7573E7
:100A4000650A000000000000000000000000000037
:100A50000000000000000000000000000000000096
:100A60000000000000000000000000000000000086
:100A7000000000000057697468206D616E79206382
:100A80006865657266756C20666163747320616267
:100A90006F75742074686520737175617265206F5D
:100AA00066207468650A0000000000000000000075
:100AB0000000004879706F7465706F74656E7573AF
:100AC000650A0000000000000000000000000000B7
:100AD0000000000000000000000000000000000016
:100AE0000000000000000000000000000000000006
:100AF0000049276D207665727920676F6F642061E9
:100B00007420696E74656772616C20616E64206424
:100B10006966666572656E7469616C2063616C6399
:100B2000756C75730A0000000000000000000049A9
:100B3000206B6E6F772074686520736369656E74CF
:100B400069666963206E616D6573206F66206265FA
:100B5000696E677320616E696D616C63756C6F752A
:100B6000730A0000000000000000000000496E2031
:100B700073686F72742C20696E206D617474657275
:100B80007320766567657461626C652C20616E699F
:100B90006D616C2C20616E64206D696E6572616C94
:100BA0000A000000000000000000004920616D20E4
:100BB0007468652076657279206D6F64656C206F4E
:100BC000662061206D6F6465726E204D616A6F7280
:100BD0002D47656E6572616C0A0000000000000020
:100BE000000000000000000000496E2073686F7272
:100BF000742C20696E206D61747465727320766543
:100C000067657461626C652C20616E696D616C2C26
:100C100020616E64206D696E6572616C0A0000006F
:100C200000000000000000486520697320746865BA
:100C30002076657279206D6F64656C206F66206127
:100C4000206D6F6465726E204D616A6F722D47650D
:100C50006E6572616C0A0000000000000000000078
:100C6000000000000049206B6E6F77206F757220C6
:100C70006D797468696320686973746F72792C2068
:100C80004B696E6720417274687572277320616EBC
:100C900064205369720A0000000000000000000098
:100CA00000000043617261646F6327730A000000F3
:100CB0000000000000000000000000000000000034
:100CC0000000000000000000000000000000000024
:100CD0000000000000000000000000000000000014
:100CE000004920616E7377657220686172642061CB
:100CF00063726F73746963732C2049277665206172
:100D00002070726574747920746173746520666FE5
:100D1000720A000000000000000000000000005007
:100D2000617261646F780A0000000000000000003A
:100D300000000000000000000000000000000000B3
:100D400000000000000000000000000000000000A3
:100D500000000000000000000000000000492071B9
:100D6000756F746520696E20656C65676961637372
:100D700020616C6C20746865206372696D657320F6
:100D80006F662048656C696F676162616C75730A94
:100D90000000000000000000000000496E20636FAA
:100DA0006E69637320492063616E20666C6F6F7299
:100DB00020706563756C6961726974696573207010
:100DC000617261626F6C6F75730A00000000000051
:100DD000000000000000000000492063616E2074E4
:100DE000656C6C20756E646F756274656420526109
:100DF000706861656C732066726F6D204765726103
:100E0000726420446F777320616E640A00000000F2
:100E1000000000000000005A6F6666616E6965732D
:100E20000A000000000000000000000000000000B8
:100E300000000000000000000000000000000000B2
:100E400000000000000000000000000000000000A2
:100E5000000000000049206B6E6F772074686520E9
:100E600063726F616B696E672063686F7275732060
:100E700066726F6D207468652046726F6773206FAD
:100E8000660A0000000000000000000000000000F2
:100E900000000041726973746F7068616E65730A57
:100EA0000000000000000000000000000000000042
:100EB0000000000000000000000000000000000032
:100EC0000000000000000000000000000000000022
:100ED000005468656E20492063616E2068756D203E
:100EE00061206675677565206F662077686963683D
:100EF00020492776652068656172642074686520E2
:100F00006D7573696327730A0000000000000044D8
:100F1000696E2061666F72650A00000000000000C3
:100F200000000000000000000000000000000000C1
:100F300000000000000000000000000000000000B1
:100F400000000000000000000000000000416E648E
:100F50002077686973746C6520616C6C20746865B7
:100F600020616972732066726F6D207468617420ED
:100F7000696E6665726E616C206E6F6E73656E73FE
:100F8000650A00000000000000000050696E616604
:100F90006F72650A00000000000000000000000001
:100FA0000000000000000000000000000000000041
:100FB0000000000000000000000000000000000031
:100FC000000000000000000000416E6420776869A6
:100FD00073746C6520616C6C207468652061697243
:100FE000732066726F6D207468617420696E666527
:100FF000726E616C206E6F6E73656E73650A0000B1
:101000000000000000000050696E61666F72650AA2
:1010100000000000000000000000000000000000D0
:1010200000000000000000000000000000000000C0
:1010300000000000000000000000000000000000B0
:101040000000000000416E642077686973746C656D
:1010500020616C6C2074686520616972732066720F
:101060006F6D207468617420696E6665726E616C64
:10107000206E6F6E73656E73650A000000000000DD
:1010800000000050696E61666F72650A0000000022
:101090000000000000000000000000000000000050
:1010A0000000000000000000000000000000000040
:1010B0000000000000000000000000000000000030
:1010C00000416E642077686973746C6520616C6C94
:1010D0002074686520616972732066726F6D207478
:1010E00068617420696E6665726E616C206E6F6EE9
:1010F00073656E73650A0000000000000000005078
:10110000696E6170696E61666F72650A0000000049
:1011100000000000000000000000000000000000CF
:1011200000000000000000000000000000000000BF
:10113000000000000000000000000000005468658E
:101140006E20492063616E2077726974652061208A
:1011500077617368696E672062696C6C20696E20C4
:10116000426162796C6F6E69632063756E65696652
:101170006F726D0A00000000000000416E64207470
:10118000656C6C20796F75206576277279206465AF
:101190007461696C206F662043617261637461637E
:1011A0007573277320756E69666F726D0A00000093
:1011B000000000000000000000496E2073686F729C
:1011C000742C20696E206D6174746572732076656D
:1011D00067657461626C652C20616E696D616C2C51
:1011E00020616E64206D696E6572616C0A0000009A
:1011F000000000000000004920616D207468652037
:1012000076657279206D6F64656C206F6620612051
:101210006D6F6465726E204D616A6F722D47656EE9
:101220006572616C0A000000000000000000000010
:101230000000000000496E2073686F72742C2069F2
:101240006E206D6174746572732076656765746174
:10125000626C652C20616E696D616C2C20616E641E
:10126000206D696E6572616C0A000000000000006C
:1012700000000048652069732074686520766572F7
:1012800079206D6F64656C206F662061206D6F64DE
:1012900065726E204D616A6F722D47656E65726171
:1012A0006C0A0000000000000000000000000000C8
:1012B00000496E20666163742C207768656E204952
:1012C000206B6E6F772077686174206973206D657D
:1012D000616E7420627920276D616D656C6F6E2779
:1012E00020616E640A00000000000000000000277A
:1012F000526176656C696E270A00000000000000EC
:1013000000000000000000000000000000000000DD
:1013100000000000000000000000000000000000CD
:101320000000000000000000000000000057686599
:101330006E20492063616E2074656C6C206174209E
:1013400073696768742061204D61757365722072DE
:1013500069666C652066726F6D2061206A617665D2
:101360006C696E0A000000000000005768656E207E
:1013700073756368206166666169727320617320AA
:10138000736F727469657320616E64207375727017
:1013900072697365732049276D206D6F72650A004D
:1013A00000000000000000000057617279206174A5
:1013B0000A00000000000000000000000000000023
:1013C000000000000000000000000000000000001D
:1013D000000000000000000000000000000000000D
:1013E00000000000000000416E64207768656E20F8
:1013F00049206B6E6F7720707265636973656C79D5
:101400002077686174206973206D65616E74206255
:10141000790A000000000000000000000000000049
:10142000000000000027436F6D6D6973736172697E
:101430006174270A000000000000000000000000A6
:10144000000000000000000000000000000000009C
:10145000000000000000000000000000000000008C
:101460000000005768656E20492068617665206C31
:101470006561726E7420776861742070726F677234
:1014800065737320686173206265656E206D6164A9
:101490006520696E0A0000000000000000000000E6
:1014A000004D6F6465726E2067756E6E6572790AA5
:1014B000000000000000000000000000000000002C
:1014C000000000000000000000000000000000001C
:1014D00000000000000000000000000000000057B5
:1014E00068656E2049206B6E6F77206D6F72652086
:1014F0006F662074616374696373207468616E2021
:1015000061206E6F7669636520696E2061206E755B
:101510006E6E6572790A00000000000000496E20BE
:1015200073686F72742C207768656E204927766522
:10153000206120736D6174746572696E67206F66D7
:1015400020656C656D656E74616C20737472617476
:101550006567790A00000000000000596F75276C6C
:101560006C20736179206120626574746572204D0E
:10157000616A6F722D47656E6572616C2068616487
:10158000206E6576657220736174206120676565E1
:101590000A0000000000000000596F75276C6C20E5
:1015A000736179206120626574746572204D616A8F
:1015B0006F722D47656E6572616C20686164206E84
:1015C00065766572207361742061206765650A0025
:1015D00000000000000000596F75276C6C207361DB
:1015E00079206120626574746572204D616A6F7242
:1015F0002D47656E6572616C20686164206E65764A
:101600006572207361742061206765650A000000BF
:101610000000000000596F75276C6C207361792001
:101620006120626574746572204D616A6F722D4726
:10163000656E6572616C20686164206E65766572A6
:101640002073617420612073617420610A000000BE
:101650000000004765650A0000000000000000006F
:10166000000000000000000000000000000000007A
:10167000000000000000000000000000000000006A
:10168000000000000000000000000000000000005A
:1016900000466F72206D79206D696C697461727992
:1016A000206B6E6F776C656467652C2074686F754E
:1016B00067682049276D20706C75636B7920616EB7
:1016C000640A00000000000000000000000000416B
:1016D0006476656E747572790A000000000000007F
:1016E00000000000000000000000000000000000FA
:1016F00000000000000000000000000000000000EA
:1017000000000000000000000000000000486173BD
:10171000206F6E6C79206265656E2062726F7567EE
:10172000687420646F776E20746F2074686520621F
:101730006567696E6E696E67206F66207468650AFA
:10174000000000000000000000000043656E74759A
:1017500072790A0000000000000000000000000094
:101760000000000000000000000000000000000079
:101770000000000000000000000000000000000069
:1017800000000000000000000042757420737469BE
:101790006C6C2C20696E206D617474657273207698
:1017A0006567657461626C652C20616E696D616C42
:1017B0002C20616E64206D696E6572616C0A000098
:1017C000000000000000004920616D207468652061
:1017D00076657279206D6F64656C206F662061207C
:1017E0006D6F6465726E204D616A6F722D47656E14
:1017F0006572616C0A00000000000000000000003B
:101800000000000000427574207374696C6C2C2019
:10181000696E206D61747465727320766567657496
:1018200061626C652C20616E696D616C2C20616E4B
:1018300064206D696E6572616C0A00000000000032
:101840000000004865206973207468652076657221
:1018500079206D6F64656C206F662061206D6F6408
:1018600065726E204D616A6F722D47656E6572619B
:101870006C0A0000000000000000000000000000F2
:10188000000011241FBECFEFD1E2DEBFCDBF00E0CC
:101890000CBF19E0A0E0B2E0EEE9FDE500E00BBF0F
:1018A00002C007900D92A03BB107D9F72AE0A0EB48
:1018B000B9E001C01D92A83EB207E1F70E94FA24E8
:1018C0000C94CD2E0C940000CF93DF93CDB7DEB7F0
:1018D0002A970FB6F894DEBF0FBECDBF8091C20A23
:1018E000813409F046C08091C30A833719F40E94FD
:1018F00069152AC08091C30A8D3619F40E94D1154A
:1019000023C08091C30A833631F48091C40A805386
:101910000E94D51519C08091C30A8F3631F4809189
:10192000C40A80530E94A4150FC08091C30A8C364C
:1019300021F481E00E94B51507C08091C30A883662
:1019400019F480E00E94B51582EC9AE0892F8F93FC
:1019500082EC9AE08F938FE092E0892F8F938FE053
:1019600092E08F930E94002E0F900F900F900F9097
:101970005AC28091C20A803719F40E94781853C263
:101980008091C20A803519F40E946A184CC268E13D
:1019900072E082EC9AE00E949F2D892B19F40E943C
:1019A000861841C28091C20A8D3419F40E94902297
:1019B0003AC28091C20A823339F483EC9AE00E94E1
:1019C0008F2C0E94A7222FC28091C20A823571F407
:1019D0008091C30A833511F40E9494188091C30A40
:1019E000823509F020C20E94A9181DC28091C20A46
:1019F000823719F40E941F2016C28091C20A8136D4
:101A0000B1F48091C30A813619F40E9436160BC2D4
:101A10008091C30A833719F40E94391704C2809158
:101A2000C30A843609F0FFC10E940E17FCC18091E1
:101A3000C20A863409F04FC00E94481A8091C30A36
:101A4000873711F4FAD1EFC18091C30A893619F4AE
:101A50000E94FB19E8C18091C30A823711F463D256
:101A6000E2C18091C30A813611F4E6D2DCC18091D3
:101A7000C30A853611F4D3D2D6C18091C30A853703
:101A800019F40E94471BCFC18091C30A833719F410
:101A90000E94C21AC8C18091C30A883719F40E94F3
:101AA0000F20C1C18091C30A843711F4B1D3BBC1E7
:101AB0008091C30A813311F4DCD4B5C18091C30A8B
:101AC000823311F434D6AFC18091C30A833309F055
:101AD000AAC1F1D6A8C18091C20A8636E9F48091E4
:101AE000C30A833719F40E9462219DC18091C30A01
:101AF000893619F40E94CA2196C18091C30A8A3698
:101B000019F40E94F9218FC18091C30A853609F02A
:101B10008AC10E945D2187C18091C20A8337F9F48E
:101B200080910002882F90E00E943C228091000268
:101B300091E0980F90930002882F90E0292F2F9327
:101B40008F938CE192E0892F8F938CE192E08F93B9
:101B50000E94002E0F900F900F900F9064C1809103
:101B6000C20A8E3619F40E9448225DC18091C20AD1
:101B7000833619F40E94652056C18091C20A8536C9
:101B800091F58091C30A803341F08091C30A81337B
:101B900021F08091C30A843331F40E947B1983E2DF
:101BA00092E00E943F2E8091C30A823331F40E945A
:101BB000871980E492E00E943F2E8091C30A83330C
:101BC00031F40E948F1984E592E00E943F2E8091AB
:101BD000C30A853309F027C10E9497198BE692E06A
:101BE0000E943F2E20C18091C20A843651F5809117
:101BF000C30A803331F40E94811982E892E00E9486
:101C00003F2E8091C30A823331F40E948B1980EAFF
:101C100092E00E943F2E8091C30A833331F40E94E8
:101C2000931985EB92E00E943F2E8091C30A853381
:101C300009F0F9C00E949D198DEC92E00E943F2EA0
:101C4000F2C08091C20A8F3641F58091C30A882F75
:101C500090E0AC01405351092FEF31E0429FC001A9
:101C6000439F900D529F900D11249A8389838981FF
:101C70009A810E9439218A818F9389818F9385EE81
:101C800092E0892F8F9385EE92E08F930E94002E31
:101C90000F900F900F900F90C6C08091C20A8F34A2
:101CA00041F58091C30A80538B838B81883008F083
:101CB000BAC08091C40A882F90E0805D9F459D83C3
:101CC0008C838C819D81BC018B810E9402218D813E
:101CD0008F938C818F938CEE92E0892F8F938CEE73
:101CE00092E08F930E94002E0F900F900F900F9014
:101CF0009AC08091C20A823659F585EF92E00E941F
:101D00003F2E8091C30A882F90E0C097AC012FEF3F
:101D100031E0429FC001439F900D529F900D1124CE
:101D20009F838E838E819F810E944B218F818F9311
:101D30008E818F9385EE92E0892F8F9385EE92E0CE
:101D40008F930E94002E0F900F900F900F906BC0FA
:101D50008091C20A823489F58091C30A80538887B2
:101D60008885883008F05FC08091C40A882F90E091
:101D7000C097AC012FEF31E0429FC001439F900D0F
:101D8000529F900D11249A87898789859A85BC0175
:101D900088850E94CB208A858F9389858F9385EED5
:101DA00092E0892F8F9385EE92E08F930E94002E10
:101DB0000F900F900F900F9036C08091C20A873716
:101DC00069F48091C30A813311F40E94A3198091B0
:101DD000C30A803341F50E94A71925C08091C20A29
:101DE0008D3669F48091C30A813311F40E94EF1992
:101DF0008091C30A8033B9F40E94F51914C082ECB3
:101E00009AE0892F8F9382EC9AE08F9389EF92E08A
:101E1000892F8F9389EF92E08F930E94002E0F906D
:101E20000F900F900F9000002A960FB6F894DEBF27
:101E30000FBECDBFDF91CF910895CF93DF93CDB784
:101E4000DEB7C25DD1090FB6F894DEBF0FBECDBFBD
:101E500086E093E098878F83CE010B969A878987D7
:101E600019821A821B821C821D824EC01E8224C0CF
:101E70008E81282F30E09E818DEC989F812D11243A
:101E8000869586958695880F482F440F440F840FBA
:101E9000492F481B842F882F90E04F815885840F4D
:101EA000951FFC014081CE010B96820F931FFC0110
:101EB00040838E818F5F8E838E81883CC8F24985F6
:101EC0005A8589819A81AB81BC8128ECBC01CD0106
:101ED0000E94551D883C49F086EE91E0292F2F93F2
:101EE0008F930E94132E0F900F9089819A81AB815E
:101EF000BC8188539F4FAF4FBF4F89839A83AB8379
:101F0000BC838D818F5F8D838D818A3008F4AECF45
:101F10000000CE52DF4F0FB6F894DEBF0FBECDBF2C
:101F2000DF91CF910895CF93DF93CDB7DEB7C15D39
:101F3000D1090FB6F894DEBF0FBECDBFCE01099612
:101F400098878F8319821A821B821C8281E193E019
:101F50000E943F2E1D8254C01E820DC08E81882F8C
:101F600090E09E01275F3F4F820F931FFC0110827C
:101F70008E818F5F8E838E81883C80F38D81882F48
:101F800090E0292F2F938F9385E293E0892F8F93F1
:101F900085E293E08F930E94002E0F900F900F9098
:101FA0000F904F81588589819A81AB81BC8128EC43
:101FB000BC01CD010E94F71E883C51F08AEF91E0F0
:101FC000292F2F938F930E94132E0F900F9009C0EB
:101FD000CE018F529F4FFC011082CE0109960E94C4
:101FE0003F2E89819A81AB81BC8188539F4FAF4F2F
:101FF000BF4F89839A83AB83BC838D818F5F8D8331
:102000008D818A3008F4A8CF0000CF52DF4F0FB681
:10201000F894DEBF0FBECDBFDF91CF910895CF936F
:10202000DF93CDB7DEB760E070E0CB010E94961F72
:102030000000DF91CF910895EF920F93CF93DF933C
:10204000CDB7DEB76A970FB6F894DEBF0FBECDBF2F
:102050001A821982CBC089819A810024969587952E
:102060000794969587950794982F802DCC01A0E032
:10207000B0E08B839C83AD83BE8389819A810024E9
:10208000969587950794969587950794982F802D18
:10209000CC01A0E0B0E08B839C83AD83BE8388C07D
:1020A0008E818F938D818F938C818F938B818F9372
:1020B0008A818F9389818F9381E393E0892F8F9316
:1020C00081E393E08F930E94002E8DB79EB7089610
:1020D0000FB6F894DEBF0FBECDBF18861F8257C063
:1020E0009E01255F3F4F4F8158858B819C81AD813B
:1020F000BE81E12C00E1BC01CD010E942B1E80318C
:1021000091F088858F938F818F9388E493E0892F56
:102110008F9388E493E08F930E94002E0F900F908E
:102120000F900F902DC01A86198626C09E01255F3C
:102130003F4F89859A85820F931FFC0180818823F8
:10214000B1F429853A858F819885820F931F292FB5
:102150002F938F938CE593E0892F8F938CE593E0F9
:102160008F930E94002E0F900F900F900F908985F3
:102170009A8501969A87898789859A854097B4F2CE
:102180000E940F208F819885409698878F838F813A
:1021900098858115984008F4A3CF8B819C81AD81EF
:1021A000BE810196A11DB11D8B839C83AD83BE832F
:1021B00089819A81002496958795079496958795AD
:1021C0000794982F802D01969C0140E050E08B8170
:1021D0009C81AD81BE8182179307A407B50708F4DF
:1021E0005FCF89819A8101969A83898389819A81B7
:1021F0008115984008F42FCF00006A960FB6F89426
:10220000DEBF0FBECDBFDF91CF910F91EF9008954C
:10221000EF920F931F93CF93DF93CDB7DEB7C055E7
:10222000D1090FB6F894DEBF0FBECDBF1A82198256
:102230001C861B868B859C85CC01A0E0B0E0072E18
:1022400071E1880F991FAA1FBB1F7A95D1F7702DD6
:102250008B839C83AD83BE8318861F825FC02F81D2
:10226000CE010D96BC01822F0E942A25CE010D962B
:102270000E94A82D282FAE01435F5F4F8B819C8168
:10228000AD81BE81BC01CD010E94551D082F10E01B
:10229000CE010D960E94A82D08171907E9F48F8129
:1022A0000E9436259C0189819A81820F931F9A830F
:1022B00089838F810E943625CC01A0E0B0E02B817C
:1022C0003C814D815E81820F931FA41FB51F8B83BC
:1022D0009C83AD83BE831DC088858F938F818F9330
:1022E0008E818F938D818F938C818F938B818F9330
:1022F00083E793E0892F8F9383E793E08F930E9486
:10230000002E8DB79EB708960FB6F894DEBF0FBEAD
:10231000CDBF8F819885019698878F830E9428254D
:10232000282F30E08F819885821793070CF497CF80
:102330008B859C85CC01A0E0B0E0072E71E1880F71
:10234000991FAA1FBB1F7A95D1F7702D8B839C8391
:10235000AD83BE831A86198676C09E01215B3F4FEE
:10236000AE01455B5F4F8B819C81AD81BE81BC011D
:10237000CD010E94C11CCE01815B9F4FFC014081B9
:102380005181CE01855B9F4FFC0180819181A281AB
:10239000B3819E01235F3F4FE12C00E1BC01CD01E1
:1023A0000E942B1E803109F51D8ECE010D96292F1E
:1023B0002F938F9380E793E0892F8F9380E793E0AB
:1023C0008F930E94002E0F900F900F900F908B8193
:1023D0009C81AD81BE814096A11DB11D8B839C83E4
:1023E000AD83BE830E940F2029C0CE01815B9F4F29
:1023F000FC0120813181CE01855B9F4FFC018081F2
:102400009181A281B381432F4F932F932B2F2F9331
:102410002A2F2F93292F2F938F938BE993E0892FC6
:102420008F938BE993E08F930E94002E8DB79EB718
:1024300008960FB6F894DEBF0FBECDBF89859A858A
:1024400040969A87898729853A8589819A812817B4
:10245000390708F482CF0000C05BDF4F0FB6F89455
:10246000DEBF0FBECDBFDF91CF911F910F91EF90D7
:102470000895EF920F93CF93DF93CDB7DEB7AA976E
:102480000FB6F894DEBF0FBECDBF85E090E0988711
:102490008F831C821B8263C01A8219820EC09E0128
:1024A000255F3F4F89819A81820F931FFC01108223
:1024B00089819A8101969A83898389819A818097FB
:1024C00074F38F8198859C01002436952795079495
:1024D000369527950794322F202D8B819C81820F72
:1024E000931FCC01A0E0B0E09E01255F3F4FE12C9F
:1024F00000E240E050E0BC01CD010E942B1E1A8298
:10250000198220C09E01255F3F4F89819A81820FE9
:10251000931FFC018081882F90E0292F2F938F93A8
:1025200088EC93E0892F8F9388EC93E08F930E943F
:10253000002E0F900F900F900F9089819A81019635
:102540009A83898389819A818097E4F28AE090E076
:102550000E943A2E8B819C8101969C838B838B8178
:102560009C8108970CF498CF1A8219820FC09E01A3
:10257000255F3F4F89819A81820F931F21E3FC01E0
:10258000208389819A8101969A83898389819A819E
:1025900040976CF31A82198223C08F8198859C0121
:1025A0000024369527950794369527950794322F62
:1025B000202D89819A81820F931FCC01A0E0B0E089
:1025C0009E01255F3F4FE12C00E140E050E0BC015F
:1025D000CD010E949C1B89819A8101969A838983EF
:1025E00089819A810597CCF28FEF9FEF9E838D832F
:1025F00089C08D819E812F813885820F931F9A8794
:1026000089878A858F9389858F938EEC93E0892FB4
:102610008F938EEC93E08F930E94002E0F900F907B
:102620000F900F901C821B8263C01A8219820EC009
:102630009E01255F3F4F89819A81820F931FFC0184
:10264000108289819A8101969A83898389819A81EE
:10265000809774F38F8198859C0100243695279587
:102660000794369527950794322F202D8B819C81D6
:10267000820F931FCC01A0E0B0E09E01255F3F4F89
:10268000E12C00E240E050E0BC01CD010E942B1E95
:102690001A82198220C09E01255F3F4F89819A814D
:1026A000820F931FFC018081882F90E0292F2F93A8
:1026B0008F9388EC93E0892F8F9388EC93E08F932E
:1026C0000E94002E0F900F900F900F9089819A8199
:1026D00001969A83898389819A818097E4F28AE0BE
:1026E00090E00E943A2E8B819C8101969C838B8383
:1026F0008B819C8108970CF498CF8D819E810196E7
:102700009E838D838D819E8102970CF472CF88ED1C
:1027100093E00E943F2E0000AA960FB6F894DEBF09
:102720000FBECDBFDF91CF910F91EF900895EF9243
:102730000F93CF93DF93CDB7DEB7A8970FB6F8947A
:10274000DEBF0FBECDBF1D821E821F8218861C8277
:102750001B8263C01A8219820EC09E01275F3F4F01
:1027600089819A81820F931FFC01108289819A814D
:1027700001969A83898389819A81809774F34B812A
:102780005C819E01275F3F4F8D819E81AF81B8851F
:10279000E12C00E2BC01CD010E942B1E8C818F93A5
:1027A0008B818F9388858F938F818F938E818F9369
:1027B0008D818F938AED93E0892F8F938AED93E03B
:1027C0008F930E94002E8DB79EB708960FB6F8948F
:1027D000DEBF0FBECDBF1A82198212C09E01275FD5
:1027E0003F4F89819A81820F931FFC018081882F3E
:1027F00090E00E943A2E89819A8101969A8389837A
:1028000089819A81809754F38AE090E00E943A2E61
:102810008B819C8180969C838B838B819C8181158D
:1028200098400CF497CF0000A8960FB6F894DEBF3E
:102830000FBECDBFDF91CF910F91EF900895CF9351
:10284000DF9300D0CDB7DEB79A8389836B83109274
:10285000000222C080910002882F90E029813A81F5
:10286000820F931FFC018081082E000C990B292FE9
:102870002F938F9388EC93E0892F8F9388EC93E0CC
:102880008F930E94002E0F900F900F900F908091C9
:1028900000028F5F80930002809100028032D0F2AC
:1028A0008AE090E00E943A2E00000F900F900F9067
:1028B000DF91CF910895EF920F93CF93DF93CDB730
:1028C000DEB7EA970FB6F894DEBF0FBECDBF87E044
:1028D00090E0A0E0B0E089839A83AB83BC831E8242
:1028E0001D8280E1EDE0F4E0DE019B9601900D9207
:1028F0008A95E1F789819A81AB81BC819C01AD0108
:10290000012E1BE0220F331F441F551F1A95D1F7CC
:10291000102D8D819E81CC01A0E0B0E0820F931F2D
:10292000A41FB51F8F839887A987BA879E01255F4B
:102930003F4F4D815E8189819A81AB81BC81E12CC1
:1029400000E2BC01CD010E942B1E86EF93E0892F8F
:102950008F9386EF93E08F930E94002E0F900F903D
:10296000CE010B9660E26BDF0DD691D60E940F2050
:102970009E01255D3F4F4D815E8189819A81AB81AA
:10298000BC81E12C00E1BC01CD01D6D6FBD50E9473
:102990000F209E01255F3F4F4D815E8189819A8185
:1029A000AB81BC81E12C00E2BC01CD010E942B1E59
:1029B000E9D50E940F2081E094E0892F8F9381E078
:1029C00094E08F930E94002E0F900F90CE010B96F3
:1029D00060E235DF0000EA960FB6F894DEBF0FBE66
:1029E000CDBFDF91CF910F91EF9008951F920F927D
:1029F0000FB60F9211240F900FBE0F901F901895D5
:102A00001F920F920FB60F9211242F938F939F93C3
:102A10008FB78F778FBF88B1805888B98091B409FC
:102A20009091B50901969093B5098093B40980916E
:102A3000B4099091B5098115924019F481E0809311
:102A4000B2098091B4099091B50981159440A8F01C
:102A50008091B4099091B50994509093B5098093F1
:102A6000B40981E08093B3098091B0099091B109D4
:102A700001969093B1098093B00978949F918F91BA
:102A80002F910F900FBE0F901F9018958CE295E03C
:102A90000E943F2E80E88093610082E08093B00026
:102AA00084E08093B10080EE8093B3001092B20076
:102AB000E0E7F0E08081826080830895E7DF80ECCA
:102AC00080936A0080E88DBB80E495E00C943F2EF3
:102AD000089560E080E0CDD31F928F938CE595E060
:102AE0009F938F930E94002E0F900F900F900F9046
:102AF0000895CF93DF93D82FC62F883010F462301B
:102B000040F08EE695E09F938F930E94002E0F90E9
:102B10000F90CC2331F061E001C0660FDA95EAF73F
:102B200001C060E08BE096D3DF91CF91089560E41F
:102B300085E090D360E487E08DD360E489E08AD3B8
:102B400060E086E0D6CF0895CF93C82F883040F05C
:102B50008DE292E09F938F930E94132E0F900F901F
:102B60006C2F83E077D3CF910895CF93C82F60E087
:102B700084E07FD3C11103C0682F6F7E0EC0C130C7
:102B800019F4682F606109C08DE092E09F938F93E4
:102B90000E94132E0F900F9002C084E05BD3CF9160
:102BA000089560E080E156C308951F93CF93DF93AB
:102BB000182F682F81E175D3D82FC92F282F392FCF
:102BC000A0E5B3EC0E94582C0E94C42720E030E01E
:102BD00040E859E30E9428280E9496277F936F932C
:102BE000CF93DF931F921F9385E895E09F938F9378
:102BF0000E94002E8DB79EB708960FB6F8949EBF20
:102C00000FBE8DBF8D2F9C2FDF91CF911F91089507
:102C1000CF93DF93C82F20E013C0CF5FCF702091F8
:102C2000300A3091310A81E090E00C2E02C0880F0A
:102C3000991F0A94E2F7822393232D2F892B21F4E5
:102C4000D1E0D20F213148F3D13141F488E492E050
:102C50009F938F930E94132E0F900F90D13111F0FC
:102C60008C2F01C08FEFDF91CF910895CF93C0E0FB
:102C70001DC02091300A3091310A81E090E00C2E85
:102C800002C0880F991F0A94E2F782239323892BAD
:102C900061F01F92CF9384E492E09F938F930E9400
:102CA000132E0F900F900F900F90CF5FC03108F34D
:102CB00082E492E09F938F930E94132EE0E3FAE068
:102CC00081818F9380818F9386EA95E09F938F9384
:102CD0000E94002E0F900F900F900F900F900F906A
:102CE000CF91089595DFECE7F0E09081907E90839E
:102CF0009081282F2770922B908383FF06C0EBE7EB
:102D0000F0E09081986090830895EBE7F0E0908187
:102D1000977F908308951F920F920FB60F92112400
:102D20000BB60F922F933F934F935F936F937F93C5
:102D30008F939F93AF93BF93EF93FF93209178006E
:102D40004091B809642F042E000C770BFB01EE0FA5
:102D5000FF1FE554F64F80819181DC01A20FB11D68
:102D60009D01B183A083A9E7B0E09C91892F90E0F9
:102D7000982F8827820F931F918380833C912C91F9
:102D80009F938F931F923F931F922F937F934F9305
:102D90008BEB95E09F938F930E94002E8091B80952
:102DA000A1DF8093B8099091B9092DB73EB7265F8E
:102DB0003F4F0FB6F8943EBF0FBE2DBF891312C010
:102DC0008091B6099091B70901969093B7098093C5
:102DD000B609019739F481E08093BA091092B709D6
:102DE0001092B6098091BA09811105C0EAE7F0E0B6
:102DF000808180648083FF91EF91BF91AF919F911B
:102E00008F917F916F915F914F913F912F910F9093
:102E10000BBE0F900FBE0F901F901895CF93C091CF
:102E2000B9098AE090E00E943A2E8C2F0C2E000CFB
:102E3000990BFC01EE0FFF1FE554F64F81818F9334
:102E400080818F939F93CF938FEC95E09F938F9387
:102E50000E94002E8C2FDCDEC82F8091B9090F90C4
:102E60000F900F900F900F900F90C813DACFCF9163
:102E700008951092BA098091B909E82FEE0FFF0B5F
:102E8000E554F64F11821082C3DE9091B90989137F
:102E9000F4CFEAE7F0E080818064808308958FE0DA
:102EA00021DF8093B8098093B9098F3F71F0EAE779
:102EB000F0E08081806480838FE880838FEF80934F
:102EC0007E0080937F00D5CF08958AED95E09F9393
:102ED0008F930E94132E0F900F9008958091EC090C
:102EE0001F928F9381EF95E09F938F930E94002E06
:102EF0000F900F900F900F900895CF92DF92FF9256
:102F00000F931F93CF93DF93CDB7DEB72A970FB6FA
:102F1000F894DEBF0FBECDBF19821A821B821C82BD
:102F2000F92EC92ED12C1F929F9308E016E01F9313
:102F30000F930E94002E8F2D0E94A7221F92FF92B6
:102F40001F930F930E94002E44E050E0BE016F5F7C
:102F50007F4F88E20E941C248981982F9295969534
:102F6000969593700FB6F894DEBF0FBECDBFC9F132
:102F7000913089F431E0C31AD108DF92CF9286EA0A
:102F800092E09F938F930E94132E0F900F900F90BB
:102F90000F9081E04EC0923089F481E0C81AD108C8
:102FA000DF92CF928AE892E09F938F930E94132E34
:102FB0000F900F900F900F9081E03BC09330C1F5C0
:102FC00021E0C21AD108DF92CF9287E692E09F9368
:102FD0008F930E94132E0F900F900F900F9081E00F
:102FE00028C08F7390E0982F88272A81820F911D27
:102FF0002B8130E0220F331F220F331F220F331F8C
:103000004C81429546954770240F311D3F932F9375
:103010009F938F938AE196E09F938F930E94002E57
:103020000F900F900F900F900F900F9080E001C0C5
:1030300081E02A960FB6F894DEBF0FBECDBFDF91B8
:10304000CF911F910F91FF90DF90CF900895CF9374
:10305000E7EEF9E0C1E0C48382E085833FDFE1EE83
:10306000F9E0C5831482EBEDF9E083E08583C48346
:103070004091E7095091E8096091E9097091EA09E6
:103080008091EB099091EC0938DF83E098E4FC0132
:103090003197F1F7FC013197F1F7FC013197F1F726
:1030A000FC013197F1F7FC013197F1F7FC01319701
:1030B000F1F70197F1F74091E1095091E209609130
:1030C000E3097091E4098091E5099091E60915DF23
:1030D000CF9108954091E7095091E8096091E9097D
:1030E0007091EA098091EB099091EC0906CF08955F
:1030F0004091E1095091E2096091E3097091E4097E
:103100008091E5099091E609F8CE08954091DB0998
:103110005091DC096091DD097091DE098091DF0931
:103120009091E009EACE089540E060E070E087E227
:103130000E94A523892B41F481E08093ED0981E26F
:1031400096E00C943F2E089589E396E00C943F2E70
:103150000895CF92DF92EF92FF92CF93DF9300D04A
:103160001F92CDB7DEB719821A821B821C82809112
:10317000ED09882309F463C01092ED0944E050E0A2
:10318000BE016F5F7F4F87E20E941C24892B29F0CC
:1031900089E396E00E943F2E52C0A9818A2F829532
:1031A00086958695837029F08BE496E00E943F2EE9
:1031B00046C0AF73B0E0BA2FAA278A81A82B28EEA9
:1031C00033E00E94672C0F2EFEEFCF2EFFE3DF2EA1
:1031D000E12CF12CF02DA70196010E943C2C5F936D
:1031E0004F933F932F938BE596E09F938F930E948D
:1031F000002EAB8180E4A89FD00111248C8186959C
:103200008695A82B24E730E40E94672CA70196013D
:103210000E943C2CDA01C901805A9F40A109B109E2
:10322000BF93AF939F938F938BE796E09F938F937A
:103230000E94002E0FB6F894DEBF0FBECDBF0F90D8
:103240000F900F900F90DF91CF91FF90EF90DF9054
:10325000CF900895CF93DF93D82FC62F90D088E0DA
:103260005AD78D2F58D78C2F56D78FD0DF91CF912B
:103270000895CF93DF93D82FC62F81D080E14BD70D
:103280008D2F49D78C2F47D780D079D080E143D775
:10329000C82F80E040D780E03ED78C2FDF91CF91C0
:1032A00008950F931F93CF93DF93082F162F67D0A6
:1032B00088E031D790E0C92FD82F802F2CD7C80FA6
:1032C000D11D812F28D7182F60D01F921F93DF9315
:1032D000CF938CE996E09F938F930E94002E0F90DE
:1032E0000F900F900F900F900F90CE01DF91CF9124
:1032F0001F910F91089561E070E086E090E0F9CBB6
:10330000089560E070E086E090E0F3CB089584B328
:10331000816084BB089584B38E7F84BB089584B399
:10332000826084BB089584B38D7F84BB0895EBE0F5
:10333000F1E08081806880830895EBE0F1E0808196
:103340008F77808308958EB18B7F8EB908958EB16B
:1033500084608EB9089585B18E7F85B9089585B151
:10336000816085B90895E2E0F1E080818E7F8083FD
:103370000895E2E0F1E08081816080830895E2E0D9
:10338000F1E080818D7F80830895E2E0F1E080812B
:10339000826080830895E2E0F1E080818B7F80830A
:1033A0000895E2E0F1E08081846080830895E2E0A6
:1033B000F1E08081877F80830895E2E0F1E0808101
:1033C000886080830895E2E0F1E0808180618083FD
:1033D0000895E2E0F1E080818F7E80830895E2E04D
:1033E000F1E08081806280830895E2E0F1E08081F5
:1033F0008F7D80830895CF93DF9300D01F921F921B
:10340000CDB7DEB719821B821A821D821C823FD182
:1034100089810F900F900F900F900F90DF91CF91B7
:103420000895CF93DF9300D000D0CDB7DEB79E8351
:103430008D834D815E8128EE33E0429FC001439F22
:10344000900D529F900D1124CC01A0E0B0E0898333
:103450009A83AB83BC83000089819A81AB81BC8154
:103460009C01AD01215031094109510929833A8359
:103470004B835C83892B8A2B8B2B71F7000026965C
:103480000FB6F894DEBF0FBECDBFDF91CF91089588
:10349000CF93DF931F921F92CDB7DEB788DF8FE9FE
:1034A0003AD680E038D680E036D6898380E033D6BD
:1034B0008A8383DF8A81282F30E08981882F90E0FA
:1034C000432F4F932F93292F2F938F938BE794E0C4
:1034D000892F8F938BE794E08F930E94002E0F909B
:1034E0000F900F900F900F900F9000000F900F9083
:1034F000DF91CF910895CF93DF931F921F92CDB7A5
:10350000DEB784EF91E09A83898308C081E090E080
:1035100088DF89819A8101979A83898312D08823D1
:1035200021F089819A81892B89F721E089819A810B
:10353000892B09F420E0822F0F900F90DF91CF911B
:103540000895CF93DF931F921F92CDB7DEB71982F4
:1035500010D08A838A81882F90E081789927892BDF
:1035600011F081E0898389810F900F90DF91CF91D5
:103570000895CF93DF93CDB7DEB780EC5BD0DF91BA
:10358000CF910895CF93DF93CDB7DEB780EA52D0C5
:10359000882F90E0292F2F938F938CE894E0892F28
:1035A0008F938CE894E08F930E94002E0F900F90E1
:1035B0000F900F9080EB3ED0882F90E0292F2F9313
:1035C0008F9388EA94E0892F8F9388EA94E08F9311
:1035D0000E94002E0F900F900F900F9080EC2AD039
:1035E000882F90E0292F2F938F9384EC94E0892FDC
:1035F0008F9384EC94E08F930E94002E0F900F9095
:103600000F900F9080ED16D0882F90E0292F2F93E8
:103610008F9380EE94E0892F8F9380EE94E08F93C8
:103620000E94002E0F900F900F900F900000DF91DE
:10363000CF910895CF93DF931F921F92CDB7DEB73E
:103640008A83B5DE8FE067D58A8165D580E063D552
:103650008983B3DE89810F900F90DF91CF91089518
:10366000CF93DF931F921F92CDB7DEB789836A8312
:103670009EDE8FE150D589814ED58A814CD59DDE65
:103680008981D8DF0F900F90DF91CF910895CF936C
:10369000DF931F92CDB7DEB760E080EAE1DF80EA1A
:1036A000C9DF89838981882F90E0292F2F938F93F9
:1036B0008CEF94E0892F8F938CEF94E08F930E948E
:1036C000002E0F900F900F900F9000000F90DF9141
:1036D000CF910895CF93DF931F92CDB7DEB767DE0A
:1036E00086E019D56ADE45DF89838981882F90E0DD
:1036F0008270992721E0892B09F420E0822F0F9016
:10370000DF91CF910895CF93DF931F92CDB7DEB7AE
:103710004EDE84E000D551DE2CDF89838981882F3D
:1037200090E08270992721E0892B09F020E0822F18
:103730000F90DF91CF910895EF920F93CF93DF9386
:10374000CDB7DEB764970FB6F894DEBF0FBECDBF1E
:103750006B877C878D879E87588B4F873A8B298B09
:103760000B8BEC8A1A82198280E098E09C838B8311
:1037700086EC92E028892F932F852F932E852F9307
:103780002D852F932C852F932B852F93292F2F93C6
:103790008F930E94132E8DB79EB708960FB6F8949C
:1037A000DEBF0FBECDBF8C89882321F080E898E072
:1037B0009C838B838B89282F30E08F859889280FF5
:1037C000391F8B819C818217930708F4BDC093DE5B
:1037D000882309F4AFC07EDF882309F4A1C08F8558
:1037E00098899F838E838B859C85002496958795E9
:1037F0000794969587950794982F802D8827907128
:103800002E813F81822B932B9F838E83D0DD8E81EF
:1038100088878E819F81892F9927898782E07BD431
:10382000898579D4888577D41D820DC08D81882FB4
:1038300090E029893A89820F931FFC0180816BD423
:103840008D818F5F8D839D818B89981778F3B5DD8E
:1038500052DE882309F45AC08B8588878B859C8526
:10386000AD85BE85892F9A2FAB2FBB2789878B8586
:103870009C85AD85BE85CD01AA27BB278A8797DDAC
:1038800080E149D48A8547D4898545D4888543D445
:1038900094DD31DE882381F18ADD8B8588878B85F5
:1038A0009C85AD85BE85892F9A2FAB2FBB27898735
:1038B0008B859C85AD85BE85CD01AA27BB278A87D0
:1038C00080E129D48A8527D4898525D4888523D485
:1038D00074DD11DE882331F08B89882F90E09A8384
:1038E000898343C08DEE92E0292F2F938F930E94FE
:1038F000132E0F900F9039C086E293E0292F2F935B
:103900008F930E94132E0F900F902FC08FE593E09E
:10391000292F2F938F930E94132E0F900F9025C065
:103920008FE893E0292F2F938F930E94132E0F90EF
:103930000F901BC088EC93E0292F2F938F930E9448
:10394000132E0F900F9011C08C89282F30E081EF3B
:1039500093E0432F4F932F93292F2F938F930E9400
:10396000132E0F900F900F900F90898164960FB6D1
:10397000F894DEBF0FBECDBFDF91CF910F91EF90D6
:103980000895CF93DF93CDB7DEB729970FB6F8949C
:10399000DEBF0FBECDBF6A837B838C839D835F8335
:1039A0004E8339872887198234D09B01AC018A81E4
:1039B0009B81AC81BD8182179307A407B507F8F4FA
:1039C0008A819B81AC81BD81072E7BE0B695A7954E
:1039D000979587957A95D1F7702D2E813F81F901C2
:1039E00080839183A283B3838A819B819C013770FA
:1039F00088859985FC013183208381E089838981D1
:103A000029960FB6F894DEBF0FBECDBFDF91CF91E0
:103A10000895CF93DF9300D01F92CDB7DEB780E03B
:103A200098E0A0E0B0E089839A83AB83BC8389816E
:103A30009A81AB81BC81880F991FAA1FBB1F880F79
:103A4000991FAA1FBB1F880F991FAA1FBB1F880F92
:103A5000991FAA1FBB1F880F991FAA1FBB1F880F82
:103A6000991FAA1FBB1F89839A83AB83BC8389815B
:103A70009A81AB81BC81072E7BE0880F991FAA1F1A
:103A8000BB1F7A95D1F7702D89839A83AB83BC8352
:103A900089819A81AB81BC81BC01CD010F900F90CF
:103AA0000F900F90DF91CF910895EF920F93CF93E6
:103AB000DF93CDB7DEB760970FB6F894DEBF0FBEC9
:103AC000CDBF6A877B878C879D875F874E87288BD2
:103AD00019821B828FE294E02F852F932E852F93DE
:103AE0002D852F932C852F932B852F932A852F930C
:103AF000292F2F938F930E94132E6DB77EB7685F87
:103B00007F4F0FB6F894DEBF0FBECDBF9E01285F7A
:103B10003F4FAE014C5F5F4F8A859B85AC85BD856D
:103B2000BC01CD012EDF882309F489C08889282FA4
:103B300030E088859985820F931F8130984038F056
:103B40008885998581958A8381E08B8302C08889E5
:103B50008A83488559858C819D81AE81BF812E8560
:103B60003F85E12C0A81BC01CD01E6DD982F8A81D9
:103B7000981709F05BC08B81882309F454C08A81AF
:103B8000282F30E040E050E08A859B85AC85BD85DC
:103B9000820F931FA41FB51F9E01285F3F4FAE01E8
:103BA0004C5F5F4FBC01CD01ECDE882391F1988919
:103BB0008A81692F681B8A81882F90E02E853F8536
:103BC000280F391F488559858C819D81AE81BF8121
:103BD000E12C062FBC01CD01AFDD282F30E0888914
:103BE000482F50E08A81882F90E0BA01681B790B3A
:103BF000CB012817390719F48889898320C087E405
:103C000094E0292F2F938F930E94132E0F900F90E3
:103C100016C08EE694E0292F2F938F930E94132EC7
:103C20000F900F900CC08889898309C08FE994E0B8
:103C3000292F2F938F930E94132E0F900F9089811D
:103C400060960FB6F894DEBF0FBECDBFDF91CF9167
:103C50000F91EF900895EF920F931F93CF93DF93FF
:103C6000CDB7DEB762970FB6F894DEBF0FBECDBFFB
:103C700069877A878B879C875E874D87388B2F87EC
:103C8000098BEA8A1A82198280E098E09D838C83EE
:103C900086EC94E02E852F932D852F932C852F93E2
:103CA0002B852F932A852F9329852F93292F2F93A7
:103CB0008F930E94132E8DB79EB708960FB6F89477
:103CC000DEBF0FBECDBF8A89882321F080E898E04F
:103CD0009D838C838989282F30E08D859E85820F76
:103CE000931F8130984008F064C005DC882309F4F4
:103CF00056C05DDB89858E8389859A85AB85BC85B9
:103D0000892F9A2FAB2FBB278F8389859A85AB8507
:103D1000BC85CD01AA27BB27888783E1FCD1888594
:103D2000FAD18F81F8D18E81F6D147DBE4DB88238D
:103D300061F18D858E838D859E85892F99278F834F
:103D400036DB83E0E8D18F81E6D18E81E4D180E05B
:103D5000E2D11B820FC08B81882F90E02F8538899C
:103D60008901080F191F80E0D6D1F80180838B816B
:103D70008F5F8B839B818989981768F31EDB898904
:103D8000882F90E09A83898325C083EF94E0292FC0
:103D90002F938F930E94132E0F900F901BC08DE2D4
:103DA00095E0292F2F938F930E94132E0F900F9041
:103DB00011C08A89282F30E087E595E0432F4F9383
:103DC0002F93292F2F938F930E94132E0F900F90D4
:103DD0000F900F90898162960FB6F894DEBF0FBEE8
:103DE000CDBFDF91CF911F910F91EF900895EF928A
:103DF0000F93CF93DF93CDB7DEB760970FB6F894EC
:103E0000DEBF0FBECDBF6A877B878C879D875F87AC
:103E10004E87288B19828A859B85AC85BD85072EA8
:103E20007BE0B695A795979587957A95D1F7702DF4
:103E30008C839D83AE83BF838A859B85977099878A
:103E400088871B828889282F30E088859985820F92
:103E5000931F8130984038F098858889890F8A832C
:103E600081E08B8302C088898A832E853F854885BF
:103E700059858C819D81AE81BF81E12C0A81BC0175
:103E8000CD01E9DE982F8A819817D9F58B81882397
:103E9000A9F198898A81492F481B8A81882F90E04F
:103EA0002E853F85280F391F8C819D81AE81BF8172
:103EB0000196A11DB11DE12C042F40E050E0BC0192
:103EC000CD01C9DE282F30E08889482F50E08A8153
:103ED000882F90E0BA01681B790BCB0128173907AE
:103EE00019F48889898316C086E995E0292F2F93D4
:103EF0008F930E94132E0F900F900CC08889898396
:103F000009C08BEB95E0292F2F938F930E94132EDE
:103F10000F900F90898160960FB6F894DEBF0FBEA8
:103F2000CDBFDF91CF910F91EF900895CF93DF93A5
:103F3000CDB7DEB72A970FB6F894DEBF0FBECDBF60
:103F40006F83788789879A871A8219828F819885EB
:103F5000A985BA858B839C83AD83BE838F81988529
:103F6000A985BA8581159840A105B10508F044C01E
:103F7000C2DA882309F436C0ADDB882349F117DAA9
:103F800088EDC9D08D81C7D08C81C5D08B81C3D03D
:103F900014DAB1DA882391F0B6DB882329F081E0C6
:103FA00090E09A83898331C080EE95E0292F2F938A
:103FB0008F930E94132E0F900F9027C08BE096E0F6
:103FC000292F2F938F930E94132E0F900F901DC0B7
:103FD00085E496E0292F2F938F930E94132E0F9044
:103FE0000F9013C084E796E0292F2F938F930E94A0
:103FF000132E0F900F9009C08CE996E0292F2F9374
:104000008F930E94132E0F900F9089812A960FB6DE
:10401000F894DEBF0FBECDBFDF91CF910895CF934F
:10402000DF931F92CDB7DEB7C2D98FEF74D0C5D959
:10403000A0DA898389810F90DF91CF9108951F9332
:10404000CF93DF931F921F92CDB7DEB785E08983B0
:1040500081EB96E00E943F2E10E029C041E0BE01B6
:104060006E5F7F4F8FE044D28A81853011F141E04D
:10407000BE016F5F7F4F8FE023D28A811F928F93A3
:104080001F921F9382EC96E09F938F930E94002EC5
:1040900089811F928F9383ED96E09F938F930E9467
:1040A000002E1F5F0FB6F894DEBF0FBECDBF1431D8
:1040B000A8F2143120F082EE96E00E943F2E0F907D
:1040C0000F90DF91CF911F910895CF93DF931F92AF
:1040D000CDB7DEB741E0BE016F5F7F4F8FE008D202
:1040E00089811F928F9389E097E09F938F930E941D
:1040F000002E0F900F900F900F900F90DF91CF91A7
:1041000008951DBC81E58CBD58D929D932D95BD918
:1041100048D93BC908958EBD0DB407FEFDCF8EB5BD
:104120000895FC0120E030E00AC0CF0101964081F3
:104130004EBD0DB407FEFDCF2F5F3F4FFC0126178C
:10414000370798F30895FC0120E030E009C01EBC59
:104150000DB407FEFDCF8EB580832F5F3F4F3196A4
:1041600026173707A0F30895CF93DF931F921F926E
:10417000CDB7DEB79A8389838A818EBD0DB407FEE1
:10418000FDCF89818EBD0DB407FEFDCF0F900F903E
:10419000DF91CF910895EF92FF921F93CF93DF931A
:1041A000EB01182F177090E1199F90011124E72E51
:1041B000FF24AB0155275F934F932E293F293F934F
:1041C0002F93DF936F931F928F9381E297E09F93DA
:1041D0008F930E94002EDFD8812F8295807F8E29B9
:1041E0009ADF8C2F98DFDDD88DB79EB70A960FB671
:1041F000F8949EBF0FBE8DBFDF91CF911F91FF90AE
:10420000EF900895EF92FF921F93CF93DF93EB010E
:10421000182F177090E1199F90011124E72EFF24A9
:10422000AB0155275F934F932E293F293F932F933F
:10423000DF936F931F928F9382E597E09F938F9305
:104240000E94002E90D8812F8295807F8E2963DF77
:104250008C2F61DF8ED88DB79EB70A960FB6F89473
:104260009EBF0FBE8DBFDF91CF911F91FF90EF904A
:104270000895CF93DF93C82FD92F83E897E00E944A
:104280003F2E71D88D2F806C46DF8C2F44DF71D884
:10429000DF91CF910895CF93DF93C82FD92F8AE96B
:1042A00097E00E943F2E77D88D2F806C34DF8C2FC3
:1042B00032DF77D8DF91CF9108954DD886E02BDF9C
:1042C0004EC80895CF9347D885E025DF80E023DFEF
:1042D000C82F45D81F92CF9383E199E09F938F9386
:1042E0000E94002E0F900F900F900F908C2FCF9167
:1042F0000895EF92FF920F931F93CF93DF938C015A
:104300007B01EA01840F951F8130904220F080EB01
:1043100097E00E943F2ED1DF1ED882E0FCDEC8016C
:1043200023DFBE01C701FDDE1AD8DF91CF911F91B7
:104330000F91FF90EF900895CF92DF92EF92FF924E
:104340000F931F93CF93DF93C82FD92F8B016A014F
:1043500002D883E0E0DE8D2FDEDE8C2FDCDEC0E0D5
:10436000D0E00AC078018FEFE81AF80A80E0D3DEC7
:10437000F801808321968701CC15DD0598F30E9412
:10438000AF19DF91CF911F910F91FF90EF90DF90C8
:10439000CF900895CF93DF9300D01F92CDB7DEB7B3
:1043A0000E94AB198FEAB7DE64E070E0CE0101969F
:1043B000CADE0E94AF193C812B819A8189811F92AC
:1043C0003F931F922F931F929F931F928F9383ED82
:1043D00097E09F938F930E94002E0FB6F894DEBF54
:1043E0000FBECDBF0F900F900F900F90DF91CF9128
:1043F0000895CF93DF93CDB7DEB728970FB6F89423
:10440000DEBF0FBECDBF59DF8FE18D8381E48E8388
:1044100081E88F838AEF888744E050E0BE016B5FBC
:104420007F4F80E094E065DF44E050E0BE016F5FC5
:104430007F4F80E094E080DF3C812B819A818981ED
:104440001F923F931F922F931F929F931F928F93C0
:1044500086EE97E09F938F930E94002E0FB6F894FC
:10446000DEBF0FBECDBF28960FB6F894DEBF0FBEDD
:10447000CDBFDF91CF9108959093EF098093EE091E
:1044800042E050E06EEE79E080E090E032CF0895B7
:1044900042E050E06EEE79E080E090E04DDF809108
:1044A000EF098F938091EE098F9383EF97E09F93AD
:1044B0008F930E94002E0F900F900F900F900895F1
:1044C0000F931F93CF93DF93D82F8B01C42F0E949C
:1044D000E9198D2F80621FDE6C2F70E0C80121DE8C
:1044E0000E94E3198C2FDF91CF911F910F910895B6
:1044F0000F931F93CF93DF93D82F8B01C42F0E946C
:10450000E9198D2F806A07DE6C2F70E0C8011BDE71
:104510000E94E3198C2FDF91CF911F910F91089585
:10452000CF93DF931F92CDB7DEB741E050E0BE01DD
:104530006F5F7F4F80E780D1892B21F08AEF97E072
:104540000E943F2E89810F90DF91CF910895CF93E4
:10455000DF931F92CDB7DEB78983843008F04FC058
:104560001F928F9384E198E09F938F930E94002E77
:1045700041E0BE016F5F7F4F80E7E7D00F900F9063
:104580000F900F90892B09F18981E82FF0E0E35615
:10459000F74F9081973058F061D086E298E09F9372
:1045A0008F930E94002E0F900F9081E039C01F92D0
:1045B0008F938BE298E09F938F930E94002E0F9031
:1045C0000F900F900F9081E02BC0AADF998189177F
:1045D00021F18DE498E00E943F2EE981F0E0E3565E
:1045E000F74F80818730D8F039D085E798E09F93E6
:1045F0008F930E94002E0F900F9081E011C01F92A8
:104600008F938AE798E09F938F930E94002E0F90DC
:104610000F900F900F9081E003C080E001C081E017
:104620000F90DF91CF9108959F938F9381EA98E047
:104630009F938F930E94002E0F900F900F900F90DA
:1046400008951F928F9385EB98E09F938F930E941C
:10465000002E0F900F900F900F90089584E9809393
:10466000BC00EBE0F1E080818F7B808380E005C0BF
:10467000E3E0F8E43197F1F78F5F8431C8F3EBE0C2
:10468000F1E080818064808380E005C0E3E0F8E4AD
:104690003197F1F78F5F8431C8F3EBE0F1E080816F
:1046A0008F7B808380E005C0E3E0F8E43197F1F789
:1046B0008F5F8431C8F3EBE0F1E080818064808318
:1046C000E9EBF0E080818C7F80838081808380E1D2
:1046D0008093B800ECEBF0E080818460808381E01F
:1046E0008093F009089584EA8093BC001092B10988
:1046F0001092B0098091BC00882334F08091B009F9
:104700009091B1094E97B0F38091B0099091B109A1
:104710004E9730F088EC98E00E943F2E81E008959B
:104720008091B900887F883071F01F928F938FED50
:1047300098E09F938F930E94002E0F900F900F9000
:104740000F9081E0089580E008950F931F93CF9319
:10475000DF93082FEB01142FC6DF811166C0000F15
:104760000093BB0084E88093BC001092B1091092C2
:10477000B0098091BC00882334F08091B0099091F9
:10478000B1094E97B0F38091B0099091B109809131
:10479000B900887F883109F43FC084E98093BC0068
:1047A00080E24FDF81E090E042C0AE014F5F5F4F9B
:1047B00088818093BB0084E88093BC001092B1098B
:1047C0001092B0098091BC00882334F08091B00928
:1047D0009091B1094E97B0F38091B0099091B109D1
:1047E0008091B900887F8832A1F01F928F938FEF5C
:1047F00098E09F938F930E94002E84E98093BC00E1
:1048000080E31FDF0F900F900F900F9081E090E0FA
:104810000EC02F5FEA0101C020E0211730F284E9C9
:104820008093BC0080E090E002C081E090E0DF91E6
:10483000CF911F910F910895FF920F931F93CF93E4
:10484000DF93F82E8B01EA014EDF811179C08F2DA5
:1048500090E0880F991F81608093BB0084E880936B
:10486000BC001092B1091092B0098091BC0088235D
:1048700034F08091B0099091B1094E97B0F38091D6
:10488000B0099091B1098091B900887F803409F412
:104890004DC088E4D6DE84E98093BC008BE199E0CA
:1048A000C3DE81E090E04EC01092B1091092B009D1
:1048B000C130D10511F484E801C084EC8093BC00C0
:1048C0001092B1091092B0098091BC00882334F095
:1048D0008091B0099091B1094E97B0F38091B009E1
:1048E0009091B1094E97D8F08091B9001F928F93A3
:1048F000DF93CF9384E299E09F938F930E94002EE1
:1049000084E98093BC008BE199E08EDE0F900F90DC
:104910000F900F900F900F9081E090E013C0809166
:10492000BB00F801808321970F5F1F4F1C161D06E7
:104930000CF4BACF84E98093BC0080E090E002C020
:1049400081E090E0DF91CF911F910F91FF9008954A
:104950008FEF81B997EF94B987B99BEB9AB99EE332
:104960009DB910BA83BB9FE79093010192E79093A2
:1049700004011092070180930A0188B98093020113
:104980000C94F5190895CF93DF93E2EEFAE081E0FD
:1049900092E0918380839383828380E0CFD0D8DFBD
:1049A000B0DB0E945E158FE09FE89093310A809300
:1049B000300AC0E0D0E005C08EE290E00E943A2EBE
:1049C0002196C035D105C0F38AE090E00E943A2ECE
:1049D00036DB0E94971542DE0E9427180E944F176F
:1049E0000E94271878948AE599E00E943F2EDF9173
:1049F000CF910895C8DF8BE699E00E943F2E30D218
:104A00008091F809882321F00E94640C1092F80923
:104A10008091B209882341F0EBE0F1E0908181E0E0
:104A2000892780831092B2098091B309882339F3D2
:104A3000EBE0F1E0908181E0892780838091F209A9
:104A4000882319F081508093F2091092B309D7CFCF
:104A500089E408959B014EE3849FC0011124BC01A9
:104A60006D52794FC9010C94842D08952EE3829FD5
:104A7000C00111248D52994F0C948B2D0895E9E3B8
:104A8000FAE0608311829383828395838483978382
:104A9000868308959FB7F89480913A0A811104C0E3
:104AA000992304F578940895E9E3FAE0A481B581A7
:104AB0009D012F5F3F4F358324838C9121812150AD
:104AC000218344815581268137816081260F311DE4
:104AD0004217530720F02681378135832483992399
:104AE0000CF4789408959FB7F894E9E3FAE03181E3
:104AF0002081321720F0992304F578940895E9E392
:104B0000FAE0A281B3819D012F5F3F4F338322835F
:104B10008C9381818F5F818342815381268137818C
:104B20008081280F311D4217530720F026813781DD
:104B30003383228399230CF4789408958230B9F159
:104B40008430B8F58093F1099091F909913019F00A
:104B5000923039F003C09FE520E005C097E020E0E7
:104B600002C091E020E0813019F0833071F016C06E
:104B70002093CD009093CC0088E98093C90060E831
:104B800081E49AE07CDF80E00895209335019093E2
:104B9000340188E98093310180E008952093C500B5
:104BA0009093C40088E98093C10080E0089581E07B
:104BB000089581E00895CF93C82F8A3031F4609131
:104BC000E40A7091E50A8DE0F6DF8091C00085FF70
:104BD000FCCFC093C60080E090E0CF910895CF93C2
:104BE000C82F8A3011F48DE0FADF8091C80085FF6C
:104BF000FCCFC093CE0080E090E0CF91089580E09C
:104C000090E008951F920F920FB60F9211240BB6E9
:104C10000F922F933F934F935F936F937F938F9355
:104C20009F93AF93BF93CF93DF93EF93FF938091C5
:104C3000C00084FD08C08091C00083FD04C0809145
:104C4000F809882341F08091C60090E09093F7091D
:104C50008093F609A1C08091F5098F3180F0809191
:104C6000C60090E09093F7098093F6091092F50939
:104C70001092E10A1092F8091092F4098DC0E091A7
:104C8000F509F0E08091C600EE53F54F8083E09186
:104C9000F509F0E0EE53F54F80818A3041F0E09164
:104CA000F509F0E0EE53F54F80818D3089F481E015
:104CB0008093F8098091F4098F5F8093F409E09163
:104CC000F509F0E0EE53F54F10821092F50964C03B
:104CD000E091F509F0E0EE53F54F8081883041F026
:104CE000E091F509F0E0EE53F54F80818F3739F50B
:104CF0008091F509882309F44FC0C2EEDAE06A8199
:104D00007B8188E058DF6A817B8180E254DF6A81A1
:104D10007B8188E050DF8091F50981508093F5090F
:104D20008091F40981508093F4098091F3098823DC
:104D300099F18091F30981508093F3092DC0E0919E
:104D4000F509F0E0EE53F54F80818C3298F0E09158
:104D5000F509F0E0EE53F54F80818B3758F48091E0
:104D6000F5098F5F8093F5098091F4098F5F809337
:104D7000F40912C0E091F509F0E0EE53F54F80819F
:104D80008B3151F46091E40A7091E50A8DE013DFF4
:104D90001092F5091092F409FF91EF91DF91CF91F4
:104DA000BF91AF919F918F917F916F915F914F9143
:104DB0003F912F910F900BBE0F900FBE0F901F9041
:104DC00018951F920F920FB60F9211240BB60F92E7
:104DD0002F933F934F935F936F937F938F939F9303
:104DE000AF93BF93EF93FF938091C80084FD04C0FD
:104DF0008091C80083FF08C08091CE0090E090931E
:104E0000F7098093F60919C08091CE008A3041F4E9
:104E100080E069DE8091C10A8F5F8093C10A0DC076
:104E20008D3059F0883011F08F3711F433DE05C022
:104E300090EE980F9F3508F456DEFF91EF91BF91E9
:104E4000AF919F918F917F916F915F914F913F9122
:104E50002F910F900BBE0F900FBE0F901F901895C3
:104E60008091F409882369F19091F3098091F40904
:104E70009817C0F48091F80981110BC06091E40A81
:104E80007091E50AE091F309F0E0EE53F54F80816F
:104E900092DE8091F3098F5F8093F3098AE080931B
:104EA000F20913C08091F20981110FC08FB78F777B
:104EB0008FBF1092F3091092F4091092F5097894BB
:104EC00004C01092F3091092F2098091F809882326
:104ED000A9F082EC9AE09F938F9387E799E09F93E4
:104EE0008F938ED61092F5091092F2091092F40960
:104EF0001092F3090F900F900F900F908091C10ABC
:104F0000882399F081E49AE09F938F9381E899E058
:104F10009F938F9375D68EE762DE8AE260DE8EE71E
:104F20005EDE0F900F900F900F90089570D088F074
:104F30009F5790F0B92F9927B751A0F0D1F0660F85
:104F4000771F881F991F1AF0BA95C9F712C0B130A0
:104F500081F077D0B1E0089574C0672F782F88274B
:104F6000B85F39F0B93FCCF3869577956795B395DF
:104F7000D9F73EF490958095709561957F4F8F4F4E
:104F80009F4F0895E89409C097FB3EF49095809553
:104F9000709561957F4F8F4F9F4F9923A9F0F92FFF
:104FA00096E9BB279395F695879577956795B7957D
:104FB000F111F8CFFAF4BB0F11F460FF1BC06F5F63
:104FC0007F4F8F4F9F4F16C0882311F096E911C075
:104FD000772321F09EE8872F762F05C0662371F096
:104FE00096E8862F70E060E02AF09A95660F771FAA
:104FF000881FDAF7880F9695879597F9089557FDDA
:105000009058440F551F59F05F3F71F04795880F36
:1050100097FB991F61F09F3F79F0879508951216CD
:1050200013061406551FF2CF4695F1DF08C0161679
:1050300017061806991FF1CF86957105610508942A
:105040000895E894BB2766277727CB0197F9089541
:105050000BD078C069D028F06ED018F0952309F0F5
:105060005AC05FC01124EECFCADFA0F3959FD1F3E1
:10507000950F50E0551F629FF001729FBB27F00D06
:10508000B11D639FAA27F00DB11DAA1F649F66275B
:10509000B00DA11D661F829F2227B00DA11D621FAA
:1050A000739FB00DA11D621F839FA00D611D221F64
:1050B000749F3327A00D611D231F849F600D211D48
:1050C000822F762F6A2F11249F5750408AF0E1F0EB
:1050D00088234AF0EE0FFF1FBB1F661F771F881F34
:1050E00091505040A9F79E3F510570F014C0AACFCF
:1050F0005F3FECF3983EDCF3869577956795B7951F
:10510000F795E7959F5FC1F7FE2B880F911D969548
:10511000879597F9089597F99F6780E870E060E0B8
:1051200008959FEF80EC089500240A941616170640
:1051300018060906089500240A9412161306140688
:1051400005060895092E0394000C11F4882352F0EB
:10515000BB0F40F4BF2B11F460FF04C06F5F7F4FA3
:105160008F4F9F4F08952F923F924F925F926F9271
:105170007F928F929F92AF92BF92CF92DF92EF92E7
:10518000FF920F931F93CF93DF93CDB7DEB7609756
:105190000FB6F894DEBF0FBECDBF7C011B016A01C4
:1051A000FC0117821682838181FF2AC39E012F5F33
:1051B0003F4F3901F7019381F10193FD859193FFF1
:1051C00081911F01882309F417C3853239F493FDB7
:1051D000859193FF81911F01853231F4B70190E0F1
:1051E000D3D456016501E6CF10E0512C912CFFE19C
:1051F000F915D8F08B3279F038F4803279F08332B7
:10520000A1F4F92DF0612EC08D3261F0803369F484
:10521000292D21602DC0392D3260932E892D846077
:10522000982E2AC0E92DE86015C097FC2DC020ED0E
:10523000280F2A3088F496FE06C03AE0139F200D0E
:105240001124122F19C08AE0589E200D1124522ECD
:10525000E92DE0629E2E10C08E3231F496FCCCC255
:10526000F92DF0649F2E08C08C3621F4292D20687A
:10527000922E02C0883641F4F10193FD859193FF8F
:1052800081911F018111B3CF9BEB980F933020F4D4
:10529000992D9061805E07C09BE9980F933008F0CC
:1052A00059C1992D9F7E96FF16E09F73992E8536E2
:1052B00019F49064992E08C0863621F4392F30688D
:1052C000932E02C01111115097FE07C01C3350F4E9
:1052D00044244394410E27E00BC0183038F027E0F7
:1052E00017E005C027E09CE3492E02C0212F412C86
:1052F000560184E0A80EB11CF601608171818281A3
:105300009381042DA30128D36C01F981FC87F0FF60
:1053100002C0F3FF06C091FC06C092FE06C000E288
:1053200005C00DE203C00BE201C000E08C858C706B
:1053300019F0011143C280C297FE10C04C0CFC85CD
:10534000F4FF04C08A81813309F44A94141474F57B
:1053500028E0241578F588E0482E2CC096FC2AC059
:10536000812F90E08C159D059CF03CEFC3163FEF1C
:10537000D30674F0892D8068982E0AC0E2E0F0E030
:10538000EC0FFD1FE10FF11D8081803319F41150E6
:105390001111F4CF97FE0EC044244394410E812F87
:1053A00090E0C816D9062CF41C1904C04424439478
:1053B00001C010E097FE06C01C141D0434F4C601A1
:1053C000019605C085E090E002C081E090E0011107
:1053D0000196112331F0212F30E02F5F3F4F820FD4
:1053E000931F252D30E08217930714F4581A01C03B
:1053F000512C892D897041F4552031F0B70180E29C
:1054000090E0C2D35A94F8CF002321F0B701802F47
:1054100090E0BAD393FC08C0552031F0B70180E387
:1054200090E0B2D35A94F8CF97FE4AC04601D7FE17
:1054300002C0812C912CC60188199909F301E80F4B
:10544000F91FFE87ED87960124193109388B2F87C4
:10545000012F10E01195019511093FEF8316930676
:1054600021F4B7018EE290E08FD3C814D9044CF038
:105470008F8598898815990524F4ED85FE858181AD
:1054800001C080E3F1E08F1A91082D853E852F5FE2
:105490003F4F3E872D878016910624F0B70190E09C
:1054A00073D3DBCFC814D90441F49A81963320F426
:1054B000953319F43C8534FF81E3B70190E048C08F
:1054C0008A81813319F09C859F7E9C87B70190E08B
:1054D0005BD3111105C094FC16C085E690E015C0A1
:1054E000B7018EE290E050D31E5F82E001E0080F2A
:1054F000F301E80FF11D8081B70190E045D3802FC3
:105500000113F4CFE8CF85E490E0B7013DD3D7FC99
:1055100006C0C114D10441F4EC85E4FF05C0D19468
:10552000C194D1088DE201C08BE2B70190E02CD389
:1055300080E32AE0C216D1042CF08F5FFAE0CF1A84
:10554000D108F7CFB70190E01FD3B701C601C096CD
:105550001BD349C1833631F0833779F0833509F0A5
:1055600052C01FC0560132E0A30EB11CF60180816B
:10557000898301E010E0630111C05601F2E0AF0E33
:10558000B11CF601C080D18096FE03C0612F70E08F
:1055900002C06FEF7FEFC601E4D28C01F92DFF77D7
:1055A00013C0560122E0A20EB11CF601C080D180CA
:1055B00096FE03C0612F70E002C06FEF7FEFC6015F
:1055C000B3D28C01F92DF0689F2EF3FD18C0852D04
:1055D00090E00817190798F4B70180E290E0D4D260
:1055E0005A94F5CFF60197FC859197FE81916F0152
:1055F000B70190E0C9D251105A9401501109011518
:10560000110581F7F0C0843611F0893659F556013D
:1056100097FE09C024E0A20EB11CF60160817181E1
:10562000828193810AC0F2E0AF0EB11CF601608165
:105630007181072E000C880B990BF92DFF769F2E98
:1056400097FF09C090958095709561957F4F8F4F1A
:105650009F4FF0689F2E2AE030E0A30140D3C82E70
:10566000C6183EC0092D853721F40F7E2AE030E0B0
:105670001DC0097F8F3691F018F4883559F0BCC0F1
:10568000803719F0883711F0B7C0006104FF09C0F6
:10569000046007C094FE08C0066006C028E030E041
:1056A00005C020E130E002C020E132E0560107FFF2
:1056B00009C084E0A80EB11CF6016081718182816D
:1056C000938108C0F2E0AF0EB11CF60160817181D8
:1056D00080E090E0A30103D3C82EC6180F77902E68
:1056E00096FE0BC0092D0E7FC11650F494FE0AC021
:1056F00092FC08C0092D0E7E05C0DC2C092D03C0CC
:10570000DC2C01C0D12E04FF0DC0FE01EC0DF11DFB
:105710008081803311F4097E09C002FF06C0D39452
:10572000D39404C0802F867809F0D39403FD10C071
:1057300000FF06C01C2DD51478F4150D1D190CC0E2
:10574000D51450F4B70180E290E01ED2D394F8CF84
:10575000D51410F45D1801C0512C04FF0FC0B7011F
:1057600080E390E011D202FF16C001FD03C088E77C
:1057700090E002C088E590E0B7010CC0802F8678E9
:1057800051F001FF02C08BE201C080E207FD8DE213
:10579000B70190E0F9D1C11630F4B70180E390E091
:1057A000F3D11150F8CFCA94F301EC0DF11D8081B3
:1057B000B70190E0E9D1C110F6CF15C0F4E0F515BE
:1057C00050F584E0581A93FE1EC0011125C02C85A7
:1057D00023FF27C004EE10E0392D3071932EF8011D
:1057E0008491811121C0552009F4FCCCB70180E2DD
:1057F00090E0CAD15A94F7CFF7018681978123C0F0
:105800008FEF9FEF20C0B70180E290E0BDD15A94A6
:105810005110F9CFDACF512CB701802F90E0B4D1DD
:10582000D6CF08EE10E0D8CF91108052B70190E0AB
:10583000ABD10F5F1F4FD3CF23E0251510F483E0CA
:10584000C1CF512CC4CF60960FB6F894DEBF0FBE07
:10585000CDBFDF91CF911F910F91FF90EF90DF901F
:10586000CF90BF90AF909F908F907F906F905F9000
:105870004F903F902F900895052E97FB16F40094BB
:105880000FD057FD05D029D007FC02D046F408C040
:1058900050954095309521953F4F4F4F5F4F08955C
:1058A00090958095709561957F4F8F4F9F4F08958C
:1058B000A29FB001B39FC001A39F700D811D112451
:1058C000911DB29F700D811D1124911D0895F0DF6F
:1058D000B7FF0895821B930B0895A1E21A2EAA1B0D
:1058E000BB1BFD010DC0AA1FBB1FEE1FFF1FA21790
:1058F000B307E407F50720F0A21BB30BE40BF50B8D
:10590000661F771F881F991F1A9469F76095709515
:10591000809590959B01AC01BD01CF010895FC01DC
:1059200088279927E89421912032E9F3293010F053
:105930002E30C8F32B3239F02D3231F4689403C085
:105940001BD1820F911D219120532A30C8F31EF4E0
:10595000909581959F4F0895283008F027E03327D0
:10596000DA01990F311D87FD91600096610571057F
:1059700039F432602E5F3D9330E32A95E1F70895C4
:105980009F3F30F080387105610509F03C5F3C5F56
:105990003D93913008F08068911DDF93CF931F9362
:1059A0000F93FF92EF92192F987F9695E92F969576
:1059B0009695E90FFF27EA5BFE4F99273327EE24E0
:1059C000FF24A701E70105900894079428F4360FF7
:1059D000E71EF81E491F511D660F771F881F991F6C
:1059E0000694A1F70590079428F4E70EF81E491FC6
:1059F000561FC11D770F881F991F661F0694A1F7B8
:105A00000590079428F4F80E491F561FC71FD11D93
:105A1000880F991F661F771F0694A1F705900794BA
:105A200020F4490F561FC71FD81F990F661F771FF5
:105A3000881F0694A9F784911095177041F0D695A8
:105A4000C79557954795F794E7941A95C1F7ECEEEB
:105A5000F0E06894159015913591659195910590B8
:105A60007FE27395E118F10A430B560BC90BD0097D
:105A7000C0F7E10CF11E431F561FC91FD01D7EF455
:105A8000703311F48A95E6CFE894015030F0080F96
:105A90000AF40027021708F4202F2395022F7A33E7
:105AA00028F079E37D932A95E9F710C07D932A9534
:105AB00089F6069497956795379517951794E11889
:105AC000F10A430B560BC90BD00998F023957E9130
:105AD00073957A3308F070E37C932013B8F77E91C6
