:100000000C945C0C0C947D0C0C947D0C0C947D0C6D
:100010000C947D0C0C947D0C0C947D0C0C947D0C3C
:100020000C9467170C947D0C0C947D0C0C947D0C37
:100030000C947D0C0C9471170C947D0C0C947D0C1D
:100040000C947D0C0C947D0C0C947D0C0C947D0C0C
:100050000C947D0C0C947D0C0C947D0C0C947D0CFC
:100060000C947D0C0C94F93A0C947D0C0C947D0C42
:100070000C947D0C0C9406190C947D0C0C947D0C46
:100080000C947D0C0C947D0C0C947D0C0C947D0CCC
:100090000C94D83B0C947D0C0C947D0C0C947D0C32
:1000A0000C947D0C0C947D0C0C947D0C0C947D0CAC
:1000B0000C947D0C0C947D0C0C947D0C0C947D0C9C
:1000C0000C947D0C0C947D0C0C947D0C0C947D0C8C
:1000D0000C947D0C0C947D0C0C947D0C0C947D0C7C
:1000E0000C947D0C6E616E00696E660000407A10A3
:1000F000F35A00A0724E18090010A5D4E80000E8D9
:100100007648170000E40B54020000CA9A3B000036
:1001100000E1F505000080969800000040420F00C5
:100120000000A08601000000102700000000E80386
:10013000000000006400000000000A000000000051
:100140000100000000002C76D888DC674F0823DF10
:10015000C1DFAE59E1B1B796E5E3E453C63AE651E3
:10016000997696E8E6C28426EB898C9B62ED407C0A
:100170006FFCEFBC9C9F40F2BAA56FA5F490055AA6
:100180002AF75C936B6CF9676DC11BFCE0E40D47CB
:10019000FEF520E6B500D0ED902E030094357705EE
:1001A0000080841E080000204E0A000000C80C33A6
:1001B0003333330F986E12831141EF8D2114893B35
:1001C000E65516CFFEE6DB18D1844B381BF77C1DB5
:1001D000901DA4BBE424203284725E228100C9F108
:1001E00024ECA1E53D27464C4153482077726974C1
:1001F00065206661696C65640A00464C415348207D
:1002000072656164206661696C65640A00756E6B75
:100210006E6F776E2041444332353138206F7363FF
:10022000696C61746F7253706565640A004F535254
:100230003A206C6F673273616D706C6573203E207D
:1002400037000A00256420004552524F523A204E92
:100250006F20414443204368616E6E656C7320617A
:1002600063746976650A000A5374616C6520507284
:1002700065737375726520496E7465726E616C206A
:100280004661756C742025640A000A5374616C65BC
:100290002050726573737572652052656164696E72
:1002A000672025640A000A53656E736F7220256407
:1002B00020696E2050726F6772616D6D696E672084
:1002C0004D6F64650A0077726974696E67207061AA
:1002D00067652030782530386C782C206279746519
:1002E00061646472203078253034780A0073706954
:1002F0005F466C6173685772697465546F506167CB
:10030000653A20466C617368206E6576657220726E
:10031000656164792061667465722064617461202E
:100320006C6F61640A007370695F466C6173685733
:1003300072697465546F506167653A20466C6173E9
:100340006820776F6E277420656E61626C65207718
:10035000726974650A007370695F466C61736857EF
:1003600072697465546F506167653A20466C6173B9
:1003700068206E65766572207265616479206166B9
:10038000746572207061676520726561640A00732C
:1003900070695F466C6173685772697465546F5019
:1003A0006167653A20466C617368206E6576657298
:1003B0002072656164790A007370695F466C6173CD
:1003C000685772697465546F506167653A20627549
:1003D000666665722063726F737365732070616700
:1003E0006520626F756E646172792C206F6F622078
:1003F0003D2025640A0057726974696E6720746F26
:100400002030782530386C783A2025730A007370D4
:10041000695F466C61736857726974653A20326E21
:100420006420706167652077726974652066616910
:100430006C65640A007370695F466C61736857721B
:100440006974653A20326E6420706167652061646A
:100450006472657373206D617070696E6720666188
:10046000696C65640A007370695F466C61736857F4
:10047000726974653A203173742070616765207702
:1004800072697465206661696C65640A000A726548
:100490006164696E672066726F6D207061676520A8
:1004A00030782530386C782C20627974656164640A
:1004B00072203078253034780A007370695F466C9A
:1004C0006173685265616446726F6D506167653A29
:1004D00020466C617368206E657665722072656176
:1004E0006479206166746572207061676520726549
:1004F00061640A007370695F466C6173685265617C
:100500006446726F6D506167653A20466C6173682E
:10051000206E657665722072656164790A00737079
:10052000695F466C6173685265616446726F6D50B5
:100530006167653A206275666665722063726F73E3
:10054000736573207061676520626F756E64617298
:10055000792C206F6F62203D2025640A007370693A
:100560005F466C617368526561643A20326E642044
:10057000706167652072656164206661696C65649D
:100580000A007370695F466C617368526561643A12
:1005900020326E64207061676520617474656D70CF
:1005A0007420746F20777269746520706173742091
:1005B000656E64206F6620666C6173680A007370F4
:1005C000695F466C617368526561643A2031737487
:1005D00020706167652072656164206661696C6581
:1005E000640A007370695F466C6173685265616488
:1005F0003A20417474656D707420746F207772694D
:100600007465207061737420656E64206F66206667
:100610006C6173680A007370695F466C617368454A
:1006200072617365426C6F636B3A205772697465CF
:100630002064696173626C65206661696C65640A37
:10064000007370695F466C617368457261736542DF
:100650006C6F636B3A20466C617368206E657665DB
:100660007220726561647920616674657220626CC3
:100670006F636B2065726173650A007370695F4612
:100680006C6173684572617365426C6F636B3A208D
:10069000466C61736820776F6E277420656E6162A7
:1006A0006C652077726974650A007370695F466CC7
:1006B0006173684572617365426C6F636B3A204683
:1006C0006C617368206E657665722072656164790D
:1006D0000A007370695F466C617368457261736587
:1006E000426C6F636B3A204164647265737320657A
:1006F00078636565647320617661696C61626C65BD
:1007000020626C6F636B730A004920616D2074680E
:10071000652076657279206D6F64656C206F662048
:1007200061206D6F6465726E204D616A6F722D4736
:10073000656E6572616C0A00000000000000000038
:10074000000000000000004927766520696E666F92
:10075000726D6174696F6E20766567657461626C35
:10076000652C20616E696D616C2C20616E64206D5A
:10077000696E6572616C0A000000000000000000F4
:10078000000000000049206B6E6F772074686520C0
:100790006B696E6773206F6620456E676C616E646F
:1007A0002C20616E6420492071756F746520746817
:1007B00065206669676874730A0000000000000025
:1007C000000000486973746F726963616C0A00000D
:1007D0000000000000000000000000000000000019
:1007E0000000000000000000000000000000000009
:1007F00000000000000000000000000000000000F9
:100800000046726F6D204D61726174686F6E207466
:100810006F2057617465726C6F6F2C20696E206F4A
:10082000726465722063617465676F726963616C7D
:100830000A00000000000000000000000000004965
:10084000276D20766572792077656C6C2061637105
:100850007561696E7465642C20746F6F2C207769E4
:100860007468206D6174746572730A000000000082
:10087000000000000000000000000000004D617456
:1008800068656D61746963616C0A000000000000B6
:100890000000000000000000000000000000000058
:1008A0000000000000000000000000000000000048
:1008B00000000000000000000000004920756E6488
:1008C00065727374616E64206571756174696F6EB1
:1008D000732C20626F7468207468652073696D7072
:1008E0006C6520616E642071756164726174696306
:1008F000616C0A00000000000041626F75742062A4
:10090000696E6F6D69616C207468656F72656D20CA
:1009100049276D207465656D696E67207769746815
:100920002061206C6F74206F27206E6577730A003A
:100930000000000000000057697468206D616E7946
:1009400020636865657266756C20666163747320E8
:1009500061626F757420746865207371756172656A
:10096000206F66207468650A000000000000000027
:1009700000000000004879706F74656E7573650A39
:100980000000000000000000000000000000000067
:100990000000000000000000000000000000000057
:1009A0000000000000000000000000000000000047
:1009B00000000057697468206D616E792063686576
:1009C000657266756C2066616374732061626F7511
:1009D000742074686520737175617265206F66207C
:1009E0007468650A000000000000000000000000BC
:1009F000004879706F74656E7573650A00000000B9
:100A000000000000000000000000000000000000E6
:100A100000000000000000000000000000000000D6
:100A2000000000000000000000000000000000576F
:100A3000697468206D616E7920636865657266759A
:100A40006C2066616374732061626F7574207468D2
:100A50006520737175617265206F66207468650A20
:100A60000000000000000000000000000048797055
:100A70006F74656E7573650A000000000000000069
:100A80000000000000000000000000000000000066
:100A90000000000000000000000000000000000056
:100AA000000000000000000000000057697468208A
:100AB0006D616E7920636865657266756C2066612C
:100AC0006374732061626F7574207468652073713C
:100AD00075617265206F66207468650A0000000009
:100AE0000000000000000000004879706F7465701D
:100AF0006F74656E7573650A0000000000000000E9
:100B000000000000000000000000000000000000E5
:100B100000000000000000000000000000000000D5
:100B20000000000000000049276D207665727920E2
:100B3000676F6F6420617420696E74656772616CA1
:100B400020616E6420646966666572656E746961B1
:100B50006C2063616C63756C75730A0000000000A3
:100B6000000000000049206B6E6F772074686520DC
:100B7000736369656E7469666963206E616D657320
:100B8000206F66206265696E677320616E696D61B2
:100B90006C63756C6F75730A000000000000000044
:100BA000000000496E2073686F72742C20696E20FB
:100BB0006D61747465727320766567657461626CCB
:100BC000652C20616E696D616C2C20616E64206DF6
:100BD000696E6572616C0A00000000000000000090
:100BE000004920616D207468652076657279206DFA
:100BF0006F64656C206F662061206D6F6465726E36
:100C0000204D616A6F722D47656E6572616C0A00D6
:100C1000000000000000000000000000000000498B
:100C20006E2073686F72742C20696E206D6174740D
:100C300065727320766567657461626C652C2061EE
:100C40006E696D616C2C20616E64206D696E6572D9
:100C5000616C0A00000000000000000000486520F0
:100C60006973207468652076657279206D6F64659C
:100C70006C206F662061206D6F6465726E204D611F
:100C80006A6F722D47656E6572616C0A0000000024
:100C9000000000000000000000000049206B6E6FA3
:100CA00077206F7572206D79746869632068697345
:100CB000746F72792C204B696E672041727468756D
:100CC00072277320616E64205369720A000000006D
:100CD00000000000000000000043617261646F6367
:100CE00027730A0000000000000000000000000060
:100CF00000000000000000000000000000000000F4
:100D000000000000000000000000000000000000E3
:100D1000000000000000004920616E7377657220BA
:100D200068617264206163726F73746963732C20ED
:100D3000492776652061207072657474792074612A
:100D400073746520666F720A0000000000000000E6
:100D5000000000000050617261646F780A000000BA
:100D60000000000000000000000000000000000083
:100D70000000000000000000000000000000000073
:100D80000000000000000000000000000000000063
:100D9000000000492071756F746520696E20656CD4
:100DA00065676961637320616C6C2074686520639A
:100DB00072696D6573206F662048656C696F676145
:100DC00062616C75730A0000000000000000000002
:100DD00000496E20636F6E69637320492063616E02
:100DE00020666C6F6F7220706563756C69617269E3
:100DF000746965732070617261626F6C6F75730ADC
:100E00000000000000000000000000000000004999
:100E10002063616E2074656C6C20756E646F756202
:100E2000746564205261706861656C732066726FCE
:100E30006D2047657261726420446F777320616E24
:100E4000640A00000000000000000000005A6F6605
:100E500066616E6965730A00000000000000000012
:100E60000000000000000000000000000000000082
:100E70000000000000000000000000000000000072
:100E8000000000000000000000000049206B6E6FB1
:100E900077207468652063726F616B696E67206389
:100EA000686F7275732066726F6D20746865204676
:100EB000726F6773206F660A000000000000000078
:100EC00000000000000000000041726973746F7040
:100ED00068616E65730A00000000000000000000F9
:100EE0000000000000000000000000000000000002
:100EF00000000000000000000000000000000000F2
:100F0000000000000000005468656E204920636105
:100F10006E2068756D2061206675677565206F6647
:100F20002077686963682049277665206865617263
:100F30006420746865206D7573696327730A000007
:100F4000000000000044696E2061666F72650A004F
:100F50000000000000000000000000000000000091
:100F60000000000000000000000000000000000081
:100F70000000000000000000000000000000000071
:100F8000000000416E642077686973746C652061AD
:100F90006C6C2074686520616972732066726F6D75
:100FA000207468617420696E6665726E616C206E73
:100FB0006F6E73656E73650A00000000000000002C
:100FC0000050696E61666F72650A000000000000E3
:100FD0000000000000000000000000000000000011
:100FE0000000000000000000000000000000000001
:100FF00000000000000000000000000000000041B0
:101000006E642077686973746C6520616C6C207401
:10101000686520616972732066726F6D2074686103
:101020007420696E6665726E616C206E6F6E73659A
:101030006E73650A00000000000000000050696E39
:1010400061666F72650A0000000000000000000089
:101050000000000000000000000000000000000090
:101060000000000000000000000000000000000080
:101070000000000000000000000000416E642077C6
:10108000686973746C6520616C6C2074686520619C
:101090006972732066726F6D207468617420696E66
:1010A0006665726E616C206E6F6E73656E73650A35
:1010B00000000000000000000050696E61666F7261
:1010C000650A0000000000000000000000000000B1
:1010D0000000000000000000000000000000000010
:1010E0000000000000000000000000000000000000
:1010F00000000000000000416E642077686973748E
:101100006C6520616C6C2074686520616972732065
:1011100066726F6D207468617420696E6665726EA8
:10112000616C206E6F6E73656E73650A000000005F
:10113000000000000050696E6170696E61666F7238
:10114000650A000000000000000000000000000030
:10115000000000000000000000000000000000008F
:10116000000000000000000000000000000000007F
:101170000000005468656E20492063616E2077721C
:1011800069746520612077617368696E67206269A0
:101190006C6C20696E20426162796C6F6E696320AD
:1011A00063756E6569666F726D0A0000000000006D
:1011B00000416E642074656C6C20796F75206576D3
:1011C0002772792064657461696C206F66204361C1
:1011D0007261637461637573277320756E69666FDE
:1011E000726D0A00000000000000000000000049CD
:1011F0006E2073686F72742C20696E206D61747438
:1012000065727320766567657461626C652C206118
:101210006E696D616C2C20616E64206D696E657203
:10122000616C0A000000000000000000004920611D
:101230006D207468652076657279206D6F64656CC9
:10124000206F662061206D6F6465726E204D616A4B
:101250006F722D47656E6572616C0A0000000000B8
:101260000000000000000000000000496E207368CC
:101270006F72742C20696E206D61747465727320B6
:10128000766567657461626C652C20616E696D615D
:101290006C2C20616E64206D696E6572616C0A0051
:1012A0000000000000000000004865206973207401
:1012B00068652076657279206D6F64656C206F6655
:1012C0002061206D6F6465726E204D616A6F722DB2
:1012D00047656E6572616C0A000000000000000046
:1012E00000000000000000496E20666163742C203D
:1012F0007768656E2049206B6E6F77207768617420
:10130000206973206D65616E7420627920276D619C
:101310006D656C6F6E2720616E640A00000000002E
:10132000000000000027526176656C696E270A0094
:1013300000000000000000000000000000000000AD
:10134000000000000000000000000000000000009D
:10135000000000000000000000000000000000008D
:101360000000005768656E20492063616E20746537
:101370006C6C2061742073696768742061204D6112
:1013800075736572207269666C652066726F6D2078
:1013900061206A6176656C696E0A000000000000D9
:1013A000005768656E2073756368206166666169C1
:1013B000727320617320736F727469657320616E3C
:1013C00064207375727072697365732049276D208C
:1013D0006D6F72650A0000000000000000000057F9
:1013E0006172792061740A000000000000000000B2
:1013F00000000000000000000000000000000000ED
:1014000000000000000000000000000000000000DC
:1014100000000000000000000000000000416E64B9
:10142000207768656E2049206B6E6F77207072653B
:10143000636973656C792077686174206973206DC6
:1014400065616E742062790A0000000000000000EF
:10145000000000000000000000000027436F6D6DD9
:101460006973736172696174270A000000000000EB
:10147000000000000000000000000000000000006C
:10148000000000000000000000000000000000005C
:101490000000000000000000005768656E20492031
:1014A00068617665206C6561726E7420776861741E
:1014B0002070726F67726573732068617320626554
:1014C000656E206D61646520696E0A000000000091
:1014D000000000000000004D6F6465726E206775AB
:1014E0006E6E6572790A00000000000000000000C6
:1014F00000000000000000000000000000000000EC
:1015000000000000000000000000000000000000DB
:1015100000000000005768656E2049206B6E6F77F1
:10152000206D6F7265206F662074616374696373E8
:10153000207468616E2061206E6F76696365206932
:101540006E2061206E756E6E6572790A0000000073
:10155000000000496E2073686F72742C20776865F4
:101560006E2049277665206120736D617474657201
:10157000696E67206F6620656C656D656E74616C61
:101580002073747261746567790A000000000000BE
:1015900000596F75276C6C2073617920612062653A
:1015A00074746572204D616A6F722D47656E657245
:1015B000616C20686164206E657665722073617469
:1015C0002061206765650A000000000000000059E6
:1015D0006F75276C6C20736179206120626574746B
:1015E0006572204D616A6F722D47656E6572616C20
:1015F00020686164206E6576657220736174206175
:10160000206765650A0000000000000000596F7542
:10161000276C6C2073617920612062657474657237
:10162000204D616A6F722D47656E6572616C20682E
:101630006164206E65766572207361742061206735
:1016400065650A0000000000000000596F75276CF6
:101650006C20736179206120626574746572204D1D
:10166000616A6F722D47656E6572616C2068616496
:10167000206E6576657220736174206120736174D9
:1016800020610A0000000000004765650A000000B4
:10169000000000000000000000000000000000004A
:1016A000000000000000000000000000000000003A
:1016B000000000000000000000000000000000002A
:1016C00000000000000000466F72206D79206D69F7
:1016D0006C6974617279206B6E6F776C6564676595
:1016E0002C2074686F7567682049276D20706C75B1
:1016F000636B7920616E640A000000000000000046
:101700000000000000416476656E747572790A000D
:1017100000000000000000000000000000000000C9
:1017200000000000000000000000000000000000B9
:1017300000000000000000000000000000000000A9
:10174000000000486173206F6E6C79206265656EE1
:101750002062726F7567687420646F776E20746F93
:101760002074686520626567696E6E696E67206FB8
:1017700066207468650A0000000000000000000098
:101780000043656E747572790A0000000000000065
:101790000000000000000000000000000000000049
:1017A0000000000000000000000000000000000039
:1017B00000000000000000000000000000000042E7
:1017C0007574207374696C6C2C20696E206D617463
:1017D0007465727320766567657461626C652C2030
:1017E000616E696D616C2C20616E64206D696E653F
:1017F00072616C0A000000000000000000492061D6
:101800006D207468652076657279206D6F64656CF3
:10181000206F662061206D6F6465726E204D616A75
:101820006F722D47656E6572616C0A0000000000E2
:1018300000000000000000000000004275742073EA
:1018400074696C6C2C20696E206D617474657273A0
:1018500020766567657461626C652C20616E696DC8
:10186000616C2C20616E64206D696E6572616C0A1A
:10187000000000000000000000486520697320742B
:1018800068652076657279206D6F64656C206F667F
:101890002061206D6F6465726E204D616A6F722DDC
:1018A00047656E6572616C0A000000000000000070
:1018B000000000000000000011241FBECFEFD1E2A5
:1018C000DEBFCDBF00E00CBF14E1A0E0B2E0E2EF6C
:1018D000F8E800E00BBF02C007900D92AC31B107F1
:1018E000D9F727E1ACE1B4E101C01D92AB30B207FA
:1018F000E1F70E94F1390C9477440C940000CF93E7
:10190000DF93CDB7DEB72A970FB6F894DEBF0FBED0
:10191000CDBF8091E516813409F046C08091E6166E
:10192000833719F40E94DA172AC08091E6168D36A3
:1019300019F40E944A1823C08091E616833631F4C8
:101940008091E71680530E944F1819C08091E616C7
:101950008F3631F48091E71680530E941A180FC019
:101960008091E6168C3621F481E00E942C1807C085
:101970008091E616883619F480E00E942C1885EED6
:1019800096E1892F8F9385EE96E18F938DE297E014
:10199000892F8F938DE297E08F930E94AA430F9037
:1019A0000F900F900F9071C28091E516803719F457
:1019B0000E94F92A6AC28091E516803519F40E94C6
:1019C000EB2A63C266E377E085EE96E10E94494325
:1019D000892B19F40E94072B58C28091E5168D348B
:1019E00019F40E94873751C28091E516823339F489
:1019F00086EE96E10E9429420E949E3746C280915F
:101A0000E516823571F48091E616833511F40E9453
:101A1000152B8091E616823509F037C20E942A2BD9
:101A200034C28091E516823719F40E9401352DC227
:101A30008091E5168136B1F48091E616813619F46D
:101A40000E94B11822C28091E616833719F40E94D1
:101A5000B4191BC28091E616843609F016C20E94A2
:101A6000891913C28091E516863409F066C00E9478
:101A7000DE2C8091E616873711F43FD206C28091A2
:101A8000E616893619F40E948A2CFFC18091E61669
:101A9000823711F4A8D2F9C18091E616813611F48B
:101AA00031D3F3C18091E616853611F418D3EDC118
:101AB0008091E616853719F40E94FD2DE6C18091CC
:101AC000E616863619F40E945C2DDFC18091E61679
:101AD000833719F40E94B42DD8C18091E616883757
:101AE00019F40E946733D1C18091E616823621F441
:101AF00085EE96E1D4D1C9C18091E616843711F400
:101B0000F1D3C3C18091E616813311F45ED6BDC115
:101B10008091E616823311F4B8D7B7C18091E616EA
:101B2000833319F40E94C716B0C18091E61684333E
:101B300009F0ABC10E94E515A8C18091E516863673
:101B4000E9F48091E616833719F40E9454369DC15A
:101B50008091E616893619F40E94C13696C18091AB
:101B6000E6168A3619F40E94F0368FC18091E61687
:101B7000853609F08AC10E944D3687C18091E516ED
:101B80008337F9F480910002882F90E00E94333768
:101B90008091000291E0980F90930002882F90E0CE
:101BA000292F2F938F938AE397E0892F8F938AE3CE
:101BB00097E08F930E94AA430F900F900F900F9081
:101BC00064C18091E5168E3619F40E943F375DC1DD
:101BD0008091E516833619F40E94473556C18091ED
:101BE000E516853691F58091E616803341F08091B7
:101BF000E616813321F08091E616843331F40E9499
:101C0000082C81E497E00E94E9438091E616823334
:101C100031F40E94162C8EE597E00E94E9438091F2
:101C2000E616833331F40E941E2C82E797E00E946F
:101C3000E9438091E616853309F027C10E94262CDE
:101C400089E897E00E94E94320C18091E516843637
:101C500051F58091E616803331F40E940F2C80EA12
:101C600097E00E94E9438091E616823331F40E94A6
:101C70001A2C8EEB97E00E94E9438091E61683339D
:101C800031F40E94222C83ED97E00E94E943809179
:101C9000E616853309F0F9C00E942C2C8BEE97E0F4
:101CA0000E94E943F2C08091E5168F3641F580919C
:101CB000E616882F90E0AC01405351092FEF31E038
:101CC000429FC001439F900D529F900D11249A8313
:101CD000898389819A810E9425368A818F9389819F
:101CE0008F9383E098E0892F8F9383E098E08F9320
:101CF0000E94AA430F900F900F900F90C6C0809142
:101D0000E5168F3441F58091E61680538B838B81E5
:101D1000883008F0BAC08091E716882F90E0805D87
:101D20009F459D838C838C819D81BC018B810E940A
:101D3000EC358D818F938C818F938AE098E0892F89
:101D40008F938AE098E08F930E94AA430F900F90A0
:101D50000F900F909AC08091E516823659F583E175
:101D600098E00E94E9438091E616882F90E0C097A2
:101D7000AC012FEF31E0429FC001439F900D529F75
:101D8000900D11249F838E838E819F810E9439360E
:101D90008F818F938E818F9383E098E0892F8F932B
:101DA00083E098E08F930E94AA430F900F900F90CA
:101DB0000F906BC08091E516823489F58091E6160C
:101DC000805388878885883008F05FC08091E71647
:101DD000882F90E0C097AC012FEF31E0429FC00107
:101DE000439F900D529F900D11249A878987898572
:101DF0009A85BC0188850E94B3358A858F93898531
:101E00008F9383E098E0892F8F9383E098E08F93FE
:101E10000E94AA430F900F900F900F9036C08091B0
:101E2000E516873769F48091E616813311F40E9434
:101E3000322C8091E616803341F50E94362C25C065
:101E40008091E5168D3669F48091E616813311F4A0
:101E50000E947E2C8091E6168033B9F40E94842C77
:101E600014C085EE96E1892F8F9385EE96E18F93CE
:101E700087E198E0892F8F9387E198E08F930E9404
:101E8000AA430F900F900F900F9000002A960FB664
:101E9000F894DEBF0FBECDBFDF91CF910895CF93F1
:101EA000DF9300D01F92CDB7DEB79C838B838B81ED
:101EB0009C8103960E9429429A8389838A818F9309
:101EC00089818F9384E298E0892F8F9384E298E050
:101ED0008F930E94AA430F900F900F900F908981CB
:101EE0009A8190931D1480931C1400000F900F9002
:101EF0000F900F90DF91CF910895CF93DF93CDB7DF
:101F0000DEB7C25DD1090FB6F894DEBF0FBECDBFFC
:101F10008AE398E098878F83CE010B969A8789870A
:101F200019821A821B821C821D824EC01E8224C00E
:101F30008E81282F30E09E818DEC989F812D112479
:101F4000869586958695880F482F440F440F840FF9
:101F5000492F481B842F882F90E04F815885840F8C
:101F6000951FFC014081CE010B96820F931FFC014F
:101F700040838E818F5F8E838E81883CC8F2498535
:101F80005A8589819A81AB81BC8128ECBC01CD0145
:101F90000E94E02F883C49F086EE91E0292F2F9394
:101FA0008F930E94BD430F900F9089819A81AB81DE
:101FB000BC8188539F4FAF4FBF4F89839A83AB83B8
:101FC000BC838D818F5F8D838D818A3008F4AECF85
:101FD0000000CE52DF4F0FB6F894DEBF0FBECDBF6C
:101FE000DF91CF910895CF93DF93CDB7DEB7C15D79
:101FF000D1090FB6F894DEBF0FBECDBFCE01099652
:1020000098878F8319821A821B821C8285E498E04C
:102010000E94E9431D8254C01E820DC08E81882F0C
:1020200090E09E01275F3F4F820F931FFC011082BB
:102030008E818F5F8E838E81883C80F38D81882F87
:1020400090E0292F2F938F9389E598E0892F8F9324
:1020500089E598E08F930E94AA430F900F900F900C
:102060000F904F81588589819A81AB81BC8128EC82
:10207000BC01CD010E941B32883C51F08AEF91E0F7
:10208000292F2F938F930E94BD430F900F9009C06B
:10209000CE018F529F4FFC011082CE0109960E9403
:1020A000E94389819A81AB81BC8188539F4FAF4FAF
:1020B000BF4F89839A83AB83BC838D818F5F8D8370
:1020C0008D818A3008F4A8CF0000CF52DF4F0FB6C1
:1020D000F894DEBF0FBECDBFDF91CF910895CF93AF
:1020E000DF93CDB7DEB780911C1490911D14CC0105
:1020F000A0E0B0E0BC01CD010E94D6320000DF912B
:10210000CF910895EF920F93CF93DF93CDB7DEB7C2
:102110006A970FB6F894DEBF0FBECDBF80911C1436
:1021200090911D149A838983CBC089819A81002460
:10213000969587950794969587950794982F802D67
:10214000CC01A0E0B0E08B839C83AD83BE8389810A
:102150009A8100249695879507949695879507947C
:10216000982F802DCC01A0E0B0E08B839C83AD83C1
:10217000BE8388C08E818F938D818F938C818F9346
:102180008B818F938A818F9389818F9385E698E0E5
:10219000892F8F9385E698E08F930E94AA438DB78D
:1021A0009EB708960FB6F894DEBF0FBECDBF188657
:1021B0001F8257C09E01255F3F4F4F8158858B81FD
:1021C0009C81AD81BE81E12C00E1BC01CD010E946A
:1021D000B630803191F088858F938F818F938CE713
:1021E00098E0892F8F938CE798E08F930E94AA4301
:1021F0000F900F900F900F902DC01A86198626C051
:102200009E01255F3F4F89859A85820F931FFC01B0
:1022100080818823B1F429853A858F819885820F42
:10222000931F292F2F938F9380E998E0892F8F9305
:1022300080E998E08F930E94AA430F900F900F902F
:102240000F9089859A8501969A87898789859A85CD
:102250004097B4F20E9467338F81988540969887A3
:102260008F838F8198858115984008F4A3CF8B8147
:102270009C81AD81BE810196A11DB11D8B839C8384
:10228000AD83BE8389819A810024969587950794B2
:10229000969587950794982F802D01969C0140E094
:1022A00050E08B819C81AD81BE8182179307A4078A
:1022B000B50708F45FCF89819A8101969A83898353
:1022C00089819A818115984008F42FCF00006A9681
:1022D0000FB6F894DEBF0FBECDBFDF91CF910F9147
:1022E000EF900895CF93DF93CDB7DEB7C259D109F0
:1022F0000FB6F894DEBF0FBECDBF80911C14909135
:102300001D14988B8F871D821E821F821886198646
:102310001A861B861C861E861D8680E090E0A2E041
:10232000B0E0898B9A8BAB8BBC8B8F859889CC0165
:10233000A0E0B0E0072E71E1880F991FAA1FBB1F14
:102340007A95D1F7702D89839A83AB83BC83E0C0E3
:102350008D850E942D3A9E8B8D8B8D899E899C0147
:10236000990F440B550B8D819E81AF81B885280F45
:10237000391F4A1F5B1F89899A89AB89BC898217DB
:102380009307A407B50708F4D2C08D859E859C01EC
:102390002F5F3F4F3E872D87282FCE014796BC01E8
:1023A000822F0E94213ACE0147960E945243282F45
:1023B000AE01495E5F4F89819A81AB81BC81BC01CE
:1023C000CD010E94E02F282F30E08D899E892817AB
:1023D000390709F051C0CE014796292F2F938F93CB
:1023E0008C818F938B818F938A818F9389818F9337
:1023F00087EA98E0892F8F9387EA98E08F930E946D
:10240000AA438DB79EB708960FB6F894DEBF0FBEED
:10241000CDBF0E94B42D8D899E89092E000CAA0B78
:10242000BB0B2D813E814F815885820F931FA41FC6
:10243000B51F8D839E83AF83B8878D899E89092EB2
:10244000000CAA0BBB0B29813A814B815C81820F66
:10245000931FA41FB51F89839A83AB83BC830E94FB
:102460001F3A282F30E08D859E85821793070CF444
:102470004FC01E861D864CC08E898F938D898F9389
:102480008C818F938B818F938A818F9389818F9396
:1024900085EC98E0892F8F9385EC98E08F930E94CC
:1024A000AA43EDB7FEB738960FB6F894DEBF0FBE5D
:1024B000CDBF8D899E89092E000CAA0BBB0B2D81E7
:1024C0003E814F815885820F931FA41FB51F8D83B6
:1024D0009E83AF83B8878D899E89092E000CAA0B35
:1024E000BB0B29813A814B815C81820F931FA41F12
:1024F000B51F89839A83AB83BC830E941F3A282F20
:1025000030E08D859E858217930714F01E861D8608
:102510002D813E814F81588589899A89AB89BC89F3
:10252000281739074A075B0708F412CF01C00000DB
:102530008F859889CC01A0E0B0E0072E71E1880F6B
:10254000991FAA1FBB1F7A95D1F7702D89839A8393
:10255000AB83BC831E861D861DC18D850E942D3ACE
:102560009E8B8D8B8D899E899C01990F440B550BF9
:1025700089859A85AB85BC85280F391F4A1F5B1F4B
:1025800089899A89AB89BC8982179307A407B50703
:1025900008F40FC18D859E859C012F5F3F4F3E87BC
:1025A0002D87282FCE018B5A9F4FBC01822F0E946E
:1025B000213A2D89AE01495E5F4F89819A81AB81B5
:1025C000BC81BC01CD010E941B32282F30E08D89D7
:1025D0009E892817390709F091C09E01295E3F4F57
:1025E0008D899E89820F931FFC0110829E012B5AB8
:1025F0003F4FCE014796B9010E944943892BD1F440
:102600008C818F938B818F938A818F9389818F9314
:102610008DEE98E0892F8F938DEE98E08F930E9436
:10262000AA430F900F900F900F900F900F900E9461
:10263000B42D33C08C818F938B818F938A818F933C
:1026400089818F938BE099E0892F8F938BE099E0BC
:102650008F930E94AA430F900F900F900F900F90AE
:102660000F900E94B42DCE018B5A9F4F292F2F938C
:102670008F93CE014796292F2F938F9389E299E06C
:10268000892F8F9389E299E08F930E94AA430F903C
:102690000F900F900F900F900F908D899E89092EAB
:1026A000000CAA0BBB0B29853A854B855C85820FF4
:1026B000931FA41FB51F89879A87AB87BC878D8915
:1026C0009E89092E000CAA0BBB0B29813A814B81F4
:1026D0005C81820F931FA41FB51F89839A83AB83EC
:1026E000BC830E941F3A282F30E08D859E8582177B
:1026F00093070CF44FC01E861D864CC08E858F93A9
:102700008D858F938C818F938B818F938A818F930B
:1027100089818F9380E399E0892F8F9380E399E0FB
:102720008F930E94AA438DB79EB708960FB6F89470
:10273000DEBF0FBECDBF8D899E89092E000CAA0B6E
:10274000BB0B29853A854B855C85820F931FA41F9F
:10275000B51F89879A87AB87BC878D899E89092E8B
:10276000000CAA0BBB0B29813A814B815C81820F43
:10277000931FA41FB51F89839A83AB83BC830E94D8
:102780001F3A282F30E08D859E858217930714F01D
:102790001E861D8629853A854B855C8589899A899F
:1027A000AB89BC89281739074A075B0708F4D5CEDF
:1027B00001C000000000CE56DF4F0FB6F894DEBF18
:1027C0000FBECDBFDF91CF910895EF920F93CF93BE
:1027D000DF93CDB7DEB7AA970FB6F894DEBF0FBE72
:1027E000CDBF80911C1490911D1498878F831C82FB
:1027F0001B8263C01A8219820EC09E01255F3F4F63
:1028000089819A81820F931FFC01108289819A81AC
:1028100001969A83898389819A81809774F38F8145
:1028200098859C0100243695279507943695279521
:102830000794322F202D8B819C81820F931FCC0116
:10284000A0E0B0E09E01255F3F4FE12C00E240E0B8
:1028500050E0BC01CD010E94B6301A82198220C01E
:102860009E01255F3F4F89819A81820F931FFC0152
:102870008081882F90E0292F2F938F938AE599E00C
:10288000892F8F938AE599E08F930E94AA430F9036
:102890000F900F900F9089819A8101969A83898376
:1028A00089819A818097E4F28AE090E00E94E44373
:1028B0008B819C8101969C838B838B819C81089763
:1028C0000CF498CF1A8219820FC09E01255F3F4FEA
:1028D00089819A81820F931F21E3FC0120838981E2
:1028E0009A8101969A83898389819A8140976CF3B2
:1028F0001A82198223C08F8198859C010024369505
:1029000027950794369527950794322F202D898196
:102910009A81820F931FCC01A0E0B0E09E01255F59
:102920003F4FE12C00E140E050E0BC01CD010E94AE
:10293000522E89819A8101969A83898389819A810D
:102940000597CCF28FEF9FEF9E838D8389C08D8199
:102950009E812F813885820F931F9A8789878A8568
:102960008F9389858F9380E699E0892F8F9380E6F6
:1029700099E08F930E94AA430F900F900F900F90B1
:102980001C821B8263C01A8219820EC09E01255FC1
:102990003F4F89819A81820F931FFC0110828981A8
:1029A0009A8101969A83898389819A81809774F3A9
:1029B0008F8198859C01002436952795079436953C
:1029C00027950794322F202D8B819C81820F931F96
:1029D000CC01A0E0B0E09E01255F3F4FE12C00E27A
:1029E00040E050E0BC01CD010E94B6301A8219824D
:1029F00020C09E01255F3F4F89819A81820F931FDE
:102A0000FC018081882F90E0292F2F938F938AE5F6
:102A100099E0892F8F938AE599E08F930E94AA43CA
:102A20000F900F900F900F9089819A8101969A8351
:102A3000898389819A818097E4F28AE090E00E94FC
:102A4000E4438B819C8101969C838B838B819C8149
:102A500008970CF498CF8D819E8101969E838D837B
:102A60008D819E8102970CF472CF8AE699E00E94D4
:102A7000E9430000AA960FB6F894DEBF0FBECDBFA3
:102A8000DF91CF910F91EF900895EF920F93CF9335
:102A9000DF93CDB7DEB7AA970FB6F894DEBF0FBEAF
:102AA000CDBF80911C1490911D149E838D838D81C8
:102AB0009E8100249695879507949695879507940F
:102AC000982F802DCC01A0E0B0E08F839887A98754
:102AD000BA878CE699E00E94E9431C821B8263C09E
:102AE0001A8219820EC09E01255F3F4F89819A810B
:102AF000820F931FFC01108289819A8101969A832B
:102B0000898389819A81809774F34B815C819E01CE
:102B1000255F3F4F8F819885A985BA85E12C00E21A
:102B2000BC01CD010E94B6308C818F938B818F9335
:102B30008A858F9389858F9388858F938F818F93D3
:102B400083E799E0892F8F9383E799E08F930E9421
:102B5000AA438DB79EB708960FB6F894DEBF0FBE96
:102B6000CDBF1A82198212C09E01255F3F4F898115
:102B70009A81820F931FFC018081882F90E00E9430
:102B8000E44389819A8101969A83898389819A8114
:102B9000809754F38AE090E00E94E4438B819C810B
:102BA00080969C838B838B819C81811598400CF44B
:102BB00097CF0000AA960FB6F894DEBF0FBECDBF28
:102BC000DF91CF910F91EF900895EF92FF920F93C5
:102BD0001F93CF93DF93CDB7DEB7AA970FB6F894C4
:102BE000DEBF0FBECDBF80911C1490911D149E833B
:102BF0008D838D819E810024969587950794969567
:102C000087950794982F802DCC01A0E0B0E08F83AA
:102C10009887A987BA878FE899E00E94E9431C82C8
:102C20001B8265C01A8219820EC09E01255F3F4F2C
:102C300089819A81820F931FFC01108289819A8178
:102C400001969A83898389819A81809774F39E0182
:102C5000255F3F4F4B815C818F819885A985BA851F
:102C6000E12CF12C00E210E0BC01CD010E94953175
:102C70008C818F938B818F938A858F9389858F9396
:102C800088858F938F818F9383E799E0892F8F9326
:102C900083E799E08F930E94AA438DB79EB7089669
:102CA0000FB6F894DEBF0FBECDBF1A82198212C0D4
:102CB0009E01255F3F4F89819A81820F931FFC01FE
:102CC0008081882F90E00E94E44389819A81019657
:102CD0009A83898389819A81809754F38AE090E06E
:102CE0000E94E4438B819C8180969C838B838B81A3
:102CF0009C81811598400CF495CF0000AA960FB6E0
:102D0000F894DEBF0FBECDBFDF91CF911F910F9121
:102D1000FF90EF900895CF93DF9300D0CDB7DEB74B
:102D20009A8389836B831092000222C080910002F3
:102D3000882F90E029813A81820F931FFC018081C6
:102D4000082E000C990B292F2F938F938AE599E079
:102D5000892F8F938AE599E08F930E94AA430F9061
:102D60000F900F900F90809100028F5F8093000270
:102D7000809100028032D0F28AE090E00E94E44329
:102D800000000F900F900F90DF91CF910895EF9278
:102D90000F93CF93DF93CDB7DEB7EA970FB6F894D2
:102DA000DEBF0FBECDBF87E090E0A0E0B0E089833A
:102DB0009A83AB83BC831E821D8280E1EDEAF9E039
:102DC000DE019B9601900D928A95E1F789819A81A7
:102DD000AB81BC819C01AD01012E1BE0220F331F92
:102DE000441F551F1A95D1F7102D8D819E81CC015E
:102DF000A0E0B0E0820F931FA41FB51F8F839887B8
:102E0000A987BA879E01255F3F4F4D815E818981E9
:102E10009A81AB81BC81E12C00E2BC01CD010E9412
:102E2000B63086E999E0892F8F9386E999E08F93F0
:102E30000E94AA430F900F90CE010B9660E26BDFC9
:102E40000E945C2D0E94FD2D0E9467339E01255D2E
:102E50003F4F4D815E8189819A81AB81BC81E12C9C
:102E600000E1BC01CD010E94522E0E945C2D0E9407
:102E700067339E01255F3F4F4D815E8189819A8135
:102E8000AB81BC81E12C00E2BC01CD010E94B630D7
:102E90000E945C2D0E94673381EA99E0892F8F930D
:102EA00081EA99E08F930E94AA430F900F90CE0180
:102EB0000B9660E230DF0000EA960FB6F894DEBFB2
:102EC0000FBECDBFDF91CF910F91EF9008951F926C
:102ED0000F920FB60F9211240F900FBE0F901F90FC
:102EE00018951F920F920FB60F9211242F938F9364
:102EF0009F938FB78F778FBF88B1805888B98091A3
:102F000022149091231401969093231480932214F9
:102F100080912214909123148115924019F481E03C
:102F20008093201480912214909123148115944051
:102F3000A8F080912214909123149450909323141C
:102F40008093221481E08093211480911E1490912B
:102F50001F14019690931F1480931E1478949F91D0
:102F60008F912F910F900FBE0F901F90189581EDAC
:102F70009AE00E94E94380E88093610082E08093B8
:102F8000B00084E08093B10080EE8093B300109293
:102F9000B200E0E7F0E08081826080830895E7DF9F
:102FA00080EC80936A0080E88DBB85EE9AE00C94FB
:102FB000E943089560E080E00E94BD2B1F928F934B
:102FC00081E09BE09F938F930E94AA430F900F9004
:102FD0000F900F900895CF93DF93D82FC62F88308E
:102FE00010F4623040F083E19BE09F938F930E9446
:102FF000AA430F900F90CC2331F061E001C0660F1F
:10300000DA95EAF701C060E08BE00E94AB2BDF911C
:10301000CF91089560E485E00E94AB2B60E487E0E7
:103020000E94AB2B60E489E00E94AB2B60E086E05D
:10303000D2CF0895CF93C82F883040F08DE292E030
:103040009F938F930E94BD430F900F906C2F83E04E
:103050000E94AB2BCF910895CF93C82F60E084E0FE
:103060000E94BD2BC11103C0682F6F7E0EC0C130FE
:1030700019F4682F606109C08DE092E09F938F93EF
:103080000E94BD430F900F9003C084E00E94AB2BC1
:10309000CF91089560E080E10C94AB2B08951F93CD
:1030A000CF93DF93182F682F81E10E94DB2BD82F5D
:1030B000C92F282F392FA0E5B3EC0E945E410E9452
:1030C000BB3C20E030E040E859E30E941F3D0E94F5
:1030D0008D3C7F936F93CF93DF931F921F938AE270
:1030E0009BE09F938F930E94AA438DB79EB708964B
:1030F0000FB6F8949EBF0FBE8DBF8D2F9C2FDF9112
:10310000CF911F910895CF93DF93C82F20E013C074
:10311000CF5FCF70209153163091541681E090E02C
:103120000C2E02C0880F991F0A94E2F78223932382
:103130002D2F892B21F4D1E0D20F213148F3D13149
:1031400041F488E492E09F938F930E94BD430F90D7
:103150000F90D13111F08C2F01C08FEFDF91CF9103
:103160000895CF93C0E01DC020915316309154169E
:1031700081E090E00C2E02C0880F991F0A94E2F7BC
:1031800082239323892B61F01F92CF9384E492E0F2
:103190009F938F930E94BD430F900F900F900F90BD
:1031A000CF5FC03108F382E492E09F938F930E9437
:1031B000BD43E3E5F6E181818F9380818F938BE4BA
:1031C0009BE09F938F930E94AA430F900F900F90C4
:1031D0000F900F900F90CF91089595DFECE7F0E0FE
:1031E0009081907E90839081282F2770922B9083DE
:1031F00083FF06C0EBE7F0E090819860908308952C
:10320000EBE7F0E09081977F908308951F920F92F3
:103210000FB60F9211240BB60F922F933F934F933B
:103220005F936F937F938F939F93AF93BF93EF932E
:10323000FF932091780040912614642F042E000CF7
:10324000770BFB01EE0FFF1FE75DFB4E8081918145
:10325000DC01A20FB11D9D01B183A083A9E7B0E0FD
:103260009C91892F90E0982F8827820F931F91833C
:1032700080833C912C919F938F931F923F931F9239
:103280002F937F934F9380E69BE09F938F930E94B1
:10329000AA4380912614A1DF8093261490912714CD
:1032A0002DB73EB7265F3F4F0FB6F8943EBF0FBE17
:1032B0002DBF891312C0809124149091251401967A
:1032C0009093251480932414019739F481E080931E
:1032D000281410922514109224148091281481111E
:1032E00005C0EAE7F0E0808180648083FF91EF9180
:1032F000BF91AF919F918F917F916F915F914F910E
:103300003F912F910F900BBE0F900FBE0F901F900B
:103310001895CF93C09127148AE090E00E94E4436F
:103320008C2F0C2E000C990BFC01EE0FFF1FE75D9C
:10333000FB4E81818F9380818F939F93CF9384E7FE
:103340009BE09F938F930E94AA438C2FDCDEC82FB3
:10335000809127140F900F900F900F900F900F9067
:10336000C813DACFCF9108951092281480912714B2
:10337000E82FEE0FFF0BE75DFB4E11821082C3DEDC
:10338000909127148913F4CFEAE7F0E080818064FC
:10339000808308958FE021DF809326148093271483
:1033A0008F3F71F0EAE7F0E08081806480838FE8EE
:1033B00080838FEF80937E0080937F00D5CF089528
:1033C0008FE79BE09F938F930E94BD430F900F90D8
:1033D00008958077992721E030E08032910511F03F
:1033E00020E030E0FA01318320838031910579F0CB
:1033F00018F4892B41F008958033910571F08035E0
:10340000910589F00895FB0111821082089583E0EF
:1034100090E0FB0191838083089586E090E0FB01BA
:1034200091838083089588E090E0FB0191838083FD
:1034300008950F931F938B019C0180E001C08F5F63
:1034400041E050E060E070E0082E04C0440F551FDA
:10345000661F771F0A94D2F7401751076207730758
:1034600070F31F910F9108952F923F924F925F92A8
:103470006F927F928F929F92AF92BF92CF92DF9284
:10348000EF92FF920F931F93CF93DF93CDB7DEB7E9
:103490002A970FB6F894DEBF0FBECDBF4C01FB01DB
:1034A0000F2EF1E16F2EF6E07F2EF02DCEC0408181
:1034B000D30112969C9112974913C4C0418113966F
:1034C0009C9113974913BEC0F40131832083149655
:1034D0008D919D910D90BC91A02D5C016D01E12C11
:1034E000F12C87018983BA82CB82DC82ED82FE8255
:1034F0000F831887D3011C960D911D912D913C913E
:103500001F97A02EB12EC22ED32EE12CF12C00E05D
:1035100010E029813A814B815C8160E070E080E0BD
:1035200090E00E947D41F3012088318842885388D1
:1035300062015101E12CF12C87012982BA82CB82F0
:10354000DC82ED82FE820F831887E12CF12C00E0F3
:1035500010E00E947D41D30154962D903D904D90F6
:103560005C90579762015101E12CF12C870129826F
:10357000BA82CB82DC82ED82FE820F831887E12C37
:10358000F12C00E010E00E947D41D4011B962C93A9
:103590001B971C963C931C971D964C931D971E964B
:1035A0005C931E971F966C931F9750967C93509731
:1035B00051968C93519752969C93F30124813581B7
:1035C0004681578164857585868597850E9433413C
:1035D0009B01AC01D40153966D937D938D939C9385
:1035E000569784819581A681B781F401908F878B4E
:1035F000F30180859185A285B385F401928F818F37
:10360000D30150966D917D918D919C9153970E941D
:1036100033410FDFF401838FF301808D918DA28DF3
:10362000B38DF40184A395A3A6A3B7A3F301848D5E
:10363000958DA68DB78DF40180A391A3A2A3B3A30A
:1036400081E00BC000E2600E711CD3012D913C9112
:103650002115310509F02BCF80E02A960FB6F8949A
:10366000DEBF0FBECDBFDF91CF911F910F91FF90B5
:10367000EF90DF90CF90BF90AF909F908F907F9012
:103680006F905F904F903F902F900895CF93DF936E
:10369000EB011EC0DE011196288130E0322F222777
:1036A0008227932720E030E00EC0AC01440F551F65
:1036B00099231CF485E090E802C080E090E0842724
:1036C00095272F5F3F4F283031057CF3AF01ED0187
:1036D000FA013197452BF1F6DF91CF910895DC0186
:1036E000615071099B0121503109FC01E60FF71F60
:1036F000108203C02150310910823323B4F0FD0140
:10370000E20FF31F908191529F35A0F740E050E007
:103710000EC0FD01E40FF51F90819052903610F01D
:103720008FE380834F5F5F4F02C040E050E024177B
:1037300035077CF70895FC01A281B3818C9183FF4A
:1037400003C08BEE868307C081FF03C08BEB8683AB
:1037500002C08BE0868311968C9180FF05C082E3C6
:10376000878384E38087089582E0878384E8808765
:103770000895CF93DF93CDB7DEB762970FB6F89475
:10378000DEBF0FBECDBFFE01319622E1DF011D92EB
:103790002A95E9F723E1298323E02A836B835C835D
:1037A0004D83BF010E94E72862960FB6F894DEBFF2
:1037B0000FBECDBFDF91CF910895CF93DF93CDB7EB
:1037C000DEB762970FB6F894DEBF0FBECDBFFE0125
:1037D000319622E1DF011D922A95E9F720E3298342
:1037E0006B835C834D8323E02A83BF010E94E7281B
:1037F00062960FB6F894DEBF0FBECDBFDF91CF91BA
:103800000895CF93DF93CDB7DEB762970FB6F894E4
:10381000DEBF0FBECDBFBE016F5F7F4F22E1FB0158
:1038200011922A95E9F72FE329830E94E7286296EF
:103830000FB6F894DEBF0FBECDBFDF91CF910895D4
:103840007F928F929F92AF92BF92CF92DF92EF9230
:10385000FF920F931F93CF93DF93CDB7DEB762979D
:103860000FB6F894DEBF0FBECDBFDE0111965D012D
:10387000A2E1F5011192AA95E9F7DC011696EC9107
:103880001697E983E2E0EA83812E922EA32EBB24D1
:103890008B829096EC919097E0FF15C05C967C909F
:1038A0005C975D96AC91E72DF0E0EA1BF10904C04E
:1038B0007695679557954795EA95D2F74170429569
:1038C000407F842A8B820C83A70160E070E04D87E3
:1038D0005E876F87788BDA8AC98ABE016F5F7F4FF8
:1038E0000E94E72862960FB6F894DEBF0FBECDBFE8
:1038F000DF91CF911F910F91FF90EF90DF90CF90CC
:10390000BF90AF909F908F907F9008950F931F93DB
:10391000CF93DF93CDB7DEB762970FB6F894DEBFD3
:103920000FBECDBFFE01319622E1DF011D922A9527
:10393000E9F72FE9298302E010E020E030E00D876D
:103940001E872F87388B7A8B698BBF010E94E728EF
:1039500062960FB6F894DEBF0FBECDBFDF91CF9158
:103960001F910F910895FF920F931F93CF93DF93B1
:10397000CDB7DEB762970FB6F894DEBF0FBECDBFEE
:10398000F62EBE016F5F7F4F22E1FB0111922A9557
:10399000E9F72FE1298321E02A83FB8201E010E08F
:1039A00020E030E00F83188729873A875C874B87B0
:1039B0000E94E7288C01992384F41F92FF921F93A1
:1039C0008F9386E99BE09F938F930E94AA430F9069
:1039D0000F900F900F900F900F90C80162960FB646
:1039E000F894DEBF0FBECDBFDF91CF911F910F9135
:1039F000FF900895AB0160EBB6CF0895AB0160ED89
:103A0000B2CF0895FF920F931F93CF93DF931F922E
:103A1000CDB7DEB7FC0121A5261779F0613011F48E
:103A200020E401C020E0F62E8C012983BE016F5FE7
:103A30007F4FE4DFF801F1A602C080E090E00F9034
:103A4000DF91CF911F910F91FF900895FF920F93F7
:103A50001F93CF93DF93CDB7DEB762970FB6F8947D
:103A6000DEBF0FBECDBFF62EBE016F5F7F4F22E1DE
:103A7000FB0111922A95E9F72FE0298321E02A839F
:103A8000FB8201E010E020E030E00D871E872F87E9
:103A9000388B5A8B498B0E94E7288C01992384F438
:103AA0001F92FF921F938F9381EB9BE09F938F93C5
:103AB0000E94AA430F900F900F900F900F900F90BD
:103AC000C80162960FB6F894DEBF0FBECDBFDF917E
:103AD000CF911F910F91FF900895AB0160EBB6CF8E
:103AE00008950F931F93CF93DF931F92CDB7DEB747
:103AF0008C011982BE016F5F7F4FEFDF898184FFE8
:103B000008C08F7E8983BE016F5F7F4FC80172DF5F
:103B100002C080E090E00F90DF91CF911F910F9154
:103B200008950F931F93CF93DF931F92CDB7DEB706
:103B30008C011982BE016F5F7F4FCFDF898184FDC9
:103B400008C080618983BE016F5F7F4FC80152DF6B
:103B500002C080E090E00F90DF91CF911F910F9114
:103B60000895EF92FF921F93CF93DF931F92CDB7EB
:103B7000DEB77C01162FBE016F5F7F4FAEDF1130C5
:103B800031F0A0F0123041F0133059F012C08981A9
:103B90008D73806489830DC089818D73806C898366
:103BA00008C089818D738268898303C089818D7380
:103BB0008983BE016F5F7F4FC7011CDF80E090E00B
:103BC0000F90DF91CF911F91FF90EF900895AB017F
:103BD00060EC3CCF08956F927F928F929F92AF924C
:103BE000BF92CF92DF92EF92FF920F931F93CF93EA
:103BF000DF931F92CDB7DEB73C010E949D34822E29
:103C0000932E84E6880E911C08C0BE016F5F7F4F23
:103C1000C301DDDF89818823A4F40E949D34A82C90
:103C2000B92C192D110F110BC12ED12EE12EF12E11
:103C3000012F0E94FE4148F382E99FEFAFEFBFEFF3
:103C400003C080E090E0DC010F90DF91CF911F91E5
:103C50000F91FF90EF90DF90CF90BF90AF909F902B
:103C60008F907F906F9008954F925F926F927F92A6
:103C70008F929F92AF92BF92CF92DF92EF92FF927C
:103C80000F931F93CF93DF931F92CDB7DEB73C0105
:103C90002B010E949D34822E932E84E6880E911C67
:103CA00008C0BE016F5F7F4FC30191DF898180FF34
:103CB00014C00E949D34A82CB92C192D110F110B82
:103CC000C12ED12EE12EF12E012F0E94FE4148F38C
:103CD00082E99FEFAFEFBFEF03C080E090E0DC012F
:103CE0004114510419F02981F20120830F90DF91D2
:103CF000CF911F910F91FF90EF90DF90CF90BF90E9
:103D0000AF909F908F907F906F905F904F900895AD
:103D10002F923F924F925F926F927F928F929F92DB
:103D2000AF92BF92CF92DF92EF92FF920F931F93C9
:103D3000CF93DF93CDB7DEB727970FB6F894DEBFEA
:103D40000FBECDBF3C01542E452E362E272E0C83A0
:103D50001D832E833F8384010CDDBE016D5F7F4F89
:103D6000C30182DF4C01992394F42F923F924F922A
:103D70005F929F928F938BEC9BE09F938F930E9417
:103D8000AA430FB6F894DEBF0FBECDBF2FC0E1101F
:103D900021C08B81AE014F5F5F4FB60190E019DB10
:103DA00089819A81892BB1F02F923F924F925F9235
:103DB00080EF9BE09F938F930E94AA430F900F90F8
:103DC0000F900F900F900F900F2EF6EB8F2E9924DF
:103DD0009A94F02D650178010C811D812E813F811F
:103DE000452D542D632D722DC3012ADDC401279664
:103DF0000FB6F894DEBF0FBECDBFDF91CF911F91FC
:103E00000F91FF90EF90DF90CF90BF90AF909F9079
:103E10008F907F906F905F904F903F902F9008957C
:103E20004F925F926F927F92AF92BF92CF92DF924A
:103E3000EF92FF920F931F93CF93DF935C016B017F
:103E40007901FA0180819181009711F0029779F44C
:103E5000F50161857285FA0182859385A485B58512
:103E6000680F791FA701C6010E94394365C0F5019B
:103E700002A513A5085F1E4FFA014284538464848F
:103E80007584C0E0D0E04BC041145104610471045A
:103E900031F1481659066A067B0628F0481A590A75
:103EA0006A0A7B0A38C0F8014081518162817381BE
:103EB000440D551D661D771D84199509A609B7097E
:103EC0002701612C712C84159505A605B70510F402
:103ED0002C013D01E201412C512C320110C0A701FF
:103EE00060E070E084179507A607B70710F4AC01EF
:103EF000BD01EA01F8014081518162817381F501C0
:103F000081859285BC01640F751FAE01C6010E94B8
:103F10003943CC0EDD1E085F1F4FEC1AFD0AF80175
:103F200084819581A681B7810097A105B10521F013
:103F3000E114F10409F0A8CFDF91CF911F910F9107
:103F4000FF90EF90DF90CF90BF90AF907F906F90F9
:103F50005F904F9008952F923F924F925F926F9291
:103F60007F928F929F92AF92BF92CF92DF92EF9209
:103F7000FF920F931F93CF93DF93CDB7DEB7A09738
:103F80000FB6F894DEBF0FBECDBF1C010E831F839A
:103F9000288739874A875B876C877D87FB8EEA8E07
:103FA0001A821982D70112968D909C9013971696BB
:103FB000ED91FC911797FF87EE872D913C91398FFA
:103FC000288F2130310561F4DC019A96ED91FC9146
:103FD0009B97EC5FFE4F208131813F8B2E8B07C07A
:103FE000DC0159960D90BC91A02DBF8BAE8BF101D9
:103FF000058D2E813F81488559856A857B858C8515
:104000009D850E94CE41422E532EE68CF78C2E8148
:104010003F81E222F322AA8DBB8D15961C921E923F
:104020001497038D2E813F81488559856A857B854C
:104030008C859D850E94CE412E8F3F8F1D8E1C8EBC
:104040001E821D8A1C8AF10180A181FF03C06E8D32
:10405000C101D8DCA201052C000C660B770BC10155
:1040600088DBBE016D5F7F4FC101FEDD3C019923FE
:104070000CF00DC15F924F927F928F938BEC9BE07F
:104080009F938F930E94AA430F900F900F900F90D1
:104090000F900F9002C2D1015B962C915B975D96B9
:1040A0008C9130E0281B310981E090E002C0880F3C
:1040B000991F2A95E2F7019792012F5F3F4F8223C4
:1040C0009323892B09F4F6C0F2013196FF83EE8326
:1040D000AF01FF0F660B770BC1016FDBBE016D5F98
:1040E0007F4FC101C1DD3C0199239CF4FF81FF9307
:1040F0002E812F937F928F9387E59CE09F938F93E0
:104100000E94AA430F900F900F900F900F900F9066
:10411000C4C1488D598D42305105F1F08B81AE01FB
:104120004C5F5F4FBE016F5F7F4F90E052D98C8133
:104130009D81892B89F05F924F9280EF9BE09F9346
:104140008F930E94AA438C8D9D8D01969D8F8C8F9D
:104150000F900F900F900F9089819A81AC89BD8943
:10416000A817B90710F49D8B8C8BF1018789908D6E
:104170008E199F0934018815990508F43C01D50171
:104180001E96CD90DC901F9714968D919C9115975B
:104190009201550C440B550B288B398B4A8B5B8B4A
:1041A000C80ED91E8701FF0C220B330B73014889FF
:1041B00059896A897B89C10143DBD50114968D91A8
:1041C0009C911597860D971D15969C938E93149729
:1041D0008618970850968D919C915197892BC9F11B
:1041E0006E847F84EE89FF89E615F7050CF43F01A4
:1041F000D1015996ED90FC905A9757960D911C91CC
:1042000058971996CD90DC901A9720E030E04889B5
:1042100059896A897B89C10113DBF501608971893C
:1042200080859185680F791F9301A501C101F8DD93
:10423000D50118968D919C911997860D971D199609
:104240009C938E931897EE85FF85E619F709FF87F3
:10425000EE87C101C0DC3C01E12CF12C41E0992347
:104260009CF4FF81FF932E812F937F928F938BEC91
:104270009BE09F938F930E94AA430F900F900F9003
:104280000F900F900F9009C14E805F8003C04E8148
:10429000AA8CBB8CD10157962D913C915897C701A0
:1042A000880D991D2817390748F490968C9181FD47
:1042B000F2CE0ACF4E83B1E0B8A302C04E8318A25B
:1042C000EE81EE23E1F0C1019CDABE016D5F7F4F0C
:1042D000C101CADC3C0199238CF45F924F927F921A
:1042E0008F938BEC9BE09F938F930E94AA430F9038
:1042F0000F900F900F900F900F90CFC01E82288DBF
:10430000398D22303105F9F08B81AE014C5F5F4F62
:10431000BE016F5F7F4F90E05CD88C819D81892BBF
:1043200091F05F924F9280EF9BE09F938F930E945A
:10433000AA434C8D5D8D4F5F5F4F5D8F4C8F0F900B
:104340000F900F900F9089819A81AC89BD89A81731
:10435000B90710F49D8B8C8BF1018789908D8E1994
:104360009F0954018815990508F45C01AA8DBB8D3D
:104370001E96CD90DC901F9714968D919C91159769
:104380009201052C000C440B550B288B398B4A8B62
:104390005B8BC80ED91E8701FF0C220B330B7501F6
:1043A000488959896A897B89C1014ADAAA8DBB8DFE
:1043B00014968D919C9115978A0D9B1D15969C9333
:1043C0008E9314978A189B0850968D919C915197C3
:1043D000892BD9F1AE84BF84EE89FF89EA15FB05EC
:1043E0000CF45F01D1015996ED90FC905A975796C5
:1043F0000D911C9158971996CD90DC901A9720E05A
:1044000030E0488959896A897B89C10119DAEA8DC6
:10441000FB8D6089718980859185680F791F950171
:10442000AF01C101FDDCAA8DBB8D18968D919C91C9
:1044300019978A0D9B1D19969C938E931897EE855C
:10444000FF85EA19FB09FF87EE87F8A1FF2361F0DA
:104450002FEF421A520A4E8D5F8D4F5F5F4F5F8F75
:104460004E8FE12CF12CEFCDD10198968C9190E0FC
:10447000EC89FD89E817F90730F00F2EFBE86F2E65
:1044800077247A94F02D2C8D3D8D232B31F00F2E37
:10449000F6EB6F2E77247A94F02DC301A0960FB619
:1044A000F894DEBF0FBECDBFDF91CF911F910F916A
:1044B000FF90EF90DF90CF90BF90AF909F908F9044
:1044C0007F906F905F904F903F902F9008952F9224
:1044D0003F924F925F926F927F928F929F92AF9294
:1044E000BF92CF92DF92EF92FF920F931F93CF93E1
:1044F000DF93CDB7DEB76D970FB6F894DEBF0FBE72
:10450000CDBF9C838B830D831E832F833887498780
:104510005A876B877C8727011A821982D7011296E6
:104520002D903C9013971696ED91FC911797FE876E
:10453000ED878D919C91F1E0FF8B8230910509F020
:104540001F8A019769F4AB81BC819A96ED91FC9129
:104550009B97EC5FFE4F20813181398F288F08C0F7
:10456000AB81BC8159960D90BC91A02DB98FA88FBD
:104570003F922F92BC85BF93EB85EF93FA85FF9313
:1045800029852F9338853F934F814F935E815F93A9
:104590008D818F9387E190E19F938F9384E89CE0D6
:1045A0009F938F930E94AA43AB81BC815D960C912F
:1045B0005D972D813E814F81588569857A858B85F0
:1045C0009C850E94CE41622E732E5E968D919C91A9
:1045D0005F97ED80FE80E822F9225B960C915B9755
:1045E0002D813E814F81588569857A858B859C8593
:1045F0000E94CE412C8F3D8FF2011582148290963D
:104600008C9190970FB6F894DEBF0FBECDBF81FF9F
:1046100003C0622FCD01F6D91B8E1A8E1E8A1D8A09
:1046200002C0E12CF12CAB81BC8157968D919C91FD
:1046300058978E199F093E822D828215930510F49A
:104640009E838D83ED81FE81FC8BEB8BD2011E96C8
:10465000AD90BC901F9714968D919C911597A80EC4
:10466000B91E8701FF0C220B330BC301072C000C72
:10467000AA0BBB0B8F87988BA98BBA8B4F01DE01DE
:1046800011966D01EF884F85588969897A898B81E8
:104690009C813EDB5C01863BBFEF9B0731F4EA8DDA
:1046A000FB8D3196FB8FEA8F13C0009789F07F92C4
:1046B0006F92BF928F9384EA9CE09F938F930E94A6
:1046C000AA430F900F900F900F900F900F9087C0FC
:1046D00089819A812D893E892817390710F49E8B8C
:1046E0008D8BD20114968D919C911597ED81FE8151
:1046F0008E0F9F1F15969C938E9314972B893C8940
:10470000221A330A50968D919C915197892BD9F199
:104710008D849E84488D598D481559050CF44A01A5
:10472000AB81BC815996ED90FC905A9757960D91AC
:104730001C9158971996CD90DC901A9720E030E0A4
:104740004F85588969897A89CD017AD8F2016089C3
:10475000718980859185680F791F9401A2018B81F1
:104760009C815EDBD20118968D919C911997880DE2
:10477000991D19969C938E931897ED85FE85E819DF
:10478000F909FE87ED872114310449F1FFEF6F1A13
:104790007F0AAB81BC815B962C915B975D968C9177
:1047A0005D9730E0281B310981E090E002C0880F5E
:1047B000991F2A95E2F7019786219721892B09F005
:1047C00030CF90968C91909781FF2BCFEC8DFD8D03
:1047D0003196FD8FEC8F6C8DCD0114D922CFAB813A
:1047E000BC8198968C9190E0ED89FE89E817F907D5
:1047F00030F00F2EFBE8AF2EBB24BA94F02D2A8D9B
:104800003B8D232B31F00F2EF6EBAF2EBB24BA9449
:10481000F02DC5016D960FB6F894DEBF0FBECDBF6B
:10482000DF91CF911F910F91FF90EF90DF90CF908C
:10483000BF90AF909F908F907F906F905F904F90C0
:104840003F902F9008952F923F924F925F926F92D8
:104850007F928F929F92AF92BF92CF92DF92EF9210
:10486000FF920F931F93CF93DF93CDB7DEB7A3973C
:104870000FB6F894DEBF0FBECDBF9BA38AA30987F6
:104880001A872B873C874D875E87462E572E470118
:10489000D70116966D907C9017972D903C90B1E0C3
:1048A0002B16310461F4DC019A96ED91FC919B97F3
:1048B000EC5FFE4FA080B180BA82A98208C0AAA195
:1048C000BBA159960D90BC91A02DBA83A983F40188
:1048D00083818F9382818F935F924F92FE85FF93A6
:1048E000AD84AF92BC84BF92CB84CF92DA84DF9246
:1048F000E984EF928BE290E19F938F9380EC9CE0B0
:104900009F938F930E94AA43AAA1BBA11B96BC911F
:10491000BF87EAA1FBA1F485F88BAAA1BBA11D96D4
:10492000BC91B98BEAA1FBA1F685FA8FEAA1FBA1A4
:10493000B785A089F189FB8FEAA1FBA1F289FC8FE1
:104940000FB6F894DEBF0FBECDBF2F8538894989D9
:104950005A8D6B2F7A2F8B8D9F2FA984BA84CB848D
:10496000DC84ED84FE84042D152D0E94FE4109F0A7
:1049700088F48BE290E19F938F938FED9CE09F935F
:104980008F930E94AA430F900F900F900F908AEE82
:104990009FEF98C1161417040CF0A6C0F40102850D
:1049A000138524853585A980BA80A501BB0C660BCB
:1049B000770B041715072607370788F08BE290E17D
:1049C0009F938F9389E09DE09F938F930E94AA43CA
:1049D0000F900F900F900F908AEE9FEF73C1A3017D
:1049E000770C660B770B400F511F621F731F6A0114
:1049F0007B0100E010E098014A8BDB8AEC8AFD8A9B
:104A00000E8B1F8B288F398FEAA1FBA1758C2F8508
:104A1000388949895A8D6B2F7A2F8B8D9C8D072D64
:104A20000E94D0412F87388B498B652EB62FA72F38
:104A3000F82FE92F29853A854B855C856D857E8524
:104A4000842D952D0E94CE41A22EB32EC42ED52E9C
:104A5000E62EF72E082F192F2F8538894989562DD4
:104A60006B2F7A2F8F2F9E2F0E94F541192F9A813D
:104A7000990F990BA22EB32EC42ED52EE62EF72E0B
:104A8000082F29813A81492F592F692F792F892F92
:104A90000E947D41A22EB32EC42ED52EE62EF72ED7
:104AA000082F192F2A893B894C895D8960E070E0C5
:104AB00080E090E00E94FE4191F088F08BE290E16E
:104AC0009F938F938FED9CE09F938F930E94AA43B7
:104AD0000F900F900F900F908AEE9FEFF3C0D401CC
:104AE00019961C921E921897B2E02B16310421F4ED
:104AF0008AA19BA10E94711DF401A280B380AAA18A
:104B0000BBA157968D919C9158973C01660C771CE0
:104B1000660C771CA614B70408F4A1C05B96EC9150
:104B200029853A854B855C856D857E85842D952DFF
:104B30000E2F0E94CE4129833D8F4E8F5F8F68A339
:104B4000B72FA82F99A32A2D3B2D40E050E060E01D
:104B500070E080E090E0A984BA84CB84DC84ED84AA
:104B6000FE84042D152D0E94EC412A8B3F87488B33
:104B7000598B6A8F7B8F8C8FF92F0E2F0E94CE411D
:104B8000A22EB32EC42ED52EE62EF72E082F192FC7
:104B900029813D8D4E8D5F8D68A17B2F8A2F99A134
:104BA0000E94FE4109F45DC0A1E0B0E002C0AA0F7E
:104BB000BB1FEA95E2F7EB2FEE0FEE0B2A2F3B2FF0
:104BC0004E2F5E2F6E2F7E2F8E2F9E2FA984BA849C
:104BD000CB84DC84ED84FE84042D152D0E94F541E8
:104BE0005301C12CD12CE12CF12C87016982BA82AE
:104BF000CB82DC82ED82FE820F831887C12CD12C00
:104C0000E12CF12C00E010E00E94FE4164F52A89BD
:104C10003F85488959896A8D7B8D8C8D9F2FAA2E5F
:104C2000BB2ECE2EDE2EEE2EFE2E0E2F1E2F0E941F
:104C3000F541A22EB32EC42ED52EE62EF72E082F28
:104C4000192F29813A8140E050E060E070E080E077
:104C500090E00E94FE4109F044F481E007C080E04A
:104C600005C081E003C081E001C080E0882379F0C5
:104C7000740109851A852B853C854D855E85642DDB
:104C8000752D8AA19BA167D9082F192F0EC0740119
:104C900009851A852B853C854D855E85642D752D8E
:104CA0008AA19BA114DC082F192F22E022163104BF
:104CB00039F48AA19BA10E94911D802F912F02C0DF
:104CC000802F912FA3960FB6F894DEBF0FBECDBFF5
:104CD000DF91CF911F910F91FF90EF90DF90CF90D8
:104CE000BF90AF909F908F907F906F905F904F900C
:104CF0003F902F900895CF93DF93CDB7DEB76297A3
:104D00000FB6F894DEBF0FBECDBFBE016F5F7F4F01
:104D100022E1FB0111922A95E9F72FEF298357D25F
:104D2000992324F487E29EE00E94E94380ED97E016
:104D30000E94CE3480E090E062960FB6F894DEBF19
:104D40000FBECDBFDF91CF9108954F925F926F92CA
:104D50007F928F929F92AF92BF92CF92DF92EF920B
:104D6000FF920F931F93CF93DF93EC0180E093E0CA
:104D70000E946F345C0161E0CE010E94B11D41E0F0
:104D800050E060E070E0CE010E94B91B60E070E08E
:104D9000CE010E94341E9E8083E08E8365010F2E1B
:104DA000E12CF3E0FF2EF02D00E010E0980141E04F
:104DB00050E060E070E0CE010E94201C9E8260E026
:104DC000CE010E94B11D1FC0F50180818F34C1F456
:104DD00081818E34A9F48281863491F4838189346F
:104DE00079F44EEF50E0B5018EE49FE40E94461B3B
:104DF000F501E250FF4F208131818217930731F096
:104E00000F5F1F4FB39403301105F4F20330110507
:104E100031F48EE39EE00E94E94380E081C080E0AF
:104E2000F5018E01045D1F4FD80101900D928A9506
:104E3000E1F76CE070E0C80180960E946F1B045D92
:104E40001F4F64E170E0C8010E946F1B1983088343
:104E5000FE01E458FF4FC080D180E280F3803C9691
:104E60006081718182819381A70196010E94334103
:104E70002B013C0134966081718182819381A30171
:104E800092010E9433414B015C013496A081B0E055
:104E90009B01AC010E9473418B019C010B871C8715
:104EA0002D873E871F86188A198A1A8A4B8A5C8A40
:104EB0006D8A7E8AD88ECF8A7097808191819A8FF1
:104EC000898FC501B4010E94191A8B8FFE01EE5221
:104ED000FF4F8081882349F088A199A1AAA1BBA195
:104EE000816088A399A3AAA3BBA3FE01EB5DFE4F3B
:104EF0008081882349F088A199A1AAA1BBA18260E1
:104F000088A399A3AAA3BBA3FE01EC5DFE4F8081F9
:104F100090E0A0E0B0E08CA39DA3AEA3BFA381E08E
:104F2000DF91CF911F910F91FF90EF90DF90CF9085
:104F3000BF90AF909F908F907F906F905F904F90B9
:104F40000895CF93DF931F92CDB7DEB76983AE018B
:104F50004F5F5F4F60EA0E94B31C0F90DF91CF91CB
:104F600008959F92AF92BF92CF92DF92EF92FF92FD
:104F70000F931F93CF93DF93CDB7DEB762970FB632
:104F8000F894DEBF0FBECDBFFE0131960F2EF2E1C9
:104F90009F2EF02DDF011D929A94E9F7FC82EB829F
:104FA000B88AAF867F014FDC2D813E81F6013183C7
:104FB000208362960FB6F894DEBF0FBECDBFDF919F
:104FC000CF911F910F91FF90EF90DF90CF90BF9006
:104FD000AF909F900895CF92DF92EF92FF920F9340
:104FE0001F93CF93DF931F921F92CDB7DEB76C0153
:104FF0007B011A8219828CE291E00E946F348C014D
:10500000892B09F4A4C08CE291E0F8019C01119273
:1050100021503040E1F7F801D382C282C8010E94DA
:105020009B1BC80168DEBE016F5F7F4FC8010E94F5
:10503000861CBE016F5F7F4FC8010E94341A811128
:1050400017C09A8189811F929F931F928F9389E83D
:105050009FE09F938F930E94AA43C80176DE0F9032
:105060000F900F900F900F900F90882309F472C04B
:10507000F80181818F9380818F9383EC9FE09F93D0
:105080008F930E94AA438981F80184838A81858352
:1050900063897489858996890E94191AF801848F19
:1050A000C788D08CB60180E090E00E94191AF80100
:1050B000858FF1E0CF1AD108F801D78EC68E11A6E0
:1050C000818D928D0E946F34F801928781870F90B5
:1050D0000F900F900F90892B09F43FC0818D928D16
:1050E0008034910529F489E094E093A782A708C051
:1050F0008038910529F481E092E0F80193A782A716
:10510000F80184A195A1A6A1B7A10196A11DB11D89
:10511000AC01BD01440F551F661F771F840F951FFB
:10512000A61FB71FB695A79597958795B695A7958E
:105130009795879580A760E0C80103DFC8010E94AA
:10514000911DF7011183008380E090E008C084EF97
:105150009FEF05C08DEE9FEF02C084EF9FEF0F9091
:105160000F90DF91CF911F910F91FF90EF90DF9003
:10517000CF900895FB0103C0981799F03596908160
:105180009111FACF1F928F9380E490E19F938F93B8
:105190000E94AA430F900F900F900F9080E090E034
:1051A00008958E2F9F2F0895CF92DF92EF92FF9256
:1051B0000F931F93A9019801870176010E9477330D
:1051C0001F910F91FF90EF90DF90CF9008956F9215
:1051D0007F928F929F92AF92BF92CF92DF92EF9287
:1051E000FF920F931F93CF93DF9300D01F92CDB701
:1051F000DEB75B01FC016280738061EB76E0F50154
:105200008081B8DF4C01892B09F4D1C0F50186817A
:105210009781A085B185892B8A2B8B2B91F484856E
:105220009585A685B785892B8A2B8B2B69F4F4018C
:10523000818181110CC08381882361F081E090E03D
:105240000BC081E090E008C081E090E005C081E003
:1052500090E002C083E090E06C01990FEE08FF0837
:1052600000E010E0950141E068E070E0C3019CDFE0
:10527000F4018181811104C09381992309F457C0FD
:10528000F5014681578160857185452B462B472B5B
:1052900059F44485558566857785452B462B472BE4
:1052A00031F0C12CD12C07C0C12CD12C04C0689482
:1052B000CC24C1F8D12CF5014181481700F550E00C
:1052C0007501F2E0EF0EF11CB701CE0101960E94CC
:1052D0003943F501018110E0A80160E070E0C701E9
:1052E0000E944243F401818190E0801B910BA80150
:1052F000BE016F5F7F4F8E0D9F1D0E943943F401E9
:105300008181638170E0680F711D660F771F660FE2
:10531000771F660F771F0D2C000CEE08FF0800E0CA
:1053200010E095012E5F3F4F4281C3013DDFF50143
:1053300086819781A085B1850097A105B105B9F057
:1053400022853385BC01660F771F660F771F660FB6
:10535000771FC12CD12C76016894C1F800E010E0D1
:10536000F4014481C30120DF80E090E025C0F50115
:1053700084859585A685B7850097A105B105D1F0EF
:1053800000891189BC01660F771F660F771F660FB2
:10539000771FC12CD12C76016894C1F820E030E051
:1053A000F4014481C30100DF80E090E005C08AEE93
:1053B0009FEF02C080E090E00F900F900F900F9051
:1053C000DF91CF911F910F91FF90EF90DF90CF90E1
:1053D000BF90AF909F908F907F906F900895809135
:1053E0005A141F928F938CE590E19F938F930E94A4
:1053F000AA430F900F900F900F900895CF92DF92D5
:10540000FF920F931F93CF93DF93CDB7DEB72A9709
:105410000FB6F894DEBF0FBECDBF19821A821B8271
:105420001C82F92EC92ED12C1F929F9303E710E105
:105430001F930F930E94AA438F2D0E949E371F92A5
:10544000FF921F930F930E94AA4344E050E0BE01D5
:105450006F5F7F4F88E20E9413398981982F929560
:105460009695969593700FB6F894DEBF0FBECDBF9C
:10547000C9F1913089F431E0C31AD108DF92CF929B
:1054800086EA92E09F938F930E94BD430F900F9006
:105490000F900F9081E04EC0923089F481E0C81ADD
:1054A000D108DF92CF928AE892E09F938F930E9477
:1054B000BD430F900F900F900F9081E03BC0933051
:1054C000C1F521E0C21AD108DF92CF9287E692E0BF
:1054D0009F938F930E94BD430F900F900F900F905A
:1054E00081E028C08F7390E0982F88272A81820F4F
:1054F000911D2B8130E0220F331F220F331F220F0B
:10550000331F4C81429546954770240F311D3F93C0
:105510002F939F938F9385E890E19F938F930E94A1
:10552000AA430F900F900F900F900F900F9080E074
:1055300001C081E02A960FB6F894DEBF0FBECDBF42
:10554000DF91CF911F910F91FF90DF90CF90089541
:10555000CF93E5E5F4E1C1E0C48382E085833FDFDA
:10556000EFE4F4E1C5831482E9E4F4E183E08583A8
:10557000C483409155145091561460915714709102
:1055800058148091591490915A1438DF83E098E4AC
:10559000FC013197F1F7FC013197F1F7FC013197EC
:1055A000F1F7FC013197F1F7FC013197F1F7FC01BC
:1055B0003197F1F70197F1F740914F145091501442
:1055C000609151147091521480915314909154141D
:1055D00015DFCF9108954091551450915614609164
:1055E0005714709158148091591490915A1406CF01
:1055F000089540914F14509150146091511470913E
:1056000052148091531490915414F8CE08954091FF
:10561000491450914A1460914B1470914C1480912C
:105620004D1490914E14EACE089540E060E070E091
:1056300087E20E949C38892B41F481E080935B14BF
:105640008CE890E10C94E943089584EA90E10C948D
:10565000E9430895CF92DF92EF92FF92CF93DF93C9
:1056600000D01F92CDB7DEB719821A821B821C822E
:1056700080915B14882309F463C010925B1444E0AA
:1056800050E0BE016F5F7F4F87E20E941339892B84
:1056900029F084EA90E10E94E94352C0A9818A2F4F
:1056A000829586958695837029F086EB90E10E941D
:1056B000E94346C0AF73B0E0BA2FAA278A81A82B6E
:1056C00028EE33E00E946D410F2EFEEFCF2EFFE358
:1056D000DF2EE12CF12CF02DA70196010E94424112
:1056E0005F934F933F932F9386EC90E19F938F931B
:1056F0000E94AA43AB8180E4A89FD00111248C8131
:1057000086958695A82B24E730E40E946D41A70179
:1057100096010E944241DA01C901805A9F40A109C5
:10572000B109BF93AF939F938F9386EE90E19F93C0
:105730008F930E94AA430FB6F894DEBF0FBECDBF71
:105740000F900F900F900F90DF91CF91FF90EF90FF
:10575000DF90CF900895CF93DF93D82FC62F9ED0A0
:1057600088E00E9473358D2F0E9473358C2F0E9424
:1057700073359AD0DF91CF910895CF93DF93D82FCF
:10578000C62F8CD080E10E9473358D2F0E94733517
:105790008C2F0E94733588D081D080E10E947335B0
:1057A000C82F80E00E94733580E00E9473358C2FF3
:1057B000DF91CF9108950F931F93CF93DF93082F1D
:1057C000162F6CD088E00E94733590E0C92FD82F37
:1057D000802F0E947335C80FD11D812F0E94733511
:1057E000182F62D01F921F93DF93CF9387E091E130
:1057F0009F938F930E94AA430F900F900F900F904A
:105800000F900F90CE01DF91CF911F910F910895CE
:1058100061E070E086E090E00C94EB17089560E0A2
:1058200070E086E090E00C94EB17089584B38160FB
:1058300084BB089584B38E7F84BB089584B3826053
:1058400084BB089584B38D7F84BB0895EBE0F1E0C1
:105850008081806880830895EBE0F1E080818F771C
:10586000808308958EB18B7F8EB908958EB1846048
:105870008EB9089585B18E7F85B9089585B181600F
:1058800085B90895E2E0F1E080818E7F80830895FC
:10589000E2E0F1E08081816080830895E2E0F1E060
:1058A00080818D7F80830895E2E0F1E080818260D5
:1058B00080830895E2E0F1E080818B7F808308950A
:1058C000E2E0F1E08081846080830895E2E0F1E02D
:1058D0008081877F80830895E2E0F1E080818860A5
:1058E00080830895E2E0F1E0808180618083089503
:1058F000E2E0F1E080818F7E80830895E2E0F1E0D4
:105900008081806280830895E2E0F1E080818F7D74
:1059100080830895CF93DF9300D01F921F92CDB75D
:10592000DEB719821B821A821D821C8266D16CE648
:1059300074E18CE594E14FDB9D838C8389810F902A
:105940000F900F900F900F90DF91CF910895CF930C
:10595000DF9300D000D0CDB7DEB79E838D834D811D
:105960005E8128EE33E0429FC001439F900D529F1D
:10597000900D1124CC01A0E0B0E089839A83AB8321
:10598000BC83000089819A81AB81BC819C01AD01FF
:10599000215031094109510929833A834B835C83A2
:1059A000892B8A2B8B2B71F7000026960FB6F89463
:1059B000DEBF0FBECDBFDF91CF910895CF93DF93B0
:1059C0001F921F92CDB7DEB781DF8FE90E9473353A
:1059D00080E00E94733580E00E947335898380E007
:1059E0000E9473358A8378DF8A81282F30E089818D
:1059F000882F90E0432F4F932F93292F2F938F932E
:105A00008BE19AE0892F8F938BE19AE08F930E942C
:105A1000AA430F900F900F900F900F900F900000DF
:105A20000F900F90DF91CF910895CF93DF931F9246
:105A30001F92CDB7DEB784EF91E09A83898308C0C7
:105A400081E090E084DF89819A8101979A8389833C
:105A500012D0882321F089819A81892B89F721E04E
:105A600089819A81892B09F420E0822F0F900F9071
:105A7000DF91CF910895CF93DF931F921F92CDB7FF
:105A8000DEB7198210D08A838A81882F90E08178CE
:105A90009927892B11F081E0898389810F900F90DC
:105AA000DF91CF910895CF93DF93CDB7DEB780EC30
:105AB00077D0DF91CF910895CF93DF93CDB7DEB745
:105AC00080EA6ED0882F90E0292F2F938F938CE25D
:105AD0009AE0892F8F938CE29AE08F930E94AA43D9
