S019000053636875796C6572426F617264546573742E7372656334
S11300000C94470B0C94680B0C94680B0C94680BC1
S11300100C94680B0C94680B0C94680B0C94680B90
S11300200C942B130C94680B0C94680B0C94680BB5
S11300300C94680B0C9435130C94680B0C94680B9B
S11300400C94680B0C94680B0C94680B0C94680B60
S11300500C94680B0C94680B0C94680B0C94680B50
S11300600C94680B0C94BB390C94680B0C94680BBF
S11300700C94680B0C94CA140C94680B0C94680BC5
S11300800C94680B0C94680B0C94680B0C94680B20
S11300900C949A3A0C94680B0C94680B0C94680BAF
S11300A00C94680B0C94680B0C94680B0C94680B00
S11300B00C94680B0C94680B0C94680B0C94680BF0
S11300C00C94680B0C94680B0C94680B0C94680BE0
S11300D00C94680B0C94680B0C94680B0C94680BD0
S11300E00C94680B6E616E00696E660000407A10B5
S11300F0F35A00A0724E18090010A5D4E80000E8D5
S11301007648170000E40B54020000CA9A3B000032
S113011000E1F505000080969800000040420F00C1
S11301200000A08601000000102700000000E80382
S1130130000000006400000000000A00000000004D
S11301400100000000002C76D888DC674F0823DF0C
S1130150C1DFAE59E1B1B796E5E3E453C63AE651DF
S1130160997696E8E6C28426EB898C9B62ED407C06
S11301706FFCEFBC9C9F40F2BAA56FA5F490055AA2
S11301802AF75C936B6CF9676DC11BFCE0E40D47C7
S1130190FEF520E6B500D0ED902E030094357705EA
S11301A00080841E080000204E0A000000C80C33A2
S11301B03333330F986E12831141EF8D2114893B31
S11301C0E65516CFFEE6DB18D1844B381BF77C1DB1
S11301D0901DA4BBE424203284725E228100C9F104
S11301E024ECA1E53D27464C4153482077726974BD
S11301F065206661696C65640A00464C4153482079
S113020072656164206661696C65640A00756E6B71
S11302106E6F776E2041444332353138206F7363FB
S1130220696C61746F7253706565640A004F535250
S11302303A206C6F673273616D706C6573203E2079
S113024037000A00256420004552524F523A204E8E
S11302506F20414443204368616E6E656C73206176
S113026063746976650A000A5374616C6520507280
S113027065737375726520496E7465726E616C2066
S11302804661756C742025640A000A5374616C65B8
S11302902050726573737572652052656164696E6E
S11302A0672025640A000A53656E736F7220256403
S11302B020696E2050726F6772616D6D696E672080
S11302C04D6F64650A0057726974696E6720746FB4
S11302D02030782530386C783A2025730A00737002
S11302E0695F466C61736857726974653A20326E4F
S11302F0642070616765207772697465206661693E
S11303006C65640A007370695F466C617368577248
S11303106974653A20326E64207061676520616497
S11303206472657373206D617070696E67206661B5
S1130330696C65640A007370695F466C6173685721
S1130340726974653A20317374207061676520772F
S113035072697465206661696C65640A007370690A
S11303605F466C617368526561643A20326E642042
S1130370706167652072656164206661696C65649B
S11303800A007370695F466C617368526561643A10
S11303902031737420706167652072656164206622
S11303A061696C65640A007370695F466C617368A7
S11303B04572617365426C6F636B3A20577269745E
S11303C0652064696173626C65206661696C65644B
S11303D00A007370695F466C617368457261736586
S11303E0426C6F636B3A20466C617368206E65766D
S11303F06572207265616479206166746572206239
S11304006C6F636B2065726173650A007370695F5A
S1130410466C6173684572617365426C6F636B3AD5
S113042020466C61736820776F6E277420656E6157
S1130430626C652077726974650A007370695F463F
S11304406C6173684572617365426C6F636B3A20CB
S1130450466C617368206E657665722072656164AE
S1130460790A007370695F466C61736845726173E1
S113047065426C6F636B3A204164647265737320E8
S11304806578636565647320617661696C61626C2B
S11304906520626C6F636B730A0045726173696EE9
S11304A06720626C6F636B2025640A007370695F58
S11304B0466C6173684572617365416C6C426C6F24
S11304C0636B733A204572617365206661696C756C
S11304D0726520617420626C6F636B2025640A006E
S11304E04920616D207468652076657279206D6F8E
S11304F064656C206F662061206D6F6465726E2088
S11305004D616A6F722D47656E6572616C0A0000F9
S11305100000000000000000000000000000492767
S1130520766520696E666F726D6174696F6E207690
S11305306567657461626C652C20616E696D616CC0
S11305402C20616E64206D696E6572616C0A000016
S113055000000000000000000000000049206B6E55
S11305606F7720746865206B696E6773206F6620EF
S1130570456E676C616E642C20616E642049207145
S1130580756F746520746865206669676874730A9A
S113059000000000000000000000486973746F72DE
S11305A06963616C0A0000000000000000000000A4
S11305B00000000000000000000000000000000037
S11305C00000000000000000000000000000000027
S11305D0000000000000000046726F6D204D617243
S11305E06174686F6E20746F2057617465726C6FEC
S11305F06F2C20696E206F7264657220636174656C
S1130600676F726963616C0A0000000000000000FB
S113061000000000000049276D207665727920777C
S1130620656C6C206163717561696E7465642C20FE
S1130630746F6F2C2077697468206D6174746572AF
S1130640730A000000000000000000000000000029
S1130650000000004D617468656D61746963616CCC
S11306600A0000000000000000000000000000007C
S11306700000000000000000000000000000000076
S11306800000000000000000000000000000000066
S113069000004920756E6465727374616E64206530
S11306A071756174696F6E732C20626F7468207445
S11306B068652073696D706C6520616E6420717566
S11306C061647261746963616C0A00000000000077
S11306D041626F75742062696E6F6D69616C20741C
S11306E068656F72656D2049276D207465656D6955
S11306F06E6720776974682061206C6F74206F279F
S1130700206E6577730A000000000000000057693E
S11307107468206D616E7920636865657266756CB6
S11307202066616374732061626F757420746865F8
S113073020737175617265206F66207468650A00A4
S11307400000000000000000000000004879706F05
S113075074656E7573650A000000000000000000F7
S11307600000000000000000000000000000000085
S11307700000000000000000000000000000000075
S11307800000000000000000000057697468206D3C
S1130790616E7920636865657266756C2066616355
S11307A074732061626F7574207468652073717549
S11307B0617265206F66207468650A00000000009D
S11307C000000000000000004879706F74656E75C9
S11307D073650A0000000000000000000000000033
S11307E00000000000000000000000000000000005
S11307F000000000000000000000000000000000F5
S113080000000000000057697468206D616E792053
S1130810636865657266756C2066616374732061D4
S1130820626F7574207468652073717561726520D8
S11308306F66207468650A00000000000000000074
S1130840000000004879706F74656E7573650A0066
S11308500000000000000000000000000000000094
S11308600000000000000000000000000000000084
S11308700000000000000000000000000000000074
S1130880000057697468206D616E7920636865653E
S11308907266756C2066616374732061626F75742F
S11308A02074686520737175617265206F662074A9
S11308B068650A000000000000000000000000005D
S11308C04879706F7465706F74656E7573650A002E
S11308D00000000000000000000000000000000014
S11308E00000000000000000000000000000000004
S11308F00000000000000000000000000000492784
S11309006D207665727920676F6F64206174206949
S11309106E74656772616C20616E642064696666DA
S11309206572656E7469616C2063616C63756C7566
S1130930730A0000000000000000000049206B6EF4
S11309406F772074686520736369656E746966697E
S113095063206E616D6573206F66206265696E67E2
S11309607320616E696D616C63756C6F75730A00D9
S113097000000000000000000000496E2073686F52
S113098072742C20696E206D6174746572732076A4
S11309906567657461626C652C20616E696D616C5C
S11309A02C20616E64206D696E6572616C0A0000B2
S11309B000000000000000004920616D207468659B
S11309C02076657279206D6F64656C206F66206196
S11309D0206D6F6465726E204D616A6F722D47657C
S11309E06E6572616C0A00000000000000000000E7
S11309F0000000000000496E2073686F72742C20A0
S1130A00696E206D617474657273207665676574B0
S1130A1061626C652C20616E696D616C2C20616E65
S1130A2064206D696E6572616C0A0000000000004C
S1130A3000000000486520697320746865207665AD
S1130A407279206D6F64656C206F662061206D6F14
S1130A506465726E204D616A6F722D47656E6572B2
S1130A60616C0A00000000000000000000000000AB
S1130A70000049206B6E6F77206F7572206D79745A
S1130A8068696320686973746F72792C204B696E8E
S1130A906720417274687572277320616E642053F5
S1130AA069720A000000000000000000000000005D
S1130AB043617261646F6327730A000000000000E1
S1130AC00000000000000000000000000000000022
S1130AD00000000000000000000000000000000012
S1130AE00000000000000000000000000000492099
S1130AF0616E737765722068617264206163726FDE
S1130B0073746963732C20492776652061207072A1
S1130B106574747920746173746520666F720A0059
S1130B20000000000000000000000000506172613D
S1130B30646F780A0000000000000000000000005C
S1130B4000000000000000000000000000000000A1
S1130B500000000000000000000000000000000091
S1130B6000000000000000000000492071756F744F
S1130B706520696E20656C65676961637320616CCB
S1130B806C20746865206372696D6573206F6620DC
S1130B9048656C696F676162616C75730A00000077
S1130BA00000000000000000496E20636F6E69635E
S1130BB07320492063616E20666C6F6F72207065CC
S1130BC063756C69617269746965732070617261BF
S1130BD0626F6C6F75730A00000000000000000073
S1130BE0000000000000492063616E2074656C6C95
S1130BF020756E646F7562746564205261706861FB
S1130C00656C732066726F6D204765726172642033
S1130C10446F777320616E640A00000000000000D6
S1130C20000000005A6F6666616E6965730A000011
S1130C3000000000000000000000000000000000B0
S1130C4000000000000000000000000000000000A0
S1130C500000000000000000000000000000000090
S1130C60000049206B6E6F77207468652063726F93
S1130C70616B696E672063686F7275732066726F4B
S1130C806D207468652046726F6773206F660A0072
S1130C900000000000000000000000000000000050
S1130CA041726973746F7068616E65730A00000045
S1130CB00000000000000000000000000000000030
S1130CC00000000000000000000000000000000020
S1130CD00000000000000000000000000000546854
S1130CE0656E20492063616E2068756D2061206601
S1130CF075677565206F6620776869636820492782
S1130D00766520686561726420746865206D75730A
S1130D10696327730A0000000000000044696E2024
S1130D2061666F72650A00000000000000000000A8
S1130D3000000000000000000000000000000000AF
S1130D40000000000000000000000000000000009F
S1130D5000000000000000000000416E642077687D
S1130D606973746C6520616C6C20746865206169BA
S1130D7072732066726F6D207468617420696E6688
S1130D8065726E616C206E6F6E73656E73650A00BA
S1130D90000000000000000050696E61666F72651B
S1130DA00A00000000000000000000000000000035
S1130DB0000000000000000000000000000000002F
S1130DC0000000000000000000000000000000001F
S1130DD0000000000000416E642077686973746C41
S1130DE06520616C6C20746865206169727320668B
S1130DF0726F6D207468617420696E6665726E61CD
S1130E006C206E6F6E73656E73650A0000000000DF
S1130E100000000050696E61666F72650A00000090
S1130E2000000000000000000000000000000000BE
S1130E3000000000000000000000000000000000AE
S1130E40000000000000000000000000000000009E
S1130E500000416E642077686973746C6520616C6E
S1130E606C2074686520616972732066726F6D20EE
S1130E707468617420696E6665726E616C206E6F51
S1130E806E73656E73650A000000000000000000C8
S1130E9050696E61666F72650A0000000000000010
S1130EA0000000000000000000000000000000003E
S1130EB0000000000000000000000000000000002E
S1130EC00000000000000000000000000000416E6F
S1130ED0642077686973746C6520616C6C20746835
S1130EE06520616972732066726F6D207468617425
S1130EF020696E6665726E616C206E6F6E73656ECE
S1130F0073650A00000000000000000050696E6173
S1130F1070696E61666F72650A000000000000006F
S1130F2000000000000000000000000000000000BD
S1130F3000000000000000000000000000000000AD
S1130F40000000000000000000005468656E2049A5
S1130F502063616E20777269746520612077617304
S1130F6068696E672062696C6C20696E20426162F8
S1130F70796C6F6E69632063756E6569666F726DF7
S1130F800A00000000000000416E642074656C6C6F
S1130F9020796F752065762772792064657461699C
S1130FA06C206F662043617261637461637573279B
S1130FB07320756E69666F726D0A00000000000090
S1130FC0000000000000496E2073686F72742C20CA
S1130FD0696E206D617474657273207665676574DB
S1130FE061626C652C20616E696D616C2C20616E90
S1130FF064206D696E6572616C0A00000000000077
S1131000000000004920616D2074686520766572D7
S113101079206D6F64656C206F662061206D6F644C
S113102065726E204D616A6F722D47656E657261DF
S11310306C0A000000000000000000000000000036
S11310400000496E2073686F72742C20696E206DE5
S113105061747465727320766567657461626C652A
S11310602C20616E696D616C2C20616E64206D6949
S11310706E6572616C0A0000000000000000000050
S11310804865206973207468652076657279206DDF
S11310906F64656C206F662061206D6F6465726E8D
S11310A0204D616A6F722D47656E6572616C0A002E
S11310B00000000000000000000000000000496E75
S11310C020666163742C207768656E2049206B6EFE
S11310D06F772077686174206973206D65616E7421
S11310E020627920276D616D656C6F6E2720616EBB
S11310F0640A00000000000000000000275261762E
S1131100656C696E270A0000000000000000000002
S113111000000000000000000000000000000000CB
S113112000000000000000000000000000000000BB
S1131130000000000000000000005768656E2049B0
S11311402063616E2074656C6C2061742073696720
S113115068742061204D6175736572207269666CD4
S1131160652066726F6D2061206A6176656C696EB8
S11311700A000000000000005768656E2073756364
S113118068206166666169727320617320736F728F
S11311907469657320616E6420737572707269730B
S11311A065732049276D206D6F72650A0000000089
S11311B0000000000000576172792061740A000089
S11311C0000000000000000000000000000000001B
S11311D0000000000000000000000000000000000B
S11311E000000000000000000000000000000000FB
S11311F000000000416E64207768656E2049206B12
S11312006E6F7720707265636973656C7920776897
S11312106174206973206D65616E742062790A00BF
S113122000000000000000000000000000000000BA
S1131230000027436F6D6D69737361726961742770
S11312400A00000000000000000000000000000090
S1131250000000000000000000000000000000008A
S1131260000000000000000000000000000000007A
S11312705768656E20492068617665206C656172E7
S11312806E7420776861742070726F67726573730F
S113129020686173206265656E206D6164652069F4
S11312A06E0A0000000000000000000000004D6F06
S11312B06465726E2067756E6E6572790A0000004F
S11312C0000000000000000000000000000000001A
S11312D0000000000000000000000000000000000A
S11312E00000000000000000000000005768656E68
S11312F02049206B6E6F77206D6F7265206F6620BA
S113130074616374696373207468616E2061206E14
S11313106F7669636520696E2061206E756E6E65F7
S113132072790A00000000000000496E2073686FA3
S113133072742C207768656E2049277665206120B9
S1131340736D6174746572696E67206F6620656C75
S1131350656D656E74616C20737472617465677910
S11313600A00000000000000596F75276C6C2073A0
S11313706179206120626574746572204D616A6FC1
S1131380722D47656E6572616C20686164206E65BC
S1131390766572207361742061206765650A0000B8
S11313A0000000000000596F75276C6C2073617990
S11313B0206120626574746572204D616A6F722DBC
S11313C047656E6572616C20686164206E65766540
S11313D072207361742061206765650A0000000053
S11313E000000000596F75276C6C207361792061CF
S11313F020626574746572204D616A6F722D476551
S11314006E6572616C20686164206E657665722019
S11314107361742061206765650A000000000000A4
S11314200000596F75276C6C20736179206120620C
S11314306574746572204D616A6F722D47656E65BF
S113144072616C20686164206E65766572207361D8
S11314507420612073617420610A000000000000A0
S11314604765650A0000000000000000000000005D
S11314700000000000000000000000000000000068
S11314800000000000000000000000000000000058
S11314900000000000000000000000000000466F93
S11314A072206D79206D696C6974617279206B6E3C
S11314B06F776C656467652C2074686F7567682046
S11314C049276D20706C75636B7920616E640A0026
S11314D00000000000000000000000004164766588
S11314E06E747572790A00000000000000000000AC
S11314F000000000000000000000000000000000E8
S113150000000000000000000000000000000000D7
S113151000000000000000000000486173206F6EAE
S11315206C79206265656E2062726F7567687420DD
S1131530646F776E20746F207468652062656769D4
S11315406E6E696E67206F66207468650A0000001D
S1131550000000000000000043656E747572790A93
S11315600000000000000000000000000000000077
S11315700000000000000000000000000000000067
S11315800000000000000000000000000000000057
S1131590000000000000427574207374696C6C2CA8
S11315A020696E206D617474657273207665676559
S11315B07461626C652C20616E696D616C2C2061B4
S11315C06E64206D696E6572616C0A000000000033
S11315D0000000004920616D207468652076657202
S11315E079206D6F64656C206F662061206D6F6477
S11315F065726E204D616A6F722D47656E6572610A
S11316006C0A000000000000000000000000000060
S11316100000427574207374696C6C2C20696E2010
S11316206D61747465727320766567657461626C4C
S1131630652C20616E696D616C2C20616E64206D77
S1131640696E6572616C0A00000000000000000011
S11316504865206973207468652076657279206D09
S11316606F64656C206F662061206D6F6465726EB7
S1131670204D616A6F722D47656E6572616C0A0058
S11316800000000000000000000000000000112421
S11316901FBECFEFD1E2DEBFCDBF00E00CBF13E130
S11316A0A0E0B2E0E4E6F6E800E00BBF02C0079079
S11316B00D92AC38B107D9F726E1ACE8B3E101C02B
S11316C01D92A937B207E1F70E94BE380C9430434B
S11316D00C940000CF93DF93CDB7DEB72A970FB6F3
S11316E0F894DEBF0FBECDBF80915316813409F04C
S11316F046C080915416833719F40E949E132AC061
S1131700809154168D3619F40E940E1423C08091D2
S11317105416833631F48091551680530E94131465
S113172019C0809154168F3631F480915516805328
S11317300E94DE130FC0809154168C3621F481E090
S11317400E94F01307C080915416883619F480E083
S11317500E94F01383E596E1892F8F9383E596E148
S11317608F938DE297E0892F8F938DE297E08F938B
S11317700E9463420F900F900F900F9054C280917B
S11317805316803719F40E94882B4DC2809153164A
S1131790803519F40E947A2B46C266E377E083E52C
S11317A096E10E940242892B19F40E94962B3BC2B7
S11317B0809153168D3419F40E94543634C28091AA
S11317C05316823339F484E596E10E94EB400E947B
S11317D06B3629C280915316823571F48091541668
S11317E0833511F40E94A42B80915416823509F09C
S11317F01AC20E94B92B17C280915316823719F46A
S11318000E94D63310C2809153168136B1F4809170
S11318105416813619F40E94751405C28091541629
S1131820833719F40E947815FEC1809154168436CA
S113183009F0F9C10E944D15F6C180915316863402
S113184009F049C00E945B2D80915416873711F42A
S1131850F4D1E9C180915416893619F40E940E2DF1
S1131860E2C180915416823711F45DD2DCC18091BB
S11318705416813611F4DDD2D6C1809154168536C2
S113188011F4CDD2D0C180915416853719F40E9439
S1131890642EC9C180915416833719F40E94DF2D38
S11318A0C2C180915416883719F40E949A32BBC180
S11318B080915416843711F4A3D3B5C18091541682
S11318C0813311F4C8D4AFC180915416823309F026
S11318D0AAC11AD6A8C1809153168636E9F480911C
S11318E05416833719F40E9421359DC180915416F2
S11318F0893619F40E948E3596C1809154168A3621
S113190019F40E94BD358FC180915416853609F0B3
S11319108AC10E941A3587C1809153168337F9F41E
S113192080910002882F90E00E940036809100028E
S113193091E0980F90930002882F90E0292F2F9325
S11319408F938AE397E0892F8F938AE397E08F93AD
S11319500E9463420F900F900F900F9064C180918A
S113196053168E3619F40E940C365DC180915316BD
S1131970833619F40E941C3456C18091531685365F
S113198091F580915416803341F08091541681333F
S113199021F080915416843331F40E948C2C81E41C
S11319A097E00E94A24280915416823331F40E943F
S11319B09A2C8EE597E00E94A242809154168333BC
S11319C031F40E94A22C82E797E00E94A242809107
S11319D05416853309F027C10E94AA2C89E897E0A0
S11319E00E94A24220C180915316843651F5809101
S11319F05416803331F40E94932C80EA97E00E94BD
S1131A00A24280915416823331F40E949E2C8EEBB4
S1131A1097E00E94A24280915416833331F40E94CD
S1131A20A62C83ED97E00E94A24280915416853340
S1131A3009F0F9C00E94B02C8BEE97E00E94A242FC
S1131A40F2C0809153168F3641F580915416882F39
S1131A5090E0AC01405351092FEF31E0429FC001A7
S1131A60439F900D529F900D11249A8389838981FD
S1131A709A810E94F2348A818F9389818F9383E0C3
S1131A8098E0892F8F9383E098E08F930E946342BC
S1131A900F900F900F900F90C6C0809153168F3403
S1131AA041F58091541680538B838B81883008F0E4
S1131AB0BAC080915516882F90E0805D9F459D8324
S1131AC08C838C819D81BC018B810E94B9348D8172
S1131AD08F938C818F938AE098E0892F8F938AE08B
S1131AE098E08F930E9463420F900F900F900F9095
S1131AF09AC080915316823659F583E198E00E948A
S1131B00A24280915416882F90E0C097AC012FEF29
S1131B1031E0429FC001439F900D529F900D1124CC
S1131B209F838E838E819F810E9406358F818F9340
S1131B308E818F9383E098E0892F8F9383E098E0E0
S1131B408F930E9463420F900F900F900F906BC081
S1131B5080915316823489F5809154168053888776
S1131B608885883008F05FC080915516882F90E0F2
S1131B70C097AC012FEF31E0429FC001439F900D0D
S1131B80529F900D11249A87898789859A85BC0173
S1131B9088850E9482348A858F9389858F9383E018
S1131BA098E0892F8F9383E098E08F930E9463429B
S1131BB00F900F900F900F9036C080915316873777
S1131BC069F480915416813311F40E94B62C8091EB
S1131BD05416803341F50E94BA2C25C080915316C7
S1131BE08D3669F480915416813311F40E94022DCC
S1131BF0809154168033B9F40E94082D14C083E5F3
S1131C0096E1892F8F9383E596E18F9387E198E09E
S1131C10892F8F9387E198E08F930E9463420F90FE
S1131C200F900F900F9000002A960FB6F894DEBF25
S1131C300FBECDBFDF91CF910895CF93DF93CDB782
S1131C40DEB7C25DD1090FB6F894DEBF0FBECDBFBB
S1131C5084E298E098878F83CE010B969A878987D0
S1131C6019821A821B821C821D824EC01E8224C0CD
S1131C708E81282F30E09E818DEC989F812D112438
S1131C80869586958695880F482F440F440F840FB8
S1131C90492F481B842F882F90E04F815885840F4B
S1131CA0951FFC014081CE010B96820F931FFC010E
S1131CB040838E818F5F8E838E81883CC8F24985F4
S1131CC05A8589819A81AB81BC8128ECBC01CD0104
S1131CD00E94D12F883C49F086EE91E0292F2F9362
S1131CE08F930E9476420F900F9089819A81AB81E5
S1131CF0BC8188539F4FAF4FBF4F89839A83AB8377
S1131D00BC838D818F5F8D838D818A3008F4AECF43
S1131D100000CE52DF4F0FB6F894DEBF0FBECDBF2A
S1131D20DF91CF910895CF93DF93CDB7DEB7C15D37
S1131D30D1090FB6F894DEBF0FBECDBFCE01099610
S1131D4098878F8319821A821B821C828FE298E003
S1131D500E94A2421D8254C01E820DC08E81882F13
S1131D6090E09E01275F3F4F820F931FFC0110827A
S1131D708E818F5F8E838E81883C80F38D81882F46
S1131D8090E0292F2F938F9383E498E0892F8F93EA
S1131D9083E498E08F930E9463420F900F900F901A
S1131DA00F904F81588589819A81AB81BC8128EC41
S1131DB0BC01CD010E942831883C51F08AEF91E0AA
S1131DC0292F2F938F930E9476420F900F9009C072
S1131DD0CE018F529F4FFC011082CE0109960E94C2
S1131DE0A24289819A81AB81BC8188539F4FAF4FB6
S1131DF0BF4F89839A83AB83BC838D818F5F8D832F
S1131E008D818A3008F4A8CF0000CF52DF4F0FB67F
S1131E10F894DEBF0FBECDBFDF91CF910895CF936D
S1131E20DF93CDB7DEB70E943C320000DF91CF9143
S1131E3008950F93CF93DF93CDB7DEB76A970FB6AC
S1131E40F894DEBF0FBECDBF1A821982C8C0898143
S1131E509A8100249695879507949695879507947B
S1131E60982F802DCC01A0E0B0E08B839C83AD83C0
S1131E70BE8389819A8100249695879507949695C7
S1131E8087950794982F802DCC01A0E0B0E08B8338
S1131E909C83AD83BE8385C08E818F938D818F9308
S1131EA08C818F938B818F938A818F9389818F9378
S1131EB08FE498E0892F8F938FE498E08F930E94AA
S1131EC063428DB79EB708960FB6F894DEBF0FBE77
S1131ED0CDBF18861F8254C09E01255F3F4F4F819E
S1131EE058858B819C81AD81BE8100E1BC01CD010F
S1131EF00E94A330803191F088858F938F818F93D6
S1131F0086E698E0892F8F9386E698E08F930E9467
S1131F1063420F900F900F900F902DC01A86198670
S1131F2026C09E01255F3F4F89859A85820F931FA6
S1131F30FC0180818823B1F429853A858F819885B5
S1131F40820F931F292F2F938F938AE798E0892F6D
S1131F508F938AE798E08F930E9463420F900F90CB
S1131F600F900F9089859A8501969A87898789852C
S1131F709A854097B4F28F819885409698878F838D
S1131F808F8198858038984008F4A6CF8B819C81F6
S1131F90AD81BE810196A11DB11D8B839C83AD8350
S1131FA0BE8389819A81019600249695879507942A
S1131FB0969587950794982F802D9C0140E050E0DA
S1131FC08B819C81AD81BE8182179307A407B507DD
S1131FD008F462CF89819A8101969A8389838981E1
S1131FE09A818115984008F432CF00006A960FB6A2
S1131FF0F894DEBF0FBECDBFDF91CF910F9108954E
S11320000F931F93CF93DF93CDB7DEB7C055D1099C
S11320100FB6F894DEBF0FBECDBF1A82198285E0D9
S113202090E09C878B878B859C85CC01A0E0B0E0F9
S1132030072E71E1880F991FAA1FBB1F7A95D1F74C
S1132040702D8B839C83AD83BE8318861F8261C0F1
S11320502F81CE010D96BC01822F0E94EC38CE0157
S11320600D960E940B42282FAE01435F5F4F8B8178
S11320709C81AD81BE81BC01CD010E94D12F082F6E
S113208010E0CE010D960E940B4208171907F9F4CF
S1132090CE010D960E940B429C0189819A81820F88
S11320A0931F9A838983CE010D960E940B42CC0123
S11320B0A0E0B0E02B813C814D815E81820F931FB3
S11320C0A41FB51F8B839C83AD83BE831DC08885ED
S11320D08F938F818F938E818F938D818F938C813A
S11320E08F938B818F9381E998E0892F8F9381E976
S11320F098E08F930E9463428DB79EB708960FB6FF
S1132100F894DEBF0FBECDBF8F8198850196988766
S11321108F838F819885CC970CF49ACF8B859C857F
S1132120CC01A0E0B0E0072E71E1880F991FAA1F2F
S1132130BB1F7A95D1F7702D8B839C83AD83BE83AF
S11321401A86198673C09E01215B3F4FAE01455B21
S11321505F4F8B819C81AD81BE81BC01CD010E940A
S11321603D2FCE01815B9F4FFC0140815181CE0107
S1132170855B9F4FFC0180819181A281B3819E0187
S1132180235F3F4F00E1BC01CD010E94A3308031A9
S1132190F9F41D8ECE010D96292F2F938F938EE87F
S11321A098E0892F8F938EE898E08F930E94634282
S11321B00F900F900F900F908B819C81AD81BE8109
S11321C04096A11DB11D8B839C83AD83BE8329C022
S11321D0CE01815B9F4FFC0120813181CE01855B63
S11321E09F4FFC0180819181A281B381432F4F9342
S11321F02F932B2F2F932A2F2F93292F2F938F93A6
S113220089EB98E0892F8F9389EB98E08F930E9454
S113221063428DB79EB708960FB6F894DEBF0FBE23
S1132220CDBF89859A8540969A87898729853A857D
S113223089819A812817390708F485CF0000C05B8B
S1132240DF4F0FB6F894DEBF0FBECDBFDF91CF9145
S11322501F910F9108950F93CF93DF93CDB7DEB7FE
S1132260AA970FB6F894DEBF0FBECDBF85E090E00D
S113227098878F831C821B8262C01A8219820EC0C7
S11322809E01255F3F4F89819A81820F931FFC0134
S1132290108289819A8101969A83898389819A819E
S11322A0809774F38F8198859C0100243695279537
S11322B00794369527950794322F202D8B819C8186
S11322C0820F931FCC01A0E0B0E09E01255F3F4F39
S11322D000E240E050E0BC01CD010E94A3301A822C
S11322E0198220C09E01255F3F4F89819A81820F08
S11322F0931FFC018081882F90E0292F2F938F93C7
S113230086EE98E0892F8F9386EE98E08F930E9453
S113231063420F900F900F900F9089819A810196DC
S11323209A83898389819A818097E4F28AE090E094
S11323300E949D428B819C8101969C838B838B811F
S11323409C8108970CF499CF1A8219820FC09E01C0
S1132350255F3F4F89819A81820F931F21E3FC01FE
S1132360208389819A8101969A83898389819A81BC
S113237040976CF31A82198222C08F8198859C0140
S11323800024369527950794369527950794322F80
S1132390202D89819A81820F931FCC01A0E0B0E0A7
S11323A09E01255F3F4F00E140E050E0BC01CD01BC
S11323B00E94B92E89819A8101969A8389838981A1
S11323C09A810597D4F28FEF9FEF9E838D8388C007
S11323D08D819E812F813885820F931F9A878987EB
S11323E08A858F9389858F938CEE98E0892F8F93BC
S11323F08CEE98E08F930E9463420F900F900F90A1
S11324000F901C821B8262C01A8219820EC09E0128
S1132410255F3F4F89819A81820F931FFC011082AF
S113242089819A8101969A83898389819A81809787
S113243074F38F8198859C01002436952795079421
S1132440369527950794322F202D8B819C81820FFE
S1132450931FCC01A0E0B0E09E01255F3F4F00E256
S113246040E050E0BC01CD010E94A3301A821982E1
S113247020C09E01255F3F4F89819A81820F931F5F
S1132480FC018081882F90E0292F2F938F9386EE73
S113249098E0892F8F9386EE98E08F930E94634291
S11324A00F900F900F900F9089819A8101969A83D3
S11324B0898389819A818097E4F28AE090E00E947E
S11324C09D428B819C8101969C838B838B819C8113
S11324D008970CF499CF8D819E8101969E838D83FC
S11324E08D819E8102970CF473CF86EF98E00E9451
S11324F0A2420000AA960FB6F894DEBF0FBECDBF6D
S1132500DF91CF910F9108950F93CF93DF93CDB7C0
S1132510DEB7A6970FB6F894DEBF0FBECDBF85E039
S113252090E09E838D8385E090E09C838B8382C0C2
S11325301A8219820EC09E01295F3F4F89819A81B8
S1132540820F931FFC01108289819A8101969A83DC
S1132550898389819A81809774F38D819E819C01FE
S11325600024369527950794369527950794322F9E
S1132570202D8B819C81820F931FCC01A0E0B0E0C1
S11325809E01295F3F4F00E240E050E0BC01CD01D5
S11325900E94A3308D819E819C010024369527954D
S11325A00794369527950794322F202D8B819C8193
S11325B0820F931F292F2F938F9388EF98E0892FF1
S11325C08F9388EF98E08F930E9463420F900F904F
S11325D00F900F901A82198220C09E01295F3F4FED
S11325E089819A81820F931FFC018081882F90E05A
S11325F0292F2F938F9386EE98E0892F8F9386EE61
S113260098E08F930E9463420F900F900F900F9069
S113261089819A8101969A83898389819A81809795
S1132620E4F28AE090E00E949D428B819C810196B5
S11326309C838B838B819C81863491050CF478CFA9
S11326400000A6960FB6F894DEBF0FBECDBFDF9193
S1132650CF910F9108951F920F920FB60F921124EC
S11326600F900FBE0F901F9018951F920F920FB6E8
S11326700F9211242F938F939F938FB78F778FBFD0
S113268088B1805888B980919013909191130196E4
S11326909093911380939013809190139091911340
S11326A08115924019F481E080938E1380919013E8
S11326B09091911381159440A8F08091901390917A
S11326C091139450909391138093901381E080938D
S11326D08F1380918C1390918D13019690938D1389
S11326E080938C1378949F918F912F910F900FBEAC
S11326F00F901F9018958BE49AE00E94A24280E804
S11327008093610082E08093B00084E08093B10004
S113271080EE8093B3001092B200E0E7F0E0808195
S1132720826080830895E7DF80EC80936A0080E80C
S11327308DBB8FE59AE00C94A242089560E080E09E
S11327400E944A2C1F928F938BE79AE09F938F935A
S11327500E9463420F900F900F900F900895CF93B3
S1132760DF93D82FC62F883010F4623040F08DE804
S11327709AE09F938F930E9463420F900F90CC2313
S113278031F061E001C0660FDA95EAF701C060E05C
S11327908BE00E943A2CDF91CF91089560E485E0AC
S11327A00E943A2C60E487E00E943A2C60E489E0BD
S11327B00E943A2C60E086E0D2CF0895CF93C82FD0
S11327C0883040F08DE292E09F938F930E9476428E
S11327D00F900F906C2F83E00E943A2CCF910895B4
S11327E0CF93C82F60E084E00E944A2CC11103C03B
S11327F0682F6F7E0EC0C13019F4682F606109C064
S11328008DE092E09F938F930E9476420F900F90F9
S113281003C084E00E943A2CCF91089560E080E1E7
S11328200C943A2C08951F93CF93DF93182F682F9D
S113283081E10E94622CD82FC92F282F392FA0E5BF
S1132840B3EC0E9420400E947D3B20E030E040E851
S113285059E30E94E13B0E944F3B7F936F93CF93D8
S1132860DF931F921F9384EA9AE09F938F930E94B1
S113287063428DB79EB708960FB6F8949EBF0FBEFD
S11328808DBF8D2F9C2FDF91CF911F910895CF93F2
S1132890DF93C82F20E013C0CF5FCF702091C11504
S11328A03091C21581E090E00C2E02C0880F991F70
S11328B00A94E2F7822393232D2F892B21F4D1E06C
S11328C0D20F213148F3D13141F488E492E09F934F
S11328D08F930E9476420F900F90D13111F08C2F7C
S11328E001C08FEFDF91CF910895CF93C0E01DC059
S11328F02091C1153091C21581E090E00C2E02C0E8
S1132900880F991F0A94E2F782239323892B61F09D
S11329101F92CF9384E492E09F938F930E94764218
S11329200F900F900F900F90CF5FC03108F382E4A7
S113293092E09F938F930E947642E1ECF5E18181CE
S11329408F9380818F9385EC9AE09F938F930E945D
S113295063420F900F900F900F900F900F90CF91B4
S1132960089595DFECE7F0E09081907E908390816C
S1132970282F2770922B908383FF06C0EBE7F0E0AB
S11329809081986090830895EBE7F0E09081977FC1
S1132990908308951F920F920FB60F9211240BB6D5
S11329A00F922F933F934F935F936F937F938F93E4
S11329B09F93AF93BF93EF93FF932091780040913F
S11329C09413642F042E000C770BFB01EE0FFF1FF2
S11329D0E956FC4E80819181DC01A20FB11D9D015D
S11329E0B183A083A9E7B0E09C91892F90E0982F50
S11329F08827820F931F918380833C912C919F930E
S1132A008F931F923F931F922F937F934F938AED3F
S1132A109AE09F938F930E94634280919413A1DF65
S1132A2080939413909195132DB73EB7265F3F4F33
S1132A300FB6F8943EBF0FBE2DBF891312C080910C
S1132A4092139091931301969093931380939213FE
S1132A50019739F481E080939613109293131092A6
S1132A60921380919613811105C0EAE7F0E080810A
S1132A7080648083FF91EF91BF91AF919F918F917B
S1132A807F916F915F914F913F912F910F900BBE6A
S1132A900F900FBE0F901F901895CF93C091951370
S1132AA08AE090E00E949D428C2F0C2E000C990B22
S1132AB0FC01EE0FFF1FE956FC4E81818F9380814C
S1132AC08F939F93CF938EEE9AE09F938F930E9460
S1132AD063428C2FDCDEC82F809195130F900F90EA
S1132AE00F900F900F900F90C813DACFCF910895E5
S1132AF01092961380919513E82FEE0FFF0BE95671
S1132B00FC4E11821082C3DE909195138913F4CF89
S1132B10EAE7F0E080818064808308958FE021DF1C
S1132B2080939413809395138F3F71F0EAE7F0E05C
S1132B308081806480838FE880838FEF80937E0020
S1132B4080937F00D5CF089589EF9AE09F938F9368
S1132B500E9476420F900F9008958077992721E084
S1132B6030E08032910511F020E030E0FA01318349
S1132B7020838031910579F018F4892B41F0089570
S1132B808033910571F08035910589F00895FB013A
S1132B9011821082089583E090E0FB019183808389
S1132BA0089586E090E0FB0191838083089588E096
S1132BB090E0FB019183808308950F931F938B0111
S1132BC09C0180E001C08F5F41E050E060E070E074
S1132BD0082E04C0440F551F661F771F0A94D2F7AE
S1132BE0401751076207730770F31F910F910895FF
S1132BF02F923F924F925F926F927F928F929F9209
S1132C00AF92BF92CF92DF92EF92FF920F931F93F6
S1132C10CF93DF93CDB7DEB72A970FB6F894DEBF14
S1132C200FBECDBF4C01FB010F2EF1E16F2EF6E07C
S1132C307F2EF02DCFC04081D30112969C91129724
S1132C404913C5C0418113969C9113974913BFC082
S1132C50F4013183208314968D919D910D90BC9144
S1132C60A02D5C016D01E12CF12C87018983BA82CE
S1132C70CB82DC82ED82FE820F831887D3011C96FF
S1132C800D911D912D913C911F97A02EB12EC22E16
S1132C90D32EE12CF12C00E010E029813A814B8104
S1132CA05C8160E070E080E090E00E943F40F301CE
S1132CB0208831884288538862015101E12CF12C2B
S1132CC087012982BA82CB82DC82ED82FE820F8365
S1132CD01887E12CF12C00E010E00E943F40D30162
S1132CE054962D903D904D905C9057976201510100
S1132CF0E12CF12C87012982BA82CB82DC82ED821D
S1132D00FE820F831887E12CF12C00E010E00E9472
S1132D103F40D4011B962C931B971C963C931C9705
S1132D201D964C931D971E965C931E971F966C934D
S1132D301F9750967C93509751968C935197529627
S1132D409C93F3012481358146815781648575857F
S1132D50868597850E94F53F9B01AC01D40153966B
S1132D606D937D938D939C93569784819581A681D1
S1132D70B781F401908F878BF30180859185A285BB
S1132D80B385F401928F818FD30150966D917D911B
S1132D908D919C9153970E94F53F0FDFF401838F2F
S1132DA0F301808D918DA28DB38DF40184A395A33D
S1132DB0A6A3B7A3F301848D958DA68DB78DF401D9
S1132DC080A391A3A2A3B3A381E090E00CC000E28E
S1132DD0600E711CD3012D913C912115310509F030
S1132DE02ACF80E090E02A960FB6F894DEBF0FBE9B
S1132DF0CDBFDF91CF911F910F91FF90EF90DF90A6
S1132E00CF90BF90AF909F908F907F906F905F9086
S1132E104F903F902F900895CF93DF93EB011EC006
S1132E20DE011196288130E0322F22278227932752
S1132E3020E030E00EC0AC01440F551F99231CF470
S1132E4085E090E802C080E090E0842795272F5F1A
S1132E503F4F283031057CF3AF01ED01FA01319782
S1132E60452BF1F6DF91CF910895DC016150710992
S1132E709B0121503109FC01E60FF71F108203C0AA
S1132E802150310910823323B4F0FD01E20FF31F06
S1132E90908191529F35A0F740E050E00EC0FD01B3
S1132EA0E40FF51F90819052903610F08FE38083E9
S1132EB04F5F5F4F02C040E050E0241735077CF7B6
S1132EC00895FC01A281B3818C9183FF03C08BEE32
S1132ED0868307C081FF03C08BEB868302C08BE02F
S1132EE0868311968C9180FF05C082E3878384E3F7
S1132EF08087089582E0878384E880870895CF934C
S1132F00DF93CDB7DEB762970FB6F894DEBF0FBE7E
S1132F10CDBFFE01319622E1DF011D922A95E9F72A
S1132F2023E1298323E02A836B835C834D83BF01E0
S1132F300E94762962960FB6F894DEBF0FBECDBF0D
S1132F40DF91CF910895CF93DF93CDB7DEB762972A
S1132F500FB6F894DEBF0FBECDBFFE01319622E15D
S1132F60DF011D922A95E9F720E329836B835C83B3
S1132F704D8323E02A83BF010E94762962960FB60F
S1132F80F894DEBF0FBECDBFDF91CF910895CF93EC
S1132F90DF93CDB7DEB762970FB6F894DEBF0FBEEE
S1132FA0CDBFBE016F5F7F4F22E1FB0111922A95D5
S1132FB0E9F72FE329830E94762962960FB6F894E5
S1132FC0DEBF0FBECDBFDF91CF9108957F928F9268
S1132FD09F92AF92BF92CF92DF92EF92FF920F93A4
S1132FE01F93CF93DF93CDB7DEB762970FB6F894F4
S1132FF0DEBF0FBECDBFDE0111965D01A2E1F5017A
S11330001192AA95E9F7DC011696EC911697E983DB
S1133010E2E0EA83812E922EA32EBB248B8290962B
S1133020EC919097E0FF15C05C967C905C975D9660
S1133030AC91E72DF0E0EA1BF10904C076956795A1
S113304057954795EA95D2F741704295407F842A77
S11330508B820C83A70160E070E04D875E876F87E9
S1133060788BDA8AC98ABE016F5F7F4F0E94762906
S113307062960FB6F894DEBF0FBECDBFDF91CF913D
S11330801F910F91FF90EF90DF90CF90BF90AF9082
S11330909F908F907F9008957F928F929F92AF928E
S11330A0BF92CF92DF92EF92FF920F931F93CF9331
S11330B0DF93CDB7DEB762970FB6F894DEBF0FBECD
S11330C0CDBFDE0111964D01A2E1F4011192AA9542
S11330D0E9F7AB2829F0DC011796EC91E98304C0E9
S11330E0DC011896EC91E983E2E0EA83812E922ECA
S11330F0A32EBB248B82DC019096EC919097E0FF89
S113310015C05C967C905C975D96AC91E72DF0E0E1
S1133110EA1BF10904C07695679557954795EA959A
S1133120D2F741704295407F842A8B820C83A70199
S113313060E070E04F83588769877A87DC86CB86A6
S1133140BE016F5F7F4F0E94762962960FB6F89496
S1133150DEBF0FBECDBFDF91CF911F910F91FF90C6
S1133160EF90DF90CF90BF90AF909F908F907F9023
S11331700895CF93DF93CDB7DEB762970FB6F89477
S1133180DEBF0FBECDBFBE016F5F7F4F22E1FB01EB
S113319011922A95E9F726E029830E9476296296FE
S11331A00FB6F894DEBF0FBECDBFDF91CF91089567
S11331B0CF93DF93CDB7DEB762970FB6F894DEBF37
S11331C00FBECDBFFE01319622E1DF011D922A958B
S11331D0E9F720E1298323E02A836B835C834D8311
S11331E0BF010E94762962960FB6F894DEBF0FBE27
S11331F0CDBFDF91CF9108950F931F93CF93DF93AA
S1133200CDB7DEB762970FB6F894DEBF0FBECDBF61
S1133210FE01319622E1DF011D922A95E9F72FE99B
S1133220298302E010E020E030E00D871E872F871D
S1133230388B7A8B698BBF010E94762962960FB610
S1133240F894DEBF0FBECDBFDF91CF911F910F91D8
S11332500895FF920F931F93CF93DF93CDB7DEB7FB
S113326062970FB6F894DEBF0FBECDBFF62EBE0137
S11332706F5F7F4F22E1FB0111922A95E9F72FE15D
S1133280298321E02A83FB8201E010E020E030E082
S11332900F83188729873A875C874B870E94762992
S11332A08C01992384F41F92FF921F938F9380E1E2
S11332B09BE09F938F930E9463420F900F900F9017
S11332C00F900F900F90C80162960FB6F894DEBF6E
S11332D00FBECDBFDF91CF911F910F91FF90089545
S11332E0AB0160EBB6CF0895AB0160EDB2CF0895AA
S11332F0FF920F931F93CF93DF931F92CDB7DEB747
S1133300FC0121A5261779F0613011F420E401C0F5
S113331020E0F62E8C012983BE016F5F7F4FE4DF2E
S1133320F801F1A602C080E090E00F90DF91CF9108
S11333301F910F91FF900895FF920F931F93CF93C6
S1133340DF93CDB7DEB762970FB6F894DEBF0FBE3A
S1133350CDBFF62EBE016F5F7F4F22E1FB011192BC
S11333602A95E9F72FE0298321E02A83FB8201E0F3
S113337010E020E030E00D871E872F87388B5A8BB2
S1133380498B0E9476298C01992384F41F92FF9221
S11333901F938F938BE29BE09F938F930E946342D2
S11333A00F900F900F900F900F900F90C80162969E
S11333B00FB6F894DEBF0FBECDBFDF91CF911F9142
S11333C00F91FF900895AB0160EBB6CF08950F9372
S11333D01F93CF93DF931F92CDB7DEB78C01198271
S11333E0BE016F5F7F4FEFDF898184FF08C08F7E4E
S11333F08983BE016F5F7F4FC80172DF02C080E026
S113340090E00F90DF91CF911F910F9108950F934A
S11334101F93CF93DF931F92CDB7DEB78C01198230
S1133420BE016F5F7F4FCFDF898184FD08C080615B
S11334308983BE016F5F7F4FC80152DF02C080E005
S113344090E00F90DF91CF911F910F910895EF922B
S1133450FF921F93CF93DF931F92CDB7DEB77C010A
S1133460162FBE016F5F7F4FAEDF113031F0A0F039
S1133470123041F0133059F012C089818D73806489
S113348089830DC089818D73806C898308C089818B
S11334908D738268898303C089818D738983BE019A
S11334A06F5F7F4FC7011CDF80E090E00F90DF91DA
S11334B0CF911F91FF90EF900895AB0160EC3CCF4A
S11334C008956F927F928F929F92AF92BF92CF9204
S11334D0DF92EF92FF920F931F93CF93DF931F928C
S11334E0CDB7DEB73C010E947233822E932E84E660
S11334F0880E911C08C0BE016F5F7F4FC301DDDFE2
S113350089818823A4F40E947233A82CB92C192D24
S1133510110F110BC12ED12EE12EF12E012F0E947D
S1133520C04048F382E99FEFAFEFBFEF03C080E0F4
S113353090E0DC010F90DF91CF911F910F91FF90EC
S1133540EF90DF90CF90BF90AF909F908F907F903F
S11335506F9008954F925F926F927F928F929F9295
S1133560AF92BF92CF92DF92EF92FF920F931F938D
S1133570CF93DF931F92CDB7DEB73C012B010E949E
S11335807233822E932E84E6880E911C08C0BE01ED
S11335906F5F7F4FC30191DF898180FF14C00E9458
S11335A07233A82CB92C192D110F110BC12ED12E49
S11335B0E12EF12E012F0E94C04048F382E99FEFD3
S11335C0AFEFBFEF03C080E090E0DC014114510491
S11335D019F02981F20120830F90DF91CF911F917F
S11335E00F91FF90EF90DF90CF90BF90AF909F909E
S11335F08F907F906F905F904F9008952F923F929D
S11336004F925F926F927F928F929F92AF92BF92EE
S1133610CF92DF92EF92FF920F931F93CF93DF939A
S1133620CDB7DEB727970FB6F894DEBF0FBECDBF78
S11336303C01542E452E362E272E0C831D832E83BB
S11336403F83860165015BDCBE016D5F7F4FC30173
S113365081DF5C01992394F42F923F924F925F9201
S1133660BF928F9385E49BE09F938F930E94634264
S11336700FB6F894DEBF0FBECDBF2EC0EF2809F5FC
S11336808B81AE014F5F5F4FB80190E066DA8981AC
S11336909A81892BB1F02F923F924F925F928AE6E2
S11336A09BE09F938F930E9463420F900F900F9023
S11336B00F900F900F900F2EF6EBAF2EBB24BA9401
S11336C0F02D74010C811D812E813F81452D542DD7
S11336D0632D722DC3017ADCC50127960FB6F894C9
S11336E0DEBF0FBECDBFDF91CF911F910F91FF9031
S11336F0EF90DF90CF90BF90AF909F908F907F908E
S11337006F905F904F903F902F9008954F925F92EB
S11337106F927F928F929F92AF92BF92CF92DF92DD
S1133720EF92FF920F931F93CF93DF9300D01F92DA
S11337301F92CDB7DEB74C01442E552E762E672E40
S11337400A831B832C833D83860113DD6701780183
S11337500A811B812C813D81442D552D672D762DA9
S1133760C4019ADC442D552D672D762DC40120DD2E
S1133770BE016F5F7F4FC401EDDE8C01992394F489
S11337806F927F925F924F921F938F9380E99BE099
S11337909F938F930E9463420FB6F894DEBF0FBECF
S11337A0CDBF1CC0898183FF13C06F927F925F924B
S11337B04F9287EB9BE09F938F930E9463420F90FD
S11337C00F900F900F900F900F9081E090E002C047
S11337D080E090E0892B11F00BEF1FEFC8010F90F0
S11337E00F900F900F900F90DF91CF911F910F9139
S11337F0FF90EF90DF90CF90BF90AF909F908F900D
S11338007F906F905F904F9008954F925F926F9268
S11338107F92AF92BF92CF92DF92EF92FF920F937B
S11338201F93CF93DF935C016B017901FA018081CF
S11338309181009711F0029779F4F5016185728501
S1133840FA0182859385A485B585680F791FA70140
S1133850C6010E94F24165C0F50102A513A5085FE7
S11338601E4FFA014284538464847584C0E0D0E01E
S11338704BC0411451046104710431F148165906D6
S11338806A067B0628F0481A590A6A0A7B0A38C075
S1133890F8014081518162817381440D551D661D7B
S11338A0771D84199509A609B7092701612C712C84
S11338B084159505A605B70510F42C013D01E20118
S11338C0412C512C320110C0A70160E070E0841734
S11338D09507A607B70710F4AC01BD01EA01F8018A
S11338E04081518162817381F50181859285BC019A
S11338F0640F751FAE01C6010E94F241CC0EDD1E9D
S1133900085F1F4FEC1AFD0AF80184819581A68196
S1133910B7810097A105B10521F0E114F10409F084
S1133920A8CFDF91CF911F910F91FF90EF90DF907F
S1133930CF90BF90AF907F906F905F904F9008951D
S11339402F923F924F925F926F927F928F929F92AB
S1133950AF92BF92CF92DF92EF92FF920F931F9399
S1133960CF93DF93CDB7DEB7A1970FB6F894DEBF40
S11339700FBECDBF1C01088719872A873B874C8758
S11339805D876E877F87FF82EE821A821982D70154
S113399012968D909C9013971696ED91FC91179723
S11339A0F98BE88B2D913C913F8B2E8B2130310587
S11339B061F4DC019A96ED91FC919B97EC5FFE4FCC
S11339C0208131813D8B2C8B07C0DC0159960D90F1
S11339D0BC91A02DBD8BAC8BF101058D288539855B
S11339E04A855B856C857D858E859F850E94904088
S11339F0422E532EE68CF78C28853985E222F32259
S1133A00AE81BF8115961C921E921497038D288552
S1133A1039854A855B856C857D858E859F850E9469
S1133A2090402A8F3B8F198E188EA12CB12C1B8AA3
S1133A301A8AF10180A181FF03C06A8DC10158DC9B
S1133A40A201052C000C660B770BC10158DABE01EC
S1133A506D5F7F4FC1017EDD3C0199230CF009C1EC
S1133A605F924F927F928F9385E49BE09F938F9315
S1133A700E9463420F900F900F900F900F900F9041
S1133A8006C2D10190968C91909781FF18C05B96E5
S1133A902C915B975D968C9130E0281B310981E075
S1133AA090E002C0880F991F2A95E2F701979201CE
S1133AB02F5F3F4F82239323892B09F4E9C0F2013E
S1133AC03196F987E887AF01FF0F660B770BC101C9
S1133AD03ADABE016D5F7F4FC1013CDD3C019923A1
S1133AE09CF4F985FF9328852F937F928F9381ED22
S1133AF09BE09F938F930E9463420F900F900F90CF
S1133B000F900F900F90C3C14E895F8942305105C9
S1133B10F1F08B81AE014C5F5F4FBE016F5F7F4F51
S1133B2090E01BD88C819D81892B89F05F924F9204
S1133B308AE69BE09F938F930E946342888D998DC0
S1133B400196998F888F0F900F900F900F90898115
S1133B509A81AA89BB89A817B90710F49B8B8A8B11
S1133B60F1018789908D8E199F0954018815990553
S1133B7008F45C01AE81BF811E96CD90DC901F9746
S1133B8014968D919C911597052C000C6608770866
S1133B90C80ED91E8701FF0C220B330B7501B3012C
S1133BA0A201C10113DAEE81FF81848195818A0D1E
S1133BB09B1D958384838A189B0880899189892B0E
S1133BC0C9F1A888B9882C893D892A153B050CF4CC
S1133BD05901D1015996ED90FC905A9757960D9141
S1133BE01C9158971996CD90DC901A9720E030E0FC
S1133BF0B301A201C101EAD9EE81FF816089718913
S1133C0080859185680F791F9501AF01C101FDDDA4
S1133C10AE81BF8118968D919C9119978A0D9B1D39
S1133C2019969C938E931897E889F989EA19FB09E8
S1133C30F98BE88BC10145DC3C01E12CF12CAA2471
S1133C40A394B12C99239CF4F985FF9328852F9391
S1133C507F928F9385E49BE09F938F930E946342AE
S1133C600F900F900F900F900F900F9010C14884F9
S1133C705984D10157962D913C915897C701880DCD
S1133C80991D2817390708F4FCCE19A218A204C0FC
S1133C90E1E0F0E0F9A3E8A3A114B104E9F0C10163
S1133CA076D9BE016D5F7F4FC10154DC3C0199237D
S1133CB08CF45F924F927F928F9385E49BE09F9365
S1133CC08F930E9463420F900F900F900F900F906C
S1133CD00F90DDC0A12CB12C2E893F8922303105F3
S1133CE001F18B81AE014C5F5F4FBE016F5F7F4F6F
S1133CF090E00E94AD158C819D81892B91F05F929B
S1133D004F928AE69BE09F938F930E946342488D73
S1133D10598D4F5F5F4F598F488F0F900F900F90C1
S1133D200F9089819A81AA89BB89A817B90710F4D1
S1133D309B8B8A8BF1018789908D8E199F099986B7
S1133D4088868815990510F499878887AE81BF8184
S1133D501E96CD90DC901F9714968D919C9115978B
S1133D609201052C000C440B550B2C8F3D8F4E8F6C
S1133D705F8FC80ED91E8701FF0C220B330BE8841A
S1133D80F9844C8D5D8D6E8D7F8DC1011FD9AE81FF
S1133D90BF8114968D919C911597E884F9848E0DBA
S1133DA09F1D15969C938E9314978E189F0850967A
S1133DB08D919C915197892B09F441C028893989A7
S1133DC0398728874C895D894217530714F459872A
S1133DD04887D1015996ED90FC905A9757960D91CA
S1133DE01C9158971996CD90DC901A9720E030E0FA
S1133DF04C8D5D8D6E8D7F8DC101E8D8EE81FF8184
S1133E006089718980859185680F791F2885398536
S1133E10AF01C101FADCAE81BF8118968D919C91EE
S1133E201997E885F9858E0F9F1F19969C938E9399
S1133E301897288939892E1B3F0B398B288B48A169
S1133E4059A1452B59F05FEF451A550A8A8D9B8D70
S1133E5001969B8F8A8FE12CF12CEBCDD1019896A2
S1133E608C9190E0EA89FB89E817F90730F00F2E6E
S1133E70FBE86F2E77247A94F02D288D398D232B2F
S1133E8031F00F2EF6EB6F2E77247A94F02DC301C8
S1133E90A1960FB6F894DEBF0FBECDBFDF91CF91D0
S1133EA01F910F91FF90EF90DF90CF90BF90AF9054
S1133EB09F908F907F906F905F904F903F902F9046
S1133EC008952F923F924F925F926F927F928F92BA
S1133ED09F92AF92BF92CF92DF92EF92FF920F9395
S1133EE01F93CF93DF93CDB7DEB76E970FB6F894D9
S1133EF0DEBF0FBECDBF9C838B830D831E832F83B8
S1133F00388749875A876B877C8727011A821982E9
S1133F10D70112962D903C9013971696ED91FC9133
S1133F201797FE87ED878D919C9121E08230910552
S1133F3009F020E0422F50E05A8F498F019769F42D
S1133F40AB81BC819A96ED91FC919B97EC5FFE4FFF
S1133F5020813181388F2F8B08C0AB81BC81599669
S1133F600D90BC91A02DB88FAF8B3F922F92BC8542
S1133F70BF93EB85EF93FA85FF9329852F933885BB
S1133F803F934F814F935E815F938D818F9388E838
S1133F909FE09F938F938EEF9BE09F938F930E945C
S1133FA06342AB81BC815D960C915D972D813E810E
S1133FB04F81588569857A858B859C850E949040C0
S1133FC0622E732E5E968D919C915F97ED80FE809C
S1133FD0E822F9225B960C915B972D813E814F81FB
S1133FE0588569857A858B859C850E9490402D8FA4
S1133FF03E8FF2011582148290968C9190970FB6A1
S1134000F894DEBF0FBECDBF81FF03C0622FCD0188
S11340106FD91C8E1B8E1E8A1D8A02C0E12CF12CC6
S1134020AB81BC8157968D919C9158978E199F09AD
S11340303E822D828215930510F49E838D83ED813B
S1134040FE81FC8BEB8BD2011E96AD90BC901F972A
S113405014968D919C911597A80EB91E8701FF0C9B
S1134060220B330BC301072C000CAA0BBB0B8F874D
S1134070988BA98BBA8B4F01DE0111966D01E98CE7
S1134080FA8C4F85588969897A898B819C81B6DA43
S11340905C01863BBFEF9B0731F4EB8DFC8D3196C1
S11340A0FC8FEB8F13C0009789F07F926F92BF92C1
S11340B08F938EE19CE09F938F930E9463420F90B5
S11340C00F900F900F900F900F9088C089819A8164
S11340D02D893E892817390710F49E8B8D8BD201C8
S11340E014968D919C911597ED81FE818E0F9F1FE3
S11340F015969C938E9314972B893C89221A330A24
S113410050968D919C915197892BE1F18D849E84D9
S11341104F89588D481559050CF44A01AB81BC816F
S11341205996ED90FC905A9757960D911C9158977B
S11341301996CD90DC901A9720E030E04F8558898D
S113414069897A89CD010E94E617F2016089718933
S113415080859185680F791F9401A2018B819C81D0
S113416054DBD20118968D919C911997880D991D55
S113417019969C938E931897ED85FE85E819F90995
S1134180FE87ED872114310449F1FFEF6F1A7F0A8E
S1134190AB81BC815B962C915B975D968C915D970E
S11341A030E0281B310981E090E002C0880F991F9C
S11341B02A95E2F7019786219721892B09F02ECFC2
S11341C090968C91909781FF29CFED8DFE8D31963D
S11341D0FE8FED8F6D8DCD018BD820CFAB81BC814F
S11341E098968C9190E0ED89FE89E817F90730F0F4
S11341F00F2EFBE8AF2EBB24BA94F02D2B8D3C8DF3
S1134200232B31F00F2EF6EBAF2EBB24BA94F02DF6
S1134210C5016E960FB6F894DEBF0FBECDBFDF9119
S1134220CF911F910F91FF90EF90DF90CF90BF90AF
S1134230AF909F908F907F906F905F904F903F9042
S11342402F9008952F923F924F925F926F927F9298
S11342508F929F92AF92BF92CF92DF92EF92FF9292
S11342600F931F93CF93DF93CDB7DEB7A3970FB60A
S1134270F894DEBF0FBECDBF9BA38AA309871A871C
S11342802B873C874D875E87462E572E4701D701E3
S113429016966D907C9017972D903C90B1E02B165C
S11342A0310461F4DC019A96ED91FC919B97EC5FEB
S11342B0FE4FA080B180BA82A98208C0AAA1BBA186
S11342C059960D90BC91A02DBA83A983F4018381E2
S11342D08F9382818F935F924F92FE85FF93AD847B
S11342E0AF92BC84BF92CB84CF92DA84DF92E9840C
S11342F0EF928CE99FE09F938F938EEF9BE09F93C7
S11343008F930E946342AAA1BBA11B96BC91BF8755
S1134310EAA1FBA1F485F88BAAA1BBA11D96BC91CF
S1134320B98BEAA1FBA1F685FA8FEAA1FBA1B785B7
S1134330A089F189FB8FEAA1FBA1F289FC8F0FB65A
S1134340F894DEBF0FBECDBF2F85388949895A8DB9
S11343506B2F7A2F8B8D9F2FA984BA84CB84DC8416
S1134360ED84FE84042D152D0E94C04009F088F4CC
S11343708CE99FE09F938F938AE39CE09F938F93B4
S11343800E9463420F900F900F900F908AEE9FEF60
S11343909DC1161417040CF0A6C0F4010285138500
S11343A024853585A980BA80A501BB0C660B770BE3
S11343B0041715072607370788F08CE99FE09F93B9
S11343C08F9384E69CE09F938F930E9463420F90A7
S11343D00F900F900F908AEE9FEF78C1A301770C96
S11343E0660B770B400F511F621F731F6A017B011D
S11343F000E010E098014A8BDB8AEC8AFD8A0E8B80
S11344001F8B288F398FEAA1FBA1758C2F853889E2
S113441049895A8D6B2F7A2F8B8D9C8D072D0E9485
S113442092402F87388B498B652EB62FA72FF82FF4
S1134430E92F29853A854B855C856D857E85842D9C
S1134440952D0E949040A22EB32EC42ED52EE62E7A
S1134450F72E082F192F2F8538894989562D6B2F50
S11344607A2F8F2F9E2F0E94B740192F9A81990F70
S1134470990BA22EB32EC42ED52EE62EF72E082F7E
S113448029813A81492F592F692F792F892F0E9429
S11344903F40A22EB32EC42ED52EE62EF72E082F83
S11344A0192F2A893B894C895D8960E070E080E09E
S11344B090E00E94C04091F088F08CE99FE09F93C7
S11344C08F938AE39CE09F938F930E9463420F90A3
S11344D00F900F900F908AEE9FEFF8C0D4011996B9
S11344E01C921E921897B2E02B16310421F48AA173
S11344F09BA10E94E719F401A280B380AAA1BBA1E9
S113450057968D919C9158973C01660C771C660CCC
S1134510771CA614B70408F4A2C05B96EC91298515
S11345203A854B855C856D857E85842D952D0E2F72
S11345300E94904029833D8F4E8F5F8F68A3B72FD1
S1134540A82F99A32A2D3B2D40E050E060E070E0B5
S113455080E090E0A984BA84CB84DC84ED84FE847A
S1134560042D152D0E94AE402A8B3F87488B598B12
S11345706A8F7B8F8C8FF92F0E2F0E949040A22E72
S1134580B32EC42ED52EE62EF72E082F192F2981EF
S11345903D8D4E8D5F8D68A17B2F8A2F99A10E943E
S11345A0C04009F45FC0A1E0B0E002C0AA0FBB1F85
S11345B0EA95E2F7EB2FEE0FEE0B2A2F3B2F4E2F4F
S11345C05E2F6E2F7E2F8E2F9E2FA984BA84CB84CC
S11345D0DC84ED84FE84042D152D0E94B740530124
S11345E0C12CD12CE12CF12C87016982BA82CB82B7
S11345F0DC82ED82FE820F831887C12CD12CE12C42
S1134600F12C00E010E00E94C0407CF52A893F852F
S1134610488959896A8D7B8D8C8D9F2FAA2EBB2E3C
S1134620CE2EDE2EEE2EFE2E0E2F1E2F0E94B74013
S1134630A22EB32EC42ED52EE62EF72E082F192F18
S113464029813A8140E050E060E070E080E090E051
S11346500E94C04009F064F481E090E00BC080E067
S113466090E008C081E090E005C081E090E002C0E5
S113467080E090E0892B79F0740109851A852B85F7
S11346803C854D855E85642D752D8AA19BA158D9E5
S1134690082F192F0EC0740109851A852B853C85B6
S11346A04D855E85642D752D8AA19BA10ADC082F9A
S11346B0192F22E02216310439F48AA19BA10E9409
S11346C0071A802F912F02C0802F912FA3960FB627
S11346D0F894DEBF0FBECDBFDF91CF911F910F9134
S11346E0FF90EF90DF90CF90BF90AF909F908F900E
S11346F07F906F905F904F903F902F9008954F92CE
S11347005F926F927F92AF92BF92CF92DF92EF92BD
S1134710FF920F931F93CF93DF935C016B017A0198
S1134720E901FC01418D528D6FEF70E08185928526
S11347300E94FB4188819981009711F0029771F4DE
S1134740F501218532858A859B85AC85BD85820FDF
S1134750931FA701B6010E94F24164C0F50102A5AE
S113476013A5085F1E4F4A845B846C847D84C0E07B
S1134770D0E04AC0411451046104710431F144167B
S113478055066606770628F0441A550A660A770A1B
S113479037C0F80180819181A281B381840D951D78
S11347A0A61DB71D44195509660977092701612C0F
S11347B0712C441555056605770510F42A013B0153
S11347C0E201412C512C320110C0C701A0E0B0E03D
S11347D0481759076A077B0710F4DB01CA01EC018B
S11347E0F80180819181A281B381F501218532850F
S11347F0820F931FAE01B6010E94F241CC0EDD1E62
S1134800085F1F4FEC1AFD0AF80144815581668147
S11348107781411551056105710521F0E114F10419
S113482009F0A8CFDF91CF911F910F91FF90EF90E6
S1134830DF90CF90BF90AF907F906F905F904F903C
S113484008952F923F924F925F926F927F928F9230
S11348509F92AF92BF92CF92DF92EF92FF920F930B
S11348601F93CF93DF93CDB7DEB7A3970FB6F8941A
S1134870DEBF0FBECDBF9BA38AA309831A832B83FC
S11348803C834D835E836F8378872701D70112961B
S11348906D907C9013971696ED91FC911797FA877B
S11348A0E9870D911C911A8F098F0130110561F46C
S11348B0DC019A96ED91FC919B97EC5FFE4F008191
S11348C011811E8B0D8B08C0AAA1BBA159960D9016
S11348D0BC91A02DBE8BAD8B7F926F92B885BF9398
S11348E0EF81EF93FE81FF930D810F931C811F9342
S11348F02B812F933A813F9349814F9382E79FE025
S11349009F938F938CEA9CE09F938F930E946342C2
S1134910AAA1BBA11B962C911B971C963C911C979A
S11349201D964C911D971E965C911E971F966C9137
S11349301F9750967C9150970FB6F894DEBF0FBE28
S1134940CDBF51968C91519752969C91A980BA8073
S1134950CB80DC80ED80FE800F8118850E94C040F2
S113496009F088F482E79FE09F938F938AEC9CE0A0
S11349709F938F930E9463420F900F900F900F901C
S11349808AEE9FEFF2C1AAA1BBA15D960C915D973F
S113499029813A814B815C816D817E818F819885EB
S11349A00E949040222E332E5E960D911C915F97AB
S11349B0E981FA81E023F123FC87EB875B960C9174
S11349C029813A814B815C816D817E818F819885BB
S11349D00E949040922E2F8B388FD20115961C92F4
S11349E01E921497E985FA851E161F060CF0CAC09C
S11349F01A960D911D912D913C911D970B8F1C8F33
S1134A002D8F3E8FED89FE89CF01FF0FAA0BBB0BC3
S1134A10081719072A073B0788F082E79FE09F934E
S1134A208F9385EF9CE09F938F930E9463420F9036
S1134A300F900F900F908AEE9FEF97C109851A850A
S1134A40C801110FAA0BBB0B2B8D3C8D4D8D5E8DB8
S1134A50820F931FA41FB51F8C019D0140E050E0FD
S1134A60BA018D871E872F87388B498B5A8B6B8BA6
S1134A707C8BAAA1BBA11B962C911B971C963C91E5
S1134A801C971D964C911D971E965C911E971F9620
S1134A906C911F9750967C9150975D96FC905D9712
S1134AA051968C91519752969C910F2D0E94924051
S1134AB02F8F832E48A359A3B62FA72FF82FE92FA2
S1134AC029813A814B815C816D817E818F819885BA
S1134AD00E949040A22EB32EC42ED52EE62EF72E81
S1134AE0082F192F2F8D382D48A159A16B2F7A2FFC
S1134AF08F2F9E2F0E94B740A22EB32EC42ED52EE8
S1134B00E62EF72E082F192F2D893E89932F990F02
S1134B10990B492F592F692F792F892F0E943F40D4
S1134B20A22EB32EC42ED52EE62EF72E082F192F23
S1134B302D853E854F85588960E070E080E090E0E7
S1134B400E94C04091F088F082E79FE09F938F938A
S1134B508AEC9CE09F938F930E9463420F900F9086
S1134B600F900F908AEE9FEF00C1ED89FE890B8DA7
S1134B701C8DE01BF10BFE8BED8BD20119961C9260
S1134B801E921897EAA1FBA180A181FF04C0692DA0
S1134B90CF010E947819098D1A8D0230110521F474
S1134BA08AA19BA10E94E71921E030E03E872D876E
S1134BB002C01C861B86D20150966D917C91519740
S1134BC06115710509F450C089849A84ED89FE89C0
S1134BD0E815F9050CF44F01D20118968D919C91BA
S1134BE01997680F791F9201A4018AA19BA187DDFF
S1134BF0EAA1FBA1C184D284E18CF28C0789108DD7
S1134C0020E030E0AA24A394B12CA101032C000CD1
S1134C10660B770BCF010E944C188C01009789F02A
S1134C203F922F921F938F938DE19DE09F938F93DB
S1134C300E9463420F900F900F900F900F900F906F
S1134C4086C0D20118968D919C911997880D991D53
S1134C5019969C938E931897E985FA85E819F909B2
S1134C60FA87E9871E861D86AAA1BBA157968D9156
S1134C709C915897EB85FC858E1B9F0B43018615F1
S1134C80970508F44C01D2011E96ED90FC901F97F5
S1134C9014968D919C911597E80EF91EEB85FC8571
S1134CA08F01FF0F220B330BAD84BE846401A1017D
S1134CB0032C000C660B770B8AA19BA10E94861B18
S1134CC08C01009789F03F922F921F938F9384E475
S1134CD09DE09F938F930E9463420F900F900F90DB
S1134CE00F900F900F9033C0D20114968D919C9128
S1134CF01597880D991D15969C938E931497681893
S1134D00790829F1BFEF2B1A3B0AEAA1FBA1238DF5
S1134D10858D30E0281B310981E090E002C0880FC6
S1134D20991F2A95E2F7019782219321892B09F093
S1134D3040CF80A181FF3DCF0F89188D0F5F1F4F9A
S1134D40188F0F8B6F89CF010E94781932CF498D4C
S1134D505A8D4230510539F48AA19BA10E94071A49
S1134D60802F912F02C0802F912FA3960FB6F89415
S1134D70DEBF0FBECDBFDF91CF911F910F91FF908A
S1134D80EF90DF90CF90BF90AF909F908F907F90E7
S1134D906F905F904F903F902F900895CF93DF9343
S1134DA0CDB7DEB762970FB6F894DEBF0FBECDBFA6
S1134DB0BE016F5F7F4F22E1FB0111922A95E9F753
S1134DC02FEF298393D2992324F482E89DE00E9453
S1134DD0A24280ED97E00E94A33380E090E06296C7
S1134DE00FB6F894DEBF0FBECDBFDF91CF9108950B
S1134DF04F925F926F927F928F929F92AF92BF92E7
S1134E00CF92DF92EF92FF920F931F93CF93DF9392
S1134E10EC0180E093E00E9444335C0161E0CE0148
S1134E200E94271A41E050E060E070E0CE010E9449
S1134E307F1760E070E0CE010E94AA1A9E8083E092
S1134E408E8365010F2EE12CF3E0FF2EF02D00E0A0
S1134E5010E0980141E050E060E070E0CE010E9473
S1134E60E6179E8260E0CE010E94271A1FC0F5015A
S1134E7080818F34C1F481818E34A9F48281863497
S1134E8091F48381893479F44EEF50E0B5018EE4D6
S1134E909FE40E940C17F501E250FF4F20813181FD
S1134EA08217930731F00F5F1F4FB394033011053E
S1134EB0F4F20330110539F489E99DE00E94A2421D
S1134EC080E090E082C080E0F5018E01045D1F4F18
S1134ED0D80101900D928A95E1F76CE070E0C80169
S1134EE080960E943517045D1F4F64E170E0C8018D
S1134EF00E94351719830883FE01E458FF4FC080D0
S1134F00D180E280F3803C966081718182819381BB
S1134F10A70196010E94F53F2B013C013496608164
S1134F20718182819381A30192010E94F53F4B011B
S1134F305C013496A081B0E09B01AC010E94354035
S1134F408B019C010B871C872D873E871F86188A3F
S1134F50198A1A8A4B8A5C8A6D8A7E8AD88ECF8A8D
S1134F607097808191819A8F898FC501B4010E94C5
S1134F70DD158B8FFE01EE52FF4F8081882349F0AF
S1134F8088A199A1AAA1BBA1816088A399A3AAA37E
S1134F90BBA3FE01EB5DFE4F8081882349F088A10D
S1134FA099A1AAA1BBA1826088A399A3AAA3BBA328
S1134FB0FE01EC5DFE4F808190E0A0E0B0E08CA3A8
S1134FC09DA3AEA3BFA381E090E0DF91CF911F9199
S1134FD00F91FF90EF90DF90CF90BF90AF909F9094
S1134FE08F907F906F905F904F900895CF93DF9351
S1134FF01F92CDB7DEB76983AE014F5F5F4F60EAA2
S11350000E9429190F90DF91CF9108959F92AF923A
S1135010BF92CF92DF92EF92FF920F931F93CF93A1
S1135020DF93CDB7DEB762970FB6F894DEBF0FBE3D
S1135030CDBFFE0131960F2EF2E19F2EF02DDF0140
S11350401D929A94E9F7FC82EB82B88AAF867F01BD
S1135050F9D82D813E81F6013183208362960FB603
S1135060F894DEBF0FBECDBFDF91CF911F910F919A
S1135070FF90EF90DF90CF90BF90AF909F900895F6
S11350809F92AF92BF92CF92DF92EF92FF920F93D3
S11350901F93CF93DF93CDB7DEB762970FB6F89423
S11350A0DEBF0FBECDBFFE0131960F2EF2E19F2E63
S11350B0F02DDF011D929A94E9F7FC82EB82B88A05
S11350C0AF867F01BEDB2D813E81F60131832083D3
S11350D062960FB6F894DEBF0FBECDBFDF91CF91BD
S11350E01F910F91FF90EF90DF90CF90BF90AF9002
S11350F09F900895CF92DF92EF92FF920F931F93A8
S1135100CF93DF931F921F92CDB7DEB76C017B0163
S11351101A8219828CE291E00E9444338C01892B1B
S113512009F4A4C08CE291E0F8019C011192215091
S11351303040E1F7F801D382C282C8010E946117AE
S1135140C8012CDEBE016F5F7F4FC8010E94FC18AE
S1135150BE016F5F7F4FC8010E94F815892BB9F417
S11351609A8189811F929F931F928F9384EE9EE070
S11351709F938F930E946342C8013ADE0F900F9071
S11351800F900F900F900F90892B09F472C0F801C3
S113519081818F9380818F938EE19FE09F938F9382
S11351A00E9463428981F80184838A8185836389AB
S11351B07489858996890E94DD15F801848FC788D2
S11351C0D08CB60180E090E00E94DD15F801858F57
S11351D0F1E0CF1AD108F801D78EC68E11A6818DC1
S11351E0928D0E944433F801928781870F900F902B
S11351F00F900F90892B09F43FC0818D928D8034DC
S1135200910529F489E094E093A782A708C0803827
S1135210910529F481E092E0F80193A782A7F801AF
S113522084A195A1A6A1B7A10196A11DB11DAC01B0
S1135230BD01440F551F661F771F840F951FA61FBE
S1135240B71FB695A79597958795B695A795979502
S1135250879580A760E0C801C9DEC8010E94071ACB
S1135260F7011183008380E090E008C084EF9FEF92
S113527005C08DEE9FEF02C084EF9FEF0F900F905B
S1135280DF91CF911F910F91FF90EF90DF90CF901E
S11352900895FB0103C0981799F0359690819111F8
S11352A0FACF1F928F9381EB9FE09F938F930E947D
S11352B063420F900F900F900F9080E090E008955C
S11352C08E2F9F2F0895CF92DF92EF92FF920F932C
S11352D01F93A9019801870176010E94BD321F9195
S11352E00F91FF90EF90DF90CF9008956F927F928F
S11352F08F929F92AF92BF92CF92DF92EF92FF92E2
S11353000F931F93CF93DF9300D01F92CDB7DEB7D7
S11353105B01FC016280738061EB76E0F5018081C2
S1135320B8DF4C01892B09F4D1C0F501868197813E
S1135330A085B185892B8A2B8B2B91F48485958547
S1135340A685B785892B8A2B8B2B69F4F40181817F
S113535081110CC08381882361F081E090E00BC04F
S113536081E090E008C081E090E005C081E090E039
S113537002C083E090E06C01990FEE08FF0800E0A2
S113538010E0950141E068E070E0C3019CDFF401A6
S11353908181811104C09381992309F457C0F501D7
S11353A04681578160857185452B462B472B59F4DF
S11353B04485558566857785452B462B472B31F0EB
S11353C0C12CD12C07C0C12CD12C04C06894CC248E
S11353D0C1F8D12CF5014181481700F550E0750161
S11353E0F2E0EF0EF11CB701CE0101960E94F241EA
S11353F0F501018110E0A80160E070E0C7010E949E
S1135400FB41F401818190E0801B910BA801BE0156
S11354106F5F7F4F8E0D9F1D0E94F241F4018181C9
S1135420638170E0680F711D660F771F660F771F29
S1135430660F771F0D2C000CEE08FF0800E010E04B
S113544095012E5F3F4F4281C3013DDFF501868107
S11354509781A085B1850097A105B105B9F0228592
S11354603385BC01660F771F660F771F660F771FA2
S1135470C12CD12C76016894C1F800E010E0F4014D
S11354804481C30120DF80E090E025C0F5018485DC
S11354909585A685B7850097A105B105D1F000894A
S11354A01189BC01660F771F660F771F660F771F80
S11354B0C12CD12C76016894C1F820E030E0F401CD
S11354C04481C30100DF80E090E005C08AEE9FEFD5
S11354D002C080E090E00F900F900F900F90DF914A
S11354E0CF911F910F91FF90EF90DF90CF90BF90DD
S11354F0AF909F908F907F906F9008958091C81384
S11355001F928F938DEC9FE09F938F930E94634231
S11355100F900F900F900F900895CF92DF92FF920B
S11355200F931F93CF93DF93CDB7DEB72A970FB6B0
S1135530F894DEBF0FBECDBF19821A821B821C8273
S1135540F92EC92ED12C1F929F9304EE1FE01F93B6
S11355500F930E9463428F2D0E946B361F92FF921D
S11355601F930F930E94634244E050E0BE016F5FBB
S11355707F4F88E20E94E0378981982F9295969513
S1135580969593700FB6F894DEBF0FBECDBFC9F1E8
S1135590913089F431E0C31AD108DF92CF9286EAC0
S11355A092E09F938F930E9476420F900F900F90FA
S11355B00F9081E04EC0923089F481E0C81AD1087E
S11355C0DF92CF928AE892E09F938F930E94764273
S11355D00F900F900F900F9081E03BC09330C1F576
S11355E021E0C21AD108DF92CF9287E692E09F931E
S11355F08F930E9476420F900F900F900F9081E04E
S113560028C08F7390E0982F88272A81820F911DDC
S11356102B8130E0220F331F220F331F220F331F41
S11356204C81429546954770240F311D3F932F932B
S11356309F938F9386EF9FE09F938F930E94634283
S11356400F900F900F900F900F900F9080E001C07B
S113565081E02A960FB6F894DEBF0FBECDBFDF916E
S1135660CF911F910F91FF90DF90CF900895CF932A
S1135670E3ECF3E1C1E0C48382E085833FDFEDEB3B
S1135680F3E1C5831482E7EBF3E183E08583C4830C
S11356904091C3135091C4136091C5137091C61304
S11356A08091C7139091C81338DF83E098E4FC011C
S11356B03197F1F7FC013197F1F7FC013197F1F7DC
S11356C0FC013197F1F7FC013197F1F7FC013197B7
S11356D0F1F70197F1F74091BD135091BE1360911A
S11356E0BF137091C0138091C1139091C21315DF41
S11356F0CF9108954091C3135091C4136091C51381
S11357007091C6138091C7139091C81306CF089562
S11357104091BD135091BE136091BF137091C0139B
S11357208091C1139091C213F8CE08954091B7139C
S11357305091B8136091B9137091BA138091BB134F
S11357409091BC13EACE089540E060E070E087E2F7
S11357500E946937892B41F481E08093C9138DEF4E
S11357609FE00C94A242089585E190E10C94A2423A
S11357700895CF92DF92EF92FF92CF93DF9300D000
S11357801F92CDB7DEB719821A821B821C828091C8
S1135790C913882309F463C01092C91344E050E08C
S11357A0BE016F5F7F4F87E20E94E037892B29F0AB
S11357B085E190E10E94A24252C0A9818A2F82957C
S11357C086958695837029F087E290E10E94A24233
S11357D046C0AF73B0E0BA2FAA278A81A82B28EE5F
S11357E033E00E942F400F2EFEEFCF2EFFE3DF2E7B
S11357F0E12CF12CF02DA70196010E9404405F9347
S11358004F933F932F9387E390E19F938F930E944D
S11358106342AB8180E4A89FD00111248C818695DA
S11358208695A82B24E730E40E942F40A701960117
S11358300E940440DA01C901805A9F40A109B109BC
S1135840BF93AF939F938F9387E590E19F938F933B
S11358500E9463420FB6F894DEBF0FBECDBF0F9017
S11358600F900F900F90DF91CF91FF90EF90DF900A
S1135870CF900895CF93DF93D82FC62F93D088E08D
S11358800E9442348D2FFED78C2FFCD791D0DF910C
S1135890CF910895CF93DF93D82FC62F83D080E183
S11358A0F1D78D2FEFD78C2FEDD782D07BD080E12D
S11358B0E9D7C82F80E0E6D780E0E4D78C2FDF91CA
S11358C0CF9108950F931F93CF93DF93082F162F33
S11358D069D088E0D7D790E0C92FD82F802FD2D7AE
S11358E0C80FD11D812FCED7182F62D01F921F93BE
S11358F0DF93CF9388E790E19F938F930E94634255
S11359000F900F900F900F900F900F90CE01DF919A
S1135910CF911F910F91089561E070E086E090E0CF
S11359200C94AF13089560E070E086E090E00C946E
S1135930AF13089584B3816084BB089584B38E7FCC
S113594084BB089584B3826084BB089584B38D7F3F
S113595084BB0895EBE0F1E0808180688083089542
S1135960EBE0F1E080818F77808308958EB18B7FA7
S11359708EB908958EB184608EB9089585B18E7FF5
S113598085B9089585B1816085B90895E2E0F1E0B3
S113599080818E7F80830895E2E0F1E080818160E0
S11359A080830895E2E0F1E080818D7F8083089513
S11359B0E2E0F1E08081826080830895E2E0F1E03A
S11359C080818B7F80830895E2E0F1E080818460B0
S11359D080830895E2E0F1E08081877F80830895E9
S11359E0E2E0F1E08081886080830895E2E0F1E004
S11359F08081806180830895E2E0F1E080818F7E80
S1135A0080830895E2E0F1E08081806280830895DC
S1135A10E2E0F1E080818F7D80830895CF93DF936E
S1135A2000D0CDB7DEB719821B821A826AED73E10A
S1135A308AEC93E15FDB9B838A8389810F900F90CB
S1135A400F90DF91CF910895CF93DF9300D000D0D2
S1135A50CDB7DEB79E838D834D815E8128EE33E022
S1135A60429FC001439F900D529F900D1124CC0181
S1135A70A0E0B0E089839A83AB83BC830000898172
S1135A809A81AB81BC819C01AD012150310941094E
S1135A90510929833A834B835C83892B8A2B8B2B73
S1135AA071F7000026960FB6F894DEBF0FBECDBF87
S1135AB0DF91CF910895CF93DF931F921F92CDB7BB
S1135AC0DEB788DF8FE9DED680E0DCD680E0DAD688
S1135AD0898380E0D7D68A8383DF8A81282F30E0C8
S1135AE08981882F90E0432F4F932F93292F2F9351
S1135AF08F9384E699E0892F8F9384E699E08F93BE
S1135B000E9463420F900F900F900F900F900F9090
S1135B1000000F900F90DF91CF910895CF93DF9302
S1135B201F92CDB7DEB78AE0898306C081E090E09A
S1135B308BDF8981815089830ED0882319F0898174
S1135B408823A1F781E09981992309F480E00F90DB
S1135B50DF91CF910895CF93DF931F921F92CDB71A
S1135B60DEB7198223D08A838981882F90E0292F78
S1135B702F938F9385E799E0892F8F9385E799E099
S1135B808F930E9463420F900F900F900F908A8121
S1135B90882F90E081789927892B11F081E08983FF
S1135BA089810F900F90DF91CF910895CF93DF9368
S1135BB0CDB7DEB780EC5BD0DF91CF910895CF9362
S1135BC0DF93CDB7DEB780EA52D0882F90E0292F3B
S1135BD02F938F938EE899E0892F8F938EE899E025
S1135BE08F930E9463420F900F900F900F9080EB61
S1135BF03ED0882F90E0292F2F938F938AEA99E043
S1135C00892F8F938AEA99E08F930E9463420F90C1
S1135C100F900F900F9080EC2AD0882F90E0292FBE
S1135C202F938F9386EC99E0892F8F9386EC99E0DC
S1135C308F930E9463420F900F900F900F9080ED0E
S1135C4016D0882F90E0292F2F938F9382EE99E01E
S1135C50892F8F9382EE99E08F930E9463420F9075
S1135C600F900F900F900000DF91CF910895CF9384
S1135C70DF931F921F92CDB7DEB78A83ABDE8FE02E
S1135C8001D68A81FFD580E0FDD58983A9DE89818B
S1135C900F900F90DF91CF910895CF93DF931F92D0
S1135CA01F92CDB7DEB789836A8394DE8FE1EAD58C
S1135CB08981E8D58A81E6D593DE8981D8DF0F9082
S1135CC00F90DF91CF910895CF93DF931F92CDB7BB
S1135CD0DEB760E080EAE1DF80EAC9DF8983898199
S1135CE0882F90E0292F2F938F938EEF99E0892F9F
