S019000053636875796C6572426F617264546573742E7372656334
S11300004CC300006BC3000069C3000067C3000059
S113001065C3000063C3000061C300005FC3000048
S1130020F0C500005BC3000059C3000057C30000C3
S113003055C30000F0C5000051C300004FC30000C9
S11300404DC300004BC3000049C3000047C3000078
S113005045C3000043C3000041C300003FC3000088
S11300603DC300000C942C1439C3000037C30000B6
S113007035C300005BC7000031C300002FC300007C
S11300802DC300002BC3000029C3000027C30000B8
S11300900C940B1523C3000021C300001FC30000F0
S11300A01DC300001BC3000019C3000017C30000D8
S11300B015C3000013C3000011C300000FC30000E8
S11300C00DC300000BC3000009C3000007C30000F8
S11300D005C3000003C3000001C30000FFC2000009
S11300E0FDC200006E616E00696E660000407A1009
S11300F0F35A00A0724E18090010A5D4E80000E8D5
S11301007648170000E40B54020000CA9A3B000032
S113011000E1F505000080969800000040420F00C1
S11301200000A08601000000102700000000E80382
S1130130000000006400000000000A00000000004D
S11301400100000000002C76D888DC674F0823DF0C
S1130150C1DFAE59E1B1B796E5E3E453C63AE651DF
S1130160997696E8E6C28426EB898C9B62ED407C06
S11301706FFCEFBC9C9F40F2BAA56FA5F490055AA2
S11301802AF75C936B6CF9676DC11BFCE0E40D47C7
S1130190FEF520E6B500D0ED902E030094357705EA
S11301A00080841E080000204E0A000000C80C33A2
S11301B03333330F986E12831141EF8D2114893B31
S11301C0E65516CFFEE6DB18D1844B381BF77C1DB1
S11301D0901DA4BBE424203284725E228100C9F104
S11301E024ECA1E53D27464C4153482072656164E7
S11301F0206661696C65640A00464C415348207767
S113020072697465206661696C65640A00756E6B59
S11302106E6F776E2041444332353138206F7363FB
S1130220696C61746F7253706565640A004F535250
S11302303A206C6F673273616D706C6573203E2079
S113024037000A00256420004552524F523A204E8E
S11302506F20414443204368616E6E656C73206176
S113026063746976650A000A5374616C6520507280
S113027065737375726520496E7465726E616C2066
S11302804661756C742025640A000A5374616C65B8
S11302902050726573737572652052656164696E6E
S11302A0672025640A000A53656E736F7220256403
S11302B020696E2050726F6772616D6D696E672080
S11302C04D6F64650A007370695F466C61736845BD
S11302D072617365416C6C426C6F636B733A204559
S11302E072617365206661696C7572652061742042
S11302F0626C6F636B2025640A0045726173696EDA
S11303006720626C6F636B2025640A007370695FF9
S1130310466C6173684572617365426C6F636B3AD6
S113032020416464726573732065786365656473E2
S113033020617661696C61626C6520626C6F636BCD
S1130340730A007370695F466C6173684572617308
S113035065426C6F636B3A20466C617368206E650E
S11303607665722072656164790A007370695F460C
S11303706C6173684572617365426C6F636B3A209C
S1130380466C61736820776F6E277420656E6162B6
S11303906C652077726974650A007370695F466CD6
S11303A06173684572617365426C6F636B3A204692
S11303B06C617368206E657665722072656164791C
S11303C020616674657220626C6F636B2065726174
S11303D073650A007370695F466C61736845726186
S11303E07365426C6F636B3A20577269746520645D
S11303F0696173626C65206661696C65640A007387
S113040070695F466C617368526561643A20317348
S11304107420706167652072656164206661696C2F
S113042065640A007370695F466C61736852656144
S1130430643A20326E64207061676520726561647D
S1130440206661696C65640A007370695F466C615B
S113045073685265616446726F6D506167653A20D6
S11304606275666665722063726F7373657320705C
S113047061676520626F756E646172790A007370DA
S1130480695F466C6173685265616446726F6D5052
S11304906167653A20466C617368206E65766572A3
S11304A02072656164790A007370695F466C6173D8
S11304B0685265616446726F6D506167653A2046A3
S11304C06C617368206E657665722072656164790B
S11304D0206166746572207061676520726561646D
S11304E00A007370695F466C61736857726974655A
S11304F03A2031737420706167652077726974657E
S1130500206661696C65640A007370695F466C619A
S1130510736857726974653A20326E64207061673B
S113052065207772697465206661696C65640A0088
S11305307370695F466C6173685772697465546F50
S1130540506167653A206275666665722063726FF2
S113055073736573207061676520626F756E646183
S113056072790A007370695F466C617368577269C7
S11305707465546F506167653A20466C61736820F6
S11305806E657665722072656164790A00737069BC
S11305905F466C6173685772697465546F50616724
S11305A0653A20466C617368206E657665722072C8
S11305B06561647920616674657220706167652085
S11305C0726561640A007370695F466C6173685791
S11305D072697465546F506167653A20466C617343
S11305E06820776F6E277420656E61626C65207772
S11305F0726974650A007370695F466C6173685749
S113060072697465546F506167653A20466C617312
S113061068206E6576657220726561647920616612
S11306207465722064617461206C6F61640A007384
S113063070695F466C6173685772697465546F5072
S11306406167653A20466C617368206E65766572F1
S113065020726561647920616674657220646174D6
S113066061206C6F61640A007370695F466C61732A
S1130670685772697465546F506167653A20466CB7
S113068061736820776F6E27742064697361626C8C
S1130690652077726974650A000011241FBECFEFCC
S11306A0D1E2DEBFCDBF00E00CBF18E0A0E0B2E0B5
S11306B0E0ECF9E300E00BBF02C007900D92AA3D05
S11306C0B107D9F72AE0AAEDB8E001C01D92A23122
S11306D0B207E1F70E943B130C94DE1C91CCCF923D
S11306E0DF92EF92FF921F93CF93DF93CDB7DEB7E4
S11306F0C85CD1090FB6F894DEBF0FBECDBF10E0C1
S1130700C12CD12C760129C0E12FF0E0E15FFD4F2F
S11307109081E1E0F0E0EC0FFD1FE80FF11D908304
S11307208F5F01C080E0883C78F328ECAE014F5F16
S11307305F4FC701B6010E94890C883C41F089EFE4
S113074091E09F938F930E94241C0F900F9088EC4C
S1130750C80ED11CE11CF11C1F5F1A3018F3C853DA
S1130760DF4F0FB6F894DEBF0FBECDBFDF91CF9140
S11307701F91FF90EF90DF90CF900895CF92DF927A
S1130780EF92FF921F93CF93DF93CDB7DEB7C95C8F
S1130790D1090FB6F894DEBF0FBECDBF8AE192E057
S11307A00E94501C10E0C12CD12C76013AC0E1E02B
S11307B0F0E0EC0FFD1FE80FF11D10828F5F01C008
S11307C080E0883CA0F31F921F938EE292E09F93F7
S11307D08F930E94111C28ECAE014F5F5F4FC7013D
S11307E0B6010E94570D0F900F900F900F90883C08
S11307F049F086EE91E09F938F930E94241C0F9002
S11308000F9009C0C753DF4F1882C95CD040CE0196
S113081001960E94501C88ECC80ED11CE11CF11CEE
S11308201F5F1A3068F2C753DF4F0FB6F894DEBF6C
S11308300FBECDBFDF91CF911F91FF90EF90DF905E
S1130840CF9008950C942B0E0895CF93DF93C0910D
S1130850EC09C13481F58091ED09833711F444D258
S11308601BC08D3611F4A8D217C0833629F48091A9
S1130870EE098053A5D210C08F3629F48091EE0979
S113088080536DD209C08C3619F481E079D204C04A
S1130890883611F480E074D28CEE99E09F938F93A4
S11308A08AE392E09F938F930E94111C0F900F9004
S11308B00F900F90A3C1C03711F425D59FC1C03547
S11308C011F413D59BC163E472E08CEE99E00E94AD
S11308D0B91B892B11F425D591C1CD3419F40E948B
S11308E0D1108CC1C23339F48DEE99E00E94B91A4B
S11308F00E94E81083C1C23561F48091ED0983350B
S113090009F41DD58091ED09823509F077C12CD504
S113091075C1C23719F40E94670E70C1C13679F4EB
S11309208091ED09813611F4ACD268C1833711F49A
S1130930ABD364C1843609F061C17BD35FC1C634D3
S1130940E9F464D68091ED09873711F4C8DE56C105
S1130950823711F413DF52C1853611F473DF4EC1AF
S1130960853711F4E8D64AC1833711F4A2D646C1BB
S1130970883709F043C10E94150E40C1C636B9F448
S11309808091ED09833719F40E94AA0F37C1893683
S113099019F40E94111032C18A3619F40E943E10D3
S11309A02DC1853609F02AC10E94A50F27C1C3377E
S11309B0C1F48091000290E00E94811080910002B5
S11309C091E0980F909300021F928F9387E492E036
S11309D09F938F930E94111C0F900F900F900F9074
S11309E00DC1CE3619F40E948D1008C1C33619F416
S11309F00E94AD0E03C1C53651F58091ED0990ED0D
S1130A00980F923010F0843329F480D58EE492E06C
S1130A100E94501C8091ED09823329F483D58BE622
S1130A2092E00E94501C8091ED09833329F482D511
S1130A308FE792E00E94501C8091ED09853309F004
S1130A40DDC080D586E992E00E94501CD7C0C43630
S1130A5031F58091ED09803329F45ED58DEA92E079
S1130A600E94501C8091ED09823329F45FD58BECF0
S1130A7092E00E94501C8091ED09833329F45ED5E5
S1130A8080EE92E00E94501C8091ED09853309F0BC
S1130A90B5C05ED588EF92E00E94501CAFC0CF363F
S1130AA0F1F48091ED0990E0C0972FEF31E0829F3F
S1130AB0E001839FD00D929FD00D11248C2F9D2F88
S1130AC00E94810FDF93CF9380E193E09F938F93F4
S1130AD00E94111C0F900F900F900F908FC0CF3475
S1130AE0E1F48091ED098053883008F087C0C0910B
S1130AF0EE09D0E0C05DDF456C2F7D2F0E944A0FC8
S1130B00DF93CF9387E193E09F938F930E94111C0F
S1130B100F900F900F900F9071C0C23609F580E2CC
S1130B2093E00E94501C8091ED0990E0C0972FEF54
S1130B3031E0829FE001839FD00D929FD00D11245C
S1130B40CE010E94930FDF93CF9380E193E09F93B4
S1130B508F930E94111C0F900F900F900F904EC016
S1130B60C23421F58091ED098053883008F046C0E5
S1130B702091EE0930E0205331094FEF51E0249FDA
S1130B80E001259FD00D349FD00D1124BE010E9499
S1130B90130FDF93CF9380E193E09F938F930E9491
S1130BA0111C0F900F900F900F9028C0C73759F465
S1130BB08091ED09813309F4D1D48091ED0980331A
S1130BC0E9F4D0D41BC0CD3659F48091ED098133BA
S1130BD009F410D58091ED09803381F411D50EC04C
S1130BE08CEE99E09F938F9384E293E09F938F938D
S1130BF00E94111C0F900F900F900F90DF91CF91D6
S1130C0008951F920F920FB60F9211240F900FBEEA
S1130C100F901F9018951F920F920FB60F921124E8
S1130C202F938F939F938FB78F778FBF88B18058FF
S1130C3088B98091DE089091DF0801969093DF08CF
S1130C408093DE088091DE089091DF088115924040
S1130C5019F481E08093DC088091DE089091DF082C
S1130C6081159440A8F08091DE089091DF0894509B
S1130C709093DF088093DE0881E08093DD08809103
S1130C80DA089091DB0801969093DB088093DA08E8
S1130C9078949F918F912F910F900FBE0F901F907A
S1130CA0189581E393E00E94501C80E880936100D2
S1130CB082E08093B00084E08093B10080EE809362
S1130CC0B3001092B200E0E7F0E08081826080839C
S1130CD00895E7DF80EC80936A0080E88DBB85E4AB
S1130CE093E00C94501C089560E080E0CDD31F92F3
S1130CF08F9381E693E09F938F930E94111C0F9032
S1130D000F900F900F900895CF93DF93D82FC62F95
S1130D10883010F4623040F083E793E09F938F9320
S1130D200E94111C0F900F90CC2331F061E001C0A0
S1130D30660FDA95EAF701C060E08BE096D3DF91A5
S1130D40CF91089560E485E090D360E487E08DD38B
S1130D5060E489E08AD360E086E0D6CF0895CF933B
S1130D60C82F883040F08DE292E09F938F930E94C9
S1130D70241C0F900F906C2F83E077D3CF910895AC
S1130D80CF93C82F60E084E07FD3C11103C0682FE4
S1130D906F7E0EC0C13019F4682F606109C08DE008
S1130DA092E09F938F930E94241C0F900F9002C097
S1130DB084E05BD3CF91089560E080E156C3089549
S1130DC01F93CF93DF93182F682F81E175D3D82F0A
S1130DD0C92F282F392FA0E5B3EC0E94A41A0E9432
S1130DE0EE1520E030E040E859E30E9452160E94DC
S1130DF0C0157F936F93CF93DF931F921F938AE85D
S1130E0093E09F938F930E94111C8DB79EB7089611
S1130E100FB6F8949EBF0FBE8DBF8D2F9C2FDF9110
S1130E20CF911F910895CF93DF93C82F20E013C073
S1130E30CF5FCF7020915A0930915B0981E090E037
S1130E400C2E02C0880F991F0A94E2F78223932381
S1130E502D2F892B21F4D1E0D20F213148F3D13148
S1130E6041F488E492E09F938F930E94241C0F9096
S1130E700F90D13111F08C2F01C08FEFDF91CF9102
S1130E800895CF93C0E01DC020915A0930915B09A9
S1130E9081E090E00C2E02C0880F991F0A94E2F7BB
S1130EA082239323892B61F01F92CF9384E492E0F1
S1130EB09F938F930E94241C0F900F900F900F907C
S1130EC0CF5FC03108F382E492E09F938F930E9436
S1130ED0241CEAE5F9E081818F9380818F938BEA6A
S1130EE093E09F938F930E94111C0F900F900F908B
S1130EF00F900F900F90CF91089595DFECE7F0E0FD
S1130F009081907E90839081282F2770922B9083DC
S1130F1083FF06C0EBE7F0E090819860908308952A
S1130F20EBE7F0E09081977F908308951F920F92F2
S1130F300FB60F9211240BB60F922F933F934F933A
S1130F405F936F937F938F939F93AF93BF93EF932D
S1130F50FF93209178004091E208642F042E000C46
S1130F60770BFB01EE0FFF1FEB51F74F808191814F
S1130F70DC01A20FB11D9D01B183A083A9E7B0E0FC
S1130F809C91892F90E0982F8827820F931F91833B
S1130F9080833C912C919F938F931F923F931F9238
S1130FA02F937F934F9380EC93E09F938F930E94B2
S1130FB0111C8091E208A1DF8093E2089091E3087C
S1130FC02DB73EB7265F3F4F0FB6F8943EBF0FBE16
S1130FD02DBF891312C08091E0089091E108019619
S1130FE09093E1088093E008019739F481E08093BD
S1130FF0E4081092E1081092E0088091E40881115D
S113100005C0EAE7F0E0808180648083FF91EF917E
S1131010BF91AF919F918F917F916F915F914F910C
S11310203F912F910F900BBE0F900FBE0F901F900A
S11310301895CF93C091E3088AE090E00E944B1C7E
S11310408C2F0C2E000C990BFC01EE0FFF1FEB51A3
S1131050F74F81818F9380818F939F93CF9384EDFA
S113106093E09F938F930E94111C8C2FDCDEC82F7A
S11310708091E3080F900F900F900F900F900F90B6
S1131080C813DACFCF9108951092E4088091E30851
S1131090E82FEE0FFF0BEB51F74F11821082C3DEE6
S11310A09091E3088913F4CFEAE7F0E0808180644B
S11310B0808308958FE021DF8093E2088093E30822
S11310C08F3F71F0EAE7F0E08081806480838FE8ED
S11310D080838FEF80937E0080937F00D5CF089527
S11310E08FED93E09F938F930E94241C0F900F9099
S11310F00895809116091F928F9386EF93E09F9332
S11311008F930E94111C0F900F900F900F900895D1
S1131110CF92DF92FF920F931F93CF93DF93CDB7BC
S1131120DEB72A970FB6F894DEBF0FBECDBF198283
S11311301A821B821C82F92EC92ED12C1F929F93D6
S11311400DE014E01F930F930E94111C8F2D0E9439
S1131150E8101F92FF921F930F930E94111C44E00A
S113116050E0BE016F5F7F4F88E20E945D1289816B
S1131170982F92959695969593700FB6F894DEBF36
S11311800FBECDBFC9F1913089F431E0C31AD10843
S1131190DF92CF9286EA92E09F938F930E94241C61
S11311A00F900F900F900F9081E04EC0923089F411
S11311B081E0C81AD108DF92CF928AE892E09F9327
S11311C08F930E94241C0F900F900F900F9081E03A
S11311D03BC09330C1F521E0C21AD108DF92CF920F
S11311E087E692E09F938F930E94241C0F900F90A8
S11311F00F900F9081E028C08F7390E0982F88277C
S11312002A81820F911D2B8130E0220F331F220F80
S1131210331F220F331F4C81429546954770240F8C
S1131220311D3F932F939F938F938FE194E09F936E
S11312308F930E94111C0F900F900F900F900F909E
S11312400F9080E001C081E02A960FB6F894DEBFCB
S11312500FBECDBFDF91CF911F910F91FF90DF9013
S1131260CF900895CF93E1E1F9E0C1E0C48382E037
S113127085833FDFEBE0F9E0C5831482E5E0F9E024
S113128083E08583C48340911109509112096091D0
S1131290130970911409809115099091160938DF8A
S11312A083E098E4FC013197F1F7FC013197F1F701
S11312B0FC013197F1F7FC013197F1F7FC0131970B
S11312C0F1F7FC013197F1F70197F1F740910B0920
S11312D050910C0960910D0970910E0980910F09CC
S11312E09091100915DFCF91089540911109509103
S11312F01209609113097091140980911509909154
S1131300160906CF089540910B0950910C0960917C
S11313100D0970910E0980910F0990911009F8CE72
S1131320089540910509509106096091070970914B
S113133008098091090990910A09EACE089540E0CC
S113134060E070E087E20E94E611892B41F481E0BD
S11313508093170986E294E00C94501C08958EE360
S113136094E00C94501C0895CF92DF92EF92FF9278
S1131370CF93DF9300D01F92CDB7DEB719821A82C4
S11313801B821C8280911709882309F463C0109280
S1131390170944E050E0BE016F5F7F4F87E20E946F
S11313A05D12892B29F08EE394E00E94501C52C0F8
S11313B0A9818A2F829586958695837029F080E588
S11313C094E00E94501C46C0AF73B0E0BA2FAA2725
S11313D08A81A82B28EE33E00E94B31A0F2EFEEF69
S11313E0CF2EFFE3DF2EE12CF12CF02DA701960187
S11313F00E94881A5F934F933F932F9380E694E063
S11314009F938F930E94111CAB8180E4A89FD0010D
S113141011248C8186958695A82B24E730E40E94BC
S1131420B31AA70196010E94881ADA01C901805AE9
S11314309F40A109B109BF93AF939F938F9380E815
S113144094E09F938F930E94111C0FB6F894DEBF13
S11314500FBECDBF0F900F900F900F90DF91CF91E3
S1131460FF90EF90DF90CF900895CF93DF93D82F24
S1131470C62F90D088E097D48D2F95D48C2F93D4F9
S11314808FD0DF91CF910895CF93DF93D82FC62FBC
S113149081D080E188D48D2F86D48C2F84D480D0C1
S11314A079D080E180D4C82F80E07DD480E07BD4E3
S11314B08C2FDF91CF9108950F931F93CF93DF93D8
S11314C0082F162F67D088E06ED490E0C92FD82F4C
S11314D0802F69D4C80FD11D812F65D4182F60D0F7
S11314E01F921F93DF93CF9381EA94E09F938F938E
S11314F00E94111C0F900F900F900F900F900F905F
S1131500CE01DF91CF911F910F91089561E070E0BA
S113151086E090E0F9CB089560E070E086E090E02A
S1131520F3CB089584B3816084BB089584B38E7F24
S113153084BB089584B3826084BB089584B38D7F93
S113154084BB0895EBE0F1E0808180688083089596
S1131550EBE0F1E080818F77808308958EB18B7FFB
S11315608EB908958EB184608EB9089585B18E7F49
S113157085B9089585B1816085B90895E2E0F1E007
S113158080818E7F80830895E2E0F1E08081816034
S113159080830895E2E0F1E080818D7F8083089567
S11315A0E2E0F1E08081826080830895E2E0F1E08E
S11315B080818B7F80830895E2E0F1E08081846004
S11315C080830895E2E0F1E08081877F808308953D
S11315D0E2E0F1E08081886080830895E2E0F1E058
S11315E08081806180830895E2E0F1E080818F7ED4
S11315F080830895E2E0F1E0808180628083089531
S1131600E2E0F1E080818F7D80830895CF93DF93C2
S1131610D9DF8FE9C8D380E0C6D380E0C4D3C82F14
S113162080E0C1D3D82FD4DF1F92DF931F92CF93D2
S113163086EB94E09F938F930E94111C0F900F9060
S11316400F900F900F900F90DF91CF910895CF934B
S1131650C82FB8DF8FE0A7D38C2FA5D380E0A3D306
S1131660C82FB6DF8C2FCF91089580ECF0CF08956A
S1131670CF93FBDFC82F1F928F9387EC94E09F9347
S11316808F930E94111C0F900F900F900F908C2F2E
S11316908170CF910895CF93CAE0C150E9DF8823C8
S11316A011F0C111FACF81E0C11101C080E0CF91E6
S11316B0089580EACCDF1F928F9380EE94E09F938D
S11316C08F930E94111C80EBC2DF1F928F938CEFCB
S11316D094E09F938F930E94111C80ECB8DF1F92BB
S11316E08F9388E195E09F938F930E94111C80ED66
S11316F0AEDF1F928F9384E395E09F938F930E94B4
S1131700111C8DB79EB740960FB6F8949EBF0FBEBE
S11317108DBF0895CF93DF93C82FD62F53DF8FE16A
S113172042D38C2F40D38D2F3ED352DF8C2F8FDFAB
S1131730DF91CF91089560E080EAECDF80EA87DFF3
S11317401F928F9380E595E09F938F930E94111CC5
S11317500F900F900F900F900895CF9333DF86E092
S113176022D336DF82DFC82F1F928F9380E895E063
S11317709F938F930E94111C0F900F900F900F90C6
S1131780C1FB882780F9CF910895CF931BDF84E0B4
S11317900AD31EDF6ADFC82F1F928F938EE995E06C
S11317A09F938F930E94111CC69581E08C270F9004
S11317B00F900F900F908170CF910895AF92BF92C8
S11317C0CF92DF92EF92FF920F931F93CF93DF9309
S11317D0162FB72EA82EEA016901E02EF12CC701BD
S11317E0840F951F8138984008F07DC054DF88230A
S11317F009F46EC0E7DE83E1D6D28A2DD4D28B2DD4
S1131800D2D2812FD0D2E4DE46DF882309F455C03A
S1131810A4DF882309F446C0D5DE84E8C4D28D2F22
S1131820C2D28C2FC0D2C0E006C0F601EC0FF11D6D
S11318308081B9D2CF5FC017C0F3CADE2CDF882302
S113184031F1C0DE80E1AFD28A2DADD28B2DABD287
S1131850812FA9D2BDDE1FDF882371F096DF8111AD
S11318604CC088E696E09F938F930E94241C0F90AF
S11318700F90E12CF12C41C08FE296E09F938F935F
S11318800E94241C0F900F90E12CF12C36C086EF9F
S113189095E09F938F930E94241C0F900F90E12C4E
S11318A0F12C2BC086EC95E09F938F930E94241C0F
S11318B00F900F90E12CF12C20C08DE895E09F93C0
S11318C08F930E94241C0F900F90E12CF12C15C0D3
S11318D084E695E09F938F930E94241C0F900F90B1
S11318E0E12CF12C0AC080E395E09F938F930E9432
S11318F0241C0F900F90E12CF12C8E2DDF91CF91B1
S11319001F910F91FF90EF90DF90CF90BF90AF9019
S113191008958F929F92AF92BF92EF92FF920F938E
S11319201F93CF93DF937A01122F20E838E040E031
S113193050E00E94661A49015A01862F972F462FBC
S1131940572F810F911D8138984028F0C12FC60F61
S1131950C058D1E002C0C12FD0E00C2F9701C501BF
S1131960B4012CDFC81323C0DD2351F1012F0C1B5C
S1131970D0E097012C0F3D1FC501B4016F5F7F4F6D
S11319808F4F9F4F40E050E019DF90E0212F30E06F
S11319902C1B3D0B8217930799F089E095E09F93E8
S11319A08F930E94241C0F900F9010E009C082EEC8
S11319B094E09F938F930E94241C0F900F9010E04B
S11319C0812FDF91CF911F910F91FF90EF90BF90E6
S11319D0AF909F908F900895AF92BF92CF92DF9275
S11319E0EF92FF920F931F93CF93DF93C62FD72FBE
S11319F0182F6A015901E02EF12CC701840F951F9D
S1131A008138984008F03DC046DE882379F1DADD5C
S1131A1083E1C9D1812FC7D18D2FC5D18C2FC3D1DB
S1131A20D7DD39DE8823B9F0CDDD83E0BCD18D2D3F
S1131A30BAD18C2DB8D180E0B6D1C0E008C0650120
S1131A40CC0ED11C80E0AFD1F6018083CF5FC017EC
S1131A50B0F3BEDD20C088EA94E09F938F930E9488
S1131A60241C0F900F90E12CF12C15C08EE794E00C
S1131A709F938F930E94241C0F900F90E12CF12CC4
S1131A800AC089E494E09F938F930E94241C0F90D2
S1131A900F90E12CF12C8E2DDF91CF911F910F919E
S1131AA0FF90EF90DF90CF90BF90AF9008958F920A
S1131AB09F92AF92BF92EF92FF920F931F93CF9397
S1131AC0DF937A01122F20E838E040E050E00E94D2
S1131AD0661A49015A01862F972F462F572F810FD7
S1131AE0911D8138984028F0C12FC60FC058D1E00D
S1131AF002C0C12FD0E00C2F9701C501B4016CDFE7
S1131B00C81323C0DD2351F1012F0C1BD0E0970132
S1131B102C0F3D1FC501B4016F5F7F4F8F4F9F4F47
S1131B2040E050E059DF90E0212F30E02C1B3D0BCA
S1131B308217930799F084E294E09F938F930E9415
S1131B40241C0F900F9010E009C08FEF93E09F9337
S1131B508F930E94241C0F900F9010E0812FDF912F
S1131B60CF911F910F91FF90EF90BF90AF909F90F6
S1131B708F900895CF92DF92EF92FF926B017C01D8
S1131B80C11488E0D806E104F10408F03EC083DD06
S1131B90882389F1E2DD882321F114DD88ED03D166
S1131BA08E2D01D18D2DFFD08C2DFDD011DD73DD57
S1131BB0882369F0EADD811132C084ED93E09F93BC
S1131BC08F930E94241C0F900F9080E029C08AE913
S1131BD093E09F938F930E94241C0F900F9080E0BA
S1131BE01FC08BE693E09F938F930E94241C0F9059
S1131BF00F9080E015C083E493E09F938F930E943D
S1131C00241C0F900F9080E00BC08CE093E09F9316
S1131C108F930E94241C0F900F9080E001C081E0FC
S1131C20FF90EF90DF90CF900895CF93CBDC8FEFB0
S1131C30BAD0CEDC1ADDC82F1F928F938DEB95E0BE
S1131C409F938F930E94111C0F900F900F900F90F1
S1131C508C2FCF910895CF92DF92EF92FF921F9332
S1131C60CF93DF93E2DF67DDC0E0D0E011E022C074
S1131C706E01E12CF12CDF93CF938AEF92E09F93D6
S1131C808F930E94241CC701B60174DF0F900F903C
S1131C900F900F9081110DC0DF93CF9386EC92E0EB
S1131CA09F938F930E94241C0F900F900F900F907E
S1131CB010E02196C11588E0D807D0F2812FDF917A
S1131CC0CF911F91FF90EF90DF90CF9008951F93D5
S1131CD0CF93DF931F921F92CDB7DEB785E0898340
S1131CE08AED95E00E94501C10E029C041E0BE013D
S1131CF06E5F7F4F8FE03FD28A81853011F141E0E2
S1131D00BE016F5F7F4F8FE020D28A811F928F9335
S1131D101F921F938BEE95E09F938F930E94111C4B
S1131D2089811F928F938CEF95E09F938F930E94EC
S1131D30111C1F5F0FB6F894DEBF0FBECDBF143168
S1131D40A8F2143120F08BE096E00E94501C0F9012
S1131D500F90DF91CF911F910895CF93DF931F923E
S1131D60CDB7DEB741E0BE016F5F7F4F8FE003D296
S1131D7089811F928F9382E396E09F938F930E94B1
S1131D80111C0F900F900F900F900F90DF91CF9137
S1131D9008951DBC81E58CBD1BDCECDBF5DB1EDC92
S1131DA00BDCFECB08958EBD0DB407FEFDCF8EB5C2
S1131DB00895FC0120E030E00AC0CF010196408183
S1131DC04EBD0DB407FEFDCF2F5F3F4FFC0126171C
S1131DD0370798F30895FC0120E030E009C01EBCE9
S1131DE00DB407FEFDCF8EB580832F5F3F4F319634
S1131DF026173707A0F30895CF93DF931F921F92FE
S1131E00CDB7DEB79A8389838A818EBD0DB407FE70
S1131E10FDCF89818EBD0DB407FEFDCF0F900F90CD
S1131E20DF91CF910895EF92FF921F93CF93DF93A9
S1131E30EB01182F177090E1199F90011124E72EE0
S1131E40FF24AB0155275F934F932E293F293F93DE
S1131E502F93DF936F931F928F938AE496E09F935F
S1131E608F930E94111CA2DB812F8295807F8E2983
S1131E709ADF8C2F98DFA0DB8DB79EB70A960FB63A
S1131E80F8949EBF0FBE8DBFDF91CF911F91FF903D
S1131E90EF900895EF92FF921F93CF93DF93EB019E
S1131EA0182F177090E1199F90011124E72EFF2439
S1131EB0AB0155275F934F932E293F293F932F93CF
S1131EC0DF936F931F928F938BE796E09F938F938B
S1131ED00E94111C53DB812F8295807F8E2963DF42
S1131EE08C2F61DF51DB8DB79EB70A960FB6F8943D
S1131EF09EBF0FBE8DBFDF91CF911F91FF90EF90DA
S1131F000895CF93DF93C82FD92F8CEA96E00E94CF
S1131F10501C34DB8D2F806C46DF8C2F44DF34DB88
S1131F20DF91CF910895CF93DF93C82FD92F83ECFE
S1131F3096E00E94501C3ADB8D2F806C34DF8C2F8E
S1131F4032DF3ADBDF91CF91089510DB86E02BDF9F
S1131F5011CB0895CF930ADB85E025DF80E023DFF2
S1131F60C82F08DB1F92CF938CE398E09F938F9345
S1131F700E94111C0F900F900F900F908C2FCF91F7
S1131F800895EF92FF920F931F93CF93DF938C01E9
S1131F907B01EA01840F951F8130904220F089ED86
S1131FA096E00E94501CD1DFE1DA82E0FCDEC80139
S1131FB023DFBE01C701FDDEDDDADF91CF911F9182
S1131FC00F91FF90EF900895CF92DF92EF92FF92DE
S1131FD00F931F93CF93DF93C82FD92F8B016A01DF
S1131FE0C5DA83E0E0DE8D2FDEDE8C2FDCDEC0E0A0
S1131FF0D0E00AC078018FEFE81AF80A80E0D3DE57
S1132000F801808321968701CC15DD0598F3B2DAB7
S1132010DF91CF911F910F91FF90EF90DF90CF90C0
S11320200895CF93DF9300D01F92CDB7DEB79EDA29
S11320308FEAB9DE64E070E0CE010196CCDE9ADA74
S11320403C812B819A8189811F923F931F922F9308
S11320501F929F931F928F938CEF96E09F938F9381
S11320600E94111C0FB6F894DEBF0FBECDBF0F90B7
S11320700F900F900F90DF91CF910895CF93DF933E
S1132080CDB7DEB728970FB6F894DEBF0FBECDBF2D
S11320905CDF8FE18D8381E48E8381E88F838AEF17
S11320A0888744E050E0BE016B5F7F4F80E094E09E
S11320B068DF44E050E0BE016F5F7F4F80E094E052
S11320C083DF3C812B819A8189811F923F931F92E8
S11320D02F931F929F931F928F938FE097E09F936C
S11320E08F930E94111C0FB6F894DEBF0FBECDBFB4
S11320F028960FB6F894DEBF0FBECDBFDF91CF9107
S11321000895909319098093180942E050E068E11A
S113211079E080E090E035CF089542E050E068E156
S113212079E080E090E050DF809119098F938091ED
S113213018098F938CE197E09F938F930E94111C51
S11321400F900F900F900F9008950F931F93CF93BC
S1132150DF93D82F8B01C42F47DA8D2F806223DEC3
S11321606C2F70E0C80125DE39DA8C2FDF91CF9116
S11321701F910F9108950F931F93CF93DF93D82F3F
S11321808B01C42F31DA8D2F806A0DDE6C2F70E045
S1132190C80121DE23DA8C2FDF91CF911F910F919B
S11321A00895CF93DF931F92CDB7DEB741E050E09F
S11321B0BE016F5F7F4F80E780D1892B21F083E2DE
S11321C097E00E94501C89810F90DF91CF91089570
S11321D0CF93DF931F92CDB7DEB78983843008F0A5
S11321E04FC01F928F938DE397E09F938F930E942C
S11321F0111C41E0BE016F5F7F4F80E7E7D00F9075
S11322000F900F900F90892B09F18981E82FF0E04E
S1132210EA53F84F9081973058F061D08FE497E0FB
S11322209F938F930E94111C0F900F9081E039C0EF
S11322301F928F9384E597E09F938F930E94111CC4
S11322400F900F900F900F9081E02BC0AADF99811F
S1132250891721F186E797E00E94501CE981F0E09C
S1132260EA53F84F80818730D8F039D08EE997E06F
S11322709F938F930E94111C0F900F9081E011C0C7
S11322801F928F9383EA97E09F938F930E94111C70
S11322900F900F900F900F9081E003C080E001C079
S11322A081E00F90DF91CF9108959F938F938AECF3
S11322B097E09F938F930E94111C0F900F900F90A3
S11322C00F9008951F928F938EED97E09F938F93B5
S11322D00E94111C0F900F900F900F90089584E9A5
S11322E08093BC00EBE0F1E080818F7B808380E011
S11322F005C0E3E0F8E43197F1F78F5F8431C8F368
S1132300EBE0F1E080818064808380E005C0E3E05D
S1132310F8E43197F1F78F5F8431C8F3EBE0F1E033
S113232080818F7B808380E005C0E3E0F8E431970F
S1132330F1F78F5F8431C8F3EBE0F1E080818064D2
S11323408083E9EBF0E080818C7F808380818083CF
S113235080E18093B800ECEBF0E0808184608083BE
S113236081E080931A09089584EA8093BC00109256
S1132370DB081092DA088091BC00882334F0809145
S1132380DA089091DB084E97B0F38091DA089091C7
S1132390DB084E9730F081EF97E00E94501C81E0FB
S11323A008958091B900887F883071F01F928F93CF
S11323B088E098E09F938F930E94111C0F900F90D8
S11323C00F900F9081E0089580E008950F931F937C
S11323D0CF93DF93082FEB01142FC6DF811166C062
S11323E0000F0093BB0084E88093BC001092DB08CC
S11323F01092DA088091BC00882334F08091DA08C6
S11324009091DB084E97B0F38091DA089091DB0845
S11324108091B900887F883109F43FC084E98093B2
S1132420BC0080E24FDF81E090E042C0AE014F5F2C
S11324305F4F88818093BB0084E88093BC00109236
S1132440DB081092DA088091BC00882334F0809174
S1132450DA089091DB084E97B0F38091DA089091F6
S1132460DB088091B900887F8832A1F01F928F9396
S113247088E298E09F938F930E94111C84E98093D3
S1132480BC0080E31FDF0F900F900F900F9081E04E
S113249090E00EC02F5FEA0101C020E0211730F266
S11324A084E98093BC0080E090E002C081E090E089
S11324B0DF91CF911F910F910895FF920F931F9376
S11324C0CF93DF93F82E8B01EA014EDF811179C09F
S11324D08F2D90E0880F991F81608093BB0084E862
S11324E08093BC001092DB081092DA088091BC0043
S11324F0882334F08091DA089091DB084E97B0F38A
S11325008091DA089091DB088091B900887F80344B
S113251009F44DC088E4D6DE84E98093BC0084E4E9
S113252098E0C3DE81E090E04EC01092DB08109288
S1132530DA08C130D10511F484E801C084EC809339
S1132540BC001092DB081092DA088091BC0088234A
S113255034F08091DA089091DB084E97B0F38091C3
S1132560DA089091DB084E97D8F08091B9001F9259
S11325708F93DF93CF938DE498E09F938F930E9482
S1132580111C84E98093BC0084E498E08EDE0F90F3
S11325900F900F900F900F900F9081E090E013C078
S11325A08091BB00F801808321970F5F1F4F1C1699
S11325B01D060CF4BACF84E98093BC0080E090E05F
S11325C002C081E090E0DF91CF911F910F91FF90C5
S11325D008958FEF81B997EF94B987B99BEB9AB9B6
S11325E09EE39DB910BA83BB9FE79093010192E7E4
S11325F0909304011092070180930A0188B9809393
S113260002010C94000B0895CF93DF93ECE0FAE001
S113261081E092E0918380839383828380E0B8D0C9
S1132620D8DFB7DB0E9469068FE09FE890935B09CF
S113263080935A09C0E0D0E005C08EE290E00E9489
S11326404B1C2196C035D105C0F38AE090E00E946E
S11326504B1C3DDB0E94A20642DE0E9432090E940E
S11326605A080E943209789483E898E00E94501C2A
S1132670DF91CF910895C8DF84E998E00E94501C4F
S113268019D280912209882321F00E9425041092F6
S113269022098091DC08882341F0EBE0F1E090818D
S11326A081E0892780831092DC088091DD088823EB
S11326B039F3EBE0F1E0908181E089278083809118
S11326C01C09882319F0815080931C091092DD089D
S11326D0D7CFE3E6F9E06083118293838283958305
S11326E084839783868308959FB7F89480916409BF
S11326F0811104C0992304F578940895E3E6F9E080
S1132700A481B5819D012F5F3F4F358324838C9134
S11327102181215021834481558126813781608123
S1132720260F311D4217530720F026813781358348
S1132730248399230CF4789408959FB7F894E3E6DE
S1132740F9E031812081321720F0992304F578943F
S11327500895E3E6F9E0A281B3819D012F5F3F4F25
S1132760338322838C9381818F5F81834281538160
S1132770268137818081280F311D4217530720F0AD
S1132780268137813383228399230CF47894089526
S11327908230B9F18430B8F580931B0990912309F4
S11327A0913019F0923039F003C09FE520E005C064
S11327B097E020E002C091E020E0813019F08330FE
S11327C071F016C02093CD009093CC0088E98093DB
S11327D0C90060E88BE699E07CDF80E008952093EF
S11327E035019093340188E98093310180E00895A4
S11327F02093C5009093C40088E98093C10080E0D1
S1132800089581E0089581E00895CF93C82F8A3018
S113281031F460910E0A70910F0A8DE0F6DF809119
S1132820C00085FFFCCFC093C60080E090E0CF914C
S11328300895CF93C82F8A3011F48DE0FADF809188
S1132840C80085FFFCCFC093CE0080E090E0CF911C
S1132850089580E090E008951F920F920FB60F92B2
S113286011240BB60F922F933F934F935F936F9363
S11328707F938F939F93AF93BF93CF93DF93EF9304
S1132880FF938091C00084FD08C08091C00083FD47
S113289004C080912209882341F08091C60090E011
S11328A09093210980932009A1C080911F098F3141
S11328B080F08091C60090E09093210980932009D4
S11328C010921F0910920B0A1092220910921E09ED
S11328D08DC0E0911F09F0E08091C600E451F64FED
S11328E08083E0911F09F0E0E451F64F80818A3043
S11328F041F0E0911F09F0E0E451F64F80818D3002
S113290089F481E08093220980911E098F5F80936E
S11329101E09E0911F09F0E0E451F64F1082109275
S11329201F0964C0E0911F09F0E0E451F64F808173
S1132930883041F0E0911F09F0E0E451F64F8081C6
S11329408F3739F580911F09882309F44FC0CCE0F3
S1132950DAE06A817B8188E058DF6A817B8180E2EA
S113296054DF6A817B8188E050DF80911F098150A8
S113297080931F0980911E09815080931E098091C4
S11329801D09882399F180911D09815080931D09A7
S11329902DC0E0911F09F0E0E451F64F80818C32A4
S11329A098F0E0911F09F0E0E451F64F80818B37F5
S11329B058F480911F098F5F80931F0980911E092D
S11329C08F5F80931E0912C0E0911F09F0E0E4516B
S11329D0F64F80818B3151F460910E0A70910F0A89
S11329E08DE013DF10921F0910921E09FF91EF91E1
S11329F0DF91CF91BF91AF919F918F917F916F9113
S1132A005F914F913F912F910F900BBE0F900FBE8E
S1132A100F901F9018951F920F920FB60F921124CA
S1132A200BB60F922F933F934F935F936F937F93C4
S1132A308F939F93AF93BF93EF93FF938091C800BD
S1132A4084FD04C08091C80083FF08C08091CE003B
S1132A5090E0909321098093200919C08091CE00C1
S1132A608A3041F480E069DE8091EB098F5F8093C6
S1132A70EB090DC08D3059F0883011F08F3711F407
S1132A8033DE05C090EE980F9F3508F456DEFF91B3
S1132A90EF91BF91AF919F918F917F916F915F91D2
S1132AA04F913F912F910F900BBE0F900FBE0F903F
S1132AB01F90189580911E09882369F190911D0932
S1132AC080911E099817C0F48091220981110BC0CE
S1132AD060910E0A70910F0AE0911D09F0E0E45133
S1132AE0F64F808192DE80911D098F5F80931D09CE
S1132AF08AE080931C0913C080911C0981110FC0C6
S1132B008FB78F778FBF10921D0910921E091092F4
S1132B101F09789404C010921D0910921C09809119
S1132B2022098823A9F08CEE99E09F938F9380EA81
S1132B3098E09F938F9375D610921F0910921C09E9
S1132B4010921E0910921D090F900F900F900F9074
S1132B508091EB09882399F08BE699E09F938F93FA
S1132B608AEA98E09F938F935CD68EE762DE8AE2CE
S1132B7060DE8EE75EDE0F900F900F900F90089549
S1132B8070D088F09F5790F0B92F9927B751A0F0D3
S1132B90D1F0660F771F881F991F1AF0BA95C9F7ED
S1132BA012C0B13081F077D0B1E0089574C0672FBE
S1132BB0782F8827B85F39F0B93FCCF3869577959D
S1132BC06795B395D9F73EF4909580957095619586
S1132BD07F4F8F4F9F4F0895E89409C097FB3EF4B1
S1132BE090958095709561957F4F8F4F9F4F992356
S1132BF0A9F0F92F96E9BB279395F69587957795D4
S1132C006795B795F111F8CFFAF4BB0F11F460FF93
S1132C101BC06F5F7F4F8F4F9F4F16C0882311F0EB
S1132C2096E911C0772321F09EE8872F762F05C0FF
S1132C30662371F096E8862F70E060E02AF09A959A
S1132C40660F771F881FDAF7880F9695879597F98F
S1132C50089557FD9058440F551F59F05F3F71F088
S1132C604795880F97FB991F61F09F3F79F08795EF
S1132C700895121613061406551FF2CF4695F1DF78
S1132C8008C0161617061806991FF1CF8695710508
S1132C90610508940895E894BB2766277727CB013C
S1132CA097F908950BD078C069D028F06ED018F049
S1132CB0952309F05AC05FC01124EECFCADFA0F3F8
S1132CC0959FD1F3950F50E0551F629FF001729FBD
S1132CD0BB27F00DB11D639FAA27F00DB11DAA1FDC
S1132CE0649F6627B00DA11D661F829F2227B00D29
S1132CF0A11D621F739FB00DA11D621F839FA00DB4
S1132D00611D221F749F3327A00D611D231F849F03
S1132D10600D211D822F762F6A2F11249F5750405A
S1132D208AF0E1F088234AF0EE0FFF1FBB1F661FF5
S1132D30771F881F91505040A9F79E3F510570F0AE
S1132D4014C0AACF5F3FECF3983EDCF386957795E9
S1132D506795B795F795E7959F5FC1F7FE2B880FA9
S1132D60911D9695879597F9089597F99F6780E83F
S1132D7070E060E008959FEF80EC089500240A94C9
S1132D801616170618060906089500240A94121642
S1132D901306140605060895092E0394000C11F475
S1132DA0882352F0BB0F40F4BF2B11F460FF04C022
S1132DB06F5F7F4F8F4F9F4F08952F923F924F9297
S1132DC05F926F927F928F929F92AF92BF92CF92B7
S1132DD0DF92EF92FF920F931F93CF93DF93CDB7C0
S1132DE0DEB760970FB6F894DEBF0FBECDBF7C018F
S1132DF01B016A01FC0117821682838181FF2AC3A9
S1132E009E012F5F3F4F3901F7019381F10193FD3B
S1132E10859193FF81911F01882309F417C385329B
S1132E2039F493FD859193FF81911F01853231F42B
S1132E30B70190E0BAD456016501E6CF10E0512CF9
S1132E40912CFFE1F915D8F08B3279F038F4803207
S1132E5079F08332A1F4F92DF0612EC08D3261F046
S1132E60803369F4292D21602DC0392D3260932ED1
S1132E70892D8460982E2AC0E92DE86015C097FC3E
S1132E802DC020ED280F2A3088F496FE06C03AE0C3
S1132E90139F200D1124122F19C08AE0589E200D73
S1132EA01124522EE92DE0629E2E10C08E3231F490
S1132EB096FCCCC2F92DF0649F2E08C08C3621F408
S1132EC0292D2068922E02C0883641F4F10193FD29
S1132ED0859193FF81911F018111B3CF9BEB980FD3
S1132EE0933020F4992D9061805E07C09BE9980F80
S1132EF0933008F059C1992D9F7E96FF16E09F7379
S1132F00992E853619F49064992E08C0863621F4DA
S1132F10392F3068932E02C01111115097FE07C04B
S1132F201C3350F444244394410E27E00BC0183062
S1132F3038F027E017E005C027E09CE3492E02C0E3
S1132F40212F412C560184E0A80EB11CF6016081AA
S1132F50718182819381042DA30128D36C01F981AD
S1132F60FC87F0FF02C0F3FF06C091FC06C092FE8E
S1132F7006C000E205C00DE203C00BE201C000E0A0
S1132F808C858C7019F0011143C280C297FE10C069
S1132F904C0CFC85F4FF04C08A81813309F44A9403
S1132FA0141474F528E0241578F588E0482E2CC014
S1132FB096FC2AC0812F90E08C159D059CF03CEF77
S1132FC0C3163FEFD30674F0892D8068982E0AC08B
S1132FD0E2E0F0E0EC0FFD1FE10FF11D8081803392
S1132FE019F411501111F4CF97FE0EC044244394E8
S1132FF0410E812F90E0C816D9062CF41C1904C088
S11330004424439401C010E097FE06C01C141D0420
S113301034F4C601019605C085E090E002C081E069
S113302090E001110196112331F0212F30E02F5F40
S11330303F4F820F931F252D30E08217930714F41E
S1133040581A01C0512C892D897041F4552031F052
S1133050B70180E290E0A9D35A94F8CF002321F07D
S1133060B701802F90E0A1D393FC08C0552031F024
S1133070B70180E390E099D35A94F8CF97FE4AC001
S11330804601D7FE02C0812C912CC60188199909EA
S1133090F301E80FF91FFE87ED8796012419310922
S11330A0388B2F87012F10E01195019511093FEFFF
S11330B08316930621F4B7018EE290E076D3C81408
S11330C0D9044CF08F8598898815990524F4ED85E9
S11330D0FE85818101C080E3F1E08F1A91082D857E
S11330E03E852F5F3F4F3E872D878016910624F043
S11330F0B70190E05AD3DBCFC814D90441F49A81C4
S1133100963320F4953319F43C8534FF81E3B701F9
S113311090E048C08A81813319F09C859F7E9C870A
S1133120B70190E042D3111105C094FC16C085E6A6
S113313090E015C0B7018EE290E037D31E5F82E0C5
S113314001E0080FF301E80FF11D8081B70190E061
S11331502CD3802F0113F4CFE8CF85E490E0B7019E
S113316024D3D7FC06C0C114D10441F4EC85E4FF98
S113317005C0D194C194D1088DE201C08BE2B7019E
S113318090E013D380E32AE0C216D1042CF08F5FC1
S1133190FAE0CF1AD108F7CFB70190E006D3B70110
S11331A0C601C09602D349C1833631F0833779F022
S11331B0833509F052C01FC0560132E0A30EB11C82
S11331C0F6018081898301E010E0630111C056019A
S11331D0F2E0AF0EB11CF601C080D18096FE03C0B0
S11331E0612F70E002C06FEF7FEFC601CBD28C017C
S11331F0F92DFF7713C0560122E0A20EB11CF6018F
S1133200C080D18096FE03C0612F70E002C06FEFD2
S11332107FEFC601A3D28C01F92DF0689F2EF3FD38
S113322018C0852D90E00817190798F4B70180E2BB
S113323090E0BBD25A94F5CFF60197FC859197FEA6
S113324081916F01B70190E0B0D251105A940150AE
S113325011090115110581F7F0C0843611F0893682
S113326059F5560197FE09C024E0A20EB11CF601DF
S113327060817181828193810AC0F2E0AF0EB11C3A
S1133280F60160817181072E000C880B990BF92DD2
S1133290FF769F2E97FF09C0909580957095619554
S11332A07F4F8F4F9F4FF0689F2E2AE030E0A3019D
S11332B027D3C82EC6183EC0092D853721F40F7EAA
S11332C02AE030E01DC0097F8F3691F018F488356C
S11332D059F0BCC0803719F0883711F0B7C00061CD
S11332E004FF09C0046007C094FE08C0066006C05D
S11332F028E030E005C020E130E002C020E132E007
S1133300560107FF09C084E0A80EB11CF6016081D4
S113331071818281938108C0F2E0AF0EB11CF60185
S11333206081718180E090E0A301EAD2C82EC618C2
S11333300F77902E96FE0BC0092D0E7FC11650F408
S113334094FE0AC092FC08C0092D0E7E05C0DC2C38
S1133350092D03C0DC2C01C0D12E04FF0DC0FE01D9
S1133360EC0DF11D8081803311F4097E09C002FF48
S113337006C0D394D39404C0802F867809F0D394E4
S113338003FD10C000FF06C01C2DD51478F4150DE4
S11333901D190CC0D51450F4B70180E290E005D299
S11333A0D394F8CFD51410F45D1801C0512C04FF48
S11333B00FC0B70180E390E0F8D102FF16C001FD11
S11333C003C088E790E002C088E590E0B7010CC034
S11333D0802F867851F001FF02C08BE201C080E2A9
S11333E007FD8DE2B70190E0E0D1C11630F4B701DA
S11333F080E390E0DAD11150F8CFCA94F301EC0DD8
S1133400F11D8081B70190E0D0D1C110F6CF15C075
S1133410F4E0F51550F584E0581A93FE1EC001112E
S113342025C02C8523FF27C004EE10E0392D307110
S1133430932EF8018491811121C0552009F4FCCC0C
S1133440B70180E290E0B1D15A94F7CFF7018681B9
S1133450978123C08FEF9FEF20C0B70180E290E0F7
S1133460A4D15A945110F9CFDACF512CB701802F3F
S113347090E09BD1D6CF08EE10E0D8CF91108052C7
S1133480B70190E092D10F5F1F4FD3CF23E02515F2
S113349010F483E0C1CF512CC4CF60960FB6F894DA
S11334A0DEBF0FBECDBFDF91CF911F910F91FF9073
S11334B0EF90DF90CF90BF90AF909F908F907F90D0
S11334C06F905F904F903F902F900895A1E21A2E35
S11334D0AA1BBB1BFD010DC0AA1FBB1FEE1FFF1FB4
S11334E0A217B307E407F50720F0A21BB30BE40B04
S11334F0F50B661F771F881F991F1A9469F760954B
S11335007095809590959B01AC01BD01CF01089504
S1133510052E97FB16F400940FD057FD05D0D6DF87
S113352007FC02D046F408C050954095309521958B
S11335303F4F4F4F5F4F08959095809570956195DB
S11335407F4F8F4F9F4F0895A29FB001B39FC0013B
S1133550A39F700D811D1124911DB29F700D811DBB
S11335601124911D0895F0DFB7FF0895821B930B7A
S11335700895FC0188279927E89421912032E9F3E2
S1133580293010F02E30C8F32B3239F02D3231F4BB
S1133590689403C002D1820F911D219120532A30D7
S11335A0C8F31EF4909581959F4F0895283008F034
S11335B027E03327DA01990F311D87FD91600096CA
S11335C06105710539F432602E5F3D9330E32A952D
S11335D0E1F708959F3F30F080387105610509F0E7
S11335E03C5F3C5F3D93913008F08068911DDF9310
S11335F0CF931F930F93FF92EF92192F987F969575
S1133600E92F96959695E90FFF27EA5BFE4F9927D8
S11336103327EE24FF24A701E701059008940794BB
S113362028F4360FE71EF81E491F511D660F771F39
S1133630881F991F0694A1F70590079428F4E70EB4
S1133640F81E491F561FC11D770F881F991F661F3B
S11336500694A1F70590079428F4F80E491F561F05
S1133660C71FD11D880F991F661F771F0694A1F7E6
S11336700590079420F4490F561FC71FD81F990FB0
S1133680661F771F881F0694A9F7849110951770F9
S113369041F0D695C79557954795F794E7941A95B1
S11336A0C1F7ECEEF0E068941590159135916591B1
S11336B0959105907FE27395E118F10A430B560B3F
S11336C0C90BD009C0F7E10CF11E431F561FC91FD7
S11336D0D01D7EF4703311F48A95E6CFE89401503E
S11336E030F0080F0AF40027021708F4202F23955E
S11336F0022F7A3328F079E37D932A95E9F710C0F5
S11337007D932A9589F6069497956795379517952D
S11337101794E118F10A430B560BC90BD00998F022
S113372023957E9173957A3308F070E37C9320138C
S1133730B8F77E9170617D9330F0839571E37D934A
S113374070E32A95E1F71124EF90FF900F911F91F8
S1133750CF91DF91992787FD90950895FC010590FD
S1133760615070400110D8F7809590958E0F9F1F7F
S11337700895FB01DC018D91019080190110D9F3AA
S1133780990B0895FC016150704001900110D8F725
S1133790809590958E0F9F1F08957AE0979F902DA6
S11337A0879F802D910D112408950F931F93CF931C
S11337B0DF93FB01238121FD03C08FEF9FEF2CC01A
S11337C022FF16C046815781248135814217530751
S11337D044F4A081B1819D012F5F3F4F3183208349
S11337E08C93268137812F5F3F4F3783268314C004
S11337F08B01EC01FB010084F185E02D1995892BE7
S1133800E1F6D80116968D919C911797019617961B
S11338109C938E931697CE01DF91CF911F910F91B8
S11338200895CF93DF93CDB7DEB7AE014A5F5F4F04
S1133830FA0161917191AF0180910E0A90910F0A82
S1133840BCDADF91CF9108950F931F93CF93DF9349
S1133850CDB7DEB7AE01485F5F4FDA016D917D9160
S1133860AD010CE01AE0F80182819381DC0113962A
S11338702C911397286013962C939FDAD8011296F3
S1133880ED91FC9113972381277F2383DF91CF91BF
S11338901F910F91089560910E0A70910F0A85CFC0
S11338A00F931F93CF93DF93E0910E0AF0910F0AC9
S11338B0238121FF1BC08C01D0E0C0E0F80181917D
S11338C08F0160910E0A70910F0ADB011896ED9139
S11338D0FC911997882331F01995892B79F3DFEF3F
S11338E0CFEFECCF8AE01995892B19F08FEF9FEF7A
S11338F002C08D2F9C2FDF91CF911F910F910895BE
S1133900FA01AA27283051F1203181F1E8946F930C
S11339106E7F6E5F7F4F8F4F9F4FAF4FB1E03ED0B2
S1133920B4E03CD0670F781F891F9A1FA11D680F50
S1133930791F8A1F911DA11D6A0F711D811D911D83
S1133940A11D20D009F468943F912AE0269F1124F8
S11339503019305D3193DEF6CF010895462F47705C
S1133960405D4193B3E00FD0C9F7F6CF462F4F70B7
S1133970405D4A3318F0495D31FD4052419302D015
S1133980A9F7EACFB4E0A6959795879577956795BB
S1133990BA95C9F700976105710508959B01AC01BB
S11339A00A2E06945795479537952795BA95C9F7E2
S11339B0620F731F841F951FA01D0895F894FFCFF5
S11339C00100000003000000000514291400003069
S11339D0313233343536373839000A526561646917
S11339E06E672066726F6D20464C415348007265C5
S11339F0636F72642025643A0A00636D6420257342
S1133A002D2D00753437007E3A2025640A00627536
S1133A10636B7320302C312C342028632C692C7375
S1133A20312920656E61626C6564006275636B3276
S1133A3020284D6F642920656E61626C65640062A4
S1133A4075636B3420284F70744874722920656E36
S1133A5061626C6564006275636B35202873706104
S1133A607265322920656E61626C656400627563FB
S1133A706B7320302C312C342028632C692C733147
S1133A80292064697361626C6564006275636B32DA
S1133A9020284D6F64292064697361626C65640039
S1133AA06275636B3320284F7074487472292064E4
S1133AB0697361626C6564006275636B35202853B9
S1133AC07061726532292064697361626C65640097
S1133AD0763D2025640A00763D20307825580A007A
S1133AE0575446000A6E6F20636D643A2573200AAA
S1133AF000696E697469616C697A696E67207469BA
S1133B006D65723200696E20696E697420636F7529
S1133B106E7465727320616E642074696D6572736E
S1133B20004144432073797320726567203D20254A
S1133B30580A006572726F722C20696E76616C6926
S1133B4064204368616E6E656C006368616E6E65C7
S1133B506C203D2025752C20616463203D20255870
S1133B602C20202575206D41200A0061637469763C
S1133B706520414443733A203078253032780A0076
S1133B8025642025303278253032782025643A2087
S1133B90202020002564202025753B20202000457E
S1133BA052524F523A204E6F204144437320416396
S1133BB0746976650A00666C6F7763203D2025641E
S1133BC000616273206368203D202564006D757870
S1133BD04368616E6E656C203D202564200A0025D3
S1133BE0752025750A0073746172746564205248E7
S1133BF05F5420436F6E76657273696F6E0052482E
S1133C005F54205374617274204661696C6564006A
S1133C1052485F54205374616C65204461746100A0
S1133C205248203D20256C64202854656E746873C6
S1133C30206F6620612050657263656E74290A00E6
S1133C4054203D20256C64202868756E6472657468
S1133C506873206F66206120446567726565290A70
S1133C600061646332353138203D20307825345882
S1133C70253032580A000A3078253032782C20302A
S1133C8078253032780A007370695F466C61736816
S1133C904973427573793A203078253032780A00B6
S1133CA0466C61736820426C6F636B204C6F636B6E
S1133CB0202020203078253032780A00466C617349
S1133CC06820436F6E666967202020202020202012
S1133CD03078253032780A00466C6173682053745A
S1133CE06174757320202020202020203078253016
S1133CF032780A00466C6173682044696520536514
S1133D006C656374202020203078253032780A00D6
S1133D107370695F466C617368556E6C6F636B4159
S1133D206C6C426C6F636B733A206C6F636B2072C4
S1133D306567206E6F7720203078253032780A004E
S1133D407370695F466C617368456E61626C655738
S1133D50726974653A203078253032780A007370BD
S1133D60695F466C61736844697361626C6557721C
S1133D706974653A203078253032780A00737069A6
S1133D805F52657365743A20737461747573206946
S1133D9073203078253032780A00696E20525443FB
S1133DA05F636F6E66696728293B007265616420F2
S1133DB05254432025643A256420200077726974A4
S1133DC0653A203078253258200A004552524F5225
S1133DD03A20636C6F636B204672657175656E6320
S1133DE079206E6F74206174203130323420485A47
S1133DF02100307825325800756E69785365636FF9
S1133E006E6473203D20256C75004255434B20445D
S1133E104143202020307825582076616C75652038
S1133E203D2030782533582E20202030782530321C
S1133E307820203078253032780A004F7074696316
S1133E40732044414320307825582076616C756591
S1133E50203D2030782533582E20202030782530FE
S1133E60327820203078253032780A00696E204F6D
S1133E7070746963734461632042726F6164436167
S1133E80737400696E204255434B204461632042A1
S1133E90726F616443617374004657204552524FF8
S1133EA0522C2077726974696E6720706173742074
S1133EB0656E64206F66204652414D002558203AB5
S1133EC0202558203A202558203A2025580A002534
S1133ED0582025582025582025580A00534E3A25A5
S1133EE0750A006572726F722072656164696E672B
S1133EF0206D7578206368616E6E656C0077686903
S1133F0063684D55586368203D202564200A0020CD
S1133F10656C20004552524F52202D205365747415
S1133F20696E67204D5558204368616E6E656C203C
S1133F303D2025640A004552524F52202D206661CF
S1133F40696C656420746F20636F6E6669726D209E
S1133F504D5558206368616E6E656C2E0D002065AA
S1133F606D20004552524F52202D20696E76616CAF
S1133F706964204D5558204368616E6E656C203D20
S1133F802025640D0A000000000054574920737472
S1133F906174757320636F64652025730A00545738
S1133FA049206572726F7220636F64652025580A18
S1133FB0007477692073746172742074696D656F1D
S1133FC075742E2E2E200D0074776920737461721F
S1133FD0742077726F6E6720737461747573202513
S1133FE0642E2E2E200D0A00627974652073656E8E
S1133FF07420737461747573203D203D30782530CE
S113400032580A007477694572726F7200455252D1
S11340104F522072656164206661696C6564207723
S1134020697468202564206279746573206C656600
S1134030742C207374617475733D30782530325854
S11340400D0A002E2E2E2E2E0A2E2E2E2E0A2E2E47
S11340502E0A2E00696E697469616C697A65640060
S1134060202020203A2025730A00676F74205561B0
S113407072743120434F6D706C6574653A257320FA
S11340800A00623F006261756400393630300031E5
S10D409031356B003436306B00004C
S9030000FC
