S019000053636875796C6572426F617264546573742E7372656334
S11300004FC100006EC100006CC100006AC1000055
S113001068C1000066C1000064C1000062C1000044
S113002019C300005EC100005CC100005AC1000099
S113003058C1000019C3000054C1000052C100009F
S113004050C100004EC100004CC100004AC1000074
S113005048C1000046C1000044C1000042C1000084
S113006040C100000C940D0E3CC100003AC10000D8
S113007038C1000084C4000034C1000032C1000053
S113008030C100002EC100002CC100002AC10000B4
S11300900C94EC0E26C1000024C1000022C1000013
S11300A020C100001EC100001CC100001AC10000D4
S11300B018C1000016C1000014C1000012C10000E4
S11300C010C100000EC100000CC100000AC10000F4
S11300D008C1000006C1000004C1000002C1000004
S11300E000C100006E616E00696E660000407A1007
S11300F0F35A00A0724E18090010A5D4E80000E8D5
S11301007648170000E40B54020000CA9A3B000032
S113011000E1F505000080969800000040420F00C1
S11301200000A08601000000102700000000E80382
S1130130000000006400000000000A00000000004D
S11301400100000000002C76D888DC674F0823DF0C
S1130150C1DFAE59E1B1B796E5E3E453C63AE651DF
S1130160997696E8E6C28426EB898C9B62ED407C06
S11301706FFCEFBC9C9F40F2BAA56FA5F490055AA2
S11301802AF75C936B6CF9676DC11BFCE0E40D47C7
S1130190FEF520E6B500D0ED902E030094357705EA
S11301A00080841E080000204E0A000000C80C33A2
S11301B03333330F986E12831141EF8D2114893B31
S11301C0E65516CFFEE6DB18D1844B381BF77C1DB1
S11301D0901DA4BBE424203284725E228100C9F104
S11301E024ECA1E53D27756E6B6E6F776E2041445C
S11301F04332353138206F7363696C61746F7253A5
S1130200706565640A004F53523A206C6F6732730D
S1130210616D706C6573203E2037000A00256420F0
S1130220004552524F523A204E6F204144432043DE
S113023068616E6E656C73206163746976650A002B
S11302400A5374616C65205072657373757265200E
S1130250496E7465726E616C204661756C742025FC
S1130260640A000A5374616C652050726573737577
S113027072652052656164696E672025640A000A0C
S113028053656E736F7220256420696E2050726FFF
S11302906772616D6D696E67204D6F64650A000059
S11302A011241FBECFEFD1E2DEBFCDBF00E00CBFF3
S11302B017E0A0E0B2E0E2E8FDE200E00BBF02C01C
S11302C007900D92AA39B107D9F728E0AAE9B7E057
S11302D001C01D92A23DB207E1F70E941C0D0C94CF
S11302E0BF168ECECF93DF93C091AC08C13481F595
S11302F08091AD08833711F420D21BC08D3611F4E0
S113030084D217C0833629F48091AE08805381D2F9
S113031010C08F3629F48091AE08805349D209C0A9
S11303208C3619F481E055D204C0883611F480E08B
S113033050D28CEA98E09F938F938FE092E09F9342
S11303408F930E94F2150F900F900F900F907FC122
S1130350C03711F4FFD47BC1C03511F4EDD477C19B
S113036068E172E08CEA98E00E949A15892B11F4F6
S1130370FFD46DC1CD3419F40E94B60A68C1C233EA
S113038039F48DEA98E00E949A140E94CD0A5FC164
S1130390C23561F48091AD08833509F4F7D48091B6
S11303A0AD08823509F053C105D551C1C23711F4E6
S11303B073D64DC1C13679F48091AD08813611F4FC
S11303C089D245C1833711F488D341C1843609F0F9
S11303D03EC158D33CC1C63411F43DD638C1C636EB
S11303E0A1F48091AD08833711F499D730C18936CF
S11303F011F4FCD72CC18A3619F40E94230A27C1B0
S1130400853609F024C186D722C1C337C1F480914F
S1130410000290E00E94660A8091000291E0980F29
S1130420909300021F928F938CE192E09F938F939D
S11304300E94F2150F900F900F900F9008C1CE36C6
S113044019F40E94720A03C1C33611F46BD6FFC0BB
S1130450C53651F58091AD0890ED980F923010F0AB
S1130460843329F478D583E292E00E943116809196
S1130470AD08823329F47BD580E492E00E943116E2
S11304808091AD08833329F47AD584E592E00E9403
S113049031168091AD08853309F0D9C078D58BE643
S11304A092E00E943116D3C0C43631F58091AD0874
S11304B0803329F456D582E892E00E943116809167
S11304C0AD08823329F457D580EA92E00E943116B0
S11304D08091AD08833329F456D585EB92E00E94D0
S11304E031168091AD08853309F0B1C056D58DEC35
S11304F092E00E943116ABC0CF36E9F48091AD088A
S113050090E0C0972FEF31E0829FE001839FD00DF0
S1130510929FD00D11248C2F9D2FD8D6DF93CF938B
S113052085EE92E09F938F930E94F2150F900F90A7
S11305300F900F908CC0CF34D9F48091AD088053C4
S1130540883008F084C0C091AE08D0E0C05DDF45BB
S11305506C2F7D2F84D6DF93CF938CEE92E09F9304
S11305608F930E94F2150F900F900F900F906FC011
S1130570C23601F585EF92E00E9431168091AD08F4
S113058090E0C0972FEF31E0829FE001839FD00D70
S1130590929FD00D1124CE01ABD6DF93CF9385EE7D
S11305A092E09F938F930E94F2150F900F900F90FB
S11305B00F904DC0C23419F58091AD088053883036
S11305C008F045C02091AE0830E0205331094FEFC8
S11305D051E0249FE001259FD00D349FD00D1124BC
S11305E0BE0106D6DF93CF9385EE92E09F938F935F
S11305F00E94F2150F900F900F900F9028C0C737EC
S113060059F48091AD08813309F4CDD48091AD08BB
S11306108033E9F4CCD41BC0CD3659F48091AD08B5
S1130620813309F40CD58091AD08803381F40DD564
S11306300EC08CEA98E09F938F9389EF92E09F938A
S11306408F930E94F2150F900F900F900F90DF91EF
S1130650CF9108951F920F920FB60F9211240F900D
S11306600FBE0F901F9018951F920F920FB60F9206
S113067011242F938F939F938FB78F778FBF88B158
S1130680805888B980919E0790919F070196909316
S11306909F0780939E0780919E0790919F078115E5
S11306A0924019F481E080939C0780919E07909179
S11306B09F0781159440A8F080919E0790919F0711
S11306C0945090939F0780939E0781E080939D07A9
S11306D080919A0790919B07019690939B07809332
S11306E09A0778949F918F912F910F900FBE0F903E
S11306F01F90189586E093E00E94311680E880935D
S1130700610082E08093B00084E08093B10080EEC9
S11307108093B3001092B200E0E7F0E08081826041
S113072080830895E7DF80EC80936A0080E88DBBC6
S11307308AE193E00C943116089560E080E0C9D317
S11307401F928F9386E393E09F938F930E94F215F9
S11307500F900F900F900F900895CF93DF93D82FA1
S1130760C62F883010F4623040F088E493E09F9301
S11307708F930E94F2150F900F90CC2331F061E01B
S113078001C0660FDA95EAF701C060E08BE092D30E
S1130790DF91CF91089560E485E08CD360E487E035
S11307A089D360E489E086D360E086E0D6CF0895FB
S11307B0CF93C82F883040F086E092E09F938F93C8
S11307C00E9405160F900F906C2F83E073D3CF9186
S11307D00895CF93C82F60E084E07BD3C11103C098
S11307E0682F6F7E0EC0C13019F4682F606109C094
S11307F086EE91E09F938F930E9405160F900F90C1
S113080002C084E057D3CF91089560E080E152C3E1
S113081008951F93CF93DF93182F682F81E171D32D
S1130820D82FC92F282F392FA0E5B3EC0E946314C9
S11308300E94CF0F20E030E040E859E30E943310DB
S11308400E94A10F7F936F93CF93DF931F921F9307
S11308508FE593E09F938F930E94F2158DB79EB717
S113086008960FB6F8949EBF0FBE8DBF8D2F9C2F98
S1130870DF91CF911F910895CF93DF93C82F20E08C
S113088013C0CF5FCF7020911A0830911B0881E00C
S113089090E00C2E02C0880F991F0A94E2F782237D
S11308A093232D2F892B21F4D1E0D20F213148F34A
S11308B0D13141F481E292E09F938F930E94051617
S11308C00F900F90D13111F08C2F01C08FEFDF9179
S11308D0CF910895CF93C0E01DC020911A083091A4
S11308E01B0881E090E00C2E02C0880F991F0A9427
S11308F0E2F782239323892B61F01F92CF938DE13A
S113090092E09F938F930E9405160F900F900F9083
S11309100F90CF5FC03108F38BE192E09F938F93E8
S11309200E940516EAE1F8E081818F9380818F931C
S113093080E893E09F938F930E94F2150F900F909D
S11309400F900F900F900F90CF91089595DFECE7E3
S1130950F0E09081907E90839081282F2770922BD5
S1130960908383FF06C0EBE7F0E09081986090836A
S11309700895EBE7F0E09081977F908308951F92AC
S11309800F920FB60F9211240BB60F922F933F9331
S11309904F935F936F937F938F939F93AF93BF9383
S11309A0EF93FF93209178004091A207642F042EC7
S11309B0000C770BFB01EE0FFF1FEB55F84F808106
S11309C09181DC01A20FB11D9D01B183A083A9E730
S11309D0B0E09C91892F90E0982F8827820F931F75
S11309E0918380833C912C919F938F931F923F938B
S11309F01F922F937F934F9385E993E09F938F9357
S1130A000E94F2158091A207A1DF8093A207909122
S1130A10A3072DB73EB7265F3F4F0FB6F8943EBFEE
S1130A200FBE2DBF891312C08091A0079091A1071A
S1130A3001969093A1078093A007019739F481E070
S1130A408093A4071092A1071092A0078091A40795
S1130A50811105C0EAE7F0E0808180648083FF9122
S1130A60EF91BF91AF919F918F917F916F915F9122
S1130A704F913F912F910F900BBE0F900FBE0F908F
S1130A801F901895CF93C091A3078AE090E00E942D
S1130A902C168C2F0C2E000C990BFC01EE0FFF1F53
S1130AA0EB55F84F81818F9380818F939F93CF93E0
S1130AB089EA93E09F938F930E94F2158C2FDCDEDA
S1130AC0C82F8091A3070F900F900F900F900F9055
S1130AD00F90C813DACFCF9108951092A407809194
S1130AE0A307E82FEE0FFF0BEB55F84F118210828E
S1130AF0C3DE9091A3078913F4CFEAE7F0E0808185
S1130B008064808308958FE021DF8093A20780931F
S1130B10A3078F3F71F0EAE7F0E08081806480836F
S1130B208FE880838FEF80937E0080937F00D5CF02
S1130B30089584EB93E09F938F930E9405160F9082
S1130B400F9008958091D6071F928F938BEC93E0BA
S1130B509F938F930E94F2150F900F900F900F9018
S1130B600895CF92DF92FF920F931F93CF93DF9359
S1130B70CDB7DEB72A970FB6F894DEBF0FBECDBF50
S1130B8019821A821B821C82F92EC92ED12C1F9223
S1130B909F9302EE13E01F930F930E94F2158F2D83
S1130BA0FCD41F92FF921F930F930E94F21544E00E
S1130BB050E0BE016F5F7F4F88E264D68981982F31
S1130BC092959695969593700FB6F894DEBF0FBEE6
S1130BD0CDBFC9F1913089F431E0C31AD108DF9255
S1130BE0CF928FE792E09F938F930E9405160F9008
S1130BF00F900F900F9081E04EC0923089F481E005
S1130C00C81AD108DF92CF9283E692E09F938F9324
S1130C100E9405160F900F900F900F9081E03BC03B
S1130C209330C1F521E0C21AD108DF92CF9280E45B
S1130C3092E09F938F930E9405160F900F900F9050
S1130C400F9081E028C08F7390E0982F88272A8125
S1130C50820F911D2B8130E0220F331F220F331F8F
S1130C60220F331F4C81429546954770240F311D46
S1130C703F932F939F938F9384EF93E09F938F934E
S1130C800E94F2150F900F900F900F900F900F90FD
S1130C9080E001C081E02A960FB6F894DEBF0FBE53
S1130CA0CDBFDF91CF911F910F91FF90DF90CF9037
S1130CB00895CF93E1EDF7E0C1E0C48382E085833A
S1130CC041DFEBECF7E0C5831482E5ECF7E083E069
S1130CD08583C4834091D1075091D2076091D30793
S1130CE07091D4078091D5079091D6073ADF83E0BD
S1130CF098E4FC013197F1F7FC013197F1F7FC011D
S1130D003197F1F7FC013197F1F7FC013197F1F7D5
S1130D10FC013197F1F70197F1F74091CB0750911E
S1130D20CC076091CD077091CE078091CF07909149
S1130D30D00717DFCF9108954091D1075091D20782
S1130D406091D3077091D4078091D5079091D6070D
S1130D5008CF08954091CB075091CC076091CD07FF
S1130D607091CE078091CF079091D007FACE089565
S1130D704091C5075091C6076091C7077091C80795
S1130D808091C9079091CA07ECCE089540E060E0D5
S1130D9070E087E200D5892B41F481E08093D70786
S1130DA08BEF93E00C943116089583E194E00C9456
S1130DB031160895CF92DF92EF92FF92CF93DF9393
S1130DC000D01F92CDB7DEB719821A821B821C8213
S1130DD08091D707882309F462C01092D70744E0B2
S1130DE050E0BE016F5F7F4F87E24CD5892B29F01D
S1130DF083E194E00E94311652C0A9818A2F829522
S1130E0086958695837029F085E294E00E943116D8
S1130E1046C0AF73B0E0BA2FAA278A81A82B28EE68
S1130E2033E00E9472140F2EFEEFCF2EFFE3DF2E6D
S1130E30E12CF12CF02DA70196010E9447145F9339
S1130E404F933F932F9385E394E09F938F930E9456
S1130E50F215AB8180E4A89FD00111248C81869582
S1130E608695A82B24E730E40E947214A70196010A
S1130E700E944714DA01C901805A9F40A109B109AF
S1130E80BF93AF939F938F9385E594E09F938F9344
S1130E900E94F2150FB6F894DEBF0FBECDBF0F90BF
S1130EA00F900F900F90DF91CF91FF90EF90DF9014
S1130EB0CF900895CF93DF93D82FC62F90D088E09A
S1130EC057D18D2F55D18C2F53D18FD0DF91CF9106
S1130ED00895CF93DF93D82FC62F81D080E148D1D6
S1130EE08D2F46D18C2F44D180D079D080E140D150
S1130EF0C82F80E03DD180E03BD18C2FDF91CF9192
S1130F0008950F931F93CF93DF93082F162F67D065
S1130F1088E02ED190E0C92FD82F802F29D1C80F77
S1130F20D11D812F25D1182F60D01F921F93DF93DD
S1130F30CF9386E794E09F938F930E94F2150F90CE
S1130F400F900F900F900F900F90CE01DF91CF91E3
S1130F501F910F91089561E070E086E090E0FDCB71
S1130F60089560E070E086E090E0F7CB089584B3E4
S1130F70816084BB089584B38E7F84BB089584B359
S1130F80826084BB089584B38D7F84BB0895EBE0B5
S1130F90F1E08081806880830895EBE0F1E0808156
S1130FA08F77808308958EB18B7F8EB908958EB12B
S1130FB084608EB9089585B18E7F85B9089585B111
S1130FC0816085B90895E2E0F1E080818E7F8083BD
S1130FD00895E2E0F1E08081816080830895E2E099
S1130FE0F1E080818D7F80830895E2E0F1E08081EB
S1130FF0826080830895E2E0F1E080818B7F8083CA
S11310000895E2E0F1E08081846080830895E2E065
S1131010F1E08081877F80830895E2E0F1E08081C0
S1131020886080830895E2E0F1E0808180618083BC
S11310300895E2E0F1E080818F7E80830895E2E00C
S1131040F1E08081806280830895E2E0F1E08081B4
S11310508F7D80830895CF93DF93D9DF8FE988D084
S113106080E086D080E084D0C82F80E081D0D82F63
S1131070D4DF1F92DF931F92CF938BE894E09F936A
S11310808F930E94F2150F900F900F900F900F9076
S11310900F90DF91CF9108951F93CF93DF931F9209
S11310A01F92CDB7DEB785E089838BE994E00E9477
S11310B0311610E029C041E0BE016E5F7F4F8FE022
S11310C03FD28A81853011F141E0BE016F5F7F4FCD
S11310D08FE020D28A811F928F931F921F938CEAF4
S11310E094E09F938F930E94F21589811F928F93AE
S11310F08DEB94E09F938F930E94F2151F5F0FB6C0
S1131100F894DEBF0FBECDBF1431A8F2143120F025
S11311108CEC94E00E9431160F900F90DF91CF91E8
S11311201F910895CF93DF931F92CDB7DEB741E0AF
S1131130BE016F5F7F4F8FE003D289811F928F932F
S113114083EF94E09F938F930E94F2150F900F907A
S11311500F900F900F90DF91CF9108951DBC81E502
S11311608CBD5BDF2CDF35DF5EDF4BDF3ECF0895C8
S11311708EBD0DB407FEFDCF8EB50895FC0120E0B1
S113118030E00AC0CF01019640814EBD0DB407FE88
S1131190FDCF2F5F3F4FFC012617370798F30895C3
S11311A0FC0120E030E009C01EBC0DB407FEFDCFF9
S11311B08EB580832F5F3F4F319626173707A0F3F4
S11311C00895CF93DF931F921F92CDB7DEB79A8312
S11311D089838A818EBD0DB407FEFDCF89818EBDC2
S11311E00DB407FEFDCF0F900F90DF91CF910895BE
S11311F0EF92FF921F93CF93DF93EB01182F177099
S113120090E1199F90011124E72EFF24AB0155278B
S11312105F934F932E293F293F932F93DF936F932F
S11312201F928F938BE095E09F938F930E94F2150A
S1131230E2DE812F8295807F8E299ADF8C2F98DFC2
S1131240E0DE8DB79EB70A960FB6F8949EBF0FBE28
S11312508DBFDF91CF911F91FF90EF900895EF9292
S1131260FF921F93CF93DF93EB01182F177090E138
S1131270199F90011124E72EFF24AB0155275F939A
S11312804F932E293F293F932F93DF936F931F9200
S11312908F938CE395E09F938F930E94F21593DED6
S11312A0812F8295807F8E2963DF8C2F61DF91DE11
S11312B08DB79EB70A960FB6F8949EBF0FBE8DBF2A
S11312C0DF91CF911F91FF90EF900895CF93DF931B
S11312D0C82FD92F8DE695E00E94311674DE8D2F2C
S11312E0806C46DF8C2F44DF74DEDF91CF9108954C
S11312F0CF93DF93C82FD92F84E895E00E9431164D
S11313007ADE8D2F806C34DF8C2F32DF7ADEDF9132
S1131310CF91089550DE86E02BDF51CE0895CF9310
S11313204ADE85E025DF80E023DFC82F48DE1F92F8
S1131330CF938DEF96E09F938F930E94F2150F90B9
S11313400F900F900F908C2FCF910895EF92FF92F2
S11313500F931F93CF93DF938C017B01EA01840FDA
S1131360951F8130904220F08AE995E00E94311661
S1131370D1DF21DE82E0FCDEC80123DFBE01C7012C
S1131380FDDE1DDEDF91CF911F910F91FF90EF9055
S11313900895CF92DF92EF92FF920F931F93CF9312
S11313A0DF93C82FD92F8B016A0105DE83E0E0DECD
S11313B08D2FDEDE8C2FDCDEC0E0D0E00AC07801A9
S11313C08FEFE81AF80A80E0D3DEF80180832196D3
S11313D08701CC15DD0598F3F2DDDF91CF911F91E4
S11313E00F91FF90EF90DF90CF900895CF93DF930C
S11313F000D01F92CDB7DEB7DEDD8FEAB9DE64E040
S113140070E0CE010196CCDEDADD3C812B819A813D
S113141089811F923F931F922F931F929F931F9234
S11314208F938DEB95E09F938F930E94F2150FB6E7
S1131430F894DEBF0FBECDBF0F900F900F900F90AA
S1131440DF91CF910895CF93DF93CDB7DEB728977F
S11314500FB6F894DEBF0FBECDBF5CDF8FE18D8386
S113146081E48E8381E88F838AEF888744E050E0AB
S1131470BE016B5F7F4F80E094E068DF44E050E0A2
S1131480BE016F5F7F4F80E094E083DF3C812B815E
S11314909A8189811F923F931F922F931F929F934A
S11314A01F928F9380ED95E09F938F930E94F21586
S11314B00FB6F894DEBF0FBECDBF28960FB6F894D2
S11314C0DEBF0FBECDBFDF91CF9108959093D907B2
S11314D08093D80742E050E068ED77E080E090E048
S11314E035CF089542E050E068ED77E080E090E089
S11314F050DF8091D9078F938091D8078F938DED1A
S113150095E09F938F930E94F2150F900F900F9088
S11315100F9008950F931F93CF93DF93D82F8B01D0
S1131520C42F87DD8D2F806223DE6C2F70E0C8010D
S113153025DE79DD8C2FDF91CF911F910F910895D6
S11315400F931F93CF93DF93D82F8B01C42F71DD9B
S11315508D2F806A0DDE6C2F70E0C80121DE63DD03
S11315608C2FDF91CF911F910F910895CF93DF932B
S11315701F92CDB7DEB741E050E0BE016F5F7F4FF1
S113158080E780D1892B21F084EE95E00E9431160A
S113159089810F90DF91CF910895CF93DF931F92AC
S11315A0CDB7DEB78983843008F04FC01F928F9384
S11315B08EEF95E09F938F930E94F21541E0BE0158
S11315C06F5F7F4F80E7E7D00F900F900F900F90E1
S11315D0892B09F18981E82FF0E0E957F94F9081CF
S11315E0973058F061D080E196E09F938F930E94EA
S11315F0F2150F900F9081E039C01F928F9385E10F
S113160096E09F938F930E94F2150F900F900F9086
S11316100F9081E02BC0AADF9981891721F187E31C
S113162096E00E943116E981F0E0E957F94F808194
S11316308730D8F039D08FE596E09F938F930E943E
S1131640F2150F900F9081E011C01F928F9384E6E2
S113165096E09F938F930E94F2150F900F900F9036
S11316600F9081E003C080E001C081E00F90DF9122
S1131670CF9108959F938F938BE896E09F938F93D8
S11316800E94F2150F900F900F900F9008951F92E3
S11316908F938FE996E09F938F930E94F2150F909A
S11316A00F900F900F90089584E98093BC00EBE0B5
S11316B0F1E080818F7B808380E005C0E3E0F8E483
S11316C03197F1F78F5F8431C8F3EBE0F1E080816B
S11316D08064808380E005C0E3E0F8E43197F1F7AB
S11316E08F5F8431C8F3EBE0F1E080818F7B8083EE
S11316F080E005C0E3E0F8E43197F1F78F5F8431CF
S1131700C8F3EBE0F1E0808180648083E9EBF0E0F2
S113171080818C7F80838081808380E18093B80086
S1131720ECEBF0E080818460808381E08093DA07D1
S1131730089584EA8093BC0010929B0710929A0744
S11317408091BC00882334F080919A0790919B0784
S11317504E97B0F380919A0790919B074E9730F083
S113176082EB96E00E94311681E008958091B900E1
S1131770887F883071F01F928F9389EC96E09F9355
S11317808F930E94F2150F900F900F900F9081E0AD
S1131790089580E008950F931F93CF93DF93082F4C
S11317A0EB01142FC6DF811166C0000F0093BB004C
S11317B084E88093BC0010929B0710929A07809152
S11317C0BC00882334F080919A0790919B074E9730
S11317D0B0F380919A0790919B078091B900887F1C
S11317E0883109F43FC084E98093BC0080E24FDF74
S11317F081E090E042C0AE014F5F5F4F88818093EB
S1131800BB0084E88093BC0010929B0710929A0757
S11318108091BC00882334F080919A0790919B07B3
S11318204E97B0F380919A0790919B078091B900ED
S1131830887F8832A1F01F928F9389EE96E09F9360
S11318408F930E94F21584E98093BC0080E31FDF2C
S11318500F900F900F900F9081E090E00EC02F5FDB
S1131860EA0101C020E0211730F284E98093BC0032
S113187080E090E002C081E090E0DF91CF911F9181
S11318800F910895FF920F931F93CF93DF93F82E38
S11318908B01EA014EDF811179C08F2D90E0880F12
S11318A0991F81608093BB0084E88093BC001092F0
S11318B09B0710929A078091BC00882334F0809192
S11318C09A0790919B074E97B0F380919A07909155
S11318D09B078091B900887F803409F44DC088E467
S11318E0D6DE84E98093BC0085E097E0C3DE81E026
S11318F090E04EC010929B0710929A07C130D10518
S113190011F484E801C084EC8093BC0010929B071E
S113191010929A078091BC00882334F080919A0732
S113192090919B074E97B0F380919A0790919B07F3
S11319304E97D8F08091B9001F928F93DF93CF9385
S11319408EE097E09F938F930E94F21584E9809331
S1131950BC0085E097E08EDE0F900F900F900F9003
S11319600F900F9081E090E013C08091BB00F801CC
S1131970808321970F5F1F4F1C161D060CF4BACFEE
S113198084E98093BC0080E090E002C081E090E0B4
S1131990DF91CF911F910F91FF9008958FEF81B93F
S11319A097EF94B987B99BEB9AB99EE39DB910BAA6
S11319B083BB9FE79093010192E7909304011092F7
S11319C0070180930A0188B9809302013ECB0895F0
S11319D0CF93DF93ECECF8E081E092E09183808395
S11319E09383828380E0B5D0D9DFB8DB0E94920371
S11319F08FE09FE890931B0880931A08C0E0D0E022
S1131A0005C08EE290E00E942C162196C035D105C7
S1131A10C0F38AE090E00E942C163EDB0E94CB03C8
S1131A2043DE47D970D845D9789484E497E00E947E
S1131A303116DF91CF910895CBDF85E597E00E94C1
S1131A40311619D28091E207882321F00E94720195
S1131A501092E20780919C07882341F0EBE0F1E0CB
S1131A60908181E08927808310929C0780919D0753
S1131A70882339F3EBE0F1E0908181E089278083CA
S1131A808091DC07882319F081508093DC07109241
S1131A909D07D7CFE3E2F8E06083118293838283CA
S1131AA0958384839783868308959FB7F894809160
S1131AB02408811104C0992304F578940895E3E27D
S1131AC0F8E0A481B5819D012F5F3F4F35832483C6
S1131AD08C91218121502183448155812681378134
S1131AE06081260F311D4217530720F0268137816C
S1131AF03583248399230CF4789408959FB7F8943C
S1131B00E3E2F8E031812081321720F0992304F5D3
S1131B1078940895E3E2F8E0A281B3819D012F5FF8
S1131B203F4F338322838C9381818F5F81834281F2
S1131B305381268137818081280F311D4217530735
S1131B4020F0268137813383228399230CF47894FF
S1131B5008958230B9F18430B8F58093DB07909111
S1131B60E307913019F0923039F003C09FE520E08B
S1131B7005C097E020E002C091E020E0813019F038
S1131B80833071F016C02093CD009093CC0088E987
S1131B908093C90060E88BE298E07CDF80E00895E0
S1131BA0209335019093340188E98093310180E0DA
S1131BB008952093C5009093C40088E98093C100E0
S1131BC080E0089581E0089581E00895CF93C82FBF
S1131BD08A3031F46091CE087091CF088DE0F6DF41
S1131BE08091C00085FFFCCFC093C60080E090E0E8
S1131BF0CF910895CF93C82F8A3011F48DE0FADF86
S1131C008091C80085FFFCCFC093CE0080E090E0B7
S1131C10CF91089580E090E008951F920F920FB63F
S1131C200F9211240BB60F922F933F934F935F9310
S1131C306F937F938F939F93AF93BF93CF93DF93D0
S1131C40EF93FF938091C00084FD08C08091C00091
S1131C5083FD04C08091E207882341F08091C6008F
S1131C6090E09093E1078093E007A1C08091DF07A3
S1131C708F3180F08091C60090E09093E1078093CB
S1131C80E0071092DF071092CB081092E20710923F
S1131C90DE078DC0E091DF07F0E08091C600E455D7
S1131CA0F74F8083E091DF07F0E0E455F74F808140
S1131CB08A3041F0E091DF07F0E0E455F74F80818E
S1131CC08D3089F481E08093E2078091DE078F5F95
S1131CD08093DE07E091DF07F0E0E455F74F1082D0
S1131CE01092DF0764C0E091DF07F0E0E455F74F9E
S1131CF08081883041F0E091DF07F0E0E455F74F50
S1131D0080818F3739F58091DF07882309F44FC02C
S1131D10CCECD8E06A817B8188E058DF6A817B81E2
S1131D2080E254DF6A817B8188E050DF8091DF07A5
S1131D3081508093DF078091DE0781508093DE0716
S1131D408091DD07882399F18091DD07815080938C
S1131D50DD072DC0E091DF07F0E0E455F74F808107
S1131D608C3298F0E091DF07F0E0E455F74F808182
S1131D708B3758F48091DF078F5F8093DF07809162
S1131D80DE078F5F8093DE0712C0E091DF07F0E08B
S1131D90E455F74F80818B3151F46091CE087091F6
S1131DA0CF088DE013DF1092DF071092DE07FF915A
S1131DB0EF91DF91CF91BF91AF919F918F917F91DF
S1131DC06F915F914F913F912F910F900BBE0F90A8
S1131DD00FBE0F901F9018951F920F920FB60F927F
S1131DE011240BB60F922F933F934F935F936F93EE
S1131DF07F938F939F93AF93BF93EF93FF938091C0
S1131E00C80084FD04C08091C80083FF08C080918D
S1131E10CE0090E09093E1078093E00719C0809191
S1131E20CE008A3041F480E069DE8091AB088F5F98
S1131E308093AB080DC08D3059F0883011F08F3786
S1131E4011F433DE05C090EE980F9F3508F456DE8A
S1131E50FF91EF91BF91AF919F918F917F916F917E
S1131E605F914F913F912F910F900BBE0F900FBE3A
S1131E700F901F9018958091DE07882369F1909147
S1131E80DD078091DE079817C0F48091E207811185
S1131E900BC06091CE087091CF08E091DD07F0E0AF
S1131EA0E455F74F808192DE8091DD078F5F809348
S1131EB0DD078AE08093DC0713C08091DC07811181
S1131EC00FC08FB78F778FBF1092DD071092DE0798
S1131ED01092DF07789404C01092DD071092DC079B
S1131EE08091E2078823A9F08CEA98E09F938F936E
S1131EF081E697E09F938F9375D61092DF07109237
S1131F00DC071092DE071092DD070F900F900F9000
S1131F100F908091AB08882399F08BE298E09F930F
S1131F208F938BE697E09F938F935CD68EE762DE68
S1131F308AE260DE8EE75EDE0F900F900F900F90C6
S1131F40089570D088F09F5790F0B92F9927B75112
S1131F50A0F0D1F0660F771F881F991F1AF0BA9569
S1131F60C9F712C0B13081F077D0B1E0089574C0E0
S1131F70672F782F8827B85F39F0B93FCCF386955F
S1131F8077956795B395D9F73EF4909580957095BC
S1131F9061957F4F8F4F9F4F0895E89409C097FB39
S1131FA03EF490958095709561957F4F8F4F9F4F2C
S1131FB09923A9F0F92F96E9BB279395F695879570
S1131FC077956795B795F111F8CFFAF4BB0F11F433
S1131FD060FF1BC06F5F7F4F8F4F9F4F16C08823DA
S1131FE011F096E911C0772321F09EE8872F762F10
S1131FF005C0662371F096E8862F70E060E02AF051
S11320009A95660F771F881FDAF7880F969587953C
S113201097F9089557FD9058440F551F59F05F3FA5
S113202071F04795880F97FB991F61F09F3F79F0F6
S113203087950895121613061406551FF2CF469578
S1132040F1DF08C0161617061806991FF1CF8695FA
S11320507105610508940895E894BB2766277727DE
S1132060CB0197F908950BD078C069D028F06ED0D1
S113207018F0952309F05AC05FC01124EECFCADFCF
S1132080A0F3959FD1F3950F50E0551F629FF00187
S1132090729FBB27F00DB11D639FAA27F00DB11DE0
S11320A0AA1F649F6627B00DA11D661F829F222769
S11320B0B00DA11D621F739FB00DA11D621F839FF0
S11320C0A00D611D221F749F3327A00D611D231FC6
S11320D0849F600D211D822F762F6A2F11249F5714
S11320E050408AF0E1F088234AF0EE0FFF1FBB1F37
S11320F0661F771F881F91505040A9F79E3F5105D6
S113210070F014C0AACF5F3FECF3983EDCF38695E1
S113211077956795B795F795E7959F5FC1F7FE2B80
S1132120880F911D9695879597F9089597F99F675C
S113213080E870E060E008959FEF80EC089500244B
S11321400A941616170618060906089500240A9418
S113215012161306140605060895092E0394000C9E
S113216011F4882352F0BB0F40F4BF2B11F460FF2D
S113217004C06F5F7F4F8F4F9F4F08952F923F9200
S11321804F925F926F927F928F929F92AF92BF9283
S1132190CF92DF92EF92FF920F931F93CF93DF932F
S11321A0CDB7DEB760970FB6F894DEBF0FBECDBFD4
S11321B07C011B016A01FC0117821682838181FF65
S11321C02AC39E012F5F3F4F3901F7019381F1012B
S11321D093FD859193FF81911F01882309F417C30F
S11321E0853239F493FD859193FF81911F018532E6
S11321F031F4B70190E0BAD456016501E6CF10E09E
S1132200512C912CFFE1F915D8F08B3279F038F488
S1132210803279F08332A1F4F92DF0612EC08D3231
S113222061F0803369F4292D21602DC0392D32608D
S1132230932E892D8460982E2AC0E92DE86015C05C
S113224097FC2DC020ED280F2A3088F496FE06C096
S11322503AE0139F200D1124122F19C08AE0589ED2
S1132260200D1124522EE92DE0629E2E10C08E32D4
S113227031F496FCCCC2F92DF0649F2E08C08C3644
S113228021F4292D2068922E02C0883641F4F101F0
S113229093FD859193FF81911F018111B3CF9BEB36
S11322A0980F933020F4992D9061805E07C09BE9CC
S11322B0980F933008F059C1992D9F7E96FF16E030
S11322C09F73992E853619F49064992E08C086362A
S11322D021F4392F3068932E02C01111115097FE4A
S11322E007C01C3350F444244394410E27E00BC030
S11322F0183038F027E017E005C027E09CE3492EAA
S113230002C0212F412C560184E0A80EB11CF60115
S11323106081718182819381042DA30128D36C0192
S1132320F981FC87F0FF02C0F3FF06C091FC06C0F0
S113233092FE06C000E205C00DE203C00BE201C03C
S113234000E08C858C7019F0011143C280C297FEA5
S113235010C04C0CFC85F4FF04C08A81813309F45D
S11323604A94141474F528E0241578F588E0482E6E
S11323702CC096FC2AC0812F90E08C159D059CF002
S11323803CEFC3163FEFD30674F0892D8068982E76
S11323900AC0E2E0F0E0EC0FFD1FE10FF11D8081C7
S11323A0803319F411501111F4CF97FE0EC0442458
S11323B04394410E812F90E0C816D9062CF41C19C1
S11323C004C04424439401C010E097FE06C01C14CA
S11323D01D0434F4C601019605C085E090E002C0F6
S11323E081E090E001110196112331F0212F30E0BA
S11323F02F5F3F4F820F931F252D30E082179307E5
S113240014F4581A01C0512C892D897041F45520B7
S113241031F0B70180E290E0A9D35A94F8CF0023B9
S113242021F0B701802F90E0A1D393FC08C0552080
S113243031F0B70180E390E099D35A94F8CF97FE36
S11324404AC04601D7FE02C0812C912CC6018819CE
S11324509909F301E80FF91FFE87ED879601241906
S11324603109388B2F87012F10E01195019511093F
S11324703FEF8316930621F4B7018EE290E076D302
S1132480C814D9044CF08F8598898815990524F4CB
S1132490ED85FE85818101C080E3F1E08F1A91080A
S11324A02D853E852F5F3F4F3E872D8780169106F1
S11324B024F0B70190E05AD3DBCFC814D90441F417
S11324C09A81963320F4953319F43C8534FF81E3E3
S11324D0B70190E048C08A81813319F09C859F7EC2
S11324E09C87B70190E042D3111105C094FC16C03B
S11324F085E690E015C0B7018EE290E037D31E5F09
S113250082E001E0080FF301E80FF11D8081B701BB
S113251090E02CD3802F0113F4CFE8CF85E490E032
S1132520B70124D3D7FC06C0C114D10441F4EC850F
S1132530E4FF05C0D194C194D1088DE201C08BE2BF
S1132540B70190E013D380E32AE0C216D1042CF043
S11325508F5FFAE0CF1AD108F7CFB70190E006D326
S1132560B701C601C09602D349C1833631F083371F
S113257079F0833509F052C01FC0560132E0A30E32
S1132580B11CF6018081898301E010E0630111C070
S11325905601F2E0AF0EB11CF601C080D18096FE68
S11325A003C0612F70E002C06FEF7FEFC601CBD292
S11325B08C01F92DFF7713C0560122E0A20EB11C45
S11325C0F601C080D18096FE03C0612F70E002C086
S11325D06FEF7FEFC601A3D28C01F92DF0689F2E17
S11325E0F3FD18C0852D90E00817190798F4B7017A
S11325F080E290E0BBD25A94F5CFF60197FC859126
S113260097FE81916F01B70190E0B0D251105A94B6
S1132610015011090115110581F7F0C0843611F03C
S1132620893659F5560197FE09C024E0A20EB11C63
S1132630F60160817181828193810AC0F2E0AF0E5C
S1132640B11CF60160817181072E000C880B990B77
S1132650F92DFF769F2E97FF09C090958095709570
S113266061957F4F8F4F9F4FF0689F2E2AE030E097
S1132670A30127D3C82EC6183EC0092D853721F4DF
S11326800F7E2AE030E01DC0097F8F3691F018F4E8
S1132690883559F0BCC0803719F0883711F0B7C0BD
S11326A0006104FF09C0046007C094FE08C006600E
S11326B006C028E030E005C020E130E002C020E19F
S11326C032E0560107FF09C084E0A80EB11CF601F0
S11326D0608171818281938108C0F2E0AF0EB11CE8
S11326E0F6016081718180E090E0A301EAD2C82EF6
S11326F0C6180F77902E96FE0BC0092D0E7FC116BB
S113270050F494FE0AC092FC08C0092D0E7E05C048
S1132710DC2C092D03C0DC2C01C0D12E04FF0DC01C
S1132720FE01EC0DF11D8081803311F4097E09C096
S113273002FF06C0D394D39404C0802F867809F096
S1132740D39403FD10C000FF06C01C2DD51478F4EB
S1132750150D1D190CC0D51450F4B70180E290E09A
S113276005D2D394F8CFD51410F45D1801C0512CC0
S113277004FF0FC0B70180E390E0F8D102FF16C058
S113278001FD03C088E790E002C088E590E0B7014E
S11327900CC0802F867851F001FF02C08BE201C08B
S11327A080E207FD8DE2B70190E0E0D1C11630F47C
S11327B0B70180E390E0DAD11150F8CFCA94F30165
S11327C0EC0DF11D8081B70190E0D0D1C110F6CF9E
S11327D015C0F4E0F51550F584E0581A93FE1EC0B8
S11327E0011125C02C8523FF27C004EE10E0392DEC
S11327F03071932EF8018491811121C0552009F480
S1132800FCCCB70180E290E0B1D15A94F7CFF70144
S11328108681978123C08FEF9FEF20C0B70180E2AC
S113282090E0A4D15A945110F9CFDACF512CB701CA
S1132830802F90E09BD1D6CF08EE10E0D8CF911036
S11328408052B70190E092D10F5F1F4FD3CF23E0A6
S1132850251510F483E0C1CF512CC4CF60960FB678
S1132860F894DEBF0FBECDBFDF91CF911F910F91C2
S1132870FF90EF90DF90CF90BF90AF909F908F909C
S11328807F906F905F904F903F902F900895052E0A
S113289097FB16F400940FD057FD05D029D007FC00
S11328A002D046F408C050954095309521953F4F8D
S11328B04F4F5F4F089590958095709561957F4F28
S11328C08F4F9F4F0895A29FB001B39FC001A39F54
S11328D0700D811D1124911DB29F700D811D112455
S11328E0911D0895F0DFB7FF0895821B930B08959F
S11328F0A1E21A2EAA1BBB1BFD010DC0AA1FBB1F00
S1132900EE1FFF1FA217B307E407F50720F0A21B71
S1132910B30BE40BF50B661F771F881F991F1A94DE
S113292069F760957095809590959B01AC01BD0108
S1132930CF010895FC0188279927E894219120323A
S1132940E9F3293010F02E30C8F32B3239F02D3250
S113295031F4689403C002D1820F911D2191205358
S11329602A30C8F31EF4909581959F4F089528301E
S113297008F027E03327DA01990F311D87FD9160B4
S113298000966105710539F432602E5F3D9330E3A2
S11329902A95E1F708959F3F30F08038710561056D
S11329A009F03C5F3C5F3D93913008F08068911DD5
S11329B0DF93CF931F930F93FF92EF92192F987F7A
S11329C09695E92F96959695E90FFF27EA5BFE4FBA
S11329D099273327EE24FF24A701E70105900894E3
S11329E0079428F4360FE71EF81E491F511D660F81
S11329F0771F881F991F0694A1F70590079428F460
S1132A00E70EF81E491F561FC11D770F881F991F17
S1132A10661F0694A1F70590079428F4F80E491F41
S1132A20561FC71FD11D880F991F661F771F069455
S1132A30A1F70590079420F4490F561FC71FD81F0C
S1132A40990F661F771F881F0694A9F78491109524
S1132A50177041F0D695C79557954795F794E79425
S1132A601A95C1F7ECEEF0E0689415901591359144
S1132A706591959105907FE27395E118F10A430BF6
S1132A80560BC90BD009C0F7E10CF11E431F561FAA
S1132A90C91FD01D7EF4703311F48A95E6CFE894F3
S1132AA0015030F0080F0AF40027021708F4202F11
S1132AB02395022F7A3328F079E37D932A95E9F759
S1132AC010C07D932A9589F6069497956795379556
S1132AD017951794E118F10A430B560BC90BD0094B
S1132AE098F023957E9173957A3308F070E37C9384
S1132AF02013B8F77E9170617D9330F0839571E374
S1132B007D9370E32A95E1F71124EF90FF900F91E4
S1132B101F91CF91DF91992787FD90950895FC012E
S1132B200590615070400110D8F7809590958E0FF4
S1132B309F1F0895FB01DC018D9101908019011004
S1132B40D9F3990B0895FC01615070400190011074
S1132B50D8F7809590958E0F9F1F08957AE0979FE0
S1132B60902D879F802D910D112408950F931F930D
S1132B70CF93DF93FB01238121FD03C08FEF9FEFF0
S1132B802CC022FF16C0468157812481358142170B
S1132B90530744F4A081B1819D012F5F3F4F3183DE
S1132BA020838C93268137812F5F3F4F3783268381
S1132BB014C08B01EC01FB010084F185E02D199513
S1132BC0892BE1F6D80116968D919C911797019661
S1132BD017969C938E931697CE01DF91CF911F91F8
S1132BE00F910895CF93DF93CDB7DEB7AE014A5F5F
S1132BF05F4FFA0161917191AF018091CE0890917C
S1132C00CF08BCDADF91CF9108950F931F93CF9330
S1132C10DF93CDB7DEB7AE01485F5F4FDA016D9148
S1132C207D91AD010CEC18E0F80182819381DC0107
S1132C3013962C911397286013962C939FDAD8013E
S1132C401296ED91FC9113972381277F2383DF91C3
S1132C50CF911F910F9108956091CE087091CF0884
S1132C6085CF0F931F93CF93DF93E091CE08F0911C
S1132C70CF08238121FF1BC08C01D0E0C0E0F80104
S1132C8081918F016091CE087091CF08DB01189675
S1132C90ED91FC911997882331F01995892B79F3DB
S1132CA0DFEFCFEFECCF8AE01995892B19F08FEF86
S1132CB09FEF02C08D2F9C2FDF91CF911F910F9119
S1132CC00895FA01AA27283051F1203181F1E894BE
S1132CD06F936E7F6E5F7F4F8F4F9F4FAF4FB1E00B
S1132CE03ED0B4E03CD0670F781F891F9A1FA11D06
S1132CF0680F791F8A1F911DA11D6A0F711D811D07
S1132D00911DA11D20D009F468943F912AE0269FCB
S1132D1011243019305D3193DEF6CF010895462F2A
S1132D204770405D4193B3E00FD0C9F7F6CF462F0B
S1132D304F70405D4A3318F0495D31FD4052419374
S1132D4002D0A9F7EACFB4E0A69597958795779531
S1132D506795BA95C9F700976105710508959B01B8
S1132D60AC010A2E06945795479537952795BA9541
S1132D70C9F7620F731F841F951FA01D0895F8944F
S1052D80FFCF7F
S1132D82010000000300000000E60D0A0E000063CB
S1132D926D642025732D2D00753437007E3A20256D
S1132DA2640A006275636B7320302C312C34202842
S1132DB2632C692C73312920656E61626C65640031
S1132DC26275636B3220284D6F642920656E6162DF
S1132DD26C6564006275636B3420284F70744874A8
S1132DE2722920656E61626C6564006275636B357D
S1132DF220287370617265322920656E61626C6588
S1132E0264006275636B7320302C312C3420286388
S1132E122C692C7331292064697361626C656400C6
S1132E226275636B3220284D6F6429206469736173
S1132E32626C6564006275636B3320284F7074485A
S1132E427472292064697361626C656400627563DB
S1132E526B3520285370617265322920646973616D
S1132E62626C656400763D2025640A00763D20305C
S1132E727825580A00575446000A6E6F20636D6421
S1132E823A2573200A00696E697469616C697A690A
S1132E926E672074696D65723200696E20696E69AD
S1132EA27420636F756E7465727320616E6420742E
S1132EB2696D6572730041444320737973207265AE
S1132EC267203D2025580A006572726F722C2069B2
S1132ED26E76616C6964204368616E6E656C006332
S1132EE268616E6E656C203D2025752C20616463DB
S1132EF2203D2025582C20202575206D41200A00D4
S1132F0261637469766520414443733A20307825BD
S1132F123032780A00256420253032782530327820
S1132F222025643A20202020002564202025753B9A
S1132F32202020004552524F523A204E6F204144E5
S1132F424373204163746976650A00666C6F776324
S1132F52203D20256400616273206368203D2025A2
S1132F6264006D75784368616E6E656C203D202542
S1132F7264200A0025752025750A00737461727431
S1132F8265642052485F5420436F6E76657273699C
S1132F926F6E0052485F542053746172742046610C
S1132FA2696C65640052485F54205374616C6520F7
S1132FB244617461005248203D20256C64202854E9
S1132FC2656E746873206F66206120506572636554
S1132FD26E74290A0054203D20256C6420286875EB
S1132FE26E647265746873206F662061204465673D
S1132FF2726565290A0061646332353138203D20E7
S11330023078253458253032580A00307825303249
S1133012782C203078253032780A00696E20525498
S1133022435F636F6E66696728293B00726561645A
S1133032205254432025643A256420200077726983
S113304274653A203078253258200A004552524F8E
S1133052523A20636C6F636B204672657175656EBC
S11330626379206E6F7420617420313032342048C9
S11330725A2100307825325800756E697853656399
S11330826F6E6473203D20256C75004255434B20BE
S1133092444143202020307825582076616C7565A0
S11330A2203D2030782533582E20202030782530BA
S11330B2327820203078253032780A004F707469D3
S11330C263732044414320307825582076616C751F
S11330D265203D2030782533582E20202030782555
S11330E230327820203078253032780A00696E2018
S11330F24F70746963734461632042726F61644305
S113310261737400696E204255434B20446163200D
S113311242726F6164436173740046572045525290
S11331224F522C2077726974696E672070617374D0
S113313220656E64206F66204652414D002558205A
S11331423A202558203A202558203A2025580A00AA
S113315225582025582025582025580A00534E3A30
S113316225750A006572726F722072656164696EF8
S113317267206D7578206368616E6E656C00776890
S11331826963684D55586368203D202564200A0010
S113319220656C20004552524F52202D20536574F5
S11331A274696E67204D5558204368616E6E656C74
S11331B2203D2025640A004552524F52202D20669C
S11331C261696C656420746F20636F6E6669726DE9
S11331D2204D5558206368616E6E656C2E0D00207B
S11331E2656D20004552524F52202D20696E766142
S11331F26C6964204D5558204368616E6E656C207D
S11332023D2025640D0A0000000000545749207334
S1133212746174757320636F64652025730A0054A6
S11332225749206572726F7220636F646520255856
S11332320A007477692073746172742074696D650D
S11332426F75742E2E2E200D0074776920737461AD
S113325272742077726F6E67207374617475732051
S113326225642E2E2E200D0A006279746520736562
S11332726E7420737461747573203D203D3078251B
S11332823032580A007477694572726F720045527F
S1133292524F522072656164206661696C656420D4
S11332A277697468202564206279746573206C657B
S11332B266742C207374617475733D3078253032D2
S11332C2580D0A002E2E2E2E2E0A2E2E2E2E0A2EA9
S11332D22E2E0A2E00696E697469616C697A6564BE
S11332E200202020203A2025730A00676F7420559D
S11332F26172743120434F6D706C6574653A257345
S1133302200A00623F006261756400393630300081
S10D33123131356B003436306B00A6
S9030000FC
