:100000000C94C60A0C94E70A0C94E70A0C94E70ACD
:100010000C94E70A0C94E70A0C94E70A0C94E70A9C
:100020000C9481120C94E70A0C94E70A0C94E70AEA
:100030000C94E70A0C948B120C94E70A0C94E70AD0
:100040000C94E70A0C94E70A0C94E70A0C94E70A6C
:100050000C94E70A0C94E70A0C94E70A0C94E70A5C
:100060000C94E70A0C944A210C94E70A0C94E70AD2
:100070000C94E70A0C9416140C94E70A0C94E70A03
:100080000C94E70A0C94E70A0C94E70A0C94E70A2C
:100090000C9429220C94E70A0C94E70A0C94E70AC2
:1000A0000C94E70A0C94E70A0C94E70A0C94E70A0C
:1000B0000C94E70A0C94E70A0C94E70A0C94E70AFC
:1000C0000C94E70A0C94E70A0C94E70A0C94E70AEC
:1000D0000C94E70A0C94E70A0C94E70A0C94E70ADC
:1000E0000C94E70A6E616E00696E660000407A103B
:1000F000F35A00A0724E18090010A5D4E80000E8D9
:100100007648170000E40B54020000CA9A3B000036
:1001100000E1F505000080969800000040420F00C5
:100120000000A08601000000102700000000E80386
:10013000000000006400000000000A000000000051
:100140000100000000002C76D888DC674F0823DF10
:10015000C1DFAE59E1B1B796E5E3E453C63AE651E3
:10016000997696E8E6C28426EB898C9B62ED407C0A
:100170006FFCEFBC9C9F40F2BAA56FA5F490055AA6
:100180002AF75C936B6CF9676DC11BFCE0E40D47CB
:10019000FEF520E6B500D0ED902E030094357705EE
:1001A0000080841E080000204E0A000000C80C33A6
:1001B0003333330F986E12831141EF8D2114893B35
:1001C000E65516CFFEE6DB18D1844B381BF77C1DB5
:1001D000901DA4BBE424203284725E228100C9F108
:1001E00024ECA1E53D27464C4153482077726974C1
:1001F00065206661696C65640A00464C415348207D
:1002000072656164206661696C65640A00756E6B75
:100210006E6F776E2041444332353138206F7363FF
:10022000696C61746F7253706565640A004F535254
:100230003A206C6F673273616D706C6573203E207D
:1002400037000A00256420004552524F523A204E92
:100250006F20414443204368616E6E656C7320617A
:1002600063746976650A000A5374616C6520507284
:1002700065737375726520496E7465726E616C206A
:100280004661756C742025640A000A5374616C65BC
:100290002050726573737572652052656164696E72
:1002A000672025640A000A53656E736F7220256407
:1002B00020696E2050726F6772616D6D696E672084
:1002C0004D6F64650A007370695F466C61736857AF
:1002D00072697465546F506167653A20466C61734A
:1002E00068206E657665722072656164792061664A
:1002F0007465722064617461206C6F61640A0073BC
:1003000070695F466C6173685772697465546F50A9
:100310006167653A20466C6173682077696C6C2070
:100320006E6F7420656E61626C65207772697465AA
:100330000A007370695F466C61736857726974650F
:10034000546F506167653A20466C617368206E6532
:100350007665722072656164790A007370695F4620
:100360006C6173685772697465546F506167653A60
:10037000206275666665722063726F7373657320A1
:100380007061676520626F756E646172790A0073CF
:1003900070695F466C61736857726974653A2032A0
:1003A0006E6420706167652077726974652066618C
:1003B000696C65640A007370695F466C61736857A5
:1003C000726974653A2031737420706167652077B3
:1003D00072697465206661696C65640A0049206110
:1003E0006D207468652076657279206D6F64656C28
:1003F000206F662061206D6F6465726E204D616AAA
:100400006F722D47656E6572616C0A000000000016
:100410000000000000000000000000492776652071
:10042000696E666F726D6174696F6E20766567655F
:100430007461626C652C20616E696D616C2C206149
:100440006E64206D696E6572616C0A0000000000C8
:1004500000000000000000000049206B6E6F772054
:10046000746865206B696E6773206F6620456E67E0
:100470006C616E642C20616E6420492071756F740C
:100480006520746865206669676874730A000000F7
:1004900000000000000000486973746F72696361B6
:1004A0006C0A0000000000000000000000000000D6
:1004B000000000000000000000000000000000003C
:1004C000000000000000000000000000000000002C
:1004D000000000000046726F6D204D61726174680B
:1004E0006F6E20746F2057617465726C6F6F2C2073
:1004F000696E206F726465722063617465676F72E4
:100500006963616C0A000000000000000000000048
:1005100000000049276D20766572792077656C6C44
:10052000206163717561696E7465642C20746F6FEE
:100530002C2077697468206D6174746572730A0089
:1005400000000000000000000000000000000000AB
:10055000004D617468656D61746963616C0A0000C7
:10056000000000000000000000000000000000008B
:10057000000000000000000000000000000000007B
:100580000000000000000000000000000000004922
:1005900020756E6465727374616E64206571756137
:1005A00074696F6E732C20626F74682074686520A4
:1005B00073696D706C6520616E6420717561647221
:1005C00061746963616C0A00000000000041626FA1
:1005D00075742062696E6F6D69616C207468656FF7
:1005E00072656D2049276D207465656D696E6720A1
:1005F000776974682061206C6F74206F27206E65A6
:1006000077730A000000000000000057697468203A
:100610006D616E7920636865657266756C206661D0
:100620006374732061626F757420746865207371E0
:1006300075617265206F66207468650A00000000AD
:100640000000000000000000004879706F74656EC3
:100650007573650A00000000000000000000000043
:10066000000000000000000000000000000000008A
:10067000000000000000000000000000000000007A
:100680000000000000000057697468206D616E79F9
:1006900020636865657266756C206661637473209B
:1006A00061626F757420746865207371756172651D
:1006B000206F66207468650A0000000000000000DA
:1006C00000000000004879706F74656E7573650AEC
:1006D000000000000000000000000000000000001A
:1006E000000000000000000000000000000000000A
:1006F00000000000000000000000000000000000FA
:1007000000000057697468206D616E792063686528
:10071000657266756C2066616374732061626F75C3
:10072000742074686520737175617265206F66202E
:100730007468650A0000000000000000000000006E
:10074000004879706F74656E7573650A000000006B
:100750000000000000000000000000000000000099
:100760000000000000000000000000000000000089
:100770000000000000000000000000000000005722
:10078000697468206D616E7920636865657266754D
:100790006C2066616374732061626F757420746885
:1007A0006520737175617265206F66207468650AD3
:1007B0000000000000000000000000000048797008
:1007C0006F7465706F74656E7573650A0000000064
:1007D0000000000000000000000000000000000019
:1007E0000000000000000000000000000000000009
:1007F000000000000000000000000049276D207686
:1008000065727920676F6F6420617420696E74650A
:100810006772616C20616E642064696666657265EA
:100820006E7469616C2063616C63756C75730A002A
:1008300000000000000000000049206B6E6F772070
:1008400074686520736369656E7469666963206E98
:10085000616D6573206F66206265696E67732061E4
:100860006E696D616C63756C6F75730A00000000D2
:1008700000000000000000496E2073686F72742C45
:1008800020696E206D61747465727320766567658A
:100890007461626C652C20616E696D616C2C2061E5
:1008A0006E64206D696E6572616C0A000000000064
:1008B00000000000004920616D20746865207665A5
:1008C0007279206D6F64656C206F662061206D6F9A
:1008D0006465726E204D616A6F722D47656E657238
:1008E000616C0A0000000000000000000000000031
:1008F000000000496E2073686F72742C20696E20AE
:100900006D61747465727320766567657461626C7D
:10091000652C20616E696D616C2C20616E64206DA8
:10092000696E6572616C0A00000000000000000042
:1009300000486520697320746865207665727920A7
:100940006D6F64656C206F662061206D6F646572E9
:100950006E204D616A6F722D47656E6572616C0A1B
:10096000000000000000000000000000000000493E
:10097000206B6E6F77206F7572206D797468696374
:1009800020686973746F72792C204B696E672041FF
:100990007274687572277320616E64205369720ADD
:1009A0000000000000000000000000000043617231
:1009B00061646F6327730A000000000000000000FC
:1009C0000000000000000000000000000000000027
:1009D0000000000000000000000000000000000017
:1009E00000000000000000000000004920616E735C
:1009F0007765722068617264206163726F737469D5
:100A000063732C20492776652061207072657474A9
:100A10007920746173746520666F720A00000000AB
:100A200000000000000000000050617261646F78F7
:100A30000A000000000000000000000000000000AC
:100A400000000000000000000000000000000000A6
:100A50000000000000000000000000000000000096
:100A600000000000000000492071756F7465206966
:100A70006E20656C65676961637320616C6C2074BE
:100A80006865206372696D6573206F662048656CC8
:100A9000696F676162616C75730A00000000000095
:100AA0000000000000496E20636F6E696373204987
:100AB0002063616E20666C6F6F7220706563756C69
:100AC00069617269746965732070617261626F6CCB
:100AD0006F75730A000000000000000000000000B5
:100AE000000000492063616E2074656C6C20756E97
:100AF000646F7562746564205261706861656C73BF
:100B00002066726F6D2047657261726420446F7752
:100B10007320616E640A0000000000000000000005
:100B2000005A6F6666616E6965730A000000000016
:100B300000000000000000000000000000000000B5
:100B400000000000000000000000000000000000A5
:100B5000000000000000000000000000000000494C
:100B6000206B6E6F77207468652063726F616B69AC
:100B70006E672063686F7275732066726F6D207484
:100B800068652046726F6773206F660A0000000078
:100B90000000000000000000000000000041726939
:100BA00073746F7068616E65730A00000000000066
:100BB0000000000000000000000000000000000035
:100BC0000000000000000000000000000000000025
:100BD00000000000000000000000005468656E2066
:100BE000492063616E2068756D20612066756775A8
:100BF00065206F66207768696368204927766520DD
:100C0000686561726420746865206D757369632717
:100C1000730A0000000000000044696E2061666FE6
:100C200072650A00000000000000000000000000E3
:100C300000000000000000000000000000000000B4
:100C400000000000000000000000000000000000A4
:100C500000000000000000416E6420776869737432
:100C60006C6520616C6C207468652061697273200A
:100C700066726F6D207468617420696E6665726E4D
:100C8000616C206E6F6E73656E73650A0000000004
:100C9000000000000050696E61666F72650A000016
:100CA0000000000000000000000000000000000044
:100CB0000000000000000000000000000000000034
:100CC0000000000000000000000000000000000024
:100CD000000000416E642077686973746C65206160
:100CE0006C6C2074686520616972732066726F6D28
:100CF000207468617420696E6665726E616C206E26
:100D00006F6E73656E73650A0000000000000000DE
:100D10000050696E61666F72650A00000000000095
:100D200000000000000000000000000000000000C3
:100D300000000000000000000000000000000000B3
:100D40000000000000000000000000000000004162
:100D50006E642077686973746C6520616C6C2074B4
:100D6000686520616972732066726F6D20746861B6
:100D70007420696E6665726E616C206E6F6E73654D
:100D80006E73650A00000000000000000050696EEC
:100D900061666F72650A000000000000000000003C
:100DA0000000000000000000000000000000000043
:100DB0000000000000000000000000000000000033
:100DC0000000000000000000000000416E64207779
:100DD000686973746C6520616C6C2074686520614F
:100DE0006972732066726F6D207468617420696E19
:100DF0006665726E616C206E6F6E73656E73650AE8
:100E000000000000000000000050696E6170696E13
:100E100061666F72650A00000000000000000000BB
:100E200000000000000000000000000000000000C2
:100E300000000000000000000000000000000000B2
:100E4000000000000000005468656E2049206361C6
:100E50006E20777269746520612077617368696EAE
:100E6000672062696C6C20696E20426162796C6FE8
:100E70006E69632063756E6569666F726D0A000046
:100E80000000000000416E642074656C6C20796F76
:100E9000752065762772792064657461696C206FAE
:100EA0006620436172616374616375732773207593
:100EB0006E69666F726D0A0000000000000000009D
:100EC000000000496E2073686F72742C20696E20D8
:100ED0006D61747465727320766567657461626CA8
:100EE000652C20616E696D616C2C20616E64206DD3
:100EF000696E6572616C0A0000000000000000006D
:100F0000004920616D207468652076657279206DD6
:100F10006F64656C206F662061206D6F6465726E12
:100F2000204D616A6F722D47656E6572616C0A00B3
:100F30000000000000000000000000000000004968
:100F40006E2073686F72742C20696E206D617474EA
:100F500065727320766567657461626C652C2061CB
:100F60006E696D616C2C20616E64206D696E6572B6
:100F7000616C0A00000000000000000000486520CD
:100F80006973207468652076657279206D6F646579
:100F90006C206F662061206D6F6465726E204D61FC
:100FA0006A6F722D47656E6572616C0A0000000001
:100FB0000000000000000000000000496E20666193
:100FC00063742C207768656E2049206B6E6F7720E4
:100FD00077686174206973206D65616E7420627931
:100FE00020276D616D656C6F6E2720616E640A004D
:100FF00000000000000000000027526176656C6967
:101000006E270A0000000000000000000000000041
:1010100000000000000000000000000000000000D0
:1010200000000000000000000000000000000000C0
:10103000000000000000005768656E2049206361D1
:101040006E2074656C6C206174207369676874200D
:1010500061204D6175736572207269666C652066EA
:10106000726F6D2061206A6176656C696E0A00009E
:1010700000000000005768656E207375636820618A
:1010800066666169727320617320736F727469653B
:101090007320616E6420737572707269736573205A
:1010A00049276D206D6F72650A0000000000000086
:1010B000000000576172792061740A00000000008E
:1010C0000000000000000000000000000000000020
:1010D0000000000000000000000000000000000010
:1010E0000000000000000000000000000000000000
:1010F00000416E64207768656E2049206B6E6F77C3
:1011000020707265636973656C79207768617420FB
:101110006973206D65616E742062790A00000000B9
:101120000000000000000000000000000000002798
:10113000436F6D6D6973736172696174270A000092
:10114000000000000000000000000000000000009F
:10115000000000000000000000000000000000008F
:10116000000000000000000000000000005768655B
:101170006E20492068617665206C6561726E74200E
:10118000776861742070726F67726573732068612D
:1011900073206265656E206D61646520696E0A006A
:1011A00000000000000000000000004D6F64657248
:1011B0006E2067756E6E6572790A0000000000008F
:1011C000000000000000000000000000000000001F
:1011D000000000000000000000000000000000000F
:1011E0000000000000000000005768656E204920E4
:1011F0006B6E6F77206D6F7265206F662074616310
:1012000074696373207468616E2061206E6F766903
:10121000636520696E2061206E756E6E6572790A55
:1012200000000000000000496E2073686F72742C8B
:10123000207768656E2049277665206120736D618F
:1012400074746572696E67206F6620656C656D6584
:101250006E74616C2073747261746567790A000042
:101260000000000000596F75276C6C2073617920B5
:101270006120626574746572204D616A6F722D47DA
:10128000656E6572616C20686164206E657665725A
:10129000207361742061206765650A00000000000A
:1012A000000000596F75276C6C20736179206120F4
:1012B000626574746572204D616A6F722D47656E48
:1012C0006572616C20686164206E6576657220735A
:1012D00061742061206765650A000000000000005D
:1012E00000596F75276C6C207361792061206265ED
:1012F00074746572204D616A6F722D47656E6572F8
:10130000616C20686164206E65766572207361741B
:101310002061206765650A00000000000000005998
:101320006F75276C6C20736179206120626574741D
:101330006572204D616A6F722D47656E6572616CD2
:1013400020686164206E6576657220736174206127
:101350002073617420610A00000000000047656589
:101360000A00000000000000000000000000000073
:10137000000000000000000000000000000000006D
:10138000000000000000000000000000000000005D
:101390000000000000000000000000466F72206D99
:1013A00079206D696C6974617279206B6E6F776CEE
:1013B000656467652C2074686F7567682049276DC0
:1013C00020706C75636B7920616E640A0000000008
:1013D000000000000000000000416476656E747536
:1013E00072790A0000000000000000000000000008
:1013F00000000000000000000000000000000000ED
:1014000000000000000000000000000000000000DC
:1014100000000000000000486173206F6E6C7920AE
:101420006265656E2062726F7567687420646F779D
:101430006E20746F2074686520626567696E6E69DE
:101440006E67206F66207468650A00000000000067
:10145000000000000043656E747572790A00000098
:10146000000000000000000000000000000000007C
:10147000000000000000000000000000000000006C
:10148000000000000000000000000000000000005C
:10149000000000427574207374696C6C2C20696EB6
:1014A000206D61747465727320766567657461621E
:1014B0006C652C20616E696D616C2C20616E6420FE
:1014C0006D696E6572616C0A00000000000000002A
:1014D000004920616D207468652076657279206D01
:1014E0006F64656C206F662061206D6F6465726E3D
:1014F000204D616A6F722D47656E6572616C0A00DE
:101500000000000000000000000000000000004299
:101510007574207374696C6C2C20696E206D617415
:101520007465727320766567657461626C652C20E2
:10153000616E696D616C2C20616E64206D696E65F1
:1015400072616C0A00000000000000000048652085
:101550006973207468652076657279206D6F6465A3
:101560006C206F662061206D6F6465726E204D6126
:101570006A6F722D47656E6572616C0A000000002B
:1015800000000000000000000000000011241FBE49
:10159000CFEFD1E2DEBFCDBF00E00CBF18E0A0E08E
:1015A000B2E0E0E6F4E500E00BBF02C007900D9268
:1015B000AE3FB107D9F72AE0AEEFB8E001C01D9207
:1015C000A933B207E1F70E9442200C942E2A0C9412
:1015D0000000CF93DF93CDB7DEB72A970FB6F8940C
:1015E000DEBF0FBECDBF8091130A813409F045C024
:1015F0008091140A833711F4F7D72AC08091140A16
:101600008D3619F40E945C1323C08091140A83362E
:1016100031F48091150A80530E94601319C08091A3
:10162000140A8F3631F48091150A80530E942F13CB
:101630000FC08091140A8C3621F481E00E9440137F
:1016400007C08091140A883619F480E00E94401384
:1016500083E19AE0892F8F9383E19AE08F938FE063
:1016600092E0892F8F938FE092E08F930E946129FF
:101670000F900F900F900F906DC28091130A8037DA
:1016800019F40E94031666C28091130A803519F47A
:101690000E94F5155FC268E172E083E19AE00E9462
:1016A0000029892B19F40E94111654C28091130A43
:1016B0008D3419F40E94D81D4DC28091130A8233D3
:1016C00039F484E19AE00E94F0270E94EF1D42C2A3
:1016D0008091130A823571F48091140A833511F4D4
:1016E0000E941F168091140A823509F033C20E94AD
:1016F000341630C28091130A823719F40E946E1B8F
:1017000029C28091130A8136B1F48091140A81367E
:1017100019F40E94C1131EC28091140A833719F470
:101720000E94C41417C28091140A843609F012C2B0
:101730000E9499140FC28091130A863409F062C086
:101740000E94C8178091140A873711F43BD202C255
:101750008091140A893619F40E948617FBC1809182
:10176000140A823711F4A4D2F5C18091140A81368B
:1017700011F42CD3EFC18091140A853611F414D3DF
:10178000E9C18091140A823411F418D3E3C1809125
:10179000140A833719F40E947318DCC18091140A6B
:1017A000883719F40E94571BD5C18091140A8236DC
:1017B00021F483E19AE0D8D1CDC18091140A843715
:1017C00011F430D3C7C18091140A813311F493D539
:1017D000C1C18091140A823311F495D5BBC18091A7
:1017E000140A833311F485D6B5C18091140A843369
:1017F00011F439D6AFC18091140A8D3609F0AAC10F
:10180000EDD2A8C18091130A8636E9F48091140ABA
:10181000833719F40E94B11C9DC18091140A893646
:1018200019F40E94181D96C18091140A8A3619F481
:101830000E94451D8FC18091140A853609F08AC126
:101840000E94AC1C87C18091130A8337F9F4809100
:101850000002882F90E00E94881D8091000291E094
:10186000980F90930002882F90E0292F2F938F9349
:101870008CE192E0892F8F938CE192E08F930E940C
:1018800061290F900F900F900F9064C18091130AFF
:101890008E3619F40E94941D5DC18091130A83361F
:1018A00019F40E94B41B56C18091130A853691F534
:1018B0008091140A803341F08091140A813321F021
:1018C0008091140A843331F40E94061783E292E077
:1018D0000E94A0298091140A823331F40E941217C9
:1018E00080E492E00E94A0298091140A833331F4AD
:1018F0000E941A1784E592E00E94A0298091140AA0
:10190000853309F027C10E9422178BE692E00E94DE
:10191000A02920C18091130A843651F58091140AC0
:10192000803331F40E940C1782E892E00E94A029D3
:101930008091140A823331F40E94161780EA92E0F3
:101940000E94A0298091140A833331F40E941E174B
:1019500085EB92E00E94A0298091140A853309F05A
:10196000F9C00E9428178DEC92E00E94A029F2C0D5
:101970008091130A8F3641F58091140A882F90E0E8
:10198000AC01405351092FEF31E0429FC001439F0A
:10199000900D529F900D11249A83898389819A8199
:1019A0000E94881C8A818F9389818F9385EE92E0B3
:1019B000892F8F9385EE92E08F930E9461290F907B
:1019C0000F900F900F90C6C08091130A8F3441F58D
:1019D0008091140A80538B838B81883008F0BAC0C1
:1019E0008091150A882F90E0805D9F459D838C83B0
:1019F0008C819D81BC018B810E94511C8D818F93B4
:101A00008C818F938CEE92E0892F8F938CEE92E0F5
:101A10008F930E9461290F900F900F900F909AC0A2
:101A20008091130A823659F585EF92E00E94A02931
:101A30008091140A882F90E0C097AC012FEF31E01D
:101A4000429FC001439F900D529F900D11249F8390
:101A50008E838E819F810E949A1C8F818F938E81AD
:101A60008F9385EE92E0892F8F9385EE92E08F938E
:101A70000E9461290F900F900F900F906BC0809182
:101A8000130A823489F58091140A805388878885E7
:101A9000883008F05FC08091150A882F90E0C097C9
:101AA000AC012FEF31E0429FC001439F900D529F48
:101AB000900D11249A87898789859A85BC0188852C
:101AC0000E941A1C8A858F9389858F9385EE92E0F8
:101AD000892F8F9385EE92E08F930E9461290F905A
:101AE0000F900F900F9036C08091130A873769F4DA
:101AF0008091140A813311F40E942E178091140AE8
:101B0000803341F50E94321725C08091130A8D362B
:101B100069F48091140A813311F40E947A1780913C
:101B2000140A8033B9F40E94801714C083E19AE04C
:101B3000892F8F9383E19AE08F9389EF92E0892F29
:101B40008F9389EF92E08F930E9461290F900F90FD
:101B50000F900F9000002A960FB6F894DEBF0FBECC
:101B6000CDBFDF91CF910895CF93DF9300D01F9227
:101B7000CDB7DEB79C838B838B819C8103960E94BB
:101B8000F0279A8389838A818F9389818F9386E056
:101B900093E0892F8F9386E093E08F930E946129D1
:101BA0000F900F900F900F9089819A819093FF086A
:101BB0008093FE0800000F900F900F900F90DF9120
:101BC000CF910895CF93DF93CDB7DEB7C25DD10932
:101BD0000FB6F894DEBF0FBECDBF8CE193E09887BF
:101BE0008F83CE010B969A87898719821A821B826E
:101BF0001C821D824EC01E8224C08E81282F30E0A0
:101C00009E818DEC989F812D1124869586958695D1
:101C1000880F482F440F440F840F492F481B842FEF
:101C2000882F90E04F815885840F951FFC014081DB
:101C3000CE010B96820F931FFC0140838E818F5F34
:101C40008E838E81883CC8F249855A8589819A8124
:101C5000AB81BC8128ECBC01CD010E94B519883C48
:101C600049F086EE91E0292F2F938F930E947429DB
:101C70000F900F9089819A81AB81BC8188539F4FCF
:101C8000AF4FBF4F89839A83AB83BC838D818F5FB6
:101C90008D838D818A3008F4AECF0000CE52DF4FA5
:101CA0000FB6F894DEBF0FBECDBFDF91CF91089580
:101CB000CF93DF93CDB7DEB7C15DD1090FB6F894EE
:101CC000DEBF0FBECDBFCE01099698878F831982E4
:101CD0001A821B821C8287E293E00E94A0291D8247
:101CE00054C01E820DC08E81882F90E09E01275F18
:101CF0003F4F820F931FFC0110828E818F5F8E8376
:101D00008E81883C80F38D81882F90E0292F2F933E
:101D10008F938BE393E0892F8F938BE393E08F93E3
:101D20000E9461290F900F900F900F904F8158855E
:101D300089819A81AB81BC8128ECBC01CD010E94D4
:101D4000B61A883C51F08AEF91E0292F2F938F9398
:101D50000E9474290F900F9009C0CE018F529F4F9F
:101D6000FC011082CE0109960E94A02989819A81E6
:101D7000AB81BC8188539F4FAF4FBF4F89839A83FC
:101D8000AB83BC838D818F5F8D838D818A3008F416
:101D9000A8CF0000CF52DF4F0FB6F894DEBF0FBEC2
:101DA000CDBFDF91CF910895CF93DF93CDB7DEB74D
:101DB0000E94DA1A0000DF91CF910895CF93DF934C
:101DC000CDB7DEB70000DF91CF910895CF93DF93B9
:101DD000CDB7DEB70000DF91CF910895CF93DF93A9
:101DE000CDB7DEB79091000981E0992309F080E03A
:101DF0008093000980910009882F90E0292F2F936C
:101E00008F938AE493E0892F8F938AE493E08F93F2
:101E10000E9461290F900F900F900F900000DF91AA
:101E2000CF910895CF93DF93CDB7DEB7C559D109D0
:101E30000FB6F894DEBF0FBECDBF80E090E0A4E007
:101E4000B0E08F87988BA98BBA8B1D821E821F8270
:101E5000188619861A861B861C861E861D8680E0BB
:101E600094E1A0E0B0E08B8B9C8BAD8BBE8B8F851B
:101E70009889A989BA89BA2FA92F982F8827898389
:101E80009A83AB83BC83E2C08D850E947E20988FAD
:101E90008F8B8F89988D9C01990F440B550B8D81E9
:101EA0009E81AF81B885280F391F4A1F5B1F8B8920
:101EB0009C89AD89BE8982179307A407B50708F4EA
:101EC000D4C08D859E859C012F5F3F4F3E872D8717
:101ED000282FCE014A96BC01822F0E947220CE018B
:101EE0004A960E940929282FAE01465E5F4F8981DC
:101EF0009A81AB81BC81BC01CD010E94B519898F4B
:101F0000898D282F30E08F89988D2817390709F09F
:101F100051C0CE014A96292F2F938F938C818F9396
:101F20008B818F938A818F9389818F938AE593E048
:101F3000892F8F938AE593E08F930E9461298DB753
:101F40009EB708960FB6F894DEBF0FBECDBF0E94B5
:101F500073188F89988D092E000CAA0BBB0B2D814D
:101F60003E814F815885820F931FA41FB51F8D831B
:101F70009E83AF83B8878F89988D092E000CAA0B9A
:101F8000BB0B29813A814B815C81820F931FA41F77
:101F9000B51F89839A83AB83BC830E947020282F4E
:101FA00030E08D859E85821793070CF44FC01E8606
:101FB0001D864CC0888D8F938F898F938C818F93D2
:101FC0008B818F938A818F9389818F9388E793E0A8
:101FD000892F8F9388E793E08F930E946129EDB753
:101FE000FEB738960FB6F894DEBF0FBECDBF8F890F
:101FF000988D092E000CAA0BBB0B2D813E814F81C1
:102000005885820F931FA41FB51F8D839E83AF83B6
:10201000B8878F89988D092E000CAA0BBB0B2981DC
:102020003A814B815C81820F931FA41FB51F898366
:102030009A83AB83BC830E947020282F30E08D856B
:102040009E858217930714F01E861D862D813E8182
:102050004F8158858B899C89AD89BE89281739079E
:102060004A075B0708F410CF01C000008F859889EC
:10207000A989BA89BA2FA92F982F882789839A838B
:10208000AB83BC831E861D861BC18D850E947E206E
:10209000988F8F8B8F89988D9C01990F440B550BCE
:1020A00089859A85AB85BC85280F391F4A1F5B1F20
:1020B0008B899C89AD89BE8982179307A407B507D0
:1020C00008F40DC18D859E859C012F5F3F4F3E8793
:1020D0002D87282FCE01885A9F4FBC01822F0E9446
:1020E00072202F89AE01465E5F4F89819A81AB8154
:1020F000BC81BC01CD010E94B61A282F30E08F8927
:10210000988D2817390709F08FC09E01265E3F4F32
:102110008F89988D820F931FFC0110829E01285A8F
:102120003F4FCE014A96B9010E940029892BC9F47C
:102130008C818F938B818F938A818F9389818F93E9
:1021400080EA93E0892F8F9380EA93E08F930E9437
:1021500061290F900F900F900F900F900F90C3D7A1
:1021600032C08C818F938B818F938A818F938981E9
:102170008F938EEB93E0892F8F938EEB93E08F9369
:102180000E9461290F900F900F900F900F900F9069
:10219000AAD7CE01885A9F4F292F2F938F93CE0114
:1021A0004A96292F2F938F938CED93E0892F8F934D
:1021B0008CED93E08F930E9461290F900F900F9008
:1021C0000F900F900F908F89988D092E000CAA0BFD
:1021D000BB0B29853A854B855C85820F931FA41F15
:1021E000B51F89879A87AB87BC878F89988D092E01
:1021F000000CAA0BBB0B29813A814B815C81820FB9
:10220000931FA41FB51F89839A83AB83BC830E944D
:102210007020282F30E08D859E85821793070CF45F
:102220004FC01E861D864CC08E858F938D858F93E3
:102230008C818F938B818F938A818F9389818F93E8
:1022400083EE93E0892F8F9383EE93E08F930E9428
:1022500061298DB79EB708960FB6F894DEBF0FBE02
:10226000CDBF8F89988D092E000CAA0BBB0B298539
:102270003A854B855C85820F931FA41FB51F898704
:102280009A87AB87BC878F89988D092E000CAA0B83
:10229000BB0B29813A814B815C81820F931FA41F64
:1022A000B51F89839A83AB83BC830E947020282F3B
:1022B00030E08D859E858217930714F01E861D865B
:1022C00029853A854B855C858B899C89AD89BE893A
:1022D000281739074A075B0708F4D7CE01C000006A
:1022E0000000CB56DF4F0FB6F894DEBF0FBECDBF58
:1022F000DF91CF910895CF93DF93CDB7DEB7000084
:10230000DF91CF910895CF93DF93CDB7DEB7E097FC
:102310000FB6F894DEBF0FBECDBF80E090E0A4E022
:10232000B0E08B879C87AD87BE878B859C85AD850C
:10233000BE85BA2FA92F982F882789839A83AB83CC
:10234000BC8382E090E0988B8F871A86198679C0CB
:1023500018861F826AC01E821D820EC09E012F5EDB
:102360003F4F8D819E81820F931FFC0110828D81D2
:102370009E8101969E838D838D819E81809774F3CB
:10238000AE014F5E5F4F89819A81AB81BC8120E2B3
:10239000BC01CD010E94B61A8C818F938B818F93E3
:1023A0008A818F9389818F938DE094E0892F8F9319
:1023B0008DE094E08F930E9461290F900F900F9011
:1023C0000F900F900F9089819A81AB81BC8180968C
:1023D000A11DB11D89839A83AB83BC831E821D829C
:1023E00012C09E012F5E3F4F8D819E81820F931FF1
:1023F000FC018081882F90E00E949B298D819E8125
:1024000001969E838D838D819E81809754F3CE01AA
:10241000419660E270E02FD08AE090E00E949B2914
:102420008F819885809698878F838F8198858F3F3D
:10243000910509F00CF48FCF89859A8501969A87CA
:10244000898729853A858F859889281739070CF45B
:102450007FCF0000E0960FB6F894DEBF0FBECDBF71
:10246000DF91CF910895CF93DF93CDB7DEB7000012
:10247000DF91CF910895CF93DF9300D0CDB7DEB732
:102480009A8389836B831092000223C0809100029B
:10249000882F90E029813A81820F931FFC0180816F
:1024A000082E000C990B9927292F2F938F938CE1DD
:1024B00094E0892F8F938CE194E08F930E9461299F
:1024C0000F900F900F900F90809100028F5F80937C
:1024D0000002909100028B819817C0F28AE090E090
:1024E0000E949B2900000F900F900F90DF91CF91D9
:1024F0000895CF93DF93CDB7DEB70000DF91CF9182
:1025000008951F920F920FB60F9211240F900FBED5
:102510000F901F9018951F920F920FB60F921124D3
:102520002F938F939F938FB78F778FBF88B18058EA
:1025300088B9809105099091060901969093060942
:1025400080930509809105099091060981159240B3
:1025500019F481E08093030980910509909106099F
:1025600081159440A8F08091050990910609945036
:10257000909306098093050981E080930409809176
:102580000109909102090196909302098093010933
:1025900078949F918F912F910F900FBE0F901F9065
:1025A000189589E794E00E94A02980E88093610053
:1025B00082E08093B00084E08093B10080EE80934D
:1025C000B3001092B200E0E7F0E080818260808387
:1025D0000895E7DF80EC80936A0080E88DBB8DE88A
:1025E00094E00C94A029089560E080E0CDD31F9280
:1025F0008F9389EA94E09F938F930E9461290F90B3
:102600000F900F900F900895CF93DF93D82FC62F80
:10261000883010F4623040F08BEB94E09F938F93FE
:102620000E9461290F900F90CC2331F061E001C02E
:10263000660FDA95EAF701C060E08BE096D3DF9190
:10264000CF91089560E485E090D360E487E08DD376
:1026500060E489E08AD360E086E0D6CF0895CF9326
:10266000C82F883040F08DE292E09F938F930E94B4
:1026700074290F900F906C2F83E077D3CF9108953A
:10268000CF93C82F60E084E07FD3C11103C0682FCF
:102690006F7E0EC0C13019F4682F606109C08DE0F3
:1026A00092E09F938F930E9474290F900F9002C025
:1026B00084E05BD3CF91089560E080E156C3089534
:1026C0001F93CF93DF93182F682F81E175D3D82FF5
:1026D000C92F282F392FA0E5B3EC0E94AF270E9405
:1026E0000C2320E030E040E859E30E9470230E9470
:1026F000DE227F936F93CF93DF931F921F9382ED20
:1027000094E09F938F930E9461298DB79EB708969E
:102710000FB6F8949EBF0FBE8DBF8D2F9C2FDF91FB
:10272000CF911F910895CF93DF93C82F20E013C05E
:10273000CF5FCF70209181093091820981E090E0D4
:102740000C2E02C0880F991F0A94E2F7822393236C
:102750002D2F892B21F4D1E0D20F213148F3D13133
:1027600041F488E492E09F938F930E9474290F9024
:102770000F90D13111F08C2F01C08FEFDF91CF91ED
:102780000895CF93C0E01DC0209181093091820946
:1027900081E090E00C2E02C0880F991F0A94E2F7A6
:1027A00082239323892B61F01F92CF9384E492E0DC
:1027B0009F938F930E9474290F900F900F900F900A
:1027C000CF5FC03108F382E492E09F938F930E9421
:1027D0007429E1E8F9E081818F9380818F9383EF01
:1027E00094E09F938F930E9461290F900F900F9018
:1027F0000F900F900F90CF91089595DFECE7F0E0E8
:102800009081907E90839081282F2770922B9083C7
:1028100083FF06C0EBE7F0E0908198609083089515
:10282000EBE7F0E09081977F908308951F920F92DD
:102830000FB60F9211240BB60F922F933F934F9325
:102840005F936F937F938F939F93AF93BF93EF9318
:10285000FF932091780040910909642F042E000C09
:10286000770BFB01EE0FFF1FE45FF64F8081918134
:10287000DC01A20FB11D9D01B183A083A9E7B0E0E7
:102880009C91892F90E0982F8827820F931F918326
:1028900080833C912C919F938F931F923F931F9223
:1028A0002F937F934F9388E095E09F938F930E949F
:1028B000612980910909A1DF8093090990910A0992
:1028C0002DB73EB7265F3F4F0FB6F8943EBF0FBE01
:1028D0002DBF891312C080910709909108090196B4
:1028E0009093080980930709019739F481E0809358
:1028F0000B09109208091092070980910B098111A8
:1029000005C0EAE7F0E0808180648083FF91EF9169
:10291000BF91AF919F918F917F916F915F914F91F7
:102920003F912F910F900BBE0F900FBE0F901F90F5
:102930001895CF93C0910A098AE090E00E949B29E4
:102940008C2F0C2E000C990BFC01EE0FFF1FE45F87
:10295000F64F81818F9380818F939F93CF938CE1EA
:1029600095E09F938F930E9461298C2FDCDEC82F06
:1029700080910A090F900F900F900F900F900F9079
:10298000C813DACFCF91089510920B0980910A09EC
:10299000E82FEE0FFF0BE45FF64F11821082C3DECB
:1029A00090910A098913F4CFEAE7F0E0808180640E
:1029B000808308958FE021DF8093090980930A09BD
:1029C0008F3F71F0EAE7F0E08081806480838FE8D8
:1029D00080838FEF80937E0080937F00D5CF089512
:1029E00087E295E09F938F930E9474290F900F9038
:1029F000089580913D091F928F938EE395E09F93F8
:102A00008F930E9461290F900F900F900F9008955F
:102A1000CF92DF92FF920F931F93CF93DF93CDB7A7
:102A2000DEB72A970FB6F894DEBF0FBECDBF19826E
:102A30001A821B821C82F92EC92ED12C1F929F93C1
:102A400005E515E01F930F930E9461298F2D0E94C9
:102A5000EF1D1F92FF921F930F930E94612944E084
:102A600050E0BE016F5F7F4F88E20E94641F898142
:102A7000982F92959695969593700FB6F894DEBF21
:102A80000FBECDBFC9F1913089F431E0C31AD1082E
:102A9000DF92CF9286EA92E09F938F930E947429EF
:102AA0000F900F900F900F9081E04EC0923089F4FC
:102AB00081E0C81AD108DF92CF928AE892E09F9312
:102AC0008F930E9474290F900F900F900F9081E0C8
:102AD0003BC09330C1F521E0C21AD108DF92CF92FA
:102AE00087E692E09F938F930E9474290F900F9036
:102AF0000F900F9081E028C08F7390E0982F882767
:102B00002A81820F911D2B8130E0220F331F220F6B
:102B1000331F220F331F4C81429546954770240F77
:102B2000311D3F932F939F938F9387E695E09F935B
:102B30008F930E9461290F900F900F900F900F902C
:102B40000F9080E001C081E02A960FB6F894DEBFB6
:102B50000FBECDBFDF91CF911F910F91FF90DF90FE
:102B6000CF900895CF93E8E3F9E0C1E0C48382E019
:102B700085833FDFE2E3F9E0C5831482ECE2F9E00C
:102B800083E08583C483409138095091390960916D
:102B90003A0970913B0980913C0990913D0938DFD9
:102BA00083E098E4FC013197F1F7FC013197F1F7EC
:102BB000FC013197F1F7FC013197F1F7FC013197F6
:102BC000F1F7FC013197F1F70197F1F740913209E4
:102BD000509133096091340970913509809136091B
:102BE0009091370915DFCF910895409138095091A0
:102BF000390960913A0970913B0980913C099091A3
:102C00003D0906CF089540913209509133096091F2
:102C10003409709135098091360990913709F8CEC1
:102C2000089540912C0950912D0960912E097091C1
:102C30002F098091300990913109EACE089540E042
:102C400060E070E087E20E94ED1E892B41F481E094
:102C500080933E098EE695E00C94A029089586E8BD
:102C600095E00C94A0290895CF92DF92EF92FF9205
:102C7000CF93DF9300D01F92CDB7DEB719821A82AF
:102C80001B821C8280913E09882309F463C0109244
:102C90003E0944E050E0BE016F5F7F4F87E20E9433
:102CA000641F892B29F086E895E00E94A02952C074
:102CB000A9818A2F829586958695837029F088E967
:102CC00095E00E94A02946C0AF73B0E0BA2FAA27B2
:102CD0008A81A82B28EE33E00E94BE270F2EFEEF3C
:102CE000CF2EFFE3DF2EE12CF12CF02DA701960172
:102CF0000E9493275F934F933F932F9388EA95E029
:102D00009F938F930E946129AB8180E4A89FD0019B
:102D100011248C8186958695A82B24E730E40E94A7
:102D2000BE27A70196010E949327DA01C901805AA4
:102D30009F40A109B109BF93AF939F938F9388ECF4
:102D400095E09F938F930E9461290FB6F894DEBFA0
:102D50000FBECDBF0F900F900F900F90DF91CF91CE
:102D6000FF90EF90DF90CF900895CF93DF93D82F0F
:102D7000C62F90D088E01ED58D2F1CD58C2F1AD54C
:102D80008FD0DF91CF910895CF93DF93D82FC62FA7
:102D900081D080E10FD58D2F0DD58C2F0BD580D014
:102DA00079D080E107D5C82F80E004D580E002D536
:102DB0008C2FDF91CF9108950F931F93CF93DF93C3
:102DC000082F162F67D088E0F5D490E0C92FD82FB0
:102DD000802FF0D4C80FD11D812FECD4182F60D0D4
:102DE0001F921F93DF93CF9389EE95E09F938F936C
:102DF0000E9461290F900F900F900F900F900F90ED
:102E0000CE01DF91CF911F910F91089561E070E0A5
:102E100086E090E0F9CB089560E070E086E090E015
:102E2000F3CB089584B3816084BB089584B38E7F0F
:102E300084BB089584B3826084BB089584B38D7F7E
:102E400084BB0895EBE0F1E0808180688083089581
:102E5000EBE0F1E080818F77808308958EB18B7FE6
:102E60008EB908958EB184608EB9089585B18E7F34
:102E700085B9089585B1816085B90895E2E0F1E0F2
:102E800080818E7F80830895E2E0F1E0808181601F
:102E900080830895E2E0F1E080818D7F8083089552
:102EA000E2E0F1E08081826080830895E2E0F1E079
:102EB00080818B7F80830895E2E0F1E080818460EF
:102EC00080830895E2E0F1E08081877F8083089528
:102ED000E2E0F1E08081886080830895E2E0F1E043
:102EE0008081806180830895E2E0F1E080818F7EBF
:102EF00080830895E2E0F1E080818062808308951C
:102F0000E2E0F1E080818F7D80830895CF93DF93AD
:102F10001F92CDB7DEB7198289810F90DF91CF91D3
:102F20000895CF93DF9300D000D0CDB7DEB79E8356
:102F30008D834D815E8128EE33E0429FC001439F27
:102F4000900D529F900D1124CC01A0E0B0E0898338
:102F50009A83AB83BC83000089819A81AB81BC8159
:102F60009C01AD01215031094109510929833A835E
:102F70004B835C83892B8A2B8B2B71F70000269661
:102F80000FB6F894DEBF0FBECDBFDF91CF9108958D
:102F9000CF93DF9300D0CDB7DEB794DF8FE90AD4AB
:102FA00080E008D4898380E005D48A8380E002D45D
:102FB0008B838EDF8B81482F50E08A81282F30E071
:102FC0008981882F90E0652F6F934F93432F4F9304
:102FD0002F93292F2F938F9388E294E0892F8F933B
:102FE00088E294E08F930E9461298DB79EB708967E
:102FF0000FB6F894DEBF0FBECDBF00000F900F904C
:103000000F90DF91CF910895CF93DF931F921F927E
:10301000CDB7DEB784EF91E09A83898308C081E061
:1030200090E07FDF89819A8101979A83898312D00A
:10303000882321F089819A81892B89F721E0898170
:103040009A81892B09F420E0822F0F900F90DF9155
:10305000CF910895CF93DF931F921F92CDB7DEB724
:10306000198210D08A838A81882F90E081709927F5
:10307000892B11F081E0898389810F900F90DF9176
:10308000CF910895CF93DF931F92CDB7DEB71ADFAC
:1030900085E090D380E08ED389831ADF89810F90F9
:1030A000DF91CF910895CF93DF931F92CDB7DEB715
:1030B00009DF80E77FD380E07DD3898309DF8981C1
:1030C0000F90DF91CF910895CF93DF931F92CDB7EB
:1030D000DEB7E9DF89838981881F8827881F0F90E1
:1030E000DF91CF910895CF93DF93CDB7DEB7CADFDD
:1030F000882F90E0292F2F938F9381E494E0892FDC
:103100008F9381E494E08F930E9461290F900F9038
:103110000F900F90C8DF882F90E0292F2F938F9367
:103120008DE594E0892F8F938DE594E08F930E9435
:1031300061290F900F900F900F900000DF91CF91B9
:103140000895CF93DF931F92CDB7DEB7BBDE86E045
:1031500031D3BEDE97DF89838981882F90E082702A
:10316000992721E0892B09F420E0822F0F90DF912D
:10317000CF910895CF93DF931F92CDB7DEB7A2DE34
:1031800084E018D3A5DE7EDF89838981882F90E0D3
:103190008270992721E0892B09F020E0822F0F907F
:1031A000DF91CF910895CF93DF93CDB7DEB78ADE5D
:1031B00087EB00D38DDE0000DF91CF910895CF9390
:1031C000DF931F92CDB7DEB789837CDE85ECF2D228
:1031D00089818770EFD27CDE00000F90DF91CF9164
:1031E0000895CF93DF93CDB7DEB72E970FB6F8943F
:1031F000DEBF0FBECDBF688779878A879B875D87D3
:103200004C872E871A82198288859985AA85BB8565
:103210009C01AD013327442755278E85882F90E0E8
:10322000A0E0B0E0820F931FA41FB51F8130914032
:10323000A105B10508F06BC0E7DE882309F45DC085
:1032400080DF882309F44FC0AEDF3CDE88858C83A5
:1032500088859985AA85BB85892F9A2FAB2FBB2797
:103260008D8388859985AA85BB85CD01AA27BB2733
:103270008E8388859985AA85BB858B2F9927AA2758
:10328000BB278F8382E196D28F8194D28E8192D296
:103290008D8190D28C818ED21B820DC08B81882F24
:1032A00090E02C853D85820F931FFC01808182D2A6
:1032B0008B818F5F8B839B818E85981778F308DED7
:1032C000A3DE882349F486EC92E0292F2F938F9375
:1032D0000E9474290F900F904DDF8E85882F90E00B
:1032E0009A8389831DC08FEF92E0292F2F938F93AC
:1032F0000E9474290F900F9013C082E393E0292F4E
:103300002F938F930E9474290F900F9009C08BE523
:1033100093E0292F2F938F930E9474290F900F9081
:1033200089812E960FB6F894DEBF0FBECDBFDF9118
:10333000CF910895CF93DF9300D01F92CDB7DEB722
:103340008FEF9FEFAFEFB7E089839A83AB83BC83A6
:1033500089819A81AB81BC81BC01CD010F900F9016
:103360000F900F90DF91CF910895CF93DF93CDB75A
:10337000DEB72A970FB6F894DEBF0FBECDBF6C83C1
:103380007D838E839F83598748872A8719821B8272
:103390008C819D81AE81BF819C01AD013327442783
:1033A00055278A85882F90E0A0E0B0E0820F931F18
:1033B000A41FB51F8F3F9105A105B10539F030F06D
:1033C0008C8181958A8381E08B8302C08A858A8380
:1033D000488559858C819D81AE81BF812A81BC0140
:1033E000CD01FFDE982F8A81981709F040C08B81AC
:1033F0008823D1F19A858A81E92FE81B8A81882F59
:1034000090E028853985B901680F791F8A81282FB6
:1034100030E040E050E08C819D81AE81BF81820F21
:10342000931FA41FB51F2E2FAB01BC01CD01D9DE08
:10343000282F30E08A85482F50E08A81882F90E03D
:10344000BA01681B790BCB012817390719F48A8553
:10345000898316C08FE893E0292F2F938F930E94C2
:1034600074290F900F900CC08A85898309C086EB60
:1034700093E0292F2F938F930E9474290F900F9020
:1034800089812A960FB6F894DEBF0FBECDBFDF91BB
:10349000CF9108950F931F93CF93DF93CDB7DEB7EE
:1034A00060970FB6F894DEBF0FBECDBF6A877B87EB
:1034B0008C879D875F874E87288B1A82198280E0D0
:1034C00091E09D838C83A0DD882309F443C08A8525
:1034D0008E838A859B85AC85BD85892F9A2FAB2FDE
:1034E000BB278F838A859B85AC85BD85CD01AA27A7
:1034F000BB2788878A859B85AC85BD858B2F9927BF
:10350000AA27BB2789874FDEDDDC83E153D189857C
:1035100051D188854FD18F814DD18E814BD11B8266
:103520000FC08B81882F90E02E853F858901080F81
:10353000191F80E03FD1F80180838B818F5F8B83DF
:103540009B818889981768F3C3DC8889882F90E06D
:103550009A838983898160960FB6F894DEBF0FBE87
:10356000CDBFDF91CF911F910F910895CF93DF933E
:10357000CDB7DEB727970FB6F894DEBF0FBECDBF2D
:1035800069837A838B839C835E834D832F834D81F4
:103590005E8189819A81AB81BC812F81BC01CD0183
:1035A00079DF27960FB6F894DEBF0FBECDBFDF914F
:1035B000CF910895CF93DF93CDB7DEB72D970FB698
:1035C000F894DEBF0FBECDBF81E08D8370D019822D
:1035D0001A821B821C8258C0ADDEDC01CB01019631
:1035E000A11DB11D9C01AD015695479537952795B5
:1035F00089819A81AB81BC81BC01CD010E94842765
:10360000DC01CB018E839F83A887B9878E818A874F
:103610008E819F81A885B985892F9A2FAB2FBB27D3
:103620008B878E819F81A885B985CD01AA27BB276D
:103630008C878E819F81A885B9858B2F9927AA2792
:10364000BB278D87B0DD8981880F880FB8DD79DDD4
:1036500039DC84ECAFD08D85ADD08C85ABD08B853B
:10366000A9D08A85A7D034DC00002EDD8823E9F3B9
:1036700081DD89819A81AB81BC810196A11DB11D3B
:1036800089839A83AB83BC8389819A81AB81BC8116
:103690000297A105B10508F49FCF8D812D960FB635
:1036A000F894DEBF0FBECDBFDF91CF910895CF93C9
:1036B000DF931F92CDB7DEB7A7DC04DC86E67AD0B5
:1036C00007DCA2DCFFDB89E975D002DC9DDCDADCFB
:1036D000898389810F90DF91CF9108951F93CF93B4
:1036E000DF931F921F92CDB7DEB785E089838EEFFF
:1036F00095E00E94A02910E029C041E0BE016E5F64
:103700007F4F8FE03FD28A81853011F141E0BE01C9
:103710006F5F7F4F8FE020D28A811F928F931F921D
:103720001F938FE096E09F938F930E946129898178
:103730001F928F9380E296E09F938F930E9461295E
:103740001F5F0FB6F894DEBF0FBECDBF1431A8F2D5
:10375000143120F08FE296E00E94A0290F900F9084
:10376000DF91CF911F910895CF93DF931F92CDB733
:10377000DEB741E0BE016F5F7F4F8FE003D28981EA
:103780001F928F9386E596E09F938F930E94612905
:103790000F900F900F900F900F90DF91CF910895A1
:1037A0001DBC81E58CBD94DB65DB6EDB97DB84DBC8
:1037B00077CB08958EBD0DB407FEFDCF8EB508956D
:1037C000FC0120E030E00AC0CF01019640814EBDEF
:1037D0000DB407FEFDCF2F5F3F4FFC0126173707C3
:1037E00098F30895FC0120E030E009C01EBC0DB440
:1037F00007FEFDCF8EB580832F5F3F4F3196261792
:103800003707A0F30895CF93DF931F921F92CDB790
:10381000DEB79A8389838A818EBD0DB407FEFDCF02
:1038200089818EBD0DB407FEFDCF0F900F90DF9103
:10383000CF910895EF92FF921F93CF93DF93EB0107
:10384000182F177090E1199F90011124E72EFF2483
:10385000AB0155275F934F932E293F293F932F9319
:10386000DF936F931F928F938EE696E09F938F93D3
:103870000E9461291BDB812F8295807F8E299ADF30
:103880008C2F98DF19DB8DB79EB70A960FB6F89488
:103890009EBF0FBE8DBFDF91CF911F91FF90EF9024
:1038A0000895EF92FF921F93CF93DF93EB01182FB0
:1038B000177090E1199F90011124E72EFF24AB01AE
:1038C00055275F934F932E293F293F932F93DF93E3
:1038D0006F931F928F938FE996E09F938F930E942F
:1038E0006129CCDA812F8295807F8E2963DF8C2F2E
:1038F00061DFCADA8DB79EB70A960FB6F8949EBFFD
:103900000FBE8DBFDF91CF911F91FF90EF90089573
:10391000CF93DF93C82FD92F80ED96E00E94A02986
:10392000ADDA8D2F806C46DF8C2F44DFADDADF916E
:10393000CF910895CF93DF93C82FD92F87EE96E0CC
:103940000E94A029B3DA8D2F806C34DF8C2F32DFF8
:10395000B3DADF91CF91089589DA86E02BDF8ACA46
:103960000895CF9383DA85E025DF80E023DFC82F39
:1039700081DA1F92CF9380E698E09F938F930E9405
:1039800061290F900F900F900F908C2FCF91089579
:10399000EF92FF920F931F93CF93DF938C017B01E4
:1039A000EA01840F951F8130904220F08DEF96E060
:1039B0000E94A029D1DF5ADA82E0FCDEC80123DFB1
:1039C000BE01C701FDDE56DADF91CF911F910F9145
:1039D000FF90EF900895CF92DF92EF92FF920F93B6
:1039E0001F93CF93DF93C82FD92F8B016A013EDA43
:1039F00083E0E0DE8D2FDEDE8C2FDCDEC0E0D0E069
:103A00000AC078018FEFE81AF80A80E0D3DEF801E7
:103A1000808321968701CC15DD0598F32BDADF91A1
:103A2000CF911F910F91FF90EF90DF90CF9008956D
:103A3000CF93DF9300D01F92CDB7DEB717DA8FEAAE
:103A4000B9DE64E070E0CE010196CCDE13DA3C8191
:103A50002B819A8189811F923F931F922F931F92EE
:103A60009F931F928F9380E297E09F938F930E9482
:103A700061290FB6F894DEBF0FBECDBF0F900F9037
:103A80000F900F90DF91CF910895CF93DF93CDB733
:103A9000DEB728970FB6F894DEBF0FBECDBF5CDF50
:103AA0008FE18D8381E48E8381E88F838AEF88871D
:103AB00044E050E0BE016B5F7F4F80E094E068DF40
:103AC00044E050E0BE016F5F7F4F80E094E083DF11
:103AD0003C812B819A8189811F923F931F922F9362
:103AE0001F929F931F928F9383E397E09F938F93EF
:103AF0000E9461290FB6F894DEBF0FBECDBF289695
:103B00000FB6F894DEBF0FBECDBFDF91CF91089501
:103B10009093400980933F0942E050E06FE379E0E1
:103B200080E090E035CF089542E050E06FE379E027
:103B300080E090E050DF809140098F9380913F09B1
:103B40008F9380E497E09F938F930E9461290F9059
:103B50000F900F900F9008950F931F93CF93DF93C3
:103B6000D82F8B01C42FC0D98D2F806223DE6C2FFC
:103B700070E0C80125DEB2D98C2FDF91CF911F9163
:103B80000F9108950F931F93CF93DF93D82F8B013D
:103B9000C42FAAD98D2F806A0DDE6C2F70E0C8016A
:103BA00021DE9CD98C2FDF91CF911F910F91089529
:103BB000CF93DF931F92CDB7DEB741E050E0BE0157
:103BC0006F5F7F4F80E780D1892B21F087E497E0FA
:103BD0000E94A02989810F90DF91CF910895CF9302
:103BE000DF931F92CDB7DEB78983843008F04FC0D2
:103BF0001F928F9381E697E09F938F930E94612994
:103C000041E0BE016F5F7F4F80E7E7D00F900F90DC
:103C10000F900F90892B09F18981E82FF0E0E65190
:103C2000F84F9081973058F061D083E797E09F93E9
:103C30008F930E9461290F900F9081E039C01F92ED
:103C40008F9388E797E09F938F930E9461290F904D
:103C50000F900F900F9081E02BC0AADF99818917F8
:103C600021F18AE997E00E94A029E981F0E0E6517C
:103C7000F84F80818730D8F039D082EC97E09F935D
:103C80008F930E9461290F900F9081E011C01F92C5
:103C90008F9387EC97E09F938F930E9461290F90F9
:103CA0000F900F900F9081E003C080E001C081E091
:103CB0000F90DF91CF9108959F938F938EEE97E0B1
:103CC0009F938F930E9461290F900F900F900F90F8
:103CD00008951F928F9382E098E09F938F930E94A4
:103CE00061290F900F900F900F90089584E98093B1
:103CF000BC00EBE0F1E080818F7B808380E005C039
:103D0000E3E0F8E43197F1F78F5F8431C8F3EBE03B
:103D1000F1E080818064808380E005C0E3E0F8E426
:103D20003197F1F78F5F8431C8F3EBE0F1E08081E8
:103D30008F7B808380E005C0E3E0F8E43197F1F702
:103D40008F5F8431C8F3EBE0F1E080818064808391
:103D5000E9EBF0E080818C7F80838081808380E14B
:103D60008093B800ECEBF0E080818460808381E098
:103D700080934109089584EA8093BC00109202095F
:103D8000109201098091BC00882334F080910109D0
:103D9000909102094E97B0F3809101099091020928
:103DA0004E9730F085E198E00E94A02981E00895C7
:103DB0008091B900887F883071F01F928F938CE2D8
:103DC00098E09F938F930E9461290F900F900F901E
:103DD0000F9081E0089580E008950F931F93CF9393
:103DE000DF93082FEB01142FC6DF811166C0000F8F
:103DF0000093BB0084E88093BC00109202091092EB
:103E000001098091BC00882334F0809101099091D0
:103E100002094E97B0F380910109909102098091B7
:103E2000B900887F883109F43FC084E98093BC00E1
:103E300080E24FDF81E090E042C0AE014F5F5F4F14
:103E400088818093BB0084E88093BC0010920209B3
:103E5000109201098091BC00882334F080910109FF
:103E6000909102094E97B0F3809101099091020957
:103E70008091B900887F8832A1F01F928F938CE4E3
:103E800098E09F938F930E94612984E98093BC00FE
:103E900080E31FDF0F900F900F900F9081E090E074
:103EA0000EC02F5FEA0101C020E0211730F284E943
:103EB0008093BC0080E090E002C081E090E0DF9160
:103EC000CF911F910F910895FF920F931F93CF935E
:103ED000DF93F82E8B01EA014EDF811179C08F2D1F
:103EE00090E0880F991F81608093BB0084E88093E5
:103EF000BC0010920209109201098091BC00882335
:103F000034F080910109909102094E97B0F38091AD
:103F10000109909102098091B900887F803409F4E9
:103F20004DC088E4D6DE84E98093BC0088E698E042
:103F3000C3DE81E090E04EC01092020910920109A8
:103F4000C130D10511F484E801C084EC8093BC0039
:103F500010920209109201098091BC00882334F06C
:103F600080910109909102094E97B0F38091010967
:103F7000909102094E97D8F08091B9001F928F93CB
:103F8000DF93CF9381E798E09F938F930E946129FD
:103F900084E98093BC0088E698E08EDE0F900F9055
:103FA0000F900F900F900F9081E090E013C08091E0
:103FB000BB00F801808321970F5F1F4F1C161D0661
:103FC0000CF4BACF84E98093BC0080E090E002C09A
:103FD00081E090E0DF91CF911F910F91FF900895C4
:103FE0008FEF81B997EF94B987B99BEB9AB99EE3AC
:103FF0009DB910BA83BB9FE79093010192E790931C
:1040000004011092070180930A0188B9809302018C
:104010000C9480170895CF93DF93E3E3FAE081E0F7
:1040200092E0918380839383828380E0CFD0D8DF36
:10403000B7DB0E94E9128FE09FE89093820980939A
:104040008109C0E0D0E005C08EE290E00E949B298B
:104050002196C035D105C0F38AE090E00E949B29EB
:104060003DDB0E94221342DE0E94B2150E94DA1448
:104070000E94B215789487EA98E00E94A029DF9107
:10408000CF910895C8DF88EB98E00E94A02930D234
:1040900080914909882321F00E94E90A1092490978
:1040A00080910309882341F0EBE0F1E0908181E009
:1040B000892780831092030980910409882339F3AA
:1040C000EBE0F1E0908181E08927808380914309D2
:1040D000882319F081508093430910920409D7CFA7
:1040E00089E408959B014EE3849FC0011124BC0123
:1040F00063527C4FC9010C94E52808952EE3829FFA
:10410000C001112483529C4F0C94EC280895EAE8D6
:10411000F9E06083118293838283958384839783FC
:10412000868308959FB7F89480918B09811104C00C
:10413000992304F578940895EAE8F9E0A481B5811B
:104140009D012F5F3F4F358324838C912181215026
:10415000218344815581268137816081260F311D5D
:104160004217530720F02681378135832483992312
:104170000CF4789408959FB7F894EAE8F9E0318157
:104180002081321720F0992304F578940895EAE805
:10419000F9E0A281B3819D012F5F3F4F33832283DA
:1041A0008C9381818F5F8183428153812681378106
:1041B0008081280F311D4217530720F02681378157
:1041C0003383228399230CF4789408958230B9F1D3
:1041D0008430B8F58093420990914A09913019F0E2
:1041E000923039F003C09FE520E005C097E020E061
:1041F00002C091E020E0813019F0833071F016C0E8
:104200002093CD009093CC0088E98093C90060E8AA
:1042100082E999E07CDF80E0089520933501909356
:10422000340188E98093310180E008952093C5002E
:104230009093C40088E98093C10080E0089581E0F4
:10424000089581E00895CF93C82F8A3031F46091AA
:10425000350A7091360A8DE0F6DF8091C00085FF47
:10426000FCCFC093C60080E090E0CF910895CF933B
:10427000C82F8A3011F48DE0FADF8091C80085FFE5
:10428000FCCFC093CE0080E090E0CF91089580E015
:1042900090E008951F920F920FB60F9211240BB663
:1042A0000F922F933F934F935F936F937F938F93CF
:1042B0009F93AF93BF93CF93DF93EF93FF9380913F
:1042C000C00084FD08C08091C00083FD04C08091BF
:1042D0004909882341F08091C60090E090934809F5
:1042E00080934709A1C0809146098F3180F0809169
:1042F000C60090E0909348098093470910924609C0
:104300001092320A10924909109245098DC0E0912D
:104310004609F0E08091C600ED5EF54F8083E091A4
:104320004609F0E0ED5EF54F80818A3041F0E09182
:104330004609F0E0ED5EF54F80818D3089F481E033
:1043400080934909809145098F5F80934509E091E9
:104350004609F0E0ED5EF54F10821092460964C008
:10436000E0914609F0E0ED5EF54F8081883041F044
:10437000E0914609F0E0ED5EF54F80818F3739F529
:1043800080914609882309F44FC0C3E3DAE06A81CB
:104390007B8188E058DF6A817B8180E254DF6A811B
:1043A0007B8188E050DF80914609815080934609E7
:1043B0008091450981508093450980914409882363
:1043C00099F1809144098150809344092DC0E09176
:1043D0004609F0E0ED5EF54F80818C3298F0E09177
:1043E0004609F0E0ED5EF54F80818B3758F48091FF
:1043F00046098F5F80934609809145098F5F8093BE
:10440000450912C0E0914609F0E0ED5EF54F80816C
:104410008B3151F46091350A7091360A8DE013DFCB
:104420001092460910924509FF91EF91DF91CF91CB
:10443000BF91AF919F918F917F916F915F914F91BC
:104440003F912F910F900BBE0F900FBE0F901F90BA
:1044500018951F920F920FB60F9211240BB60F9260
:104460002F933F934F935F936F937F938F939F937C
:10447000AF93BF93EF93FF938091C80084FD04C076
:104480008091C80083FF08C08091CE0090E0909397
:1044900048098093470919C08091CE008A3041F4C1
:1044A00080E069DE8091120A8F5F8093120A0DC04E
:1044B0008D3059F0883011F08F3711F433DE05C09C
:1044C00090EE980F9F3508F456DEFF91EF91BF9163
:1044D000AF919F918F917F916F915F914F913F919C
:1044E0002F910F900BBE0F900FBE0F901F9018953D
:1044F00080914509882369F190914409809145098B
:104500009817C0F48091490981110BC06091350A58
:104510007091360AE0914409F0E0ED5EF54F80813C
:1045200092DE809144098F5F809344098AE08093F2
:10453000430913C08091430981110FC08FB78F7752
:104540008FBF109244091092450910924609789441
:1045500004C01092440910924309809149098823AC
:10456000A9F083E19AE09F938F9384EC98E09F9366
:104570008F93A7D6109246091092430910924509CD
:10458000109244090F900F900F900F908091120A93
:10459000882399F082E999E09F938F938EEC98E0BD
:1045A0009F938F938ED68EE762DE8AE260DE8EE77F
:1045B0005EDE0F900F900F900F90089570D088F0EE
:1045C0009F5790F0B92F9927B751A0F0D1F0660FFF
:1045D000771F881F991F1AF0BA95C9F712C0B1301A
:1045E00081F077D0B1E0089574C0672F782F8827C5
:1045F000B85F39F0B93FCCF3869577956795B39559
:10460000D9F73EF490958095709561957F4F8F4FC7
:104610009F4F0895E89409C097FB3EF490958095CC
:10462000709561957F4F8F4F9F4F9923A9F0F92F78
:1046300096E9BB279395F695879577956795B795F6
:10464000F111F8CFFAF4BB0F11F460FF1BC06F5FDC
:104650007F4F8F4F9F4F16C0882311F096E911C0EE
:10466000772321F09EE8872F762F05C0662371F00F
:1046700096E8862F70E060E02AF09A95660F771F23
:10468000881FDAF7880F9695879597F9089557FD53
:104690009058440F551F59F05F3F71F04795880FB0
:1046A00097FB991F61F09F3F79F087950895121647
:1046B00013061406551FF2CF4695F1DF08C01616F3
:1046C00017061806991FF1CF8695710561050894A4
:1046D0000895E894BB2766277727CB0197F90895BB
:1046E0000BD078C069D028F06ED018F0952309F06F
:1046F0005AC05FC01124EECFCADFA0F3959FD1F35B
:10470000950F50E0551F629FF001729FBB27F00D7F
:10471000B11D639FAA27F00DB11DAA1F649F6627D4
:10472000B00DA11D661F829F2227B00DA11D621F23
:10473000739FB00DA11D621F839FA00D611D221FDD
:10474000749F3327A00D611D231F849F600D211DC1
:10475000822F762F6A2F11249F5750408AF0E1F064
:1047600088234AF0EE0FFF1FBB1F661F771F881FAD
:1047700091505040A9F79E3F510570F014C0AACF48
:104780005F3FECF3983EDCF3869577956795B79598
:10479000F795E7959F5FC1F7FE2B880F911D9695C2
:1047A000879597F9089597F99F6780E870E060E032
:1047B00008959FEF80EC089500240A9416161706BA
:1047C00018060906089500240A9412161306140602
:1047D00005060895092E0394000C11F4882352F065
:1047E000BB0F40F4BF2B11F460FF04C06F5F7F4F1D
:1047F0008F4F9F4F08952F923F924F925F926F92EB
:104800007F928F929F92AF92BF92CF92DF92EF9260
:10481000FF920F931F93CF93DF93CDB7DEB76097CF
:104820000FB6F894DEBF0FBECDBF7C011B016A013D
:10483000FC0117821682838181FF2AC39E012F5FAC
:104840003F4F3901F7019381F10193FD859193FF6A
:1048500081911F01882309F417C3853239F493FD30
:10486000859193FF81911F01853231F4B70190E06A
:10487000ECD456016501E6CF10E0512C912CFFE1FC
:10488000F915D8F08B3279F038F4803279F0833230
:10489000A1F4F92DF0612EC08D3261F0803369F4FE
:1048A000292D21602DC0392D3260932E892D8460F1
:1048B000982E2AC0E92DE86015C097FC2DC020ED88
:1048C000280F2A3088F496FE06C03AE0139F200D88
:1048D0001124122F19C08AE0589E200D1124522E47
:1048E000E92DE0629E2E10C08E3231F496FCCCC2CF
:1048F000F92DF0649F2E08C08C3621F4292D2068F4
:10490000922E02C0883641F4F10193FD859193FF08
:1049100081911F018111B3CF9BEB980F933020F44D
:10492000992D9061805E07C09BE9980F933008F045
:1049300059C1992D9F7E96FF16E09F73992E85365B
:1049400019F49064992E08C0863621F4392F306806
:10495000932E02C01111115097FE07C01C3350F462
:1049600044244394410E27E00BC0183038F027E070
:1049700017E005C027E09CE3492E02C0212F412CFF
:10498000560184E0A80EB11CF6016081718182811C
:104990009381042DA30141D36C01F981FC87F0FFC1
:1049A00002C0F3FF06C091FC06C092FE06C000E202
:1049B00005C00DE203C00BE201C000E08C858C70E5
:1049C00019F0011143C280C297FE10C04C0CFC8547
:1049D000F4FF04C08A81813309F44A94141474F5F5
:1049E00028E0241578F588E0482E2CC096FC2AC0D3
:1049F000812F90E08C159D059CF03CEFC3163FEF96
:104A0000D30674F0892D8068982E0AC0E2E0F0E0A9
:104A1000EC0FFD1FE10FF11D8081803319F411505F
:104A20001111F4CF97FE0EC044244394410E812F00
:104A300090E0C816D9062CF41C1904C044244394F1
:104A400001C010E097FE06C01C141D0434F4C6011A
:104A5000019605C085E090E002C081E090E0011180
:104A60000196112331F0212F30E02F5F3F4F820F4D
:104A7000931F252D30E08217930714F4581A01C0B4
:104A8000512C892D897041F4552031F0B70180E215
:104A900090E0DBD35A94F8CF002321F0B701802FA8
:104AA00090E0D3D393FC08C0552031F0B70180E3E8
:104AB00090E0CBD35A94F8CF97FE4AC04601D7FE78
:104AC00002C0812C912CC60188199909F301E80FC5
:104AD000F91FFE87ED87960124193109388B2F873E
:104AE000012F10E01195019511093FEF83169306F0
:104AF00021F4B7018EE290E0A8D3C814D9044CF099
:104B00008F8598898815990524F4ED85FE85818126
:104B100001C080E3F1E08F1A91082D853E852F5F5B
:104B20003F4F3E872D878016910624F0B70190E015
:104B30008CD3DBCFC814D90441F49A81963320F486
:104B4000953319F43C8534FF81E3B70190E048C008
:104B50008A81813319F09C859F7E9C87B70190E004
:104B600074D3111105C094FC16C085E690E015C001
:104B7000B7018EE290E069D31E5F82E001E0080F8A
:104B8000F301E80FF11D8081B70190E05ED3802F23
:104B90000113F4CFE8CF85E490E0B70156D3D7FCFA
:104BA00006C0C114D10441F4EC85E4FF05C0D194E2
:104BB000C194D1088DE201C08BE2B70190E045D3EA
:104BC00080E32AE0C216D1042CF08F5FFAE0CF1AFE
:104BD000D108F7CFB70190E038D3B701C601C0962E
:104BE00034D349C1833631F0833779F0833509F006
:104BF00052C01FC0560132E0A30EB11CF6018081E5
:104C0000898301E010E0630111C05601F2E0AF0EAC
:104C1000B11CF601C080D18096FE03C0612F70E008
:104C200002C06FEF7FEFC601FDD28C01F92DFF7737
:104C300013C0560122E0A20EB11CF601C080D18043
:104C400096FE03C0612F70E002C06FEF7FEFC601D8
:104C5000CCD28C01F92DF0689F2EF3FD18C0852D64
:104C600090E00817190798F4B70180E290E0EDD2C0
:104C70005A94F5CFF60197FC859197FE81916F01CB
:104C8000B70190E0E2D251105A9401501109011578
:104C9000110581F7F0C0843611F0893659F55601B7
:104CA00097FE09C024E0A20EB11CF601608171815B
:104CB000828193810AC0F2E0AF0EB11CF6016081DF
:104CC0007181072E000C880B990BF92DFF769F2E12
:104CD00097FF09C090958095709561957F4F8F4F94
:104CE0009F4FF0689F2E2AE030E0A30159D3C82ED1
:104CF000C6183EC0092D853721F40F7E2AE030E02A
:104D00001DC0097F8F3691F018F4883559F0BCC06A
:104D1000803719F0883711F0B7C0006104FF09C06F
:104D2000046007C094FE08C0066006C028E030E0BA
:104D300005C020E130E002C020E132E0560107FF6B
:104D400009C084E0A80EB11CF601608171818281E6
:104D5000938108C0F2E0AF0EB11CF6016081718151
:104D600080E090E0A3011CD3C82EC6180F77902EC8
:104D700096FE0BC0092D0E7FC11650F494FE0AC09A
:104D800092FC08C0092D0E7E05C0DC2C092D03C045
:104D9000DC2C01C0D12E04FF0DC0FE01EC0DF11D75
:104DA0008081803311F4097E09C002FF06C0D394CC
:104DB000D39404C0802F867809F0D39403FD10C0EB
:104DC00000FF06C01C2DD51478F4150D1D190CC05C
:104DD000D51450F4B70180E290E037D2D394F8CFE5
:104DE000D51410F45D1801C0512C04FF0FC0B70199
:104DF00080E390E02AD202FF16C001FD03C088E7DD
:104E000090E002C088E590E0B7010CC0802F867862
:104E100051F001FF02C08BE201C080E207FD8DE28C
:104E2000B70190E012D2C11630F4B70180E390E0F0
:104E30000CD21150F8CFCA94F301EC0DF11D808112
:104E4000B70190E002D2C110F6CF15C0F4E0F5151D
:104E500050F584E0581A93FE1EC0011125C02C8520
:104E600023FF27C004EE10E0392D3071932EF80196
:104E70008491811121C0552009F4FCCCB70180E256
:104E800090E0E3D15A94F7CFF7018681978123C050
:104E90008FEF9FEF20C0B70180E290E0D6D15A9407
:104EA0005110F9CFDACF512CB701802F90E0CDD13E
:104EB000D6CF08EE10E0D8CF91108052B70190E025
:104EC000C4D10F5F1F4FD3CF23E0251510F483E02B
:104ED000C1CF512CC4CF60960FB6F894DEBF0FBE81
:104EE000CDBFDF91CF911F910F91FF90EF90DF9099
:104EF000CF90BF90AF909F908F907F906F905F907A
:104F00004F903F902F900895DB018F939F933CD05B
:104F1000BF91AF91A29F800D911DA39F900DB29F55
:104F2000900D11240895052E97FB16F400940FD0D0
:104F300057FD05D033D007FC02D046F408C0509589
:104F40004095309521953F4F4F4F5F4F0895909575
:104F50008095709561957F4F8F4F9F4F0895A29FC9
:104F6000B001B39FC001A39F700D811D1124911D3D
:104F7000B29F700D811D1124911D0895F0DFB7FFC0
:104F80000895821B930B0895EADFA59F900DB49FAF
:104F9000900DA49F800D911D11240895A1E21A2E59
:104FA000AA1BBB1BFD010DC0AA1FBB1FEE1FFF1FCD
:104FB000A217B307E407F50720F0A21BB30BE40B1D
:104FC000F50B661F771F881F991F1A9469F7609564
:104FD0007095809590959B01AC01BD01CF0108951E
:104FE000FC0188279927E89421912032E9F32930A0
:104FF00010F02E30C8F32B3239F02D3231F4689492
:1050000003C01BD1820F911D219120532A30C8F378
:105010001EF4909581959F4F0895283008F027E061
:105020003327DA01990F311D87FD916000966105E4
:10503000710539F432602E5F3D9330E32A95E1F734
:1050400008959F3F30F080387105610509F03C5F9D
:105050003C5F3D93913008F08068911DDF93CF93C2
:105060001F930F93FF92EF92192F987F9695E92F38
:1050700096959695E90FFF27EA5BFE4F9927332710
:10508000EE24FF24A701E70105900894079428F473
:10509000360FE71EF81E491F511D660F771F881F28
:1050A000991F0694A1F70590079428F4E70EF81EBF
:1050B000491F561FC11D770F881F991F661F069431
:1050C000A1F70590079428F4F80E491F561FC71F33
:1050D000D11D880F991F661F771F0694A1F70590B1
:1050E000079420F4490F561FC71FD81F990F661F3A
:1050F000771F881F0694A9F784911095177041F0C7
:10510000D695C79557954795F794E7941A95C1F7A3
:10511000ECEEF0E0689415901591359165919591BC
:1051200005907FE27395E118F10A430B560BC90B0A
:10513000D009C0F7E10CF11E431F561FC91FD01D37
:105140007EF4703311F48A95E6CFE894015030F084
:10515000080F0AF40027021708F4202F2395022FC6
:105160007A3328F079E37D932A95E9F710C07D938F
:105170002A9589F60694979567953795179517940C
:10518000E118F10A430B560BC90BD00998F023958F
:105190007E9173957A3308F070E37C932013B8F70F
:1051A0007E9170617D9330F0839571E37D9370E320
:1051B0002A95E1F71124EF90FF900F911F91CF9165
:1051C000DF91992787FD90950895FB01DC010590FB
:1051D0000D920020E1F70895FC0105900020E9F709
:1051E000809590958E0F9F1F0895FC01059061504A
:1051F00070400110D8F7809590958E0F9F1F0895ED
:10520000FB01DC018D91019080190110D9F3990BFC
:105210000895FC0101900020E9F7809590958E0F8C
:105220009F1F0895FC016150704001900110D8F754
:10523000809590958E0F9F1F08957AE0979F902DEF
:10524000879F802D910D112408950F931F93CF9365
:10525000DF93FB01238121FD03C08FEF9FEF2CC063
:1052600022FF16C04681578124813581421753079A
:1052700044F4A081B1819D012F5F3F4F3183208392
:105280008C93268137812F5F3F4F3783268314C04D
:105290008B01EC01FB010084F185E02D1995892B30
:1052A000E1F6D80116968D919C9117970196179665
:1052B0009C938E931697CE01DF91CF911F910F9102
:1052C0000895CF93DF93CDB7DEB7AE014A5F5F4F4E
:1052D000FA0161917191AF018091350A9091360A7E
:1052E0008ADADF91CF9108950F931F93CF93DF93C5
:1052F000CDB7DEB7AE01485F5F4FDA016D917D91AA
:10530000AD0103E31AE0F80182819381DC01139679
:105310002C911397286013962C936DDAD80112966E
:10532000ED91FC9113972381277F2383DF91CF9108
:105330001F910F9108956091350A7091360A85CFBB
:105340000F931F93CF93DF93E091350AF091360AC4
:10535000238121FF1BC08C01D0E0C0E0F8018191C6
:105360008F016091350A7091360ADB011896ED9134
:10537000FC911997882331F01995892B79F3DFEF88
:10538000CFEFECCF8AE01995892B19F08FEF9FEFC3
:1053900002C08D2F9C2FDF91CF911F910F91089507
:1053A000FA01AA27283051F1203181F1E8946F9356
:1053B0006E7F6E5F7F4F8F4F9F4FAF4FB1E03ED0FC
:1053C000B4E03CD0670F781F891F9A1FA11D680F9A
:1053D000791F8A1F911DA11D6A0F711D811D911DCD
:1053E000A11D20D009F468943F912AE0269F112442
:1053F0003019305D3193DEF6CF010895462F4770A6
:10540000405D4193B3E00FD0C9F7F6CF462F4F7000
:10541000405D4A3318F0495D31FD4052419302D05E
:10542000A9F7EACFB4E0A695979587957795679504
:10543000BA95C9F700976105710508959B01AC0104
:105440000A2E06945795479537952795BA95C9F72B
:10545000620F731F841F951FA01D0895F894FFCF3E
:105460000100000003000000002321472100006329
:105470006D642025732D2D00753437007E3A20256C
:10548000640A006275636B7320302C312C34202841
:10549000632C692C73312920656E61626C65640030
:1054A0006275636B3220284D6F642920656E6162DE
:1054B0006C6564006275636B3420284F70744874A7
:1054C000722920656E61626C6564006275636B357C
:1054D00020287370617265322920656E61626C6587
:1054E00064006275636B7320302C312C3420286388
:1054F0002C692C7331292064697361626C656400C6
:105500006275636B3220284D6F6429206469736172
:10551000626C6564006275636B3320284F70744859
:105520007472292064697361626C656400627563DA
:105530006B3520285370617265322920646973616C
:10554000626C656400763D2025640A00763D20305B
:105550007825580A00575446000A6E6F20636D6420
:105560003A2573200A004368616E67696E6720629E
:105570006C6F636B20746F2025640A003031323306
:10558000343536373839000A52656164696E6720F0
:1055900066726F6D20464C415348007265636F72AE
:1055A000642025643A0A002573007573654D6963AC
:1055B000726F6E203D2025640A0057726F7465205B
:1055C000746F20746F2061646472203078253038E5
:1055D0006C783A2025730A004572726F72207772D8
:1055E0006974696E6720746F20616464722030781A
:1055F0002530386C782C206C696E652025640A0093
:10560000526561642066726F6D206164647220303F
:10561000782530386C783A20504153530A0052654F
:1056200061642066726F6D20616464722030782539
:1056300030386C783A204641494C0A0025730A25D7
:10564000730A004572726F722072656164696E67D9
:105650002066726F6D206164647220307825303866
:105660006C782C206C696E652025640A0061646486
:10567000722030782530386C783A2000202530327E
:1056800078002025303278000A3078253032782CA6
:10569000203078253032782C203078253032780A46
:1056A00000466C6173682053746174757320202008
:1056B00020202020203078253032780A00466C6186
:1056C000736820466C616720537461747573202081
:1056D000203078253032780A00696E697469616C0F
:1056E000697A696E672074696D65723200696E202F
:1056F000696E697420636F756E7465727320616E74
:10570000642074696D65727300414443207379733A
:1057100020726567203D2025580A006572726F72FD
:105720002C20696E76616C6964204368616E6E65D9
:105730006C006368616E6E656C203D2025752C20C1
:10574000616463203D2025582C20202575206D4163
:10575000200A0061637469766520414443733A20EE
:105760003078253032780A002564202530327825BB
:105770003032782025643A20202020002564202023
:1057800025753B202020004552524F523A204E6F43
:105790002041444373204163746976650A00666C56
:1057A0006F7763203D202564006162732063682069
:1057B0003D202564006D75784368616E6E656C20D0
:1057C0003D202564200A0025752025750A00737484
:1057D00061727465642052485F5420436F6E766531
:1057E0007273696F6E0052485F5420537461727413
:1057F000204661696C65640052485F5420537461AF
:105800006C652044617461005248203D20256C6421
:10581000202854656E746873206F6620612050657F
:105820007263656E74290A0054203D20256C642043
:105830002868756E647265746873206F66206120D5
:10584000446567726565290A0061646332353138E1
:10585000203D203078253458253032580A00696EB2
:10586000205254435F636F6E66696728293B00725C
:10587000656164205254432025643A256420200049
:1058800077726974653A203078253258200A0045CD
:1058900052524F523A20636C6F636B2046726571AF
:1058A00075656E6379206E6F7420617420313032BB
:1058B0003420485A2100307825325800756E6978B6
:1058C0005365636F6E6473203D20256C75004255EF
:1058D000434B2044414320202030782558207661D6
:1058E0006C7565203D2030782533582E20202030DF
:1058F000782530327820203078253032780A004FF1
:1059000070746963732044414320307825582076B1
:10591000616C7565203D2030782533582E2020207D
:1059200030782530327820203078253032780A00DF
:10593000696E204F70746963734461632042726FB3
:1059400061644361737400696E204255434B204487
:1059500061632042726F6164436173740046572033
:105960004552524F522C2077726974696E672070CD
:1059700061737420656E64206F66204652414D004D
:105980002558203A202558203A202558203A20250D
:10599000580A0025582025582025582025580A0047
:1059A000534E3A25750A006572726F7220726561F6
:1059B00064696E67206D7578206368616E6E656CD2
:1059C0000077686963684D55586368203D202564F9
:1059D000200A0020656C20004552524F52202D2095
:1059E00053657474696E67204D5558204368616E25
:1059F0006E656C203D2025640A004552524F5220AE
:105A00002D206661696C656420746F20636F6E661B
:105A100069726D204D5558206368616E6E656C2EFD
:105A20000D0020656D20004552524F52202D2069F7
:105A30006E76616C6964204D5558204368616E6EC6
:105A4000656C203D2025640D0A00000000005457BD
:105A5000492073746174757320636F6465202573C6
:105A60000A00545749206572726F7220636F646533
:105A70002025580A00747769207374617274207449
:105A8000696D656F75742E2E2E200D007477692058
:105A900073746172742077726F6E672073746174AF
:105AA00075732025642E2E2E200D0A0062797465F0
:105AB0002073656E7420737461747573203D203D8E
:105AC0003078253032580A007477694572726F72E7
:105AD000004552524F522072656164206661696CC4
