S019000053636875796C6572426F617264546573742E7372656334
S11300004CC300006BC3000069C3000067C3000059
S113001065C3000063C3000061C300005FC3000048
S1130020E3C500005BC3000059C3000057C30000D0
S113003055C30000E3C5000051C300004FC30000D6
S11300404DC300004BC3000049C3000047C3000078
S113005045C3000043C3000041C300003FC3000088
S11300603DC300000C94C61339C3000037C300001D
S113007035C300004EC7000031C300002FC3000089
S11300802DC300002BC3000029C3000027C30000B8
S11300900C94A51423C3000021C300001FC3000057
S11300A01DC300001BC3000019C3000017C30000D8
S11300B015C3000013C3000011C300000FC30000E8
S11300C00DC300000BC3000009C3000007C30000F8
S11300D005C3000003C3000001C30000FFC2000009
S11300E0FDC200006E616E00696E660000407A1009
S11300F0F35A00A0724E18090010A5D4E80000E8D5
S11301007648170000E40B54020000CA9A3B000032
S113011000E1F505000080969800000040420F00C1
S11301200000A08601000000102700000000E80382
S1130130000000006400000000000A00000000004D
S11301400100000000002C76D888DC674F0823DF0C
S1130150C1DFAE59E1B1B796E5E3E453C63AE651DF
S1130160997696E8E6C28426EB898C9B62ED407C06
S11301706FFCEFBC9C9F40F2BAA56FA5F490055AA2
S11301802AF75C936B6CF9676DC11BFCE0E40D47C7
S1130190FEF520E6B500D0ED902E030094357705EA
S11301A00080841E080000204E0A000000C80C33A2
S11301B03333330F986E12831141EF8D2114893B31
S11301C0E65516CFFEE6DB18D1844B381BF77C1DB1
S11301D0901DA4BBE424203284725E228100C9F104
S11301E024ECA1E53D27464C4153482072656164E7
S11301F0206661696C65640A00464C415348207767
S113020072697465206661696C65640A00756E6B59
S11302106E6F776E2041444332353138206F7363FB
S1130220696C61746F7253706565640A004F535250
S11302303A206C6F673273616D706C6573203E2079
S113024037000A00256420004552524F523A204E8E
S11302506F20414443204368616E6E656C73206176
S113026063746976650A000A5374616C6520507280
S113027065737375726520496E7465726E616C2066
S11302804661756C742025640A000A5374616C65B8
S11302902050726573737572652052656164696E6E
S11302A0672025640A000A53656E736F7220256403
S11302B020696E2050726F6772616D6D696E672080
S11302C04D6F64650A007370695F466C61736845BD
S11302D072617365416C6C426C6F636B733A204559
S11302E072617365206661696C7572652061742042
S11302F0626C6F636B2025640A0045726173696EDA
S11303006720626C6F636B2025640A007370695FF9
S1130310466C6173684572617365426C6F636B3AD6
S113032020416464726573732065786365656473E2
S113033020617661696C61626C6520626C6F636BCD
S1130340730A007370695F466C6173684572617308
S113035065426C6F636B3A20466C617368206E650E
S11303607665722072656164790A007370695F460C
S11303706C6173684572617365426C6F636B3A209C
S1130380466C61736820776F6E277420656E6162B6
S11303906C652077726974650A007370695F466CD6
S11303A06173684572617365426C6F636B3A204692
S11303B06C617368206E657665722072656164791C
S11303C020616674657220626C6F636B2065726174
S11303D073650A007370695F466C61736845726186
S11303E07365426C6F636B3A20577269746520645D
S11303F0696173626C65206661696C65640A007387
S113040070695F466C617368526561643A20317348
S11304107420706167652072656164206661696C2F
S113042065640A007370695F466C61736852656144
S1130430643A20326E64207061676520726561647D
S1130440206661696C65640A007370695F466C615B
S113045073685265616446726F6D506167653A20D6
S11304606275666665722063726F7373657320705C
S113047061676520626F756E646172790A007370DA
S1130480695F466C6173685265616446726F6D5052
S11304906167653A20466C617368206E65766572A3
S11304A02072656164790A007370695F466C6173D8
S11304B0685265616446726F6D506167653A2046A3
S11304C06C617368206E657665722072656164790B
S11304D0206166746572207061676520726561646D
S11304E00A007370695F466C61736857726974655A
S11304F03A2031737420706167652077726974657E
S1130500206661696C65640A007370695F466C619A
S1130510736857726974653A20326E64207061673B
S113052065207772697465206661696C65640A0088
S11305307370695F466C6173685772697465546F50
S1130540506167653A206275666665722063726FF2
S113055073736573207061676520626F756E646183
S113056072790A007370695F466C617368577269C7
S11305707465546F506167653A20466C61736820F6
S11305806E657665722072656164790A00737069BC
S11305905F466C6173685772697465546F50616724
S11305A0653A20466C617368206E657665722072C8
S11305B06561647920616674657220706167652085
S11305C0726561640A007370695F466C6173685791
S11305D072697465546F506167653A20466C617343
S11305E06820776F6E277420656E61626C65207772
S11305F0726974650A007370695F466C6173685749
S113060072697465546F506167653A20466C617312
S113061068206E6576657220726561647920616612
S11306207465722064617461206C6F61640A007384
S113063070695F466C6173685772697465546F5072
S11306406167653A20466C617368206E65766572F1
S113065020726561647920616674657220646174D6
S113066061206C6F61640A007370695F466C61732A
S1130670685772697465546F506167653A20466CB7
S113068061736820776F6E27742064697361626C8C
S1130690652077726974650A000011241FBECFEFCC
S11306A0D1E2DEBFCDBF00E00CBF18E0A0E0B2E0B5
S11306B0E4EFF8E300E00BBF02C007900D92AA3309
S11306C0B107D9F729E0AAE3B8E001C01D92A23727
S11306D0B207E1F70E94D5120C94781C91CCCF920A
S11306E0DF92EF92FF921F93CF93DF93CDB7DEB7E4
S11306F0C85CD1090FB6F894DEBF0FBECDBF10E0C1
S1130700C12CD12C760129C0E12FF0E0E15FFD4F2F
S11307109081E1E0F0E0EC0FFD1FE80FF11D908304
S11307208F5F01C080E0883C78F328ECAE014F5F16
S11307305F4FC701B6010E94260C883C41F089EF47
S113074091E09F938F930E94BE1B0F900F9088ECB3
S1130750C80ED11CE11CF11C1F5F1A3018F3C853DA
S1130760DF4F0FB6F894DEBF0FBECDBFDF91CF9140
S11307701F91FF90EF90DF90CF900895CF92DF927A
S1130780EF92FF921F93CF93DF93CDB7DEB7C95C8F
S1130790D1090FB6F894DEBF0FBECDBF8AE192E057
S11307A00E94EA1B10E0C12CD12C76013AC0E1E092
S11307B0F0E0EC0FFD1FE80FF11D10828F5F01C008
S11307C080E0883CA0F31F921F938EE292E09F93F7
S11307D08F930E94AB1B28ECAE014F5F5F4FC701A4
S11307E0B6010E94F40C0F900F900F900F90883C6C
S11307F049F086EE91E09F938F930E94BE1B0F9069
S11308000F9009C0C753DF4F1882C95CD040CE0196
S113081001960E94EA1B88ECC80ED11CE11CF11C55
S11308201F5F1A3068F2C753DF4F0FB6F894DEBF6C
S11308300FBECDBFDF91CF911F91FF90EF90DF905E
S1130840CF9008950C94C80D0895CF93DF93C09171
S11308504C09C13481F580914D09833711F437D2A5
S11308601BC08D3611F49BD217C0833629F48091B6
S11308704E09805398D210C08F3629F480914E09C6
S1130880805360D209C08C3619F481E06CD204C064
S1130890883611F480E067D28CE499E09F938F93BB
S11308A08AE392E09F938F930E94AB1B0F900F906B
S11308B00F900F9096C1C03711F417D592C1C0356F
S11308C011F405D58EC163E472E08CE499E00E94D2
S11308D0531B892B11F417D584C1CD3419F40E940C
S11308E06C107FC1C23339F48DE499E00E94531A2D
S11308F00E94831076C1C23561F480914D0983351D
S113090009F40FD580914D09823509F06AC11DD5CE
S113091068C1C23719F40E94020E63C1C13679F46A
S113092080914D09813611F49FD25BC1833711F454
S11309309ED357C1843609F054C16ED352C1C63414
S113094081F455D680914D09873711F4C8DE49C129
S1130950823711F413DF45C1853609F042C172DFD5
S113096040C1C636B9F480914D09833719F40E9409
S1130970450F37C1893619F40E94AC0F32C18A364B
S113098019F40E94D90F2DC1853609F02AC10E949D
S1130990400F27C1C337C1F48091000290E00E9448
S11309A01C108091000291E0980F909300021F9216
S11309B08F9387E492E09F938F930E94AB1B0F90D9
S11309C00F900F900F900DC1CE3619F40E9428108D
S11309D008C1C33619F40E94480E03C1C53651F547
S11309E080914D0990ED980F923010F0843329F4E2
S11309F07ED58EE492E00E94EA1B80914D098233F9
S1130A0029F481D58BE692E00E94EA1B80914D097E
S1130A10833329F480D58FE792E00E94EA1B80910A
S1130A204D09853309F0DDC07ED586E992E00E9448
S1130A30EA1BD7C0C43631F580914D09803329F4BF
S1130A405CD58DEA92E00E94EA1B80914D098233C5
S1130A5029F45DD58BEC92E00E94EA1B80914D094C
S1130A60833329F45CD580EE92E00E94EA1B8091E6
S1130A704D09853309F0B5C05CD588EF92E00E943A
S1130A80EA1BAFC0CF36F1F480914D0990E0C097D6
S1130A902FEF31E0829FE001839FD00D929FD00D14
S1130AA011248C2F9D2F0E941C0FDF93CF9380E184
S1130AB093E09F938F930E94AB1B0F900F900F9026
S1130AC00F908FC0CF34E1F480914D09805388306A
S1130AD008F087C0C0914E09D0E0C05DDF456C2F9F
S1130AE07D2F0E94E50EDF93CF9387E193E09F93E0
S1130AF08F930E94AB1B0F900F900F900F9071C0BB
S1130B00C23609F580E293E00E94EA1B80914D0908
S1130B1090E0C0972FEF31E0829FE001839FD00DDA
S1130B20929FD00D1124CE010E942E0FDF93CF93FC
S1130B3080E193E09F938F930E94AB1B0F900F90E3
S1130B400F900F904EC0C23421F580914D0980530F
S1130B50883008F046C020914E0930E02053310916
S1130B604FEF51E0249FE001259FD00D349FD00D1D
S1130B701124BE010E94AE0EDF93CF9380E193E077
S1130B809F938F930E94AB1B0F900F900F900F9029
S1130B9028C0C73759F480914D09813309F4CFD463
S1130BA080914D098033E9F4CED41BC0CD3659F47D
S1130BB080914D09813309F40ED580914D0980331C
S1130BC081F40FD50EC08CE499E09F938F9384E257
S1130BD093E09F938F930E94AB1B0F900F900F9005
S1130BE00F90DF91CF9108951F920F920FB60F923D
S1130BF011240F900FBE0F901F9018951F920F9203
S1130C000FB60F9211242F938F939F938FB78F77E3
S1130C108FBF88B1805888B980913E0890913F0871
S1130C20019690933F0880933E0880913E089091EE
S1130C303F088115924019F481E080933C0880912B
S1130C403E0890913F0881159440A8F080913E0899
S1130C5090913F08945090933F0880933E0881E020
S1130C6080933D0880913A0890913B0801969093B7
S1130C703B0880933A0878949F918F912F910F901D
S1130C800FBE0F901F90189581E393E00E94EA1B1A
S1130C9080E88093610082E08093B00084E08093D8
S1130CA0B10080EE8093B3001092B200E0E7F0E070
S1130CB08081826080830895E7DF80EC80936A00FE
S1130CC080E88DBB85E493E00C94EA1B089560E012
S1130CD080E0CBD31F928F9381E693E09F938F9311
S1130CE00E94AB1B0F900F900F900F900895CF931D
S1130CF0DF93D82FC62F883010F4623040F083E79A
S1130D0093E09F938F930E94AB1B0F900F90CC2383
S1130D1031F061E001C0660FDA95EAF701C060E0E6
S1130D208BE094D3DF91CF91089560E485E08ED376
S1130D3060E487E08BD360E489E088D360E086E0F8
S1130D40D6CF0895CF93C82F883040F08DE292E03B
S1130D509F938F930E94BE1B0F900F906C2F83E084
S1130D6075D3CF910895CF93C82F60E084E07DD3ED
S1130D70C11103C0682F6F7E0EC0C13019F4682FF3
S1130D80606109C08DE092E09F938F930E94BE1B27
S1130D900F900F9002C084E059D3CF91089560E082
S1130DA080E154C308951F93CF93DF93182F682FC6
S1130DB081E173D3D82FC92F282F392FA0E5B3ECA5
S1130DC00E943E1A0E94881520E030E040E859E372
S1130DD00E94EC150E945A157F936F93CF93DF9373
S1130DE01F921F938AE893E09F938F930E94AB1BFB
S1130DF08DB79EB708960FB6F8949EBF0FBE8DBFF1
S1130E008D2F9C2FDF91CF911F910895CF93DF9366
S1130E10C82F20E013C0CF5FCF702091BA08309163
S1130E20BB0881E090E00C2E02C0880F991F0A9441
S1130E30E2F7822393232D2F892B21F4D1E0D20FC3
S1130E40213148F3D13141F488E492E09F938F93A8
S1130E500E94BE1B0F900F90D13111F08C2F01C056
S1130E608FEFDF91CF910895CF93C0E01DC0209103
S1130E70BA083091BB0881E090E00C2E02C0880FC4
S1130E80991F0A94E2F782239323892B61F01F921E
S1130E90CF9384E492E09F938F930E94BE1B0F90A4
S1130EA00F900F900F90CF5FC03108F382E492E06F
S1130EB09F938F930E94BE1BEAEBF8E081818F938E
S1130EC080818F938BEA93E09F938F930E94AB1B57
S1130ED00F900F900F900F900F900F90CF91089557
S1130EE095DFECE7F0E09081907E90839081282F4D
S1130EF02770922B908383FF06C0EBE7F0E090818C
S1130F00986090830895EBE7F0E09081977F908359
S1130F1008951F920F920FB60F9211240BB60F92E1
S1130F202F933F934F935F936F937F938F939F93ED
S1130F30AF93BF93EF93FF932091780040914208C1
S1130F40642F042E000C770BFB01EE0FFF1FEB5BED
S1130F50F74F80819181DC01A20FB11D9D01B18306
S1130F60A083A9E7B0E09C91892F90E0982F88276F
S1130F70820F931F918380833C912C919F938F9335
S1130F801F923F931F922F937F934F9380EC93E094
S1130F909F938F930E94AB1B80914208A1DF8093A3
S1130FA04208909143082DB73EB7265F3F4F0FB6D6
S1130FB0F8943EBF0FBE2DBF891312C08091400824
S1130FC090914108019690934108809340080197BD
S1130FD039F481E08093440810924108109240084B
S1130FE080914408811105C0EAE7F0E080818064C3
S1130FF08083FF91EF91BF91AF919F918F917F91EA
S11310006F915F914F913F912F910F900BBE0F9075
S11310100FBE0F901F901895CF93C09143088AE09C
S113102090E00E94E51B8C2F0C2E000C990BFC0108
S1131030EE0FFF1FEB5BF74F81818F9380818F93BE
S11310409F93CF9384ED93E09F938F930E94AB1B68
S11310508C2FDCDEC82F809143080F900F900F90E7
S11310600F900F900F90C813DACFCF91089510927C
S1131070440880914308E82FEE0FFF0BEB5BF74F1A
S113108011821082C3DE909143088913F4CFEAE7FA
S1131090F0E080818064808308958FE021DF809375
S11310A04208809343088F3F71F0EAE7F0E08081C3
S11310B0806480838FE880838FEF80937E008093A9
S11310C07F00D5CF08958FED93E09F938F930E9477
S11310D0BE1B0F900F900895809176081F928F93F6
S11310E086EF93E09F938F930E94AB1B0F900F901A
S11310F00F900F900895CF92DF92FF920F931F935A
S1131100CF93DF93CDB7DEB72A970FB6F894DEBF3F
S11311100FBECDBF19821A821B821C82F92EC92EE2
S1131120D12C1F929F930DE014E01F930F930E9404
S1131130AB1B8F2DE8D71F92FF921F930F930E9432
S1131140AB1B44E050E0BE016F5F7F4F88E20E941A
S1131150F8118981982F92959695969593700FB66C
S1131160F894DEBF0FBECDBFC9F1913089F431E0F0
S1131170C31AD108DF92CF9286EA92E09F938F93AD
S11311800E94BE1B0F900F900F900F9081E04EC0F5
S1131190923089F481E0C81AD108DF92CF928AE8AC
S11311A092E09F938F930E94BE1B0F900F900F901D
S11311B00F9081E03BC09330C1F521E0C21AD10801
S11311C0DF92CF9287E692E09F938F930E94BE1B9B
S11311D00F900F900F900F9081E028C08F7390E0D4
S11311E0982F88272A81820F911D2B8130E0220FAE
S11311F0331F220F331F220F331F4C814295469514
S11312004770240F311D3F932F939F938F938FE14A
S113121094E09F938F930E94AB1B0F900F900F90BD
S11312200F900F900F9080E001C081E02A960FB6D6
S1131230F894DEBF0FBECDBFDF91CF911F910F9108
S1131240FF90DF90CF900895CF93E1E7F8E0C1E0FD
S1131250C48382E0858340DFEBE6F8E0C583148233
S1131260E5E6F8E083E08583C483409171085091FA
S11312707208609173087091740880917508909158
S1131280760839DF83E098E4FC013197F1F7FC013B
S11312903197F1F7FC013197F1F7FC013197F1F740
S11312A0FC013197F1F7FC013197F1F70197F1F760
S11312B040916B0850916C0860916D0870916E08B4
S11312C080916F089091700816DFCF910895409136
S11312D0710850917208609173087091740880913C
S11312E075089091760807CF089540916B08509146
S11312F06C0860916D0870916E0880916F089091F0
S11313007008F9CE0895409165085091660860917F
S11313106708709168088091690890916A08EBCE1B
S1131320089540E060E070E087E2EBD7892B41F458
S113133081E08093770886E294E00C94EA1B089598
S11313408EE394E00C94EA1B0895CF92DF92EF921F
S1131350FF92CF93DF9300D01F92CDB7DEB71982EF
S11313601A821B821C8280917708882309F463C047
S11313701092770844E050E0BE016F5F7F4F87E230
S11313800E94F811892B29F08EE394E00E94EA1B55
S113139052C0A9818A2F829586958695837029F0FB
S11313A080E594E00E94EA1B46C0AF73B0E0BA2F18
S11313B0AA278A81A82B28EE33E00E944D1A0F2E0B
S11313C0FEEFCF2EFFE3DF2EE12CF12CF02DA70151
S11313D096010E94221A5F934F933F932F9380E6C6
S11313E094E09F938F930E94AB1BAB8180E4A89FF2
S11313F0D00111248C8186958695A82B24E730E4AE
S11314000E944D1AA70196010E94221ADA01C9010D
S1131410805A9F40A109B109BF93AF939F938F93C3
S113142080E894E09F938F930E94AB1B0FB6F894CF
S1131430DEBF0FBECDBF0F900F900F900F90DF91C6
S1131440CF91FF90EF90DF90CF900895CF93DF93EB
S1131450D82FC62F90D088E041D48D2F3FD48C2F25
S11314603DD48FD0DF91CF910895CF93DF93D82FC0
S1131470C62F81D080E132D48D2F30D48C2F2ED43E
S113148080D079D080E12AD4C82F80E027D480E0AE
S113149025D48C2FDF91CF9108950F931F93CF9371
S11314A0DF93082F162F67D088E018D490E0C92F57
S11314B0D82F802F13D4C80FD11D812F0FD4182FEC
S11314C060D01F921F93DF93CF9381EA94E09F93A0
S11314D08F930E94AB1B0F900F900F900F900F9063
S11314E00F90CE01DF91CF911F910F91089561E08C
S11314F070E086E090E0FBCB089560E070E086E069
S113150090E0F5CB089584B3816084BB089584B3DF
S11315108E7F84BB089584B3826084BB089584B3B2
S11315208D7F84BB0895EBE0F1E080818068808347
S11315300895EBE0F1E080818F77808308958EB188
S11315408B7F8EB908958EB184608EB9089585B16C
S11315508E7F85B9089585B1816085B90895E2E0EB
S1131560F1E080818E7F80830895E2E0F1E0808164
S1131570816080830895E2E0F1E080818D7F808343
S11315800895E2E0F1E08081826080830895E2E0E2
S1131590F1E080818B7F80830895E2E0F1E0808137
S11315A0846080830895E2E0F1E08081877F808316
S11315B00895E2E0F1E08081886080830895E2E0AC
S11315C0F1E08081806180830895E2E0F1E0808130
S11315D08F7E80830895E2E0F1E0808180628083E1
S11315E00895E2E0F1E080818F7D80830895CF93B8
S11315F0DF93D9DF8FE972D380E070D380E06ED3BC
S1131600C82F80E06BD3D82FD4DF1F92DF931F92B3
S1131610CF9386EB94E09F938F930E94AB1B0F9024
S11316200F900F900F900F900F90DF91CF9108952E
S1131630CF93C82FB8DF8FE051D38C2F4FD380E0E6
S11316404DD3C82FB6DF8C2FCF91089580ECF0CF07
S11316500895CF93FBDFC82F1F928F9387EC94E0FC
S11316609F938F930E94AB1B0F900F900F900F903E
S11316708C2F8170CF910895CF93CAE0C150E9DFD8
S1131680882311F0C111FACF81E0C11101C080E0BB
S1131690CF910895CF9387DF86E020D38ADFD6DF0A
S11316A0C82F1F928F9380EE94E09F938F930E9494
S11316B0AB1B0F900F900F900F90C1FB882780F900
S11316C0CF910895CF936FDF84E008D372DFBEDF3C
S11316D0C82F1F928F938EEF94E09F938F930E9455
S11316E0AB1BC69581E08C270F900F900F900F9045
S11316F08170CF910895AF92BF92CF92DF92EF9213
S1131700FF920F931F93CF93DF93162FB72EA82E1C
S1131710EA016901E02EF12CC701840F951F81387D
S1131720984008F07DC0A8DF882309F46EC03BDF31
S113173083E1D4D28A2DD2D28B2DD0D2812FCED296
S113174038DF9ADF882309F455C0A4DF882309F41D
S113175046C029DF84E8C2D28D2FC0D28C2FBED2DE
S1131760C0E006C0F601EC0FF11D8081B7D2CF5F57
S1131770C017C0F31EDF80DF882331F114DF80E15E
S1131780ADD28A2DABD28B2DA9D2812FA7D211DF56
S113179073DF882371F096DF81114CC088E696E0F0
S11317A09F938F930E94BE1B0F900F90E12CF12CFE
S11317B041C08FE296E09F938F930E94BE1B0F90CF
S11317C00F90E12CF12C36C086EF95E09F938F9318
S11317D00E94BE1B0F900F90E12CF12C2BC086ECC5
S11317E095E09F938F930E94BE1B0F900F90E12C66
S11317F0F12C20C08DE895E09F938F930E94BE1B2F
S11318000F900F90E12CF12C15C084E695E09F9386
S11318108F930E94BE1B0F900F90E12CF12C0AC0F5
S113182080E395E09F938F930E94BE1B0F900F90CF
S1131830E12CF12C8E2DDF91CF911F910F91FF9010
S1131840EF90DF90CF90BF90AF9008958F929F92CA
S1131850AF92BF92EF92FF920F931F93CF93DF93B8
S11318607A01122F20E838E040E050E00E94001A8C
S113187049015A01862F972F462F572F810F911D0B
S11318808138984028F0C12FC60FC058D1E002C05B
S1131890C12FD0E00C2F9701C501B4012CDFC81370
S11318A023C0DD2351F1012F0C1BD0E097012C0F35
S11318B03D1FC501B4016F5F7F4F8F4F9F4F40E0C5
S11318C050E019DF90E0212F30E02C1B3D0B8217F4
S11318D0930799F089E095E09F938F930E94BE1B34
S11318E00F900F9010E009C082EE94E09F938F93C5
S11318F00E94BE1B0F900F9010E0812FDF91CF91BB
S11319001F910F91FF90EF90BF90AF909F908F9099
S11319100895AF92BF92CF92DF92EF92FF920F930E
S11319201F93CF93DF93C62FD72F182F6A01590126
S1131930E02EF12CC701840F951F8138984008F0E0
S11319403DC09ADE882379F12EDE83E1C7D1812F51
S1131950C5D18D2FC3D18C2FC1D12BDE8DDE882331
S1131960B9F021DE83E0BAD18D2DB8D18C2DB6D15A
S113197080E0B4D1C0E008C06501CC0ED11C80E089
S1131980ADD1F6018083CF5FC017B0F312DE20C063
S113199088EA94E09F938F930E94BE1B0F900F9050
S11319A0E12CF12C15C08EE794E09F938F930E9455
S11319B0BE1B0F900F90E12CF12C0AC089E494E037
S11319C09F938F930E94BE1B0F900F90E12CF12CDC
S11319D08E2DDF91CF911F910F91FF90EF90DF90AB
S11319E0CF90BF90AF9008958F929F92AF92BF9285
S11319F0EF92FF920F931F93CF93DF937A01122FED
S1131A0020E838E040E050E00E94001A49015A0101
S1131A10862F972F462F572F810F911D813898407D
S1131A2028F0C12FC60FC058D1E002C0C12FD0E0AA
S1131A300C2F9701C501B4016CDFC81323C0DD234B
S1131A4051F1012F0C1BD0E097012C0F3D1FC50154
S1131A50B4016F5F7F4F8F4F9F4F40E050E059DFDD
S1131A6090E0212F30E02C1B3D0B8217930799F057
S1131A7084E294E09F938F930E94BE1B0F900F907B
S1131A8010E009C08FEF93E09F938F930E94BE1BD9
S1131A900F900F9010E0812FDF91CF911F910F9144
S1131AA0FF90EF90BF90AF909F908F900895CF924A
S1131AB0DF92EF92FF926B017C01C11488E0D8069B
S1131AC0E104F10408F03EC0D7DD882389F1E2DDAA
S1131AD0882321F168DD88ED01D18E2DFFD08D2D75
S1131AE0FDD08C2DFBD065DDC7DD882369F0EADDF0
S1131AF0811132C084ED93E09F938F930E94BE1BAB
S1131B000F900F9080E029C08AE993E09F938F9310
S1131B100E94BE1B0F900F9080E01FC08BE693E0E5
S1131B209F938F930E94BE1B0F900F9080E015C06F
S1131B3083E493E09F938F930E94BE1B0F900F90BA
S1131B4080E00BC08CE093E09F938F930E94BE1BB8
S1131B500F900F9080E001C081E0FF90EF90DF9044
S1131B60CF900895CF931FDD8FEFB8D022DD6EDDC7
S1131B70C82F1F928F938DE195E09F938F930E94BE
S1131B80AB1B0F900F900F900F908C2FCF91089557
S1131B90CF92DF92EF92FF921F93CF93DF93E2DF16
S1131BA0C0E0D0E011E022C06E01E12CF12CDF9303
S1131BB0CF938AEF92E09F938F930E94BE1BC7013D
S1131BC0B60175DF0F900F900F900F9081110DC02B
S1131BD0DF93CF9386EC92E09F938F930E94BE1B7A
S1131BE00F900F900F900F9010E02196CA30D105FE
S1131BF0D8F2812FDF91CF911F91FF90EF90DF906A
S1131C00CF9008951F93CF93DF931F921F92CDB768
S1131C10DEB785E089838AE395E00E94EA1B10E041
S1131C2029C041E0BE016E5F7F4F8FE03FD28A81C1
S1131C30853011F141E0BE016F5F7F4F8FE020D20C
S1131C408A811F928F931F921F938BE495E09F9339
S1131C508F930E94AB1B89811F928F938CE595E033
S1131C609F938F930E94AB1B1F5F0FB6F894DEBF48
S1131C700FBECDBF1431A8F2143120F08BE695E0ED
S1131C800E94EA1B0F900F90DF91CF911F9108954E
S1131C90CF93DF931F92CDB7DEB741E0BE016F5FF4
S1131CA07F4F8FE003D289811F928F9382E995E061
S1131CB09F938F930E94AB1B0F900F900F900F90E8
S1131CC00F90DF91CF9108951DBC81E58CBD71DC2F
S1131CD042DC4BDC74DC61DC54CC08958EBD0DB465
S1131CE007FEFDCF8EB50895FC0120E030E00AC068
S1131CF0CF01019640814EBD0DB407FEFDCF2F5F8D
S1131D003F4FFC012617370798F30895FC0120E0A4
S1131D1030E009C01EBC0DB407FEFDCF8EB5808334
S1131D202F5F3F4F319626173707A0F30895CF93BF
S1131D30DF931F921F92CDB7DEB79A8389838A817E
S1131D408EBD0DB407FEFDCF89818EBD0DB407FE97
S1131D50FDCF0F900F90DF91CF910895EF92FF92F6
S1131D601F93CF93DF93EB01182F177090E1199F06
S1131D7090011124E72EFF24AB0155275F934F9365
S1131D802E293F293F932F93DF936F931F928F93B5
S1131D908AEA95E09F938F930E94AB1BF8DB812F17
S1131DA08295807F8E299ADF8C2F98DFF6DB8DB7A2
S1131DB09EB70A960FB6F8949EBF0FBE8DBFDF91F3
S1131DC0CF911F91FF90EF900895EF92FF921F9390
S1131DD0CF93DF93EB01182F177090E1199F9001B7
S1131DE01124E72EFF24AB0155275F934F932E292F
S1131DF03F293F932F93DF936F931F928F938BED24
S1131E0095E09F938F930E94AB1BA9DB812F829552
S1131E10807F8E2963DF8C2F61DFA7DB8DB79EB7B0
S1131E200A960FB6F8949EBF0FBE8DBFDF91CF9177
S1131E301F91FF90EF900895CF93DF93C82FD92F70
S1131E408CE096E00E94EA1B8ADB8D2F806C46DFD3
S1131E508C2F44DF8ADBDF91CF910895CF93DF93FA
S1131E60C82FD92F83E296E00E94EA1B90DB8D2FC6
S1131E70806C34DF8C2F32DF90DBDF91CF910895BB
S1131E8066DB86E02BDF67CB0895CF9360DB85E0CC
S1131E9025DF80E023DFC82F5EDB1F92CF938CE920
S1131EA097E09F938F930E94AB1B0F900F900F901E
S1131EB00F908C2FCF910895EF92FF920F931F9361
S1131EC0CF93DF938C017B01EA01840F951F81304E
S1131ED0904220F089E396E00E94EA1BD1DF37DBD1
S1131EE082E0FCDEC80123DFBE01C701FDDE33DB77
S1131EF0DF91CF911F910F91FF90EF900895CF92B2
S1131F00DF92EF92FF920F931F93CF93DF93C82F2B
S1131F10D92F8B016A011BDB83E0E0DE8D2FDEDE2F
S1131F208C2FDCDEC0E0D0E00AC078018FEFE81A25
S1131F30F80A80E0D3DEF801808321968701CC156E
S1131F40DD0598F308DBDF91CF911F910F91FF908E
S1131F50EF90DF90CF900895CF93DF9300D01F923E
S1131F60CDB7DEB7F4DA8FEAB9DE64E070E0CE0113
S1131F700196CCDEF0DA3C812B819A8189811F9213
S1131F803F931F922F931F929F931F928F938CE5E1
S1131F9096E09F938F930E94AB1B0FB6F894DEBF1D
S1131FA00FBECDBF0F900F900F900F90DF91CF9188
S1131FB00895CF93DF93CDB7DEB728970FB6F89483
S1131FC0DEBF0FBECDBF5CDF8FE18D8381E48E83E6
S1131FD081E88F838AEF888744E050E0BE016B5F1D
S1131FE07F4F80E094E068DF44E050E0BE016F5F23
S1131FF07F4F80E094E083DF3C812B819A8189814B
S11320001F923F931F922F931F929F931F928F9320
S11320108FE696E09F938F930E94AB1B0FB6F894C4
S1132020DEBF0FBECDBF28960FB6F894DEBF0FBE3D
S1132030CDBFDF91CF91089590937908809378086C
S113204042E050E068E778E080E090E035CF089522
S113205042E050E068E778E080E090E050DF809173
S113206079088F93809178088F938CE796E09F93FB
S11320708F930E94AB1B0F900F900F900F900895B9
S11320800F931F93CF93DF93D82F8B01C42F9DDA27
S11320908D2F806223DE6C2F70E0C80125DE8FDA7D
S11320A08C2FDF91CF911F910F9108950F931F9360
S11320B0CF93DF93D82F8B01C42F87DA8D2F806ABB
S11320C00DDE6C2F70E0C80121DE79DA8C2FDF91F0
S11320D0CF911F910F910895CF93DF931F92CDB7A6
S11320E0DEB741E050E0BE016F5F7F4F80E780D1F3
S11320F0892B21F083E896E00E94EA1B89810F90E6
S1132100DF91CF910895CF93DF931F92CDB7DEB7C0
S11321108983843008F04FC01F928F938DE996E035
S11321209F938F930E94AB1B41E0BE016F5F7F4F73
S113213080E7E7D00F900F900F900F90892B09F153
S11321408981E82FF0E0EA5DF84F9081973058F0EC
S113215061D08FEA96E09F938F930E94AB1B0F9000
S11321600F9081E039C01F928F9384EB96E09F9388
S11321708F930E94AB1B0F900F900F900F9081E0F4
S11321802BC0AADF9981891721F186ED96E00E9480
S1132190EA1BE981F0E0EA5DF84F80818730D8F0EE
S11321A039D08EEF96E09F938F930E94AB1B0F90D4
S11321B00F9081E011C01F928F9383E097E09F936B
S11321C08F930E94AB1B0F900F900F900F9081E0A4
S11321D003C080E001C081E00F90DF91CF910895AA
S11321E09F938F938AE297E09F938F930E94AB1BF8
S11321F00F900F900F900F9008951F928F938EE37E
S113220097E09F938F930E94AB1B0F900F900F90BA
S11322100F90089584E98093BC00EBE0F1E08081A5
S11322208F7B808380E005C0E3E0F8E43197F1F729
S11322308F5F8431C8F3EBE0F1E0808180648083B8
S113224080E005C0E3E0F8E43197F1F78F5F843173
S1132250C8F3EBE0F1E080818F7B808380E005C0F0
S1132260E3E0F8E43197F1F78F5F8431C8F3EBE0F2
S1132270F1E0808180648083E9EBF0E080818C7FF1
S113228080838081808380E18093B800ECEBF0E070
S113229080818460808381E080937A08089584EA51
S11322A08093BC0010923B0810923A088091BC00C5
S11322B0882334F080913A0890913B084E97B0F30C
S11322C080913A0890913B084E9730F081E597E071
S11322D00E94EA1B81E008958091B900887F8830CC
S11322E071F01F928F9388E697E09F938F930E94DB
S11322F0AB1B0F900F900F900F9081E0089580E03A
S113230008950F931F93CF93DF93082FEB01142F9E
S1132310C6DF811166C0000F0093BB0084E8809380
S1132320BC0010923B0810923A088091BC008823AC
S113233034F080913A0890913B084E97B0F3809125
S11323403A0890913B088091B900887F883109F45C
S11323503FC084E98093BC0080E24FDF81E090E0DD
S113236042C0AE014F5F5F4F88818093BB0084E819
S11323708093BC0010923B0810923A088091BC00F4
S1132380882334F080913A0890913B084E97B0F33B
S113239080913A0890913B088091B900887F8832F7
S11323A0A1F01F928F9388E897E09F938F930E94E8
S11323B0AB1B84E98093BC0080E31FDF0F900F9078
S11323C00F900F9081E090E00EC02F5FEA0101C0F2
S11323D020E0211730F284E98093BC0080E090E093
S11323E002C081E090E0DF91CF911F910F91089599
S11323F0FF920F931F93CF93DF93F82E8B01EA0183
S11324004EDF811179C08F2D90E0880F991F816074
S11324108093BB0084E88093BC0010923B08109228
S11324203A088091BC00882334F080913A08909156
S11324303B084E97B0F380913A0890913B08809105
S1132440B900887F803409F44DC088E4D6DE84E97D
S11324508093BC0084EA97E0C3DE81E090E04EC044
S113246010923B0810923A08C130D10511F484E867
S113247001C084EC8093BC0010923B0810923A088F
S11324808091BC00882334F080913A0890913B08F5
S11324904E97B0F380913A0890913B084E97D8F04C
S11324A08091B9001F928F93DF93CF938DEA97E0C9
S11324B09F938F930E94AB1B84E98093BC0084EAB2
S11324C097E08EDE0F900F900F900F900F900F906B
S11324D081E090E013C08091BB00F80180832197D4
S11324E00F5F1F4F1C161D060CF4BACF84E98093AE
S11324F0BC0080E090E002C081E090E0DF91CF91E9
S11325001F910F91FF9008958FEF81B997EF94B9C0
S113251087B99BEB9AB99EE39DB910BA83BB9FE739
S11325209093010192E79093040110920701809324
S11325300A0188B98093020154C80895CF93DF93A8
S1132540ECE6F9E081E092E09183808393838283D7
S113255080E0B8D0D9DFB8DB0E945C068FE09FE84A
S11325609093BB088093BA08C0E0D0E005C08EE227
S113257090E00E94E51B2196C035D105C0F38AE0A6
S113258090E00E94E51B3EDB0E94950643DE0E941C
S113259024090E944D080E942409789483EE97E050
S11325A00E94EA1BDF91CF910895C8DF84EF97E082
S11325B00E94EA1B19D280918208882321F00E948C
S11325C025041092820880913C08882341F0EBE0B6
S11325D0F1E0908181E08927808310923C0880910A
S11325E03D08882339F3EBE0F1E0908181E089270D
S11325F0808380917C08882319F0815080937C0823
S113260010923D08D7CFE3ECF8E060831182938306
S11326108283958384839783868308959FB7F894F0
S11326208091C408811104C0992304F57894089515
S1132630E3ECF8E0A481B5819D012F5F3F4F358322
S113264024838C91218121502183448155812681C9
S113265037816081260F311D4217530720F02681F0
S113266037813583248399230CF4789408959FB794
S1132670F894E3ECF8E031812081321720F09923BB
S113268004F578940895E3ECF8E0A281B3819D0108
S11326902F5F3F4F338322838C9381818F5F8183AC
S11326A042815381268137818081280F311D421751
S11326B0530720F0268137813383228399230CF436
S11326C0789408958230B9F18430B8F580937B080A
S11326D090918308913019F0923039F003C09FE54E
S11326E020E005C097E020E002C091E020E08130C6
S11326F019F0833071F016C02093CD009093CC0074
S113270088E98093C90060E88BEC98E07CDF80E086
S11327100895209335019093340188E98093310121
S113272080E008952093C5009093C40088E98093C5
S1132730C10080E0089581E0089581E00895CF9379
S1132740C82F8A3031F460916E0970916F098DE061
S1132750F6DF8091C00085FFFCCFC093C60080E007
S113276090E0CF910895CF93C82F8A3011F48DE073
S1132770FADF8091C80085FFFCCFC093CE0080E0D3
S113278090E0CF91089580E090E008951F920F9219
S11327900FB60F9211240BB60F922F933F934F93C2
S11327A05F936F937F938F939F93AF93BF93CF93D5
S11327B0DF93EF93FF938091C00084FD08C0809164
S11327C0C00083FD04C080918208882341F0809179
S11327D0C60090E09093810880938008A1C0809106
S11327E07F088F3180F08091C60090E0909381083B
S11327F08093800810927F0810926B0910928208CF
S113280010927E088DC0E0917F08F0E08091C600B0
S1132810E45BF64F8083E0917F08F0E0E45BF64FE1
S113282080818A3041F0E0917F08F0E0E45BF64F6C
S113283080818D3089F481E08093820880917E08C4
S11328408F5F80937E08E0917F08F0E0E45BF64FB1
S1132850108210927F0864C0E0917F08F0E0E45B8E
S1132860F64F8081883041F0E0917F08F0E0E45B2E
S1132870F64F80818F3739F580917F08882309F4DA
S11328804FC0CCE6D9E06A817B8188E058DF6A8159
S11328907B8180E254DF6A817B8188E050DF809114
S11328A07F08815080937F0880917E0881508093B7
S11328B07E0880917D08882399F180917D0881505C
S11328C080937D082DC0E0917F08F0E0E45BF64F33
S11328D080818C3298F0E0917F08F0E0E45BF64F61
S11328E080818B3758F480917F088F5F80937F08B5
S11328F080917E088F5F80937E0812C0E0917F08EC
S1132900F0E0E45BF64F80818B3151F460916E0905
S113291070916F098DE013DF10927F0810927E088A
S1132920FF91EF91DF91CF91BF91AF919F918F91E3
S11329307F916F915F914F913F912F910F900BBEBB
S11329400F900FBE0F901F9018951F920F920FB605
S11329500F9211240BB60F922F933F934F935F93D3
S11329606F937F938F939F93AF93BF93EF93FF9353
S11329708091C80084FD04C08091C80083FF08C012
S11329808091CE0090E0909381088093800819C0D4
S11329908091CE008A3041F480E069DE80914B0959
S11329A08F5F80934B090DC08D3059F0883011F042
S11329B08F3711F433DE05C090EE980F9F3508F47D
S11329C056DEFF91EF91BF91AF919F918F917F91CF
S11329D06F915F914F913F912F910F900BBE0F908C
S11329E00FBE0F901F90189580917E08882369F17F
S11329F090917D0880917E089817C0F48091820898
S1132A0081110BC060916E0970916F09E0917D088E
S1132A10F0E0E45BF64F808192DE80917D088F5F69
S1132A2080937D088AE080937C0813C080917C08A1
S1132A3081110FC08FB78F778FBF10927D081092CE
S1132A407E0810927F08789404C010927D0810923A
S1132A507C08809182088823A9F08CE499E09F93F4
S1132A608F9380E098E09F938F9375D610927F08A0
S1132A7010927C0810927E0810927D080F900F909F
S1132A800F900F9080914B09882399F08BEC98E07C
S1132A909F938F938AE098E09F938F935CD68EE701
S1132AA062DE8AE260DE8EE75EDE0F900F900F90AA
S1132AB00F90089570D088F09F5790F0B92F992700
S1132AC0B751A0F0D1F0660F771F881F991F1AF035
S1132AD0BA95C9F712C0B13081F077D0B1E008954A
S1132AE074C0672F782F8827B85F39F0B93FCCF3CB
S1132AF0869577956795B395D9F73EF4909580952B
S1132B00709561957F4F8F4F9F4F0895E89409C04A
S1132B1097FB3EF490958095709561957F4F8F4F0C
S1132B209F4F9923A9F0F92F96E9BB279395F69522
S1132B30879577956795B795F111F8CFFAF4BB0FA0
S1132B4011F460FF1BC06F5F7F4F8F4F9F4F16C004
S1132B50882311F096E911C0772321F09EE8872F8E
S1132B60762F05C0662371F096E8862F70E060E04A
S1132B702AF09A95660F771F881FDAF7880F9695C3
S1132B80879597F9089557FD9058440F551F59F0AC
S1132B905F3F71F04795880F97FB991F61F09F3F46
S1132BA079F087950895121613061406551FF2CF6F
S1132BB04695F1DF08C0161617061806991FF1CFBF
S1132BC086957105610508940895E894BB276627E6
S1132BD07727CB0197F908950BD078C069D028F0F6
S1132BE06ED018F0952309F05AC05FC01124EECFBF
S1132BF0CADFA0F3959FD1F3950F50E0551F629F54
S1132C00F001729FBB27F00DB11D639FAA27F00D41
S1132C10B11DAA1F649F6627B00DA11D661F829F68
S1132C202227B00DA11D621F739FB00DA11D621F4D
S1132C30839FA00D611D221F749F3327A00D611D6A
S1132C40231F849F600D211D822F762F6A2F11244C
S1132C509F5750408AF0E1F088234AF0EE0FFF1F9F
S1132C60BB1F661F771F881F91505040A9F79E3FD6
S1132C70510570F014C0AACF5F3FECF3983EDCF32B
S1132C80869577956795B795F795E7959F5FC1F713
S1132C90FE2B880F911D9695879597F9089597F9BE
S1132CA09F6780E870E060E008959FEF80EC0895EE
S1132CB000240A9416161706180609060895002417
S1132CC00A9412161306140605060895092E039491
S1132CD0000C11F4882352F0BB0F40F4BF2B11F405
S1132CE060FF04C06F5F7F4F8F4F9F4F08952F92F7
S1132CF03F924F925F926F927F928F929F92AF9288
S1132D00BF92CF92DF92EF92FF920F931F93CF93D4
S1132D10DF93CDB7DEB760970FB6F894DEBF0FBE72
S1132D20CDBF7C011B016A01FC01178216828381DD
S1132D3081FF2AC39E012F5F3F4F3901F701938121
S1132D40F10193FD859193FF81911F01882309F47B
S1132D5017C3853239F493FD859193FF81911F0147
S1132D60853231F4B70190E0BAD456016501E6CF5B
S1132D7010E0512C912CFFE1F915D8F08B3279F049
S1132D8038F4803279F08332A1F4F92DF0612EC049
S1132D908D3261F0803369F4292D21602DC0392DE5
S1132DA03260932E892D8460982E2AC0E92DE86024
S1132DB015C097FC2DC020ED280F2A3088F496FE0C
S1132DC006C03AE0139F200D1124122F19C08AE087
S1132DD0589E200D1124522EE92DE0629E2E10C023
S1132DE08E3231F496FCCCC2F92DF0649F2E08C0CB
S1132DF08C3621F4292D2068922E02C0883641F4A5
S1132E00F10193FD859193FF81911F018111B3CF4E
S1132E109BEB980F933020F4992D9061805E07C04E
S1132E209BE9980F933008F059C1992D9F7E96FF26
S1132E3016E09F73992E853619F49064992E08C074
S1132E40863621F4392F3068932E02C011111150A7
S1132E5097FE07C01C3350F444244394410E27E0EA
S1132E600BC0183038F027E017E005C027E09CE3DA
S1132E70492E02C0212F412C560184E0A80EB11C1A
S1132E80F6016081718182819381042DA30128D38D
S1132E906C01F981FC87F0FF02C0F3FF06C091FCCE
S1132EA006C092FE06C000E205C00DE203C00BE2BC
S1132EB001C000E08C858C7019F0011143C280C2FE
S1132EC097FE10C04C0CFC85F4FF04C08A8181334A
S1132ED009F44A94141474F528E0241578F588E06C
S1132EE0482E2CC096FC2AC0812F90E08C159D059D
S1132EF09CF03CEFC3163FEFD30674F0892D806835
S1132F00982E0AC0E2E0F0E0EC0FFD1FE10FF11D86
S1132F108081803319F411501111F4CF97FE0EC043
S1132F2044244394410E812F90E0C816D9062CF412
S1132F301C1904C04424439401C010E097FE06C049
S1132F401C141D0434F4C601019605C085E090E00C
S1132F5002C081E090E001110196112331F0212F8C
S1132F6030E02F5F3F4F820F931F252D30E08217F3
S1132F70930714F4581A01C0512C892D897041F417
S1132F80552031F0B70180E290E0A9D35A94F8CFEC
S1132F90002321F0B701802F90E0A1D393FC08C057
S1132FA0552031F0B70180E390E099D35A94F8CFDB
S1132FB097FE4AC04601D7FE02C0812C912CC6015F
S1132FC088199909F301E80FF91FFE87ED87960127
S1132FD024193109388B2F87012F10E011950195A1
S1132FE011093FEF8316930621F4B7018EE290E0B6
S1132FF076D3C814D9044CF08F859889881599051F
S113300024F4ED85FE85818101C080E3F1E08F1A0F
S113301091082D853E852F5F3F4F3E872D87801673
S1133020910624F0B70190E05AD3DBCFC814D90439
S113303041F49A81963320F4953319F43C8534FF96
S113304081E3B70190E048C08A81813319F09C85FF
S11330509F7E9C87B70190E042D3111105C094FC78
S113306016C085E690E015C0B7018EE290E037D334
S11330701E5F82E001E0080FF301E80FF11D80817B
S1133080B70190E02CD3802F0113F4CFE8CF85E46F
S113309090E0B70124D3D7FC06C0C114D10441F495
S11330A0EC85E4FF05C0D194C194D1088DE201C040
S11330B08BE2B70190E013D380E32AE0C216D10477
S11330C02CF08F5FFAE0CF1AD108F7CFB70190E068
S11330D006D3B701C601C09602D349C1833631F085
S11330E0833779F0833509F052C01FC0560132E0AE
S11330F0A30EB11CF6018081898301E010E0630115
S113310011C05601F2E0AF0EB11CF601C080D180AF
S113311096FE03C0612F70E002C06FEF7FEFC6011F
S1133120CBD28C01F92DFF7713C0560122E0A20EF9
S1133130B11CF601C080D18096FE03C0612F70E0FF
S113314002C06FEF7FEFC601A3D28C01F92DF068A6
S11331509F2EF3FD18C0852D90E00817190798F4E9
S1133160B70180E290E0BBD25A94F5CFF60197FC08
S1133170859197FE81916F01B70190E0B0D2511013
S11331805A94015011090115110581F7F0C08436D4
S113319011F0893659F5560197FE09C024E0A20EB4
S11331A0B11CF60160817181828193810AC0F2E0D1
S11331B0AF0EB11CF60160817181072E000C880BE3
S11331C0990BF92DFF769F2E97FF09C09095809556
S11331D0709561957F4F8F4F9F4FF0689F2E2AE027
S11331E030E0A30127D3C82EC6183EC0092D853769
S11331F021F40F7E2AE030E01DC0097F8F3691F064
S113320018F4883559F0BCC0803719F0883711F0AC
S1133210B7C0006104FF09C0046007C094FE08C081
S1133220066006C028E030E005C020E130E002C0BE
S113323020E132E0560107FF09C084E0A80EB11C6A
S1133240F601608171818281938108C0F2E0AF0E42
S1133250B11CF6016081718180E090E0A301EAD2A3
S1133260C82EC6180F77902E96FE0BC0092D0E7F20
S1133270C11650F494FE0AC092FC08C0092D0E7EBB
S113328005C0DC2C092D03C0DC2C01C0D12E04FFA9
S11332900DC0FE01EC0DF11D8081803311F4097E17
S11332A009C002FF06C0D394D39404C0802F86784B
S11332B009F0D39403FD10C000FF06C01C2DD514E3
S11332C078F4150D1D190CC0D51450F4B70180E223
S11332D090E005D2D394F8CFD51410F45D1801C052
S11332E0512C04FF0FC0B70180E390E0F8D102FF36
S11332F016C001FD03C088E790E002C088E590E0B5
S1133300B7010CC0802F867851F001FF02C08BE218
S113331001C080E207FD8DE2B70190E0E0D1C11663
S113332030F4B70180E390E0DAD11150F8CFCA94B9
S1133330F301EC0DF11D8081B70190E0D0D1C110F3
S1133340F6CF15C0F4E0F51550F584E0581A93FE55
S11333501EC0011125C02C8523FF27C004EE10E0F8
S1133360392D3071932EF8018491811121C055209B
S113337009F4FCCCB70180E290E0B1D15A94F7CFC4
S1133380F7018681978123C08FEF9FEF20C0B7019B
S113339080E290E0A4D15A945110F9CFDACF512CA5
S11333A0B701802F90E09BD1D6CF08EE10E0D8CFA4
S11333B091108052B70190E092D10F5F1F4FD3CF8D
S11333C023E0251510F483E0C1CF512CC4CF6096BF
S11333D00FB6F894DEBF0FBECDBFDF91CF911F9122
S11333E00F91FF90EF90DF90CF90BF90AF909F90A0
S11333F08F907F906F905F904F903F902F900895A3
S1133400A1E21A2EAA1BBB1BFD010DC0AA1FBB1FE4
S1133410EE1FFF1FA217B307E407F50720F0A21B56
S1133420B30BE40BF50B661F771F881F991F1A94C3
S113343069F760957095809590959B01AC01BD01ED
S1133440CF010895052E97FB16F400940FD057FD75
S113345005D0D6DF07FC02D046F408C0509540954D
S1133460309521953F4F4F4F5F4F0895909580952C
S1133470709561957F4F8F4F9F4F0895A29FB00124
S1133480B39FC001A39F700D811D1124911DB29F94
S1133490700D811D1124911D0895F0DFB7FF08956B
S11334A0821B930B0895FC0188279927E8942191A6
S11334B02032E9F3293010F02E30C8F32B3239F0E2
S11334C02D3231F4689403C002D1820F911D2191F1
S11334D020532A30C8F31EF4909581959F4F089588
S11334E0283008F027E03327DA01990F311D87FDD2
S11334F0916000966105710539F432602E5F3D9349
S113350030E32A95E1F708959F3F30F08038710544
S1133510610509F03C5F3C5F3D93913008F08068A1
S1133520911DDF93CF931F930F93FF92EF92192F67
S1133530987F9695E92F96959695E90FFF27EA5B74
S1133540FE4F99273327EE24FF24A701E7010590B6
S11335500894079428F4360FE71EF81E491F511DDE
S1133560660F771F881F991F0694A1F7059007948B
S113357028F4E70EF81E491F561FC11D770F881F38
S1133580991F661F0694A1F70590079428F4F80E76
S1133590491F561FC71FD11D880F991F661F771F0C
S11335A00694A1F70590079420F4490F561FC71FEE
S11335B0D81F990F661F771F881F0694A9F7849157
S11335C01095177041F0D695C79557954795F79480
S11335D0E7941A95C1F7ECEEF0E068941590159114
S11335E035916591959105907FE27395E118F10A03
S11335F0430B560BC90BD009C0F7E10CF11E431F56
S1133600561FC91FD01D7EF4703311F48A95E6CF7E
S1133610E894015030F0080F0AF40027021708F468
S1133620202F2395022F7A3328F079E37D932A956E
S1133630E9F710C07D932A9589F6069497956795C6
S1133640379517951794E118F10A430B560BC90BDC
S1133650D00998F023957E9173957A3308F070E33E
S11336607C932013B8F77E9170617D9330F083953D
S113367071E37D9370E32A95E1F71124EF90FF90B5
S11336800F911F91CF91DF91992787FD9095089510
S1133690FC010590615070400110D8F78095909519
S11336A08E0F9F1F0895FB01DC018D9101908019FD
S11336B00110D9F3990B0895FC01615070400190F9
S11336C00110D8F7809590958E0F9F1F08957AE08A
S11336D0979F902D879F802D910D112408950F930E
S11336E01F93CF93DF93FB01238121FD03C08FEF51
S11336F09FEF2CC022FF16C046815781248135815B
S11337004217530744F4A081B1819D012F5F3F4FBD
S1133710318320838C93268137812F5F3F4F3783FA
S1133720268314C08B01EC01FB010084F185E02D9C
S11337301995892BE1F6D80116968D919C911797CE
S1133740019617969C938E931697CE01DF91CF9195
S11337501F910F910895CF93DF93CDB7DEB7AE01DC
S11337604A5F5F4FFA0161917191AF0180916E09D7
S113377090916F09BCDADF91CF9108950F931F9355
S1133780CF93DF93CDB7DEB7AE01485F5F4FDA0169
S11337906D917D91AD010CE619E0F8018281938170
S11337A0DC0113962C911397286013962C939FDABF
S11337B0D8011296ED91FC9113972381277F2383DF
S11337C0DF91CF911F910F91089560916E097091CF
S11337D06F0985CF0F931F93CF93DF93E0916E0909
S11337E0F0916F09238121FF1BC08C01D0E0C0E060
S11337F0F80181918F0160916E0970916F09DB016D
S11338001896ED91FC911997882331F01995892B1D
S113381079F3DFEFCFEFECCF8AE01995892B19F01C
S11338208FEF9FEF02C08D2F9C2FDF91CF911F91BF
S11338300F910895FA01AA27283051F1203181F11E
S1133840E8946F936E7F6E5F7F4F8F4F9F4FAF4FA4
S1133850B1E03ED0B4E03CD0670F781F891F9A1FB7
S1133860A11D680F791F8A1F911DA11D6A0F711D6B
S1133870811D911DA11D20D009F468943F912AE077
S1133880269F11243019305D3193DEF6CF0108955F
S1133890462F4770405D4193B3E00FD0C9F7F6CF90
S11338A0462F4F70405D4A3318F0495D31FD405258
S11338B0419302D0A9F7EACFB4E0A69597958795EE
S11338C077956795BA95C9F70097610571050895CD
S11338D09B01AC010A2E0694579547953795279579
S11338E0BA95C9F7620F731F841F951FA01D089511
S10738F0F894FFCF76
S11338F40100000003000000009F13C31300003004
S1133904313233343536373839000A5265616469E3
S11339146E672066726F6D20464C41534800726591
S1133924636F72642025643A0A00636D642025730E
S11339342D2D00753437007E3A2025640A00627503
S1133944636B7320302C312C342028632C692C7342
S1133954312920656E61626C6564006275636B3243
S113396420284D6F642920656E61626C6564006271
S113397475636B3420284F70744874722920656E03
S113398461626C6564006275636B352028737061D1
S11339947265322920656E61626C656400627563C8
S11339A46B7320302C312C342028632C692C733114
S11339B4292064697361626C6564006275636B32A7
S11339C420284D6F64292064697361626C65640006
S11339D46275636B3320284F7074487472292064B1
S11339E4697361626C6564006275636B3520285386
S11339F47061726532292064697361626C65640064
S1133A04763D2025640A00763D20307825580A0046
S1133A14575446000A6E6F20636D643A2573200A76
S1133A2400696E697469616C697A696E6720746986
S1133A346D65723200696E20696E697420636F75F6
S1133A446E7465727320616E642074696D6572733B
S1133A54004144432073797320726567203D202517
S1133A64580A006572726F722C20696E76616C69F3
S1133A7464204368616E6E656C006368616E6E6594
S1133A846C203D2025752C20616463203D2025583D
S1133A942C20202575206D41200A00616374697609
S1133AA46520414443733A203078253032780A0043
S1133AB425642025303278253032782025643A2054
S1133AC4202020002564202025753B20202000454B
S1133AD452524F523A204E6F204144437320416363
S1133AE4746976650A00666C6F7763203D202564EB
S1133AF400616273206368203D202564006D75783D
S1133B044368616E6E656C203D202564200A00259F
S1133B14752025750A0073746172746564205248B3
S1133B245F5420436F6E76657273696F6E005248FA
S1133B345F54205374617274204661696C65640037
S1133B4452485F54205374616C652044617461006D
S1133B545248203D20256C64202854656E74687393
S1133B64206F6620612050657263656E74290A00B3
S1133B7454203D20256C64202868756E6472657435
S1133B846873206F66206120446567726565290A3D
S1133B940061646332353138203D2030782534584F
S1133BA4253032580A000A3078253032782C2030F7
S1133BB478253032780A007370695F466C617368E3
S1133BC44973427573793A203078253032780A0083
S1133BD47370695F466C617368456E61626C6557A6
S1133BE4726974653A203078253032780A0073702B
S1133BF4695F466C61736844697361626C6557728A
S1133C046974653A203078253032780A0073706913
S1133C145F52657365743A207374617475732069B3
S1133C2473203078253032780A00696E2052544368
S1133C345F636F6E66696728293B0072656164205F
S1133C445254432025643A25642020007772697411
S1133C54653A203078253258200A004552524F5292
S1133C643A20636C6F636B204672657175656E638D
S1133C7479206E6F74206174203130323420485AB4
S1133C842100307825325800756E69785365636F66
S1133C946E6473203D20256C75004255434B2044CB
S1133CA44143202020307825582076616C756520A6
S1133CB43D2030782533582E20202030782530328A
S1133CC47820203078253032780A004F7074696384
S1133CD4732044414320307825582076616C7565FF
S1133CE4203D2030782533582E202020307825306C
S1133CF4327820203078253032780A00696E204FDB
S1133D0470746963734461632042726F61644361D4
S1133D14737400696E204255434B2044616320420E
S1133D24726F616443617374004657204552524F65
S1133D34522C2077726974696E67207061737420E1
S1133D44656E64206F66204652414D002558203A22
S1133D54202558203A202558203A2025580A0025A1
S1133D64582025582025582025580A00534E3A2512
S1133D74750A006572726F722072656164696E6798
S1133D84206D7578206368616E6E656C0077686970
S1133D9463684D55586368203D202564200A00203B
S1133DA4656C20004552524F52202D205365747483
S1133DB4696E67204D5558204368616E6E656C20AA
S1133DC43D2025640A004552524F52202D2066613D
S1133DD4696C656420746F20636F6E6669726D200C
S1133DE44D5558206368616E6E656C2E0D00206518
S1133DF46D20004552524F52202D20696E76616C1D
S1133E046964204D5558204368616E6E656C203D8D
S1133E142025640D0A0000000000545749207374DF
S1133E246174757320636F64652025730A005457A5
S1133E3449206572726F7220636F64652025580A85
S1133E44007477692073746172742074696D656F8A
S1133E5475742E2E2E200D0074776920737461728C
S1133E64742077726F6E6720737461747573202580
S1133E74642E2E2E200D0A00627974652073656EFB
S1133E847420737461747573203D203D307825303B
S1133E9432580A007477694572726F72004552523F
S1133EA44F522072656164206661696C6564207791
S1133EB4697468202564206279746573206C65666E
S1133EC4742C207374617475733D307825303258C2
S1133ED40D0A002E2E2E2E2E0A2E2E2E2E0A2E2EB5
S1133EE42E0A2E00696E697469616C697A656400CE
S1133EF4202020203A2025730A00676F742055611E
S1133F0472743120434F6D706C6574653A25732067
S1133F140A00623F00626175640039363030003152
S10D3F2431356B003436306B0000B9
S9030000FC
