:100000000C94DB0C0C94FC0C0C94FC0C0C94FC0C71
:100010000C94FC0C0C94FC0C0C94FC0C0C94FC0C40
:100020000C9495180C94FC0C0C94FC0C0C94FC0C8B
:100030000C94FC0C0C949F180C94FC0C0C94FC0C71
:100040000C94FC0C0C94FC0C0C94FC0C0C94FC0C10
:100050000C94FC0C0C94FC0C0C94FC0C0C94FC0C00
:100060000C94FC0C0C9452450C94FC0C0C94FC0C61
:100070000C94FC0C0C94341A0C94FC0C0C94FC0C9A
:100080000C94FC0C0C94FC0C0C94FC0C0C94FC0CD0
:100090000C9431460C94FC0C0C94FC0C0C94FC0C51
:1000A0000C94FC0C0C94FC0C0C94FC0C0C94FC0CB0
:1000B0000C94FC0C0C94FC0C0C94FC0C0C94FC0CA0
:1000C0000C94FC0C0C94FC0C0C94FC0C0C94FC0C90
:1000D0000C94FC0C0C94FC0C0C94FC0C0C94FC0C80
:1000E0000C94FC0C6E616E00696E660000407A1024
:1000F000F35A00A0724E18090010A5D4E80000E8D9
:100100007648170000E40B54020000CA9A3B000036
:1001100000E1F505000080969800000040420F00C5
:100120000000A08601000000102700000000E80386
:10013000000000006400000000000A000000000051
:100140000100000000002C76D888DC674F0823DF10
:10015000C1DFAE59E1B1B796E5E3E453C63AE651E3
:10016000997696E8E6C28426EB898C9B62ED407C0A
:100170006FFCEFBC9C9F40F2BAA56FA5F490055AA6
:100180002AF75C936B6CF9676DC11BFCE0E40D47CB
:10019000FEF520E6B500D0ED902E030094357705EE
:1001A0000080841E080000204E0A000000C80C33A6
:1001B0003333330F986E12831141EF8D2114893B35
:1001C000E65516CFFEE6DB18D1844B381BF77C1DB5
:1001D000901DA4BBE424203284725E228100C9F108
:1001E00024ECA1E53D27464C4153482077726974C1
:1001F00065206661696C65640A00464C415348207D
:1002000072656164206661696C65640A00756E6B75
:100210006E6F776E2041444332353138206F7363FF
:10022000696C61746F7253706565640A004F535254
:100230003A206C6F673273616D706C6573203E207D
:1002400037000A00256420004552524F523A204E92
:100250006F20414443204368616E6E656C7320617A
:1002600063746976650A000A5374616C6520507284
:1002700065737375726520496E7465726E616C206A
:100280004661756C742025640A000A5374616C65BC
:100290002050726573737572652052656164696E72
:1002A000672025640A000A53656E736F7220256407
:1002B00020696E2050726F6772616D6D696E672084
:1002C0004D6F64650A007370695F466C61736857AF
:1002D00072697465426164426C6F636B5461626CF5
:1002E0006520636F756C64206E6F7420777269741B
:1002F0006520746F20666C61736820626C6F636B3D
:100300002025640A007370695F466C6173685265EA
:100310006164426164426C6F636B5461626C65201E
:10032000636F756C64206E6F742072656164206603
:10033000726F6D20666C61736820626C6F636B20F6
:1003400025640A0077726974696E67207061676559
:100350002030782530386C782C206279746561649F
:100360006472203078253034780A007370695F46F3
:100370006C6173685772697465546F506167653A50
:1003800020466C617368206E6576657220726561C7
:1003900064792061667465722064617461206C6F99
:1003A00061640A007370695F466C617368577269B3
:1003B0007465546F506167653A20466C61736820BC
:1003C000776F6E277420656E61626C652077726945
:1003D00074650A007370695F466C6173685772696F
:1003E0007465546F506167653A20466C617368208C
:1003F0006E657665722072656164792061667465E8
:1004000072207061676520726561640A00737069AB
:100410005F466C6173685772697465546F506167A9
:10042000653A20466C617368206E6576657220724D
:10043000656164790A007370695F466C617368571F
:1004400072697465546F506167653A2062756666BB
:1004500065722063726F73736573207061676520C6
:10046000626F756E646172792C206F6F62203D201F
:1004700025640A0057726974696E6720746F2030B2
:10048000782530386C783A2025730A007370695FDC
:10049000466C61736857726974653A20326E6420E5
:1004A00070616765207772697465206661696C6543
:1004B000640A007370695F466C617368577269748F
:1004C000653A20326E6420706167652061646472F1
:1004D000657373206D617070696E67206661696C09
:1004E00065640A007370695F466C6173685772696E
:1004F00074653A2031737420706167652077726982
:100500007465206661696C65640A00577269746974
:100510006E6720746F2030782530386C783A20254B
:10052000730A007370695F466C617368577269740F
:10053000655F6D6963726F6E3A20326E6420706120
:100540006765207772697465206661696C65640A05
:10055000007370695F466C61736857726974655F98
:100560006D6963726F6E3A20326E642070616765E8
:100570002061646472657373206D617070696E6769
:10058000206661696C65640A007370695F466C611E
:10059000736857726974655F6D6963726F6E3A2034
:1005A00031737420706167652077726974652066A5
:1005B00061696C65640A000A72656164696E67202E
:1005C00066726F6D20706167652030782530386CF9
:1005D000782C2062797465616464722030782530EB
:1005E00034780A007370695F466C617368526561A4
:1005F0006446726F6D506167653A20466C6173683E
:10060000206E65766572207265616479206166741A
:100610006572207061676520726561640A0073709D
:10062000695F466C6173685265616446726F6D50B4
:100630006167653A20466C617368206E6576657205
:100640002072656164790A007370695F466C61733A
:10065000685265616446726F6D506167653A2062E9
:1006600075666665722063726F737365732070615F
:10067000676520626F756E646172792C206F6F629E
:10068000203D2025640A007370695F466C617368C1
:10069000526561643A20326E642070616765207231
:1006A000656164206661696C65640A007370695FE6
:1006B000466C617368526561643A20326E642070E2
:1006C00061676520617474656D707420746F207744
:1006D00072697465207061737420656E64206F6642
:1006E00020666C6173680A007370695F466C6173A1
:1006F00068526561643A20317374207061676520C7
:1007000072656164206661696C65640A0073706972
:100710005F466C617368526561643A204174746528
:100720006D707420746F20777269746520706173C6
:100730007420656E64206F6620666C6173680A00C1
:100740007370695F466C6173684572617365426C72
:100750006F636B3A20466C617368206E65766572D4
:1007600020726561647920616674657220626C6FC5
:10077000636B2065726173650A007370695F466C14
:100780006173684572617365426C6F636B3A2046B2
:100790006C61736820776F6E277420656E61626C80
:1007A000652077726974650A007370695F466C61D1
:1007B00073684572617365426C6F636B3A20466C77
:1007C000617368206E657665722072656164790A6E
:1007D000007370695F466C6173684572617365424E
:1007E0006C6F636B3A204164647265737320657843
:1007F000636565647320617661696C61626C652014
:10080000626C6F636B730A004920616D20746865C8
:100810002076657279206D6F64656C206F6620614B
:10082000206D6F6465726E204D616A6F722D476531
:100830006E6572616C0A000000000000000000009C
:100840000000000000004927766520696E666F721F
:100850006D6174696F6E20766567657461626C6541
:100860002C20616E696D616C2C20616E64206D6955
:100870006E6572616C0A000000000000000000005C
:100880000000000049206B6E6F7720746865206B54
:10089000696E6773206F6620456E676C616E642CAD
:1008A00020616E6420492071756F746520746865DD
:1008B000206669676874730A000000000000000089
:1008C0000000486973746F726963616C0A0000000C
:1008D0000000000000000000000000000000000018
:1008E0000000000000000000000000000000000008
:1008F00000000000000000000000000000000000F8
:1009000046726F6D204D61726174686F6E20746FF6
:100910002057617465726C6F6F2C20696E206F7246
:100920006465722063617465676F726963616C0AE4
:100930000000000000000000000000000000492747
:100940006D20766572792077656C6C2061637175B6
:1009500061696E7465642C20746F6F2C20776974E4
:1009600068206D6174746572730A000000000000F5
:100970000000000000000000000000004D617468ED
:10098000656D61746963616C0A000000000000001D
:100990000000000000000000000000000000000057
:1009A0000000000000000000000000000000000047
:1009B000000000000000000000004920756E646522
:1009C000727374616E64206571756174696F6E73A2
:1009D0002C20626F7468207468652073696D706C78
:1009E0006520616E64207175616472617469636110
:1009F0006C0A00000000000041626F75742062699B
:100A00006E6F6D69616C207468656F72656D2049E9
:100A1000276D207465656D696E672077697468203D
:100A200061206C6F74206F27206E6577730A000059
:100A300000000000000057697468206D616E792025
:100A4000636865657266756C2066616374732061A6
:100A5000626F7574207468652073717561726520AA
:100A60006F66207468650A00000000000000000046
:100A7000000000004879706F74656E7573650A0038
:100A80000000000000000000000000000000000066
:100A90000000000000000000000000000000000056
:100AA0000000000000000000000000000000000046
:100AB000000057697468206D616E79206368656510
:100AC0007266756C2066616374732061626F757401
:100AD0002074686520737175617265206F6620747B
:100AE00068650A000000000000000000000000002F
:100AF0004879706F74656E7573650A0000000000B8
:100B000000000000000000000000000000000000E5
:100B100000000000000000000000000000000000D5
:100B20000000000000000000000000000000576905
:100B30007468206D616E7920636865657266756C96
:100B40002066616374732061626F757420746865D8
:100B500020737175617265206F66207468650A0084
:100B60000000000000000000000000004879706FE5
:100B700074656E7573650A000000000000000000D7
:100B80000000000000000000000000000000000065
:100B90000000000000000000000000000000000055
:100BA0000000000000000000000057697468206D1C
:100BB000616E7920636865657266756C2066616335
:100BC00074732061626F7574207468652073717529
:100BD000617265206F66207468650A00000000007D
:100BE00000000000000000004879706F7465706FAD
:100BF00074656E7573650A00000000000000000057
:100C000000000000000000000000000000000000E4
:100C100000000000000000000000000000000000D4
:100C200000000000000049276D207665727920677A
:100C30006F6F6420617420696E74656772616C20E7
:100C4000616E6420646966666572656E7469616C64
:100C50002063616C63756C75730A0000000000000E
:100C60000000000049206B6E6F7720746865207368
:100C70006369656E7469666963206E616D65732072
:100C80006F66206265696E677320616E696D616C65
:100C900063756C6F75730A000000000000000000AF
:100CA0000000496E2073686F72742C20696E206D8D
:100CB00061747465727320766567657461626C65D2
:100CC0002C20616E696D616C2C20616E64206D69F1
:100CD0006E6572616C0A00000000000000000000F8
:100CE0004920616D207468652076657279206D6F8A
:100CF00064656C206F662061206D6F6465726E2084
:100D00004D616A6F722D47656E6572616C0A0000F5
:100D10000000000000000000000000000000496E1C
:100D20002073686F72742C20696E206D6174746515
:100D3000727320766567657461626C652C20616EE4
:100D4000696D616C2C20616E64206D696E657261E5
:100D50006C0A0000000000000000000048652069E7
:100D600073207468652076657279206D6F64656C98
:100D7000206F662061206D6F6465726E204D616A20
:100D80006F722D47656E6572616C0A00000000008D
:100D90000000000000000000000049206B6E6F772B
:100DA000206F7572206D7974686963206869737447
:100DB0006F72792C204B696E67204172746875726E
:100DC000277320616E64205369720A0000000000DE
:100DD000000000000000000043617261646F63273F
:100DE000730A000000000000000000000000000086
:100DF00000000000000000000000000000000000F3
:100E000000000000000000000000000000000000E2
:100E10000000000000004920616E73776572206851
:100E2000617264206163726F73746963732C20490B
:100E300027766520612070726574747920746173FF
:100E4000746520666F720A00000000000000000058
:100E50000000000050617261646F780A00000000B9
:100E60000000000000000000000000000000000082
:100E70000000000000000000000000000000000072
:100E80000000000000000000000000000000000062
:100E90000000492071756F746520696E20656C656E
:100EA000676961637320616C6C207468652063728C
:100EB000696D6573206F662048656C696F67616254
:100EC000616C75730A000000000000000000000063
:100ED000496E20636F6E69637320492063616E20E1
:100EE000666C6F6F7220706563756C69617269748E
:100EF0006965732070617261626F6C6F75730A004F
:100F00000000000000000000000000000000492078
:100F100063616E2074656C6C20756E646F756274AD
:100F20006564205261706861656C732066726F6DD4
:100F30002047657261726420446F777320616E642C
:100F40000A00000000000000000000005A6F666602
:100F5000616E6965730A0000000000000000000077
:100F60000000000000000000000000000000000081
:100F70000000000000000000000000000000000071
:100F80000000000000000000000049206B6E6F7739
:100F9000207468652063726F616B696E6720636897
:100FA0006F7275732066726F6D207468652046726B
:100FB0006F6773206F660A000000000000000000E9
:100FC000000000000000000041726973746F7068D7
:100FD000616E65730A000000000000000000000060
:100FE0000000000000000000000000000000000001
:100FF00000000000000000000000000000000000F1
:101000000000000000005468656E20492063616E96
:101010002068756D2061206675677565206F662094
:10102000776869636820492776652068656172641E
:1010300020746865206D7573696327730A0000006A
:101040000000000044696E2061666F72650A00004E
:101050000000000000000000000000000000000090
:101060000000000000000000000000000000000080
:101070000000000000000000000000000000000070
:101080000000416E642077686973746C6520616C40
:101090006C2074686520616972732066726F6D20C0
:1010A0007468617420696E6665726E616C206E6F23
:1010B0006E73656E73650A0000000000000000009A
:1010C00050696E61666F72650A00000000000000E2
:1010D0000000000000000000000000000000000010
:1010E0000000000000000000000000000000000000
:1010F0000000000000000000000000000000416E41
:10110000642077686973746C6520616C6C20746806
:101110006520616972732066726F6D2074686174F6
:1011200020696E6665726E616C206E6F6E73656E9F
:1011300073650A00000000000000000050696E6145
:10114000666F72650A0000000000000000000000E9
:10115000000000000000000000000000000000008F
:10116000000000000000000000000000000000007F
:1011700000000000000000000000416E642077685D
:101180006973746C6520616C6C207468652061699A
:1011900072732066726F6D207468617420696E6668
:1011A00065726E616C206E6F6E73656E73650A009A
:1011B000000000000000000050696E61666F7265FB
:1011C0000A00000000000000000000000000000015
:1011D000000000000000000000000000000000000F
:1011E00000000000000000000000000000000000FF
:1011F000000000000000416E642077686973746C21
:101200006520616C6C20746865206169727320666A
:10121000726F6D207468617420696E6665726E61AC
:101220006C206E6F6E73656E73650A0000000000BF
:101230000000000050696E6170696E61666F7265D2
:101240000A00000000000000000000000000000094
:10125000000000000000000000000000000000008E
:10126000000000000000000000000000000000007E
:1012700000005468656E20492063616E20777269B2
:10128000746520612077617368696E672062696C9C
:101290006C20696E20426162796C6F6E69632063B5
:1012A000756E6569666F726D0A00000000000000CF
:1012B000416E642074656C6C20796F7520657627AB
:1012C00072792064657461696C206F662043617275
:1012D00061637461637573277320756E69666F72DD
:1012E0006D0A000000000000000000000000496ED0
:1012F0002073686F72742C20696E206D6174746540
:10130000727320766567657461626C652C20616E0E
:10131000696D616C2C20616E64206D696E6572610F
:101320006C0A000000000000000000004920616D10
:10133000207468652076657279206D6F64656C2015
:101340006F662061206D6F6465726E204D616A6FFB
:10135000722D47656E6572616C0A00000000000026
:1013600000000000000000000000496E2073686F5C
:1013700072742C20696E206D6174746572732076AE
:101380006567657461626C652C20616E696D616C66
:101390002C20616E64206D696E6572616C0A0000BC
:1013A0000000000000000000486520697320746898
:1013B000652076657279206D6F64656C206F66209C
:1013C00061206D6F6465726E204D616A6F722D478A
:1013D000656E6572616C0A0000000000000000008C
:1013E000000000000000496E20666163742C2077C5
:1013F00068656E2049206B6E6F7720776861742076
:101400006973206D65616E7420627920276D616D4E
:10141000656C6F6E2720616E640A0000000000009A
:101420000000000027526176656C696E270A000093
:1014300000000000000000000000000000000000AC
:10144000000000000000000000000000000000009C
:10145000000000000000000000000000000000008C
:1014600000005768656E20492063616E2074656CCA
:101470006C2061742073696768742061204D617508
:10148000736572207269666C652066726F6D20618B
:10149000206A6176656C696E0A0000000000000039
:1014A0005768656E2073756368206166666169724E
:1014B0007320617320736F727469657320616E6449
:1014C000207375727072697365732049276D206D82
:1014D0006F72650A00000000000000000000576104
:1014E00072792061740A0000000000000000000012
:1014F00000000000000000000000000000000000EC
:1015000000000000000000000000000000000000DB
:10151000000000000000000000000000416E642098
:101520007768656E2049206B6E6F772070726563F7
:101530006973656C792077686174206973206D65C3
:10154000616E742062790A00000000000000000053
:101550000000000000000000000027436F6D6D696F
:1015600073736172696174270A0000000000000053
:10157000000000000000000000000000000000006B
:10158000000000000000000000000000000000005B
:1015900000000000000000005768656E20492068C8
:1015A000617665206C6561726E7420776861742065
:1015B00070726F677265737320686173206265650E
:1015C0006E206D61646520696E0A000000000000F5
:1015D0000000000000004D6F6465726E2067756E3C
:1015E0006E6572790A000000000000000000000033
:1015F00000000000000000000000000000000000EB
:1016000000000000000000000000000000000000DA
:10161000000000005768656E2049206B6E6F7720D0
:101620006D6F7265206F66207461637469637320E7
:101630007468616E2061206E6F7669636520696EE3
:101640002061206E756E6E6572790A0000000000E0
:101650000000496E2073686F72742C207768656E85
:101660002049277665206120736D61747465726905
:101670006E67206F6620656C656D656E74616C20A9
:1016800073747261746567790A00000000000000DD
:10169000596F75276C6C20736179206120626574C5
:1016A000746572204D616A6F722D47656E65726157
:1016B0006C20686164206E657665722073617420A9
:1016C00061206765650A0000000000000000596F96
:1016D00075276C6C20736179206120626574746574
:1016E00072204D616A6F722D47656E6572616C2064
:1016F000686164206E657665722073617420612074
:101700006765650A0000000000000000596F75273A
:101710006C6C20736179206120626574746572203D
:101720004D616A6F722D47656E6572616C206861EC
:1017300064206E6576657220736174206120676530
:10174000650A0000000000000000596F75276C6CEE
:1017500020736179206120626574746572204D6127
:101760006A6F722D47656E6572616C2068616420D6
:101770006E657665722073617420612073617420D8
:10178000610A0000000000004765650A00000000D3
:101790000000000000000000000000000000000049
:1017A0000000000000000000000000000000000039
:1017B0000000000000000000000000000000000029
:1017C000000000000000466F72206D79206D696C8A
:1017D0006974617279206B6E6F776C656467652CD4
:1017E0002074686F7567682049276D20706C756379
:1017F0006B7920616E640A000000000000000000A8
:1018000000000000416476656E747572790A00000C
:1018100000000000000000000000000000000000C8
:1018200000000000000000000000000000000000B8
:1018300000000000000000000000000000000000A8
:101840000000486173206F6E6C79206265656E20C0
:1018500062726F7567687420646F776E20746F2092
:1018600074686520626567696E6E696E67206F6671
:10187000207468650A0000000000000000000000FD
:1018800043656E747572790A000000000000000064
:101890000000000000000000000000000000000048
:1018A0000000000000000000000000000000000038
:1018B0000000000000000000000000000000427571
:1018C00074207374696C6C2C20696E206D61747463
:1018D00065727320766567657461626C652C206142
:1018E0006E696D616C2C20616E64206D696E65722D
:1018F000616C0A0000000000000000004920616DDA
:10190000207468652076657279206D6F64656C203F
:101910006F662061206D6F6465726E204D616A6F25
:10192000722D47656E6572616C0A00000000000050
:101930000000000000000000000042757420737475
:10194000696C6C2C20696E206D61747465727320F3
:10195000766567657461626C652C20616E696D6186
:101960006C2C20616E64206D696E6572616C0A007A
:1019700000000000000000004865206973207468C2
:10198000652076657279206D6F64656C206F6620C6
:1019900061206D6F6465726E204D616A6F722D47B4
:1019A000656E6572616C0A000000000000000000B6
:1019B00000000000000011241FBECFEFD1E2DEBF07
:1019C000CDBF00E00CBF14E1A0E0B2E0E4EAFDE925
:1019D00000E00BBF02C007900D92A23AB107D9F701
:1019E00027E1A2EAB4E101C01D92AC3BB207E1F7E6
:1019F0000E944A440C94D04E0C940000CF93DF9385
:101A0000CDB7DEB72A970FB6F894DEBF0FBECDBFB5
:101A100080919617813409F046C0809197178337DB
:101A200019F40E9408192AC0809197178D3619F46D
:101A30000E94781923C080919717833631F48091E2
:101A4000981780530E947D1919C0809197178F367F
:101A500031F48091981780530E9448190FC08091EB
:101A600097178C3621F481E00E945A1907C08091A3
:101A70009717883619F480E00E945A1986E997E191
:101A8000892F8F9386E997E18F938DE297E0892FD5
:101A90008F938DE297E08F930E94034E0F900F90EB
:101AA0000F900F907EC280919617803719F40E9494
:101AB000DB3077C280919617803519F40E94CD30C3
:101AC00070C266E377E086E997E10E94A24D892B18
:101AD00019F40E94E93065C2809196178D3419F48B
:101AE0000E94E0415EC280919617823339F487E903
:101AF00097E10E94824C0E94F74153C28091961751
:101B0000823571F480919717833511F40E94F73074
:101B100080919717823509F044C20E940C3141C26E
:101B200080919617823719F40E945A3F3AC28091E9
:101B300096178136B1F480919717813619F40E9477
:101B4000DF192FC280919717833719F40E94E21A88
:101B500028C280919717843609F023C20E94B71AD1
:101B600020C280919617863409F073C00E946C35AC
:101B700080919717873711F44CD213C28091971731
:101B8000893619F40E943F340CC28091971782372E
:101B900011F4B5D206C280919717813611F472D331
:101BA00000C280919717853611F425D3FAC1809130
:101BB0009717823411F42DD3F4C18091971785378C
:101BC00019F40E949A36EDC180919717863619F460
:101BD0000E94F335E6C180919717833719F40E946C
:101BE0004B36DFC180919717883719F40E94BC3DAE
:101BF000D8C180919717823621F486E997E1DBD12D
:101C0000D0C180919717843711F450D4CAC1809104
:101C10009717813311F4D5D6C4C1809197178233B9
:101C200019F40E944116BDC180919717833319F4AE
:101C30000E94F517B6C180919717843319F40E945A
:101C40001117AFC1809197178D3609F0AAC10AD438
:101C5000A8C1809196178636E9F48091971783374B
:101C600019F40E94AD409DC180919717893619F4EF
:101C70000E941A4196C1809197178A3619F40E94E2
:101C800049418FC180919717853609F08AC10E941A
:101C9000A64087C1809196178337F9F4809100029E
:101CA000882F90E00E948C418091000291E0980F73
:101CB00090930002882F90E0292F2F938F938AE32F
:101CC00097E0892F8F938AE397E08F930E94034ECA
:101CD0000F900F900F900F9064C1809196178E36E1
:101CE00019F40E9498415DC180919617833619F4CA
:101CF0000E94A03F56C180919617853691F580913C
:101D00009717803341F080919717813321F08091AC
:101D10009717843331F40E94EA3181E497E00E94FE
:101D2000424E80919717823331F40E94F8318EE54C
:101D300097E00E94424E80919717833331F40E94BE
:101D4000003282E797E00E94424E809197178533D8
:101D500009F027C10E94083289E897E00E94424EAC
:101D600020C180919617843651F580919717803362
:101D700031F40E94F13180EA97E00E94424E809156
:101D80009717823331F40E94FC318EEB97E00E946A
:101D9000424E80919717833331F40E94043283EDD1
:101DA00097E00E94424E80919717853309F0F9C061
:101DB0000E940E328BEE97E00E94424EF2C080915C
:101DC00096178F3641F580919717882F90E0AC01D8
:101DD000405351092FEF31E0429FC001439F900DC6
:101DE000529F900D11249A83898389819A810E9440
:101DF0007E408A818F9389818F9383E098E0892F39
:101E00008F9383E098E08F930E94034E0F900F9082
:101E10000F900F90C6C0809196178F3441F5809136
:101E2000971780538B838B81883008F0BAC08091DC
:101E30009817882F90E0805D9F459D838C838C81CF
:101E40009D81BC018B810E9445408D818F938C8147
:101E50008F938AE098E0892F8F938AE098E08F93A0
:101E60000E94034E0F900F900F900F909AC0809198
:101E70009617823659F583E198E00E94424E809190
:101E80009717882F90E0C097AC012FEF31E0429F69
:101E9000C001439F900D529F900D11249F838E830C
:101EA0008E819F810E9492408F818F938E818F932C
:101EB00083E098E0892F8F9383E098E08F930E94CE
:101EC000034E0F900F900F900F906BC0809196175C
:101ED000823489F580919717805388878885883068
:101EE00008F05FC080919817882F90E0C097AC01F0
:101EF0002FEF31E0429FC001439F900D529F900D04
:101F000011249A87898789859A85BC0188850E94D2
:101F10000C408A858F9389858F9383E098E0892F81
:101F20008F9383E098E08F930E94034E0F900F9061
:101F30000F900F9036C080919617873769F4809183
:101F40009717813311F40E941432809197178033D0
:101F500041F50E94183225C0809196178D3669F49C
:101F600080919717813311F40E9460328091971706
:101F70008033B9F40E94663214C086E997E1892F54
:101F80008F9386E997E18F9387E198E0892F8F936C
:101F900087E198E08F930E94034E0F900F900F906F
:101FA0000F9000002A960FB6F894DEBF0FBECDBF8B
:101FB000DF91CF910895CF93DF9300D01F92CDB7DB
:101FC000DEB79C838B838B819C8103960E94824C1D
:101FD0009A8389838A818F9389818F9384E298E0A1
:101FE000892F8F9384E298E08F930E94034E0F9085
:101FF0000F900F900F9089819A819093A3148093F2
:10200000A21400000F900F900F900F90DF91CF91CE
:102010000895CF93DF93CDB7DEB7C25DD1090FB678
:10202000F894DEBF0FBECDBF8AE398E098878F8318
:10203000CE010B969A87898719821A821B821C828D
:102040001D824EC01E8224C08E81282F30E09E81CA
:102050008DEC989F812D1124869586958695880F05
:10206000482F440F440F840F492F481B842F882F7B
:1020700090E04F815885840F951FFC014081CE016F
:102080000B96820F931FFC0140838E818F5F8E839E
:102090008E81883CC8F249855A8589819A81AB81B5
:1020A000BC8128ECBC01CD010E947939883C49F003
:1020B00086EE91E0292F2F938F930E94164E0F905A
:1020C0000F9089819A81AB81BC8188539F4FAF4F1C
:1020D000BF4F89839A83AB83BC838D818F5F8D8350
:1020E0008D818A3008F4AECF0000CE52DF4F0FB69C
:1020F000F894DEBF0FBECDBFDF91CF910895CF938F
:10210000DF93CDB7DEB7C15DD1090FB6F894DEBF5E
:102110000FBECDBFCE01099698878F8319821A8290
:102120001B821C8285E498E00E94424E1D8254C0AE
:102130001E820DC08E81882F90E09E01275F3F4F49
:10214000820F931FFC0110828E818F5F8E838E81A0
:10215000883C80F38D81882F90E0292F2F938F93D7
:1021600089E598E0892F8F9389E598E08F930E9405
:10217000034E0F900F900F900F904F8158858981DB
:102180009A81AB81BC8128ECBC01CD010E94903CBE
:10219000883C51F08AEF91E0292F2F938F930E9472
:1021A000164E0F900F9009C0CE018F529F4FFC0129
:1021B0001082CE0109960E94424E89819A81AB819C
:1021C000BC8188539F4FAF4FBF4F89839A83AB83A6
:1021D000BC838D818F5F8D838D818A3008F4A8CF79
:1021E0000000CF52DF4F0FB6F894DEBF0FBECDBF59
:1021F000DF91CF910895CF93DF93CDB7DEB7809174
:10220000A2149091A3140E944B3D0000DF91CF9146
:102210000895CF93DF93CDB7DEB78091A21490914C
:10222000A3140E94D734892BA9F08091A214909115
:10223000A314292F2F938F9385E698E0892F8F93EE
:1022400085E698E08F930E94034E0F900F900F90B9
:102250000F9014C08091A2149091A314292F2F9352
:102260008F938AE798E0892F8F938AE798E08F937E
:102270000E94034E0F900F900F900F900000DF917F
:10228000CF910895EF920F93CF93DF93CDB7DEB741
:102290006A970FB6F894DEBF0FBECDBF8091A2142F
:1022A0009091A3149A838983CBC089819A81002459
:1022B000969587950794969587950794982F802DE6
:1022C000CC01A0E0B0E08B839C83AD83BE83898189
:1022D0009A810024969587950794969587950794FB
:1022E000982F802DCC01A0E0B0E08B839C83AD8340
:1022F000BE8388C08E818F938D818F938C818F93C5
:102300008B818F938A818F9389818F9385E998E060
:10231000892F8F9385E998E08F930E94034E8DB7A4
:102320009EB708960FB6F894DEBF0FBECDBF1886D5
:102330001F8257C09E01255F3F4F4F8158858B817B
:102340009C81AD81BE81E12C00E1BC01CD010E94E8
:10235000253B803191F088858F938F818F938CEA14
:1023600098E0892F8F938CEA98E08F930E94034E18
:102370000F900F900F900F902DC01A86198626C0CF
:102380009E01255F3F4F89859A85820F931FFC012F
:1023900080818823B1F429853A858F819885820FC1
:1023A000931F292F2F938F9380EC98E0892F8F9381
:1023B00080EC98E08F930E94034E0F900F900F9047
:1023C0000F9089859A8501969A87898789859A854C
:1023D0004097B4F20E94BC3D8F81988540969887C3
:1023E0008F838F8198858115984008F4A3CF8B81C6
:1023F0009C81AD81BE810196A11DB11D8B839C8303
:10240000AD83BE8389819A81002496958795079430
:10241000969587950794982F802D01969C0140E012
:1024200050E08B819C81AD81BE8182179307A40708
:10243000B50708F45FCF89819A8101969A838983D1
:1024400089819A818115984008F42FCF00006A96FF
:102450000FB6F894DEBF0FBECDBFDF91CF910F91C5
:10246000EF900895CF93DF93CDB7DEB79091A4148A
:1024700081E0992309F080E08093A4148091A41452
:10248000882F90E0292F2F938F9387ED98E0892F45
:102490008F9387ED98E08F930E94034E0F900F90DB
:1024A0000F900F900000DF91CF910895CF93DF93AD
:1024B000CDB7DEB7C359D1090FB6F894DEBF0FBE52
:1024C000CDBF8091A2149091A314998B888B1E820A
:1024D0001F82188619861A861B861C861D861F86F3
:1024E0001E8680E090E0A2E0B0E08A8B9B8BAC8BF4
:1024F000BD8B88899989CC01A0E0B0E0072E71E1FD
:10250000880F991FAA1FBB1F7A95D1F7702D8A8358
:102510009B83AC83BD83F8C08E850E9486449F8BCD
:102520008E8B8E899F899C01990F440B550B8E8150
:102530009F81A885B985280F391F4A1F5B1F8A898B
:102540009B89AC89BD8982179307A407B50708F456
:10255000EAC08E859F859C012F5F3F4F3F872E8766
:10256000282FCE014896BC01822F0E947A44809188
:10257000A414882391F0CE0148960E94AB4D282FD9
:10258000AE01485E5F4F8A819B81AC81BD81BC01F9
:10259000CD010E944F3A898311C0CE0148960E9416
:1025A000AB4D282FAE01485E5F4F8A819B81AC8185
:1025B000BD81BC01CD010E94793989838981282F91
:1025C00030E08E899F892817390709F051C0CE0164
:1025D0004896292F2F938F938D818F938C818F9382
:1025E0008B818F938A818F9387EE98E0892F8F93C9
:1025F00087EE98E08F930E94034E8DB79EB70896A2
:102600000FB6F894DEBF0FBECDBF0E944B368E8949
:102610009F89092E000CAA0BBB0B2E813F81488598
:102620005985820F931FA41FB51F8E839F83A88790
:10263000B9878E899F89092E000CAA0BBB0B2A81B2
:102640003B814C815D81820F931FA41FB51F8A833C
:102650009B83AC83BD830E947844282F30E08E8515
:102660009F85821793070CF44FC01F861E864CC0AF
:102670008F898F938E898F938D818F938C818F9388
:102680008B818F938A818F9385E099E0892F8F9337
:1026900085E099E08F930E94034EEDB7FEB7389620
:1026A0000FB6F894DEBF0FBECDBF8E899F89092E6D
:1026B000000CAA0BBB0B2E813F8148855985820FE8
:1026C000931FA41FB51F8E839F83A887B9878E8908
:1026D0009F89092E000CAA0BBB0B2A813B814C81E0
:1026E0005D81820F931FA41FB51F8A839B83AC83D8
:1026F000BD830E947844282F30E08E859F85821705
:10270000930714F01F861E862E813F8148855985C8
:102710008A899B89AC89BD89281739074A075B07D5
:1027200008F4FACE01C0000088899989CC01A0E0A4
:10273000B0E0072E71E1880F991FAA1FBB1F7A9581
:10274000D1F7702D8A839B83AC83BD831F861E8641
:102750001DC18E850E9486449F8B8E8B8E899F899A
:102760009C01990F440B550B8A859B85AC85BD85D3
:10277000280F391F4A1F5B1F8A899B89AC89BD8935
:1027800082179307A407B50708F40FC18E859F85AC
:102790009C012F5F3F4F3F872E87282FCE018A5AFB
:1027A0009F4FBC01822F0E947A442E89AE01485E61
:1027B0005F4F8A819B81AC81BD81BC01CD010E94AC
:1027C000903C282F30E08E899F892817390709F01F
:1027D00091C09E01285E3F4F8E899F89820F931F73
:1027E000FC0110829E012A5A3F4FCE014896B90142
:1027F0000E94A24D892BD1F48D818F938C818F9370
:102800008B818F938A818F938DE299E0892F8F93AB
:102810008DE299E08F930E94034E0F900F900F90DE
:102820000F900F900F900E944B3633C08D818F9385
:102830008C818F938B818F938A818F938BE499E026
:10284000892F8F938BE499E08F930E94034E0F9012
:102850000F900F900F900F900F900E944B36CE016B
:102860008A5A9F4F292F2F938F93CE014896292F55
:102870002F938F9389E699E0892F8F9389E699E0CA
:102880008F930E94034E0F900F900F900F900F9018
:102890000F908E899F89092E000CAA0BBB0B2A85ED
:1028A0003B854C855D85820F931FA41FB51F8A87CA
:1028B0009B87AC87BD878E899F89092E000CAA0B48
:1028C000BB0B2A813B814C815D81820F931FA41F2A
:1028D000B51F8A839B83AC83BD830E947844282FD5
:1028E00030E08E859F85821793070CF44FC01F86BA
:1028F0001E864CC08F858F938E858F938D818F938D
:102900008C818F938B818F938A818F9380E799E05D
:10291000892F8F9380E799E08F930E94034E8DB7A4
:102920009EB708960FB6F894DEBF0FBECDBF8E8956
:102930009F89092E000CAA0BBB0B2A853B854C8571
:102940005D85820F931FA41FB51F8A879B87AC8765
:10295000BD878E899F89092E000CAA0BBB0B2A818B
:102960003B814C815D81820F931FA41FB51F8A8319
:102970009B83AC83BD830E947844282F30E08E85F2
:102980009F858217930714F01F861E862A853B8534
:102990004C855D858A899B89AC89BD892817390753
:1029A0004A075B0708F4D5CE01C000000000CD56F1
:1029B000DF4F0FB6F894DEBF0FBECDBFDF91CF91D2
:1029C0000895EF920F93CF93DF93CDB7DEB7AA9719
:1029D0000FB6F894DEBF0FBECDBF8091A2149091C8
:1029E000A31498878F831C821B8263C01A8219826A
:1029F0000EC09E01255F3F4F89819A81820F931FF0
:102A0000FC01108289819A8101969A838983898148
:102A10009A81809774F38F8198859C010024369564
:102A200027950794369527950794322F202D8B8173
:102A30009C81820F931FCC01A0E0B0E09E01255F36
:102A40003F4FE12C00E240E050E0BC01CD010E948C
:102A5000253B1A82198220C09E01255F3F4F898144
:102A60009A81820F931FFC018081882F90E0292F8B
:102A70002F938F938AE999E0892F8F938AE999E0C0
:102A80008F930E94034E0F900F900F900F908981AB
:102A90009A8101969A83898389819A818097E4F249
:102AA0008AE090E00E943D4E8B819C8101969C8340
:102AB0008B838B819C8108970CF498CF1A821982A2
:102AC0000FC09E01255F3F4F89819A81820F931F1E
:102AD00021E3FC01208389819A8101969A8389836D
:102AE00089819A8140976CF31A82198223C08F8161
:102AF00098859C010024369527950794369527954F
:102B00000794322F202D89819A81820F931FCC0147
:102B1000A0E0B0E09E01255F3F4FE12C00E140E0E6
:102B200050E0BC01CD010E94D73689819A8101967F
:102B30009A83898389819A810597CCF28FEF9FEFE1
:102B40009E838D8389C08D819E812F813885820FE0
:102B5000931F9A8789878A858F9389858F9380EAC7
:102B600099E0892F8F9380EA99E08F930E94034E1A
:102B70000F900F900F900F901C821B8263C01A82DF
:102B800019820EC09E01255F3F4F89819A81820F75
:102B9000931FFC01108289819A8101969A8389830F
:102BA00089819A81809774F38F8198859C01002494
:102BB000369527950794369527950794322F202D23
:102BC0008B819C81820F931FCC01A0E0B0E09E011D
:102BD000255F3F4FE12C00E240E050E0BC01CD0119
:102BE0000E94253B1A82198220C09E01255F3F4F1B
:102BF00089819A81820F931FFC018081882F90E048
:102C0000292F2F938F938AE999E0892F8F938AE94F
:102C100099E08F930E94034E0F900F900F900F90AA
:102C200089819A8101969A83898389819A81809783
:102C3000E4F28AE090E00E943D4E8B819C810196F7
:102C40009C838B838B819C8108970CF498CF8D811A
:102C50009E8101969E838D838D819E8102970CF4C7
:102C600072CF8AEA99E00E94424E0000AA960FB6FF
:102C7000F894DEBF0FBECDBFDF91CF910F91EF90E3
:102C80000895EF920F93CF93DF93CDB7DEB7AE9752
:102C90000FB6F894DEBF0FBECDBF8091A214909105
:102CA000A31498878F838F819885002496958795A4
:102CB0000794969587950794982F802DCC01A0E0D6
:102CC000B0E089879A87AB87BC8782E090E09E87D7
:102CD0008D878CEA99E00E94424E1E821D828DC033
:102CE0008F8198859C010024369527950794369509
:102CF00027950794322F202D8D819E81820F931F5F
:102D0000CC01A0E0B0E089879A87AB87BC871C82A2
:102D10001B8268C01A8219820EC09E01215F3F4F3C
:102D200089819A81820F931FFC01108289819A8187
:102D300001969A83898389819A81809774F34B8164
:102D40005C819E01215F3F4F89859A85AB85BC855B
:102D5000E12C00E2BC01CD010E94253B8C818F93C8
:102D60008B818F938C858F938B858F938A858F939F
:102D700089858F9383EB99E0892F8F9383EB99E07B
:102D80008F930E94034E8DB79EB708960FB6F894A6
:102D9000DEBF0FBECDBF1A82198212C09E01215F15
:102DA0003F4F89819A81820F931FFC018081882F78
:102DB00090E00E943D4E89819A8101969A83898391
:102DC00089819A81809754F3CE010F9660E270E07A
:102DD000CED08AE090E00E943D4E8B819C8180960F
:102DE0009C838B838B819C81811598400CF492CFBE
:102DF0008D819E8101969E838D832D813E818D855F
:102E00009E85281739070CF46BCF0000AE960FB6DD
:102E1000F894DEBF0FBECDBFDF91CF910F91EF9041
:102E20000895EF92FF920F931F93CF93DF93CDB747
:102E3000DEB7AA970FB6F894DEBF0FBECDBF809164
:102E4000A2149091A3149E838D838D819E81002472
:102E5000969587950794969587950794982F802D3A
:102E6000CC01A0E0B0E08F839887A987BA878FEC68
:102E700099E00E94424E1C821B8265C01A82198210
:102E80000EC09E01255F3F4F89819A81820F931F5B
:102E9000FC01108289819A8101969A8389838981B4
:102EA0009A81809774F39E01255F3F4F4B815C812F
:102EB0008F819885A985BA85E12CF12C00E210E07C
:102EC000BC01CD010E940A3C8C818F938B818F9332
:102ED0008A858F9389858F9388858F938F818F9330
:102EE00083EB99E0892F8F9383EB99E08F930E9476
:102EF000034E8DB79EB708960FB6F894DEBF0FBE8F
:102F0000CDBF1A82198212C09E01255F3F4F898171
:102F10009A81820F931FFC018081882F90E00E948C
:102F20003D4E89819A8101969A83898389819A810C
:102F3000809754F38AE090E00E943D4E8B819C8103
:102F400080969C838B838B819C81811598400CF4A7
:102F500095CF0000AA960FB6F894DEBF0FBECDBF86
:102F6000DF91CF911F910F91FF90EF900895CF9334
:102F7000DF9300D0CDB7DEB79A8389836B8310923D
:102F8000000223C080910002882F90E029813A81BD
:102F9000820F931FFC018081082E000C990B99274A
:102FA000292F2F938F9386ED99E0892F8F9386EDAC
:102FB00099E08F930E94034E0F900F900F900F9007
:102FC000809100028F5F80930002909100028B81BC
:102FD0009817C0F28AE090E00E943D4E00000F90EA
:102FE0000F900F90DF91CF910895EF920F93CF93B1
:102FF000DF93CDB7DEB7EA970FB6F894DEBF0FBE0A
:10300000CDBF87E090E0A0E0B0E089839A83AB83F6
:10301000BC831E821D8280E1E1EFF9E0DE019B9618
:1030200001900D928A95E1F789819A81AB81BC81EB
:103030009C01AD01012E1BE0220F331F441F551FC1
:103040001A95D1F7102D8D819E81CC01A0E0B0E0C2
:10305000820F931FA41FB51F8F839887A987BA87F4
:103060009E01255F3F4F4D815E8189819A81AB81B1
:10307000BC81E12C00E2BC01CD010E94253B8AED20
:1030800099E0892F8F938AED99E08F930E94034EE8
:103090000F900F90CE010B9660E269DF0E94F3352E
:1030A0000E949A360E94BC3D9E01255D3F4F4D8196
:1030B0005E8189819A81AB81BC81E12C00E1BC01F8
:1030C000CD010E94D7360E94F3350E94BC3D9E017F
:1030D000255F3F4F4D815E8189819A81AB81BC81A3
:1030E000E12C00E2BC01CD010E94253B0E94F3359A
:1030F0000E94BC3D85EE99E0892F8F9385EE99E083
:103100008F930E94034E0F900F90CE010B9660E2BA
:103110002EDF0000EA960FB6F894DEBF0FBECDBFDB
:10312000DF91CF910F91EF9008951F920F920FB6FC
:103130000F9211240F900FBE0F901F9018951F92A1
:103140000F920FB60F9211242F938F939F938FB7E7
:103150008F778FBF88B1805888B98091A9149091DA
:10316000AA1401969093AA148093A9148091A9148B
:103170009091AA148115924019F481E08093A714CC
:103180008091A9149091AA1481159440A8F080917F
:10319000A9149091AA1494509093AA148093A914FE
:1031A00081E08093A8148091A5149091A6140196B3
:1031B0009093A6148093A51478949F918F912F914A
:1031C0000F900FBE0F901F90189582E49BE00E9415
:1031D000424E80E88093610082E08093B00084E0FA
:1031E0008093B10080EE8093B3001092B200E0E7CC
:1031F000F0E08081826080830895E7DF80EC809337
:103200006A0080E88DBB86E59BE00C94424E0895F1
:1032100060E080E00E949F311F928F9382E79BE0E5
:103220009F938F930E94034E0F900F900F900F90DB
:103230000895CF93DF93D82FC62F883010F46230D3
:1032400040F084E89BE09F938F930E94034E0F9081
:103250000F90CC2331F061E001C0660FDA95EAF7F8
:1032600001C060E08BE00E948D31DF91CF91089525
:1032700060E485E00E948D3160E487E00E948D313A
:1032800060E489E00E948D3160E086E0D2CF08954D
:10329000CF93C82F883040F08DE292E09F938F93B8
:1032A0000E94164E0F900F906C2F83E00E948D317C
:1032B000CF910895CF93C82F60E084E00E949F31A2
:1032C000C11103C0682F6F7E0EC0C13019F4682F82
:1032D000606109C08DE092E09F938F930E94164E2B
:1032E0000F900F9003C084E00E948D31CF9108951C
:1032F00060E080E10C948D3108951F93CF93DF93AC
:10330000182F682F81E10E94BD31D82FC92F282F97
:10331000392FA0E5B3EC0E94B74B0E94144720E080
:1033200030E040E859E30E9478470E94E6467F93E8
:103330006F93CF93DF931F921F938BE99BE09F9333
:103340008F930E94034E8DB79EB708960FB6F894E0
:103350009EBF0FBE8DBF8D2F9C2FDF91CF911F91F0
:103360000895CF93DF93C82F20E013C0CF5FCF70B5
:10337000209104173091051781E090E00C2E02C0D7
:10338000880F991F0A94E2F7822393232D2F892B0C
:1033900021F4D1E0D20F213148F3D13141F488E456
:1033A00092E09F938F930E94164E0F900F90D13111
:1033B00011F08C2F01C08FEFDF91CF910895CF9343
:1033C000C0E01DC0209104173091051781E090E006
:1033D0000C2E02C0880F991F0A94E2F782239323D0
:1033E000892B61F01F92CF9384E492E09F938F9397
:1033F0000E94164E0F900F900F900F90CF5FC0312C
:1034000008F382E492E09F938F930E94164EE4E0CB
:10341000F7E181818F9380818F938CEB9BE09F9369
:103420008F930E94034E0F900F900F900F900F906C
:103430000F90CF91089595DFECE7F0E09081907EBA
:1034400090839081282F2770922B908383FF06C052
:10345000EBE7F0E09081986090830895EBE7F0E06F
:103460009081977F908308951F920F920FB60F92CD
:1034700011240BB60F922F933F934F935F936F934B
:103480007F938F939F93AF93BF93EF93FF9320917D
:1034900078004091AD14642F042E000C770BFB01D3
:1034A000EE0FFF1FE055FB4E80819181DC01A20FE2
:1034B000B11D9D01B183A083A9E7B0E09C91892F44
:1034C00090E0982F8827820F931F918380833C91EF
:1034D0002C919F938F931F923F931F922F937F93D3
:1034E0004F9381ED9BE09F938F930E94034E8091B9
:1034F000AD14A1DF8093AD149091AE142DB73EB7FB
:10350000265F3F4F0FB6F8943EBF0FBE2DBF891305
:1035100012C08091AB149091AC1401969093AC14AE
:103520008093AB14019739F481E08093AF1410922B
:10353000AC141092AB148091AF14811105C0EAE76E
:10354000F0E0808180648083FF91EF91BF91AF9123
:103550009F918F917F916F915F914F913F912F91AB
:103560000F900BBE0F900FBE0F901F901895CF932A
:10357000C091AE148AE090E00E943D4E8C2F0C2E3C
:10358000000C990BFC01EE0FFF1FE055FB4E8181F3
:103590008F9380818F939F93CF9385EE9BE09F9332
:1035A0008F930E94034E8C2FDCDEC82F8091AE14C7
:1035B0000F900F900F900F900F900F90C813DACFCD
:1035C000CF9108951092AF148091AE14E82FEE0FB2
:1035D000FF0BE055FB4E11821082C3DE9091AE14BA
:1035E0008913F4CFEAE7F0E0808180648083089556
:1035F0008FE021DF8093AD148093AE148F3F71F084
:10360000EAE7F0E08081806480838FE880838FEF39
:1036100080937E0080937F00D5CF089580EF9BE05C
:103620009F938F930E94164E0F900F90089580776E
:10363000992721E030E08032910511F020E030E060
:10364000FA01318320838031910579F018F4892BB8
:1036500041F008958033910571F08035910589F02E
:103660000895FB0111821082089583E090E0FB0130
:1036700091838083089586E090E0FB0191838083AD
:10368000089588E090E0FB019183808308950F9373
:103690001F938B019C0180E001C08F5F41E050E0EF
:1036A00060E070E0082E04C0440F551F661F771FAE
:1036B0000A94D2F7401751076207730770F31F91FE
:1036C0000F9108952F923F924F925F926F927F9247
:1036D0008F929F92AF92BF92CF92DF92EF92FF9222
:1036E0000F931F93CF93DF93CDB7DEB72A970FB613
:1036F000F894DEBF0FBECDBF4C01FB010F2EF1E1F0
:103700006F2EF6E07F2EF02DCEC04081D3011296B1
:103710009C9112974913C4C0418113969C911397B1
:103720004913BEC0F4013183208314968D919D917D
:103730000D90BC91A02D5C016D01E12CF12C870155
:103740008983BA82CB82DC82ED82FE820F83188766
:10375000D3011C960D911D912D913C911F97A02E88
:10376000B12EC22ED32EE12CF12C00E010E02981E5
:103770003A814B815C8160E070E080E090E00E94E3
:10378000D64BF30120883188428853886201510169
:10379000E12CF12C87012982BA82CB82DC82ED8276
:1037A000FE820F831887E12CF12C00E010E00E94CC
:1037B000D64BD30154962D903D904D905C905797E9
:1037C00062015101E12CF12C87012982BA82CB825E
:1037D000DC82ED82FE820F831887E12CF12C00E061
:1037E00010E00E94D64BD4011B962C931B971C967D
:1037F0003C931C971D964C931D971E965C931E97A9
:103800001F966C931F9750967C93509751968C936C
:10381000519752969C93F3012481358146815781BB
:1038200064857585868597850E948C4B9B01AC01CC
:10383000D40153966D937D938D939C935697848179
:103840009581A681B781F401908F878BF3018085E4
:103850009185A285B385F401928F818FD301509613
:103860006D917D918D919C9153970E948C4B0FDFB0
:10387000F401838FF301808D918DA28DB38DF401BE
:1038800084A395A3A6A3B7A3F301848D958DA68DDC
:10389000B78DF40180A391A3A2A3B3A381E00BC0D1
:1038A00000E2600E711CD3012D913C912115310570
:1038B00009F02BCF80E02A960FB6F894DEBF0FBE3A
:1038C000CDBFDF91CF911F910F91FF90EF90DF90CF
:1038D000CF90BF90AF909F908F907F906F905F90B0
:1038E0004F903F902F900895CF93DF93EB011EC030
:1038F000DE011196288130E0322F2227822793277C
:1039000020E030E00EC0AC01440F551F99231CF499
:1039100085E090E802C080E090E0842795272F5F43
:103920003F4F283031057CF3AF01ED01FA013197AB
:10393000452BF1F6DF91CF910895DC0161507109BB
:103940009B0121503109FC01E60FF71F108203C0D3
:103950002150310910823323B4F0FD01E20FF31F2F
:10396000908191529F35A0F740E050E00EC0FD01DC
:10397000E40FF51F90819052903610F08FE3808312
:103980004F5F5F4F02C040E050E0241735077CF7DF
:103990000895FC01A281B3818C9183FF03C08BEE5B
:1039A000868307C081FF03C08BEB868302C08BE058
:1039B000868311968C9180FF05C082E3878384E320
:1039C0008087089582E0878384E880870895CF9375
:1039D000DF93CDB7DEB762970FB6F894DEBF0FBEA8
:1039E000CDBFFE01319622E1DF011D922A95E9F754
:1039F00023E1298323E02A836B835C834D83BF010A
:103A00000E94C92E62960FB6F894DEBF0FBECDBFDE
:103A1000DF91CF910895CF93DF93CDB7DEB7629753
:103A20000FB6F894DEBF0FBECDBFFE01319622E186
:103A3000DF011D922A95E9F720E329836B835C83DC
:103A40004D8323E02A83BF010E94C92E62960FB6E0
:103A5000F894DEBF0FBECDBFDF91CF910895CF9315
:103A6000DF93CDB7DEB762970FB6F894DEBF0FBE17
:103A7000CDBFBE016F5F7F4F22E1FB0111922A95FE
:103A8000E9F72FE329830E94C92E62960FB6F894B6
:103A9000DEBF0FBECDBFDF91CF9108957F928F9291
:103AA0009F92AF92BF92CF92DF92EF92FF920F93CD
:103AB0001F93CF93DF93CDB7DEB762970FB6F8941D
:103AC000DEBF0FBECDBFDE0111965D01A2E1F501A3
:103AD0001192AA95E9F7DC011696EC911697E98305
:103AE000E2E0EA83812E922EA32EBB248B82909655
:103AF000EC919097E0FF15C05C967C905C975D968A
:103B0000AC91E72DF0E0EA1BF10904C076956795CA
:103B100057954795EA95D2F741704295407F842AA0
:103B20008B820C83A70160E070E04D875E876F8712
:103B3000788BDA8AC98ABE016F5F7F4F0E94C92ED7
:103B400062960FB6F894DEBF0FBECDBFDF91CF9166
:103B50001F910F91FF90EF90DF90CF90BF90AF90AB
:103B60009F908F907F9008956F927F928F929F92F7
:103B7000AF92BF92CF92DF92EF92FF920F931F937B
:103B8000CF93DF93CDB7DEB762970FB6F894DEBF61
:103B90000FBECDBFDE0111964D01A2E1F4011192DD
:103BA000AA95E9F7AA2029F0DC011796EC91E983A0
:103BB00004C0DC011896EC91E983E2E0EA83812EEF
:103BC000922EA32EBB248B82DC019096EC919097D1
:103BD000E0FF16C05C96FC915C975D96EC91AF2F70
:103BE000B0E03D016E1A710804C07695679557954F
:103BF00047956A94D2F741704295407F842A8B8220
:103C00000C83A70160E070E04F83588769877A874B
:103C1000DC86CB86BE016F5F7F4F0E94C92E629605
:103C20000FB6F894DEBF0FBECDBFDF91CF911F91CD
:103C30000F91FF90EF90DF90CF90BF90AF909F904B
:103C40008F907F906F900895CF93DF93CDB7DEB7BD
:103C500062970FB6F894DEBF0FBECDBFBE016F5F97
:103C60007F4F22E1FB0111922A95E9F726E0298393
:103C70000E94C92E62960FB6F894DEBF0FBECDBF6C
:103C8000DF91CF910895CF93DF93CDB7DEB76297E1
:103C90000FB6F894DEBF0FBECDBFFE01319622E114
:103CA000DF011D922A95E9F720E1298323E02A8389
:103CB0006B835C834D83BF010E94C92E62960FB651
:103CC000F894DEBF0FBECDBFDF91CF9108950F9363
:103CD0001F93CF93DF93CDB7DEB762970FB6F894FB
:103CE000DEBF0FBECDBFFE01319622E1DF011D9286
:103CF0002A95E9F72FE9298302E010E020E030E07F
:103D00000D871E872F87388B7A8B698BBF010E94A6
:103D1000C92E62960FB6F894DEBF0FBECDBFDF91FD
:103D2000CF911F910F910895FF920F931F93CF93FF
:103D3000DF93CDB7DEB762970FB6F894DEBF0FBE44
:103D4000CDBFF62EBE016F5F7F4F22E1FB011192C6
:103D50002A95E9F72FE1298321E02A83FB8201E0FC
:103D600010E020E030E00F83188729873A875C87CE
:103D70004B870E94C92E8C01992384F41F92FF92D5
:103D80001F938F9387E09CE09F938F930E94034E35
:103D90000F900F900F900F900F900F90C8016296A8
:103DA0000FB6F894DEBF0FBECDBFDF91CF911F914C
:103DB0000F91FF900895AB0160EBB6CF0895AB0172
:103DC00060EDB2CF0895FF920F931F93CF93DF93CF
:103DD0001F92CDB7DEB7FC0121A5261779F061301F
:103DE00011F420E401C020E0F62E8C012983BE01ED
:103DF0006F5F7F4FE4DFF801F1A602C080E090E042
:103E00000F90DF91CF911F910F91FF900895FF9236
:103E10000F931F93CF93DF93CDB7DEB762970FB6A3
:103E2000F894DEBF0FBECDBFF62EBE016F5F7F4F91
:103E300022E1FB0111922A95E9F72FE0298321E085
:103E40002A83FB8201E010E020E030E00D871E872E
:103E50002F87388B5A8B498B0E94C92E8C0199234E
:103E600084F41F92FF921F938F9382E29CE09F93B2
:103E70008F930E94034E0F900F900F900F900F9012
:103E80000F90C80162960FB6F894DEBF0FBECDBF8B
:103E9000DF91CF911F910F91FF900895AB0160EBDF
:103EA000B6CF08950F931F93CF93DF931F92CDB793
:103EB000DEB78C011982BE016F5F7F4FEFDF898112
:103EC00084FF08C08F7E8983BE016F5F7F4FC8016A
:103ED00072DF02C080E090E00F90DF91CF911F91E0
:103EE0000F9108950F931F93CF93DF931F92CDB738
:103EF000DEB78C011982BE016F5F7F4FCFDF8981F2
:103F000084FD08C080618983BE016F5F7F4FC80157
:103F100052DF02C080E090E00F90DF91CF911F91BF
:103F20000F910895EF92FF921F93CF93DF931F920B
:103F3000CDB7DEB77C01162FBE016F5F7F4FAEDFBE
:103F4000113031F0A0F0123041F0133059F012C0AE
:103F500089818D73806489830DC089818D73806CA4
:103F6000898308C089818D738268898303C08981B0
:103F70008D738983BE016F5F7F4FC7011CDF80E0B7
:103F800090E00F90DF91CF911F91FF90EF900895F7
:103F9000AB0160EC3CCF08956F927F928F929F921D
:103FA000AF92BF92CF92DF92EF92FF920F931F9347
:103FB000CF93DF931F92CDB7DEB73C010E94F63E50
:103FC000822E932E84E6880E911C08C0BE016F5F7E
:103FD0007F4FC301DDDF89818823A4F40E94F63E70
:103FE000A82CB92C192D110F110BC12ED12EE12E99
:103FF000F12E012F0E94574C48F382E99FEFAFEF5B
:10400000BFEF03C080E090E0DC010F90DF91CF9123
:104010001F910F91FF90EF90DF90CF90BF90AF90E6
:104020009F908F907F906F9008954F925F926F92C4
:104030007F928F929F92AF92BF92CF92DF92EF9238
:10404000FF920F931F93CF93DF931F92CDB7DEB7ED
:104050003C012B010E94F63E822E932E84E6880EB0
:10406000911C08C0BE016F5F7F4FC30191DF898142
:1040700080FF14C00E94F63EA82CB92C192D110FF8
:10408000110BC12ED12EE12EF12E012F0E94574C83
:1040900048F382E99FEFAFEFBFEF03C080E090E00D
:1040A000DC014114510419F02981F20120830F90A1
:1040B000DF91CF911F910F91FF90EF90DF90CF9004
:1040C000BF90AF909F908F907F906F905F904F9038
:1040D00008952F923F924F925F926F927F928F92AC
:1040E0009F92AF92BF92CF92DF92EF92FF920F9387
:1040F0001F93CF93DF93CDB7DEB727970FB6F89412
:10410000DEBF0FBECDBF3C01542E452E362E272ECE
:104110000C831D832E833F83840159DCBE016D5FB8
:104120007F4FC30182DF4C01992394F42F923F9279
:104130004F925F929F928F938CE39CE09F938F931B
:104140000E94034E0FB6F894DEBF0FBECDBF2FC046
:10415000E11021C08B81AE014F5F5F4FB60190E04F
:1041600066DA89819A81892BB1F02F923F924F9222
:104170005F9281E69CE09F938F930E94034E0F9085
:104180000F900F900F900F900F900F2EF6EB8F2E39
:1041900099249A94F02D650178010C811D812E815E
:1041A0003F81452D542D632D722DC30177DCC40151
:1041B00027960FB6F894DEBF0FBECDBFDF91CF912B
:1041C0001F910F91FF90EF90DF90CF90BF90AF9035
:1041D0009F908F907F906F905F904F903F902F9027
:1041E00008955F926F927F928F929F92AF92BF924B
:1041F000CF92DF92EF92FF920F931F93CF93DF93B3
:1042000000D01F921F92CDB7DEB74C01542EB52EB1
:10421000762E672E0A831B832C833D83860114DD53
:10422000670178010A811B812C813D81452D5B2D21
:10423000672D762DC40198DC452D5B2D672D762DDD
:10424000C40121DDBE016F5F7F4FC401EEDE8C0132
:10425000992394F46F927F92BF925F921F938F93F2
:1042600087E89CE09F938F930E94034E0FB6F894CB
:10427000DEBF0FBECDBF1AC0898183FF12C06F920F
:104280007F92BF925F928EEA9CE09F938F930E94F1
:10429000034E0F900F900F900F900F900F9081E0B2
:1042A00001C080E0882311F00BEF1FEFC8010F90D1
:1042B0000F900F900F900F90DF91CF911F910F9162
:1042C000FF90EF90DF90CF90BF90AF909F908F9036
:1042D0007F906F905F9008954F925F926F927F9260
:1042E000AF92BF92CF92DF92EF92FF920F931F9304
:1042F000CF93DF935C016B017901FA018081918199
:10430000009711F0029779F4F50161857285FA0141
:1043100082859385A485B585680F791FA701C6019D
:104320000E94924D65C0F50102A513A5085F1E4FBE
:10433000FA014284538464847584C0E0D0E04BC0A9
:10434000411451046104710431F1481659066A069A
:104350007B0628F0481A590A6A0A7B0A38C0F80115
:104360004081518162817381440D551D661D771D09
:1043700084199509A609B7092701612C712C8415A8
:104380009505A605B70510F42C013D01E201412C6D
:10439000512C320110C0A70160E070E0841795072E
:1043A000A607B70710F4AC01BD01EA01F80140818E
:1043B000518162817381F50181859285BC01640F11
:1043C000751FAE01C6010E94924DCC0EDD1E085F26
:1043D0001F4FEC1AFD0AF80184819581A681B781EF
:1043E0000097A105B10521F0E114F10409F0A8CF6F
:1043F000DF91CF911F910F91FF90EF90DF90CF90C1
:10440000BF90AF907F906F905F904F9008952F92E4
:104410003F924F925F926F927F928F929F92AF9254
:10442000BF92CF92DF92EF92FF920F931F93CF93A1
:10443000DF93CDB7DEB7A0970FB6F894DEBF0FBEFF
:10444000CDBF1C010E831F83288739874A875B876E
:104450006C877D87FB8EEA8E1A821982D7011296AD
:104460008D909C9013971696ED91FC911797FF876E
:10447000EE872D913C91398F288F2130310561F4E1
:10448000DC019A96ED91FC919B97EC5FFE4F2081A9
:1044900031813F8B2E8B07C0DC0159960D90BC916A
:1044A000A02DBF8BAE8BF101058D2E813F814885FC
:1044B00059856A857B858C859D850E94274C422E77
:1044C000532EE68CF78C2E813F81E222F322AA8DB7
:1044D000BB8D15961C921E921497038D2E813F81E1
:1044E000488559856A857B858C859D850E94274CEA
:1044F0002E8F3F8F1D8E1C8E1E821D8A1C8AF101FD
:1045000080A181FF03C06E8DC1015DDCA201052C7D
:10451000000C660B770BC1015ADABE016D5F7F4F4D
:10452000C10183DD3C0199230CF00DC15F924F92D4
:104530007F928F938CE39CE09F938F930E94034E16
:104540000F900F900F900F900F900F9003C2D1011A
:104550005B962C915B975D968C9130E0281B31091E
:1045600081E090E002C0880F991F2A95E2F7019739
:1045700092012F5F3F4F82239323892B09F4F6C0CA
:10458000F2013196FF83EE83AF01FF0F660B770BCD
:10459000C10141DABE016D5F7F4FC10146DD3C01C3
:1045A00099239CF4FF81FF932E812F937F928F9309
:1045B00088EC9CE09F938F930E94034E0F900F9086
:1045C0000F900F900F900F90C5C1488D598D4230BC
:1045D0005105F1F08B81AE014C5F5F4FBE016F5F03
:1045E0007F4F90E024D88C819D81892B89F05F9248
:1045F0004F9281E69CE09F938F930E94034E8C8D97
:104600009D8D01969D8F8C8F0F900F900F900F9026
:1046100089819A81AC89BD89A817B90710F49D8B4F
:104620008C8BF1018789908D8E199F093401881533
:10463000990508F43C01D5011E96CD90DC901F979A
:1046400014968D919C9115979201550C440B550B26
:10465000288B398B4A8B5B8BC80ED91E8701FF0CC8
:10466000220B330B7301488959896A897B89C101FF
:1046700015DAD50114968D919C911597860D971D8D
:1046800015969C938E9314978618970850968D9143
:104690009C915197892BC9F16E847F84EE89FF89A3
:1046A000E615F7050CF43F01D1015996ED90FC9009
:1046B0005A9757960D911C9158971996CD90DC906A
:1046C0001A9720E030E0488959896A897B89C101BD
:1046D000E5D9F5016089718980859185680F791F19
:1046E0009301A501C101F8DDD50118968D919C912A
:1046F0001997860D971D19969C938E931897EE85A2
:10470000FF85E619F709FF87EE87C10145DC3C010B
:10471000E12CF12C41E099239CF4FF81FF932E8141
:104720002F937F928F938CE39CE09F938F930E94B3
:10473000034E0F900F900F900F900F900F900AC1A3
:104740004E805F8003C04E81AA8CBB8CD1015796EE
:104750002D913C915897C701880D991D281739074D
:1047600048F490968C9181FDF2CE0ACF4E83B1E051
:10477000B8A302C04E8318A2EE81EE23E1F0C1017E
:104780006ED9BE016D5F7F4FC1014FDC3C019923A3
:104790008CF45F924F927F928F938CE39CE09F9377
:1047A0008F930E94034E0F900F900F900F900F90D9
:1047B0000F90D0C01E82288D398D2230310501F135
:1047C0008B81AE014C5F5F4FBE016F5F7F4F90E00A
:1047D0000E94171B8C819D81892B91F05F924F92D3
:1047E00081E69CE09F938F930E94034E4C8D5D8DDC
:1047F0004F5F5F4F5D8F4C8F0F900F900F900F901A
:1048000089819A81AC89BD89A817B90710F49D8B5D
:104810008C8BF1018789908D8E199F095401881521
:10482000990508F45C01AA8DBB8D1E96CD90DC9095
:104830001F9714968D919C9115979201052C000C51
:10484000440B550B288B398B4A8B5B8BC80ED91EBA
:104850008701FF0C220B330B7501488959896A893E
:104860007B89C1011BD9AA8DBB8D14968D919C911A
:1048700015978A0D9B1D15969C938E9314978A18F5
:104880009B0850968D919C915197892BD9F1AE84BC
:10489000BF84EE89FF89EA15FB050CF45F01D101A5
:1048A0005996ED90FC905A9757960D911C915897F8
:1048B0001996CD90DC901A9720E030E0488959890C
:1048C0006A897B89C101EAD8EA8DFB8D608971898B
:1048D00080859185680F791F9501AF01C101FCDCCE
:1048E000AA8DBB8D18968D919C9119978A0D9B1D51
:1048F00019969C938E931897EE85FF85EA19FB090C
:10490000FF87EE87F8A1FF2361F02FEF421A520ACA
:104910004E8D5F8D4F5F5F4F5F8F4E8FE12CF12C7F
:10492000EECDD10198968C9190E0EC89FD89E81745
:10493000F90730F00F2EFBE86F2E77247A94F02DD4
:104940002C8D3D8D232B31F00F2EF6EB6F2E77241F
:104950007A94F02DC301A0960FB6F894DEBF0FBE77
:10496000CDBFDF91CF911F910F91FF90EF90DF901E
:10497000CF90BF90AF909F908F907F906F905F90FF
:104980004F903F902F9008952F923F924F925F92B9
:104990006F927F928F929F92AF92BF92CF92DF924F
:1049A000EF92FF920F931F93CF93DF93CDB7DEB7B4
:1049B0006D970FB6F894DEBF0FBECDBF9C838B837F
:1049C0000D831E832F83388749875A876B877C879F
:1049D00027011A821982D70112962D903C901397C5
:1049E0001696ED91FC911797FE87ED878D919C911E
:1049F000F1E0FF8B8230910509F01F8A019769F47D
:104A0000AB81BC819A96ED91FC919B97EC5FFE4F38
:104A100020813181398F288F08C0AB81BC815996A4
:104A20000D90BC91A02DB98FA88F3F922F92BC857D
:104A3000BF93EB85EF93FA85FF9329852F933885F4
:104A40003F934F814F935E815F938D818F938EE96A
:104A500090E19F938F9385EF9CE09F938F930E94AB
:104A6000034EAB81BC815D960C915D972D813E819B
:104A70004F81588569857A858B859C850E94274C56
:104A8000622E732E5E968D919C915F97ED80FE80D5
:104A9000E822F9225B960C915B972D813E814F8134
:104AA000588569857A858B859C850E94274C2C8F3B
:104AB0003D8FF2011582148290968C9190970FB6DB
:104AC000F894DEBF0FBECDBF81FF03C0622FCD01C2
:104AD0007AD91B8E1A8E1E8A1D8A02C0E12CF12CF7
:104AE000AB81BC8157968D919C9158978E199F09E7
:104AF0003E822D828215930510F49E838D83ED8175
:104B0000FE81FC8BEB8BD2011E96AD90BC901F9763
:104B100014968D919C911597A80EB91E8701FF0CD4
:104B2000220B330BC301072C000CAA0BBB0B8F8786
:104B3000988BA98BBA8B4F01DE0111966D01EF881E
:104B40004F85588969897A898B819C81C2DA5C0199
:104B5000863BBFEF9B0731F4EA8DFB8D3196FB8FCF
:104B6000EA8F13C0009789F07F926F92BF928F9364
:104B700085E19DE09F938F930E94034E0F900F90CD
:104B80000F900F900F900F9088C089819A812D8986
:104B90003E892817390710F49E8B8D8BD20114960D
:104BA0008D919C911597ED81FE818E0F9F1F15961B
:104BB0009C938E9314972B893C89221A330A509622
:104BC0008D919C915197892BE1F18D849E84488D24
:104BD000598D481559050CF44A01AB81BC81599691
:104BE000ED90FC905A9757960D911C9158971996F5
:104BF000CD90DC901A9720E030E04F855889698984
:104C00007A89CD010E944E1DF201608971898085EB
:104C10009185680F791F9401A2018B819C815CDBD7
:104C2000D20118968D919C911997880D991D19960E
:104C30009C938E931897ED85FE85E819F909FE87F8
:104C4000ED872114310449F1FFEF6F1A7F0AAB8120
:104C5000BC815B962C915B975D968C915D9730E063
:104C6000281B310981E090E002C0880F991F2A9526
:104C7000E2F7019786219721892B09F02FCF909693
:104C80008C91909781FF2ACFEC8DFD8D3196FD8F11
:104C9000EC8F6C8DCD0197D821CFAB81BC819896DC
:104CA0008C9190E0ED89FE89E817F90730F00F2E1E
:104CB000FBE8AF2EBB24BA94F02D2A8D3B8D232B1D
:104CC00031F00F2EF6EBAF2EBB24BA94F02DC501B8
:104CD0006D960FB6F894DEBF0FBECDBFDF91CF91BA
:104CE0001F910F91FF90EF90DF90CF90BF90AF900A
:104CF0009F908F907F906F905F904F903F902F90FC
:104D000008952F923F924F925F926F927F928F926F
:104D10009F92AF92BF92CF92DF92EF92FF920F934A
:104D20001F93CF93DF93CDB7DEB7A3970FB6F89459
:104D3000DEBF0FBECDBF9BA38AA309871A872B872F
:104D40003C874D875E87462E572E4701D701169622
:104D50006D907C9017972D903C90B1E02B1631040C
:104D600061F4DC019A96ED91FC919B97EC5FFE4F0C
:104D7000A080B180BA82A98208C0AAA1BBA159961D
:104D80000D90BC91A02DBA83A983F40183818F93E8
:104D900082818F935F924F92FE85FF93AD84AF9295
:104DA000BC84BF92CB84CF92DA84DF92E984EF9205
:104DB00082EB90E19F938F9381E39DE09F938F938C
:104DC0000E94034EAAA1BBA11B96BC91BF87EAA17A
:104DD000FBA1F485F88BAAA1BBA11D96BC91B98B50
:104DE000EAA1FBA1F685FA8FEAA1FBA1B785A0890C
:104DF000F189FB8FEAA1FBA1F289FC8F0FB6F89431
:104E0000DEBF0FBECDBF2F85388949895A8D6B2FE4
:104E10007A2F8B8D9F2FA984BA84CB84DC84ED8478
:104E2000FE84042D152D0E94574C09F088F482EB66
:104E300090E19F938F9380E59DE09F938F930E94D5
:104E4000034E0F900F900F900F908AEE9FEF98C136
:104E5000161417040CF0A6C0F401028513852485EE
:104E60003585A980BA80A501BB0C660B770B0417AA
:104E700015072607370788F082EB90E19F938F9301
:104E80008AE79DE09F938F930E94034E0F900F90AF
:104E90000F900F908AEE9FEF73C1A301770C660B02
:104EA000770B400F511F621F731F6A017B0100E0E7
:104EB00010E098014A8BDB8AEC8AFD8A0E8B1F8BEF
:104EC000288F398FEAA1FBA1758C2F8538894989F4
:104ED0005A8D6B2F7A2F8B8D9C8D072D0E94294C1C
:104EE0002F87388B498B652EB62FA72FF82FE92FE8
:104EF00029853A854B855C856D857E85842D952D2C
:104F00000E94274CA22EB32EC42ED52EE62EF72EAD
:104F1000082F192F2F8538894989562D6B2F7A2F05
:104F20008F2F9E2F0E944E4C192F9A81990F990B0B
:104F3000A22EB32EC42ED52EE62EF72E082F2981B1
:104F40003A81492F592F692F792F892F0E94D64BEB
:104F5000A22EB32EC42ED52EE62EF72E082F192FF3
:104F60002A893B894C895D8960E070E080E090E0AF
:104F70000E94574C91F088F082EB90E19F938F93C1
:104F800080E59DE09F938F930E94034E0F900F90BA
:104F90000F900F908AEE9FEFF3C0D40119961C92E8
:104FA0001E921897B2E02B16310421F48AA19BA11E
:104FB0000E94521FF401A280B380AAA1BBA1579600
:104FC0008D919C9158973C01660C771C660C771C60
:104FD000A614B70408F4A1C05B96EC9129853A8524
:104FE0004B855C856D857E85842D952D0E2F0E94C9
:104FF000274C29833D8F4E8F5F8F68A3B72FA82F33
:1050000099A32A2D3B2D40E050E060E070E080E065
:1050100090E0A984BA84CB84DC84ED84FE84042DE2
:10502000152D0E94454C2A8B3F87488B598B6A8FE0
:105030007B8F8C8FF92F0E2F0E94274CA22EB32E20
:10504000C42ED52EE62EF72E082F192F29813D8D3F
:105050004E8D5F8D68A17B2F8A2F99A10E94574C9E
:1050600009F45DC0A1E0B0E002C0AA0FBB1FEA9541
:10507000E2F7EB2FEE0FEE0B2A2F3B2F4E2F5E2F7A
:105080006E2F7E2F8E2F9E2FA984BA84CB84DC8432
:10509000ED84FE84042D152D0E944E4C5301C12C2D
:1050A000D12CE12CF12C87016982BA82CB82DC827F
:1050B000ED82FE820F831887C12CD12CE12CF12CBC
:1050C00000E010E00E94574C64F52A893F8548892A
:1050D00059896A8D7B8D8C8D9F2FAA2EBB2ECE2E4B
:1050E000DE2EEE2EFE2E0E2F1E2F0E944E4CA22ED6
:1050F000B32EC42ED52EE62EF72E082F192F298178
:105100003A8140E050E060E070E080E090E00E9492
:10511000574C09F044F481E007C080E005C081E00D
:1051200003C081E001C080E0882379F07401098523
:105130001A852B853C854D855E85642D752D8AA14C
:105140009BA165D9082F192F0EC0740109851A85F6
:105150002B853C854D855E85642D752D8AA19BA18F
:1051600013DC082F192F22E02216310439F48AA10A
:105170009BA10E94721F802F912F02C0802F912F20
:10518000A3960FB6F894DEBF0FBECDBFDF91CF91CF
:105190001F910F91FF90EF90DF90CF90BF90AF9055
:1051A0009F908F907F906F905F904F903F902F9047
:1051B00008954F925F926F927F92AF92BF92CF927B
:1051C000DF92EF92FF920F931F93CF93DF935C01D7
:1051D0006B017A01E901FC01418D528D6FEF70E0A6
:1051E000818592850E949B4D88819981009711F05D
:1051F000029771F4F501218532858A859B85AC85FE
:10520000BD85820F931FA701B6010E94924D64C015
:10521000F50102A513A5085F1E4F4A845B846C84C8
:105220007D84C0E0D0E04AC041145104610471049F
:1052300031F1441655066606770628F0441A550AD9
:10524000660A770A37C0F80180819181A281B38113
:10525000840D951DA61DB71D4419550966097709CA
:105260002701612C712C441555056605770510F44E
:105270002A013B01E201412C512C320110C0C7012F
:10528000A0E0B0E0481759076A077B0710F4DB017C
:10529000CA01EC01F80180819181A281B381F501FD
:1052A00021853285820F931FAE01B6010E94924D77
:1052B000CC0EDD1E085F1F4FEC1AFD0AF801448179
:1052C000558166817781411551056105710521F090
:1052D000E114F10409F0A8CFDF91CF911F910F9154
:1052E000FF90EF90DF90CF90BF90AF907F906F9046
:1052F0005F904F9008952F923F924F925F926F92DE
:105300007F928F929F92AF92BF92CF92DF92EF9255
:10531000FF920F931F93CF93DF93CDB7DEB7A39781
:105320000FB6F894DEBF0FBECDBF9BA38AA309833F
:105330001A832B833C834D835E836F837887470179
:10534000D70112962D903C9013971696ED91FC91F3
:105350001797FA87E9870D911C911A8B098B0130F9
:10536000110561F4DC019A96ED91FC919B97EC5F3D
:10537000FE4F008111811E870D8708C0AAA1BBA125
:1053800059960D90BC91A02DBE87AD873F922F926C
:10539000B885BF93EF81EF93FE81FF930D810F934B
:1053A0001C811F932B812F933A813F9349814F9307
:1053B00088E890E19F938F9382EC9DE09F938F9379
:1053C0000E94034EAAA1BBA11B962C911B971C9671
:1053D0003C911C971D964C911D971E965C911E97B3
:1053E0001F966C911F9750967C9150970FB6F8942A
:1053F000DEBF0FBECDBF51968C91519752969C91B6
:10540000A980BA80CB80DC80ED80FE800F8118857A
:105410000E94574C09F088F488E890E19F938F939D
:1054200080EE9DE09F938F930E94034E0F900F900C
:105430000F900F908AEE9FEFEDC1AAA1BBA15D96E0
:105440000C915D9729813A814B815C816D817E81D0
:105450008F8198850E94274C422E532E5E960D9187
:105460001C915F97E981FA81E023F123FC87EB87A8
:105470005B960C9129813A814B815C816D817E81A3
:105480008F8198850E94274C722E2F87388BD401EC
:1054900015961C921E921497E985FA851E161F0612
:1054A0000CF0CAC01A960D911D912D913C911D973B
:1054B0000B8F1C8F2D8F3E8FED85FE85CF01FF0F4B
:1054C000AA0BBB0B081719072A073B0788F088E8C7
:1054D00090E19F938F938BE09EE09F938F930E9428
:1054E000034E0F900F900F900F908AEE9FEF92C196
:1054F00009851A85C801110FAA0BBB0B2B8D3C8D9A
:105500004D8D5E8D820F931FA41FB51F8C019D01D1
:1055100040E050E0BA018B8B1C8B2D8B3E8B4F8B68
:10552000588F698F7A8FAAA1BBA11B962C911B97CC
:105530001C963C911C971D964C911D971E965C9154
:105540001E971F966C911F9750967C9150975D9671
:10555000FC905D9751968C91519752969C910F2D8E
:105560000E94294C2F8F632E48A359A3B62FA72F33
:10557000F82FE92F29813A814B815C816D817E81F1
:105580008F8198850E94274CA22EB32EC42ED52E33
:10559000E62EF72E082F192F2F8D362D48A159A151
:1055A0006B2F7A2F8F2F9E2F0E944E4CA22EB32E40
:1055B000C42ED52EE62EF72E082F192F2D853E85C9
:1055C000932F990F990B492F592F692F792F892FD5
:1055D0000E94D64BA22EB32EC42ED52EE62EF72E29
:1055E000082F192F2B893C894D895E8960E070E076
:1055F00080E090E00E94574C91F088F088E890E1BC
:105600009F938F9380EE9DE09F938F930E94034E14
:105610000F900F900F900F908AEE9FEFFBC0ED85DB
:10562000FE850B8D1C8DE01BF10BFE87ED87D401F1
:1056300019961C921E921897EAA1FBA180A181FFE6
:1056400004C0672DCF010E94E31E09891A89023028
:10565000110521F48AA19BA10E94521FBB24B3947F
:1056600002C01C861B86D40150966D917C91519787
:105670006115710509F44EC069847A84ED85FE8553
:10568000E615F7050CF43F01D40118968D919C9115
:105690001997680F791F9401A3018AA19BA189DD45
:1056A000EAA1FBA1C184D284E18CF28C0789108D20
:1056B00020E030E0AA24A394A201052C000C660B84
:1056C000770BCF010E94B41D8C01009789F05F9287
:1056D0004F921F938F9383E39EE09F938F930E943B
:1056E000034E0F900F900F900F900F900F9084C06B
:1056F000D40118968D919C911997860D971D199636
:105700009C938E931897E985FA85E619F709FA872D
:10571000E987B12CAAA1BBA157968D919C9158976E
:10572000EB85FC858E1B9F0B31018215930508F4D8
:105730003C01D4011E96ED90FC901F9714968D911C
:105740009C911597E80EF91EEB85FC858F01FF0FE4
:10575000220B330BAB2C6301A201052C000C660B52
:10576000770B8AA19BA10E94F1208C01009789F000
:105770005F924F921F938F938AE59EE09F938F9342
:105780000E94034E0F900F900F900F900F900F906C
:1057900033C0D40114968D919C911597860D971D59
:1057A00015969C938E9314972618370829F1BFEF0E
:1057B0004B1A5B0AEAA1FBA1238D858D30E0281BE3
:1057C000310981E090E002C0880F991F2A95E2F725
:1057D000019784219521892B09F043CF80A181FF76
:1057E00040CF0F8518890F5F1F4F188B0F876F856C
:1057F000CF010E94E31E35CF49895A8942305105B5
:1058000039F48AA19BA10E94721F802F912F02C0A0
:10581000802F912FA3960FB6F894DEBF0FBECDBF99
:10582000DF91CF911F910F91FF90EF90DF90CF907C
:10583000BF90AF909F908F907F906F905F904F90B0
:105840003F902F900895CF93DF93CDB7DEB7629747
:105850000FB6F894DEBF0FBECDBFBE016F5F7F4FA6
:1058600022E1FB0111922A95E9F72FEF298391D2CA
:10587000992324F488E99EE00E94424E80ED97E04F
:105880000E94273F80E090E062960FB6F894DEBF5A
:105890000FBECDBFDF91CF9108954F925F926F926F
:1058A0007F928F929F92AF92BF92CF92DF92EF92B0
:1058B000FF920F931F93CF93DF93EC0180E093E06F
:1058C0000E94C83E5C0161E0CE010E94921F41E04F
:1058D00050E060E070E0CE010E94E71C60E070E004
:1058E000CE010E9415209E8083E08E8365010F2EDD
:1058F000E12CF3E0FF2EF02D00E010E0980141E0F4
:1059000050E060E070E0CE010E944E1D9E8260E09B
:10591000CE010E94921F1FC0F50180818F34C1F417
:1059200081818E34A9F48281863491F48381893413
:1059300079F44EEF50E0B5018EE49FE40E94741CB0
:10594000F501E250FF4F208131818217930731F03A
:105950000F5F1F4FB39403301105F4F203301105AC
:1059600031F48FEA9EE00E94424E80E081C080E0E8
:10597000F5018E01045D1F4FD80101900D928A95AB
:10598000E1F76CE070E0C80180960E949D1C045D08
:105990001F4F64E170E0C8010E949D1C19830883B9
:1059A000FE01E458FF4FC080D180E280F3803C9636
:1059B0006081718182819381A70196010E948C4B45
:1059C0002B013C0134966081718182819381A30116
:1059D00092010E948C4B4B015C013496A081B0E097
:1059E0009B01AC010E94CC4B8B019C010B871C8757
:1059F0002D873E871F86188A198A1A8A4B8A5C8AE5
:105A00006D8A7E8AD88ECF8A7097808191819A8F95
:105A1000898FC501B4010E94471B8B8FFE01EE5296
:105A2000FF4F8081882349F088A199A1AAA1BBA139
:105A3000816088A399A3AAA3BBA3FE01EB5DFE4FDF
:105A40008081882349F088A199A1AAA1BBA1826085
:105A500088A399A3AAA3BBA3FE01EC5DFE4F80819E
:105A600090E0A0E0B0E08CA39DA3AEA3BFA381E033
:105A7000DF91CF911F910F91FF90EF90DF90CF902A
:105A8000BF90AF909F908F907F906F905F904F905E
:105A90000895CF93DF931F92CDB7DEB76983AE0130
:105AA0004F5F5F4F60EA0E94941E0F90DF91CF918D
:105AB00008959F92AF92BF92CF92DF92EF92FF92A2
:105AC0000F931F93CF93DF93CDB7DEB762970FB6D7
:105AD000F894DEBF0FBECDBFFE0131960F2EF2E16E
