:100000000C94240C0C94450C0C94450C0C94450C4D
:100010000C94450C0C94450C0C94450C0C94450C1C
:100020000C94D80F0C94450C0C94450C0C94450C76
:100030000C94450C0C94E20F0C94450C0C94450C5C
:100040000C94450C0C94450C0C94450C0C94450CEC
:100050000C94450C0C94450C0C94450C0C94450CDC
:100060000C94450C0C9487200C94450C0C94450C76
:100070000C94450C0C946D110C94450C0C94450C8F
:100080000C94450C0C94450C0C94450C0C94450CAC
:100090000C9466210C94450C0C94450C0C94450C66
:1000A0000C94450C0C94450C0C94450C0C94450C8C
:1000B0000C94450C0C94450C0C94450C0C94450C7C
:1000C0000C94450C0C94450C0C94450C0C94450C6C
:1000D0000C94450C0C94450C0C94450C0C94450C5C
:1000E0000C94450C6E616E00696E660000407A10DB
:1000F000F35A00A0724E18090010A5D4E80000E8D9
:100100007648170000E40B54020000CA9A3B000036
:1001100000E1F505000080969800000040420F00C5
:100120000000A08601000000102700000000E80386
:10013000000000006400000000000A000000000051
:100140000100000000002C76D888DC674F0823DF10
:10015000C1DFAE59E1B1B796E5E3E453C63AE651E3
:10016000997696E8E6C28426EB898C9B62ED407C0A
:100170006FFCEFBC9C9F40F2BAA56FA5F490055AA6
:100180002AF75C936B6CF9676DC11BFCE0E40D47CB
:10019000FEF520E6B500D0ED902E030094357705EE
:1001A0000080841E080000204E0A000000C80C33A6
:1001B0003333330F986E12831141EF8D2114893B35
:1001C000E65516CFFEE6DB18D1844B381BF77C1DB5
:1001D000901DA4BBE424203284725E228100C9F108
:1001E00024ECA1E53D27464C4153482072656164EB
:1001F000206661696C65640A00464C41534820776B
:1002000072697465206661696C65640A00756E6B5D
:100210006E6F776E2041444332353138206F7363FF
:10022000696C61746F7253706565640A004F535254
:100230003A206C6F673273616D706C6573203E207D
:1002400037000A00256420004552524F523A204E92
:100250006F20414443204368616E6E656C7320617A
:1002600063746976650A000A5374616C6520507284
:1002700065737375726520496E7465726E616C206A
:100280004661756C742025640A000A5374616C65BC
:100290002050726573737572652052656164696E72
:1002A000672025640A000A53656E736F7220256407
:1002B00020696E2050726F6772616D6D696E672084
:1002C0004D6F64650A007370695F466C61736857AF
:1002D00072697465546F506167653A20466C61734A
:1002E0006820776F6E27742064697361626C652083
:1002F00077726974650A007370695F466C61736830
:100300005772697465546F506167653A20466C6135
:100310007368206E6576657220726561647920610C
:10032000667465722064617461206C6F61640A0098
:100330007370695F466C6173685772697465546F56
:10034000506167653A20466C617368206E6576651A
:1003500072207265616479206166746572206461DF
:100360007461206C6F61640A007370695F466C6130
:1003700073685772697465546F506167653A2046B7
:100380006C61736820776F6E277420656E61626C94
:10039000652077726974650A007370695F466C61E5
:1003A00073685772697465546F506167653A204687
:1003B0006C617368206E6576657220726561647920
:1003C0002061667465722070616765207265616482
:1003D0000A007370695F466C61736857726974656F
:1003E000546F506167653A20466C617368206E6592
:1003F0007665722072656164790A007370695F4680
:100400006C6173685772697465546F506167653ABF
:10041000206275666665722063726F737365732000
:100420007061676520626F756E646172790A00732E
:1004300070695F466C61736857726974653A2032FF
:100440006E642070616765207772697465206661EB
:10045000696C65640A007370695F466C6173685704
:10046000726974653A203173742070616765207712
:1004700072697465206661696C65640A00737069ED
:100480005F466C6173685265616446726F6D50615E
:1004900067653A20466C617368206E6576657220E8
:1004A0007265616479206166746572207061676548
:1004B00020726561640A007370695F466C617368DD
:1004C0005265616446726F6D506167653A20466C93
:1004D000617368206E657665722072656164790A61
:1004E000007370695F466C6173685265616446723F
:1004F0006F6D506167653A2062756666657220634C
:10050000726F73736573207061676520626F756EBB
:10051000646172790A007370695F466C6173685236
:100520006561643A20326E6420706167652072658F
:100530006164206661696C65640A007370695F4676
:100540006C617368526561643A2031737420706124
:1005500067652072656164206661696C65640A0084
:100560007370695F466C6173684572617365426C54
:100570006F636B3A205772697465206469617362B6
:100580006C65206661696C65640A007370695F461A
:100590006C6173684572617365426C6F636B3A207E
:1005A000466C617368206E65766572207265616461
:1005B0007920616674657220626C6F636B2065726E
:1005C0006173650A007370695F466C617368457298
:1005D000617365426C6F636B3A20466C617368208F
:1005E000776F6E277420656E61626C652077726923
:1005F00074650A007370695F466C61736845726167
:100600007365426C6F636B3A20466C617368206E51
:10061000657665722072656164790A007370695F3E
:10062000466C6173684572617365426C6F636B3AC7
:1006300020416464726573732065786365656473D3
:1006400020617661696C61626C6520626C6F636BBE
:10065000730A0045726173696E6720626C6F636B29
:100660002025640A007370695F466C617368457287
:10067000617365416C6C426C6F636B733A204572B9
:10068000617365206661696C7572652061742062B2
:100690006C6F636B2025640A004920616D207468CB
:1006A000652076657279206D6F64656C206F6620B9
:1006B00061206D6F6465726E204D616A6F722D47A7
:1006C000656E6572616C0A000000000000000000A9
:1006D000000000000000004927766520696E666F03
:1006E000726D6174696F6E20766567657461626CA6
:1006F000652C20616E696D616C2C20616E64206DCB
:10070000696E6572616C0A00000000000000000064
:10071000000000000049206B6E6F77207468652030
:100720006B696E6773206F6620456E676C616E64DF
:100730002C20616E6420492071756F746520746887
:1007400065206669676874730A0000000000000095
:10075000000000486973746F726963616C0A00007D
:100760000000000000000000000000000000000089
:100770000000000000000000000000000000000079
:100780000000000000000000000000000000000069
:100790000046726F6D204D61726174686F6E2074D7
:1007A0006F2057617465726C6F6F2C20696E206FBB
:1007B000726465722063617465676F726963616CEE
:1007C0000A000000000000000000000000000049D6
:1007D000276D20766572792077656C6C2061637176
:1007E0007561696E7465642C20746F6F2C20776955
:1007F0007468206D6174746572730A0000000000F3
:10080000000000000000000000000000004D6174C6
:1008100068656D61746963616C0A00000000000026
:1008200000000000000000000000000000000000C8
:1008300000000000000000000000000000000000B8
:1008400000000000000000000000004920756E64F8
:1008500065727374616E64206571756174696F6E21
:10086000732C20626F7468207468652073696D70E2
:100870006C6520616E642071756164726174696376
:10088000616C0A00000000000041626F7574206214
:10089000696E6F6D69616C207468656F72656D203B
:1008A00049276D207465656D696E67207769746886
:1008B0002061206C6F74206F27206E6577730A00AB
:1008C0000000000000000057697468206D616E79B7
:1008D00020636865657266756C2066616374732059
:1008E00061626F75742074686520737175617265DB
:1008F000206F66207468650A000000000000000098
:1009000000000000004879706F74656E7573650AA9
:1009100000000000000000000000000000000000D7
:1009200000000000000000000000000000000000C7
:1009300000000000000000000000000000000000B7
:1009400000000057697468206D616E7920636865E6
:10095000657266756C2066616374732061626F7581
:10096000742074686520737175617265206F6620EC
:100970007468650A0000000000000000000000002C
:10098000004879706F74656E7573650A0000000029
:100990000000000000000000000000000000000057
:1009A0000000000000000000000000000000000047
:1009B00000000000000000000000000000000057E0
:1009C000697468206D616E7920636865657266750B
:1009D0006C2066616374732061626F757420746843
:1009E0006520737175617265206F66207468650A91
:1009F00000000000000000000000000000487970C6
:100A00006F74656E7573650A0000000000000000D9
:100A100000000000000000000000000000000000D6
:100A200000000000000000000000000000000000C6
:100A300000000000000000000000005769746820FA
:100A40006D616E7920636865657266756C2066619C
:100A50006374732061626F757420746865207371AC
:100A600075617265206F66207468650A0000000079
:100A70000000000000000000004879706F7465708D
:100A80006F74656E7573650A000000000000000059
:100A90000000000000000000000000000000000056
:100AA0000000000000000000000000000000000046
:100AB0000000000000000049276D20766572792053
:100AC000676F6F6420617420696E74656772616C12
:100AD00020616E6420646966666572656E74696122
:100AE0006C2063616C63756C75730A000000000014
:100AF000000000000049206B6E6F7720746865204D
:100B0000736369656E7469666963206E616D657390
:100B1000206F66206265696E677320616E696D6122
:100B20006C63756C6F75730A0000000000000000B4
:100B3000000000496E2073686F72742C20696E206B
:100B40006D61747465727320766567657461626C3B
:100B5000652C20616E696D616C2C20616E64206D66
:100B6000696E6572616C0A00000000000000000000
:100B7000004920616D207468652076657279206D6A
:100B80006F64656C206F662061206D6F6465726EA6
:100B9000204D616A6F722D47656E6572616C0A0047
:100BA00000000000000000000000000000000049FC
:100BB0006E2073686F72742C20696E206D6174747E
:100BC00065727320766567657461626C652C20615F
:100BD0006E696D616C2C20616E64206D696E65724A
:100BE000616C0A0000000000000000000048652061
:100BF0006973207468652076657279206D6F64650D
:100C00006C206F662061206D6F6465726E204D618F
:100C10006A6F722D47656E6572616C0A0000000094
:100C2000000000000000000000000049206B6E6F13
:100C300077206F7572206D797468696320686973B5
:100C4000746F72792C204B696E67204172746875DD
:100C500072277320616E64205369720A00000000DD
:100C600000000000000000000043617261646F63D7
:100C700027730A00000000000000000000000000D0
:100C80000000000000000000000000000000000064
:100C90000000000000000000000000000000000054
:100CA000000000000000004920616E73776572202B
:100CB00068617264206163726F73746963732C205E
:100CC000492776652061207072657474792074619B
:100CD00073746520666F720A000000000000000057
:100CE000000000000050617261646F780A0000002B
:100CF00000000000000000000000000000000000F4
:100D000000000000000000000000000000000000E3
:100D100000000000000000000000000000000000D3
:100D2000000000492071756F746520696E20656C44
:100D300065676961637320616C6C2074686520630A
:100D400072696D6573206F662048656C696F6761B5
:100D500062616C75730A0000000000000000000072
:100D600000496E20636F6E69637320492063616E72
:100D700020666C6F6F7220706563756C6961726953
:100D8000746965732070617261626F6C6F75730A4C
:100D9000000000000000000000000000000000490A
:100DA0002063616E2074656C6C20756E646F756273
:100DB000746564205261706861656C732066726F3F
:100DC0006D2047657261726420446F777320616E95
:100DD000640A00000000000000000000005A6F6676
:100DE00066616E6965730A00000000000000000083
:100DF00000000000000000000000000000000000F3
:100E000000000000000000000000000000000000E2
:100E1000000000000000000000000049206B6E6F21
:100E200077207468652063726F616B696E672063F9
:100E3000686F7275732066726F6D207468652046E6
:100E4000726F6773206F660A0000000000000000E8
:100E500000000000000000000041726973746F70B0
:100E600068616E65730A0000000000000000000069
:100E70000000000000000000000000000000000072
:100E80000000000000000000000000000000000062
:100E9000000000000000005468656E204920636176
:100EA0006E2068756D2061206675677565206F66B8
:100EB00020776869636820492776652068656172D4
:100EC0006420746865206D7573696327730A000078
:100ED000000000000044696E2061666F72650A00C0
:100EE0000000000000000000000000000000000002
:100EF00000000000000000000000000000000000F2
:100F000000000000000000000000000000000000E1
:100F1000000000416E642077686973746C6520611D
:100F20006C6C2074686520616972732066726F6DE5
:100F3000207468617420696E6665726E616C206EE3
:100F40006F6E73656E73650A00000000000000009C
:100F50000050696E61666F72650A00000000000053
:100F60000000000000000000000000000000000081
:100F70000000000000000000000000000000000071
:100F80000000000000000000000000000000004120
:100F90006E642077686973746C6520616C6C207472
:100FA000686520616972732066726F6D2074686174
:100FB0007420696E6665726E616C206E6F6E73650B
:100FC0006E73650A00000000000000000050696EAA
:100FD00061666F72650A00000000000000000000FA
:100FE0000000000000000000000000000000000001
:100FF00000000000000000000000000000000000F1
:101000000000000000000000000000416E64207736
:10101000686973746C6520616C6C2074686520610C
:101020006972732066726F6D207468617420696ED6
:101030006665726E616C206E6F6E73656E73650AA5
:1010400000000000000000000050696E61666F72D1
:10105000650A000000000000000000000000000021
:101060000000000000000000000000000000000080
:101070000000000000000000000000000000000070
:1010800000000000000000416E64207768697374FE
:101090006C6520616C6C20746865206169727320D6
:1010A00066726F6D207468617420696E6665726E19
:1010B000616C206E6F6E73656E73650A00000000D0
:1010C000000000000050696E6170696E61666F72A9
:1010D000650A0000000000000000000000000000A1
:1010E0000000000000000000000000000000000000
:1010F00000000000000000000000000000000000F0
:101100000000005468656E20492063616E2077728C
:1011100069746520612077617368696E6720626910
:101120006C6C20696E20426162796C6F6E6963201D
:1011300063756E6569666F726D0A000000000000DD
:1011400000416E642074656C6C20796F7520657643
:101150002772792064657461696C206F6620436131
:101160007261637461637573277320756E69666F4E
:10117000726D0A000000000000000000000000493D
:101180006E2073686F72742C20696E206D617474A8
:1011900065727320766567657461626C652C206189
:1011A0006E696D616C2C20616E64206D696E657274
:1011B000616C0A000000000000000000004920618E
:1011C0006D207468652076657279206D6F64656C3A
:1011D000206F662061206D6F6465726E204D616ABC
:1011E0006F722D47656E6572616C0A000000000029
:1011F0000000000000000000000000496E2073683D
:101200006F72742C20696E206D6174746572732026
:10121000766567657461626C652C20616E696D61CD
:101220006C2C20616E64206D696E6572616C0A00C1
:101230000000000000000000004865206973207471
:1012400068652076657279206D6F64656C206F66C5
:101250002061206D6F6465726E204D616A6F722D22
:1012600047656E6572616C0A0000000000000000B6
:1012700000000000000000496E20666163742C20AD
:101280007768656E2049206B6E6F77207768617490
:10129000206973206D65616E7420627920276D610D
:1012A0006D656C6F6E2720616E640A00000000009F
:1012B000000000000027526176656C696E270A0005
:1012C000000000000000000000000000000000001E
:1012D000000000000000000000000000000000000E
:1012E00000000000000000000000000000000000FE
:1012F0000000005768656E20492063616E207465A8
:101300006C6C2061742073696768742061204D6182
:1013100075736572207269666C652066726F6D20E8
:1013200061206A6176656C696E0A00000000000049
:10133000005768656E207375636820616666616931
:10134000727320617320736F727469657320616EAC
:1013500064207375727072697365732049276D20FC
:101360006D6F72650A000000000000000000005769
:101370006172792061740A00000000000000000022
:10138000000000000000000000000000000000005D
:10139000000000000000000000000000000000004D
:1013A00000000000000000000000000000416E642A
:1013B000207768656E2049206B6E6F7720707265AC
:1013C000636973656C792077686174206973206D37
:1013D00065616E742062790A000000000000000060
:1013E000000000000000000000000027436F6D6D4A
:1013F0006973736172696174270A0000000000005C
:1014000000000000000000000000000000000000DC
:1014100000000000000000000000000000000000CC
:101420000000000000000000005768656E204920A1
:1014300068617665206C6561726E7420776861748E
:101440002070726F677265737320686173206265C4
:10145000656E206D61646520696E0A000000000001
:10146000000000000000004D6F6465726E2067751B
:101470006E6E6572790A0000000000000000000036
:10148000000000000000000000000000000000005C
:10149000000000000000000000000000000000004C
:1014A00000000000005768656E2049206B6E6F7762
:1014B000206D6F7265206F66207461637469637359
:1014C000207468616E2061206E6F766963652069A3
:1014D0006E2061206E756E6E6572790A00000000E4
:1014E000000000496E2073686F72742C2077686565
:1014F0006E2049277665206120736D617474657272
:10150000696E67206F6620656C656D656E74616CD1
:101510002073747261746567790A0000000000002E
:1015200000596F75276C6C207361792061206265AA
:1015300074746572204D616A6F722D47656E6572B5
:10154000616C20686164206E6576657220736174D9
:101550002061206765650A00000000000000005956
:101560006F75276C6C2073617920612062657474DB
:101570006572204D616A6F722D47656E6572616C90
:1015800020686164206E65766572207361742061E5
:10159000206765650A0000000000000000596F75B3
:1015A000276C6C20736179206120626574746572A8
:1015B000204D616A6F722D47656E6572616C20689F
:1015C0006164206E657665722073617420612067A6
:1015D00065650A0000000000000000596F75276C67
:1015E0006C20736179206120626574746572204D8E
:1015F000616A6F722D47656E6572616C2068616407
:10160000206E657665722073617420612073617449
:1016100020610A0000000000004765650A00000024
:1016200000000000000000000000000000000000BA
:1016300000000000000000000000000000000000AA
:10164000000000000000000000000000000000009A
:1016500000000000000000466F72206D79206D6967
:101660006C6974617279206B6E6F776C6564676505
:101670002C2074686F7567682049276D20706C7521
:10168000636B7920616E640A0000000000000000B6
:101690000000000000416476656E747572790A007E
:1016A000000000000000000000000000000000003A
:1016B000000000000000000000000000000000002A
:1016C000000000000000000000000000000000001A
:1016D000000000486173206F6E6C79206265656E52
:1016E0002062726F7567687420646F776E20746F04
:1016F0002074686520626567696E6E696E67206F29
:1017000066207468650A0000000000000000000008
:101710000043656E747572790A00000000000000D5
:1017200000000000000000000000000000000000B9
:1017300000000000000000000000000000000000A9
:101740000000000000000000000000000000004257
:101750007574207374696C6C2C20696E206D6174D3
:101760007465727320766567657461626C652C20A0
:10177000616E696D616C2C20616E64206D696E65AF
:1017800072616C0A00000000000000000049206146
:101790006D207468652076657279206D6F64656C64
:1017A000206F662061206D6F6465726E204D616AE6
:1017B0006F722D47656E6572616C0A000000000053
:1017C000000000000000000000000042757420735B
:1017D00074696C6C2C20696E206D61747465727311
:1017E00020766567657461626C652C20616E696D39
:1017F000616C2C20616E64206D696E6572616C0A8B
:10180000000000000000000000486520697320749B
:1018100068652076657279206D6F64656C206F66EF
:101820002061206D6F6465726E204D616A6F722D4C
:1018300047656E6572616C0A0000000000000000E0
:10184000000000000000000011241FBECFEFD1E215
:10185000DEBFCDBF00E00CBF19E0A0E0B2E0E4E8DD
:10186000F2E500E00BBF02C007900D92AE36B10763
:10187000D9F72AE0AEE6B9E001C01D92A63AB20758
:10188000E1F70E94881F0C9440290C940000CF922D
:10189000DF92EF92FF921F93CF93DF93CDB7DEB726
:1018A000C85CD1090FB6F894DEBF0FBECDBF10E003
:1018B000C12CD12C760136C08DEC989F812D11243E
:1018C000869586958695880F282F220F220F820FE6
:1018D000E92FE81BF0E0EB57FC4F8081E1E0F0E0FE
:1018E000EC0FFD1FE90FF11D80839F5F01C090E0A9
:1018F000983C10F328ECAE014F5F5F4FC701B60173
:101900000E94EC17883C41F089EF91E09F938F9300
:101910000E9486280F900F9088ECC80ED11CE11C05
:10192000F11C1F5F1A3018F3C853DF4F0FB6F8943D
:10193000DEBF0FBECDBFDF91CF911F91FF90EF9023
:10194000DF90CF900895CF92DF92EF92FF921F9396
:10195000CF93DF93CDB7DEB7C95CD1090FB6F8944A
:10196000DEBF0FBECDBF80E993E00E94B22810E039
:10197000C12CD12C76013AC0E1E0F0E0EC0FFD1F64
:10198000E80FF11D10828F5F01C080E0883CA0F35A
:101990001F921F9384EA93E09F938F930E94732872
:1019A00028ECAE014F5F5F4FC701B6010E941B19C3
:1019B0000F900F900F900F90883C49F086EE91E0C9
:1019C0009F938F930E9486280F900F9009C0C75352
:1019D000DF4F1882C95CD040CE0101960E94B22828
:1019E00088ECC80ED11CE11CF11C1F5F1A3068F294
:1019F000C753DF4F0FB6F894DEBF0FBECDBFDF91E8
:101A0000CF911F91FF90EF90DF90CF9008950C94AD
:101A10002F1A08958F929F92AF92BF92CF92DF922A
:101A2000EF92FF920F931F93CF93DF93CDB7DEB763
:101A300060970FB6F894DEBF0FBECDBFC12CD12C7E
:101A40007DC04601002496948794079496948794C9
:101A50000794982C802CA12CB12C5AC0BF92AF9225
:101A60009F928F92DF92CF9280EB93E09F938F9320
:101A70000E9473280FB6F894DEBF0FBECDBFE12CD5
:101A8000F12C3BC000E19E012F5F3F4FA701C50134
:101A9000B4010E948718803141F1FF92EF9287ECE8
:101AA00093E09F938F930E9473280F900F900F9055
:101AB0000F9020C0E1E0F0E0EC0FFD1FE00FF11F00
:101AC000808181110FC0C8018E0D9F1D9F938F9340
:101AD0008BED93E09F938F930E9473280F900F904C
:101AE0000F900F900F5F1F4F02C000E010E0003119
:101AF000110504F390E1E90EF11C80E8E81688E096
:101B0000F80608F4BFCF9FEF891A990AA90AB90A03
:101B100096012F5F3F4FC901002496958795079442
:101B2000969587950794982F802DA0E0B0E08816B1
:101B30009906AA06BB0608F491CF6901C11488E092
:101B4000D80608F47ECF60960FB6F894DEBF0FBEBD
:101B5000CDBFDF91CF911F910F91FF90EF90DF905C
:101B6000CF90BF90AF909F908F900895EF92FF928B
:101B70000F931F93CF93DF93CDB7DEB7EE970FB6DA
:101B8000F894DEBF0FBECDBF00E010E015C0CE015F
:101B900001967C01BC01802F0E94B81FFF92EF923A
:101BA0008FEE93E09F938F930E9473280F5F1F4FD8
:101BB0000F900F900F900F900E94B61F90E00817A3
:101BC00019072CF3EE960FB6F894DEBF0FBECDBF0B
:101BD000DF91CF911F910F91FF90EF900895CF93D8
:101BE000DF93C091800AC13481F58091810A8337E7
:101BF00011F451D21BC08D3611F4B5D217C0833603
:101C000029F48091820A8053B2D210C08F3629F411
:101C10008091820A80537AD209C08C3619F481E00F
:101C200086D204C0883611F480E081D280E89AE040
:101C30009F938F9382EF93E09F938F930E947328DB
:101C40000F900F900F900F90B0C1C03711F432D5A4
:101C5000ACC1C03511F420D5A8C16BEF73E080E8AA
:101C60009AE00E941B28892B11F432D59EC1CD34F5
:101C700019F40E941E1D99C1C23339F481E89AE01B
:101C80000E9414270E94351D90C1C23561F48091D5
:101C9000810A833509F42AD58091810A823509F0B9
:101CA00084C139D582C1C23719F40E94B01A7DC1EE
:101CB000C13679F48091810A813611F4B9D275C1A7
:101CC000833711F4B8D371C1843609F06EC188D35B
:101CD0006CC1C63451F54FD78091810A873711F412
:101CE000D6DD63C1893611F468D65FC1823711F43D
:101CF0002ADE5BC1813611F48DDE57C1853611F4C1
:101D000086DE53C1853719F40E94AA164EC1833767
:101D100011F49BD74AC1883719F40E948D1A45C126
:101D2000803709F042C122DF40C1C636B9F4809144
:101D3000810A833719F40E94F31B37C1893619F4DD
:101D40000E945A1C32C18A3619F40E94871C2DC188
:101D5000853609F02AC10E94EE1B27C1C337C1F4A2
:101D60008091000290E00E94CA1C8091000291E0E4
:101D7000980F909300021F928F938FEF93E09F93A1
:101D80008F930E9473280F900F900F900F900DC1AA
:101D9000CE3619F40E94D61C08C1C33619F40E942D
:101DA000F61A03C1C53651F58091810A90ED980F5E
:101DB000923010F0843329F480D586E094E00E94BC
:101DC000B2288091810A823329F483D583E294E09A
:101DD0000E94B2288091810A833329F482D587E357
:101DE00094E00E94B2288091810A853309F0DDC019
:101DF00080D58EE494E00E94B228D7C0C43631F575
:101E00008091810A803329F45ED585E694E00E94B2
:101E1000B2288091810A823329F45FD583E894E067
:101E20000E94B2288091810A833329F45ED588E923
:101E300094E00E94B2288091810A853309F0B5C0F0
:101E40005ED580EB94E00E94B228AFC0CF36F1F4AB
:101E50008091810A90E0C0972FEF31E0829FE001EE
:101E6000839FD00D929FD00D11248C2F9D2F0E9407
:101E7000CA1BDF93CF9388EC94E09F938F930E94CB
:101E800073280F900F900F900F908FC0CF34E1F414
:101E90008091810A8053883008F087C0C091820AFF
:101EA000D0E0C05DDF456C2F7D2F0E94931BDF9338
:101EB000CF938FEC94E09F938F930E9473280F90A1
:101EC0000F900F900F9071C0C23609F588ED94E025
:101ED0000E94B2288091810A90E0C0972FEF31E0F4
:101EE000829FE001839FD00D929FD00D1124CE01DF
:101EF0000E94DC1BDF93CF9388EC94E09F938F9339
:101F00000E9473280F900F900F900F904EC0C23414
:101F100021F58091810A8053883008F046C02091D5
:101F2000820A30E0205331094FEF51E0249FE00155
:101F3000259FD00D349FD00D1124BE010E945C1B43
:101F4000DF93CF9388EC94E09F938F930E94732844
:101F50000F900F900F900F9028C0C73759F48091C1
:101F6000810A813309F4D1D48091810A8033E9F464
:101F7000D0D41BC0CD3659F48091810A813309F445
:101F800010D58091810A803381F411D50EC080E88C
:101F90009AE09F938F938CED94E09F938F930E9490
:101FA00073280F900F900F900F90DF91CF910895AD
:101FB0001F920F920FB60F9211240F900FBE0F9029
:101FC0001F9018951F920F920FB60F9211242F9306
:101FD0008F939F938FB78F778FBF88B1805888B9C1
:101FE000809172099091730901969093730980937F
:101FF000720980917209909173098115924019F4C8
:1020000081E0809370098091720990917309811524
:102010009440A8F080917209909173099450909324
:1020200073098093720981E08093710980916E0930
:1020300090916F09019690936F0980936E0978943F
:102040009F918F912F910F900FBE0F901F90189519
:1020500089EE94E00E94B22880E88093610082E0DB
:102060008093B00084E08093B10080EE8093B30051
:102070001092B200E0E7F0E08081826080830895F2
:10208000E7DF80EC80936A0080E88DBB8DEF94E001
:102090000C94B228089560E080E0CDD31F928F9316
:1020A00089E195E09F938F930E9473280F900F9082
:1020B0000F900F900895CF93DF93D82FC62F8830BD
:1020C00010F4623040F08BE295E09F938F930E9472
:1020D00073280F900F90CC2331F061E001C0660FA0
:1020E000DA95EAF701C060E08BE096D3DF91CF91FB
:1020F000089560E485E090D360E487E08DD360E4E8
:1021000089E08AD360E086E0D6CF0895CF93C82FC8
:10211000883040F08DE292E09F938F930E94862852
:102120000F900F906C2F83E077D3CF910895CF93CA
:10213000C82F60E084E07FD3C11103C0682F6F7E99
:102140000EC0C13019F4682F606109C08DE092E0C3
:102150009F938F930E9486280F900F9002C084E077
:102160005BD3CF91089560E080E156C308951F933B
:10217000CF93DF93182F682F81E175D3D82FC92F04
:10218000282F392FA0E5B3EC0E94DD260E944922BA
:1021900020E030E040E859E30E94AD220E941B227B
:1021A0007F936F93CF93DF931F921F9382E495E009
:1021B0009F938F930E9473288DB79EB708960FB692
:1021C000F8949EBF0FBE8DBF8D2F9C2FDF91CF91B6
:1021D0001F910895CF93DF93C82F20E013C0CF5FE6
:1021E000CF702091EE093091EF0981E090E00C2E44
:1021F00002C0880F991F0A94E2F7822393232D2FA0
:10220000892B21F4D1E0D20F213148F3D13141F4AF
:1022100088E492E09F938F930E9486280F900F90FE
:10222000D13111F08C2F01C08FEFDF91CF91089544
:10223000CF93C0E01DC02091EE093091EF0981E0FD
:1022400090E00C2E02C0880F991F0A94E2F78223B7
:102250009323892B61F01F92CF9384E492E09F93A4
:102260008F930E9486280F900F900F900F90CF5F52
:10227000C03108F382E492E09F938F930E948628F6
:10228000EEEEF9E081818F9380818F9383E695E074
:102290009F938F930E9473280F900F900F900F9031
:1022A0000F900F90CF91089595DFECE7F0E09081CB
:1022B000907E90839081282F2770922B908383FFAC
:1022C00006C0EBE7F0E09081986090830895EBE71B
:1022D000F0E09081977F908308951F920F920FB640
:1022E0000F9211240BB60F922F933F934F935F934E
:1022F0006F937F938F939F93AF93BF93EF93FF93CE
:102300002091780040917609642F042E000C770B01
:10231000FB01EE0FFF1FE758F64F80819181DC0132
:10232000A20FB11D9D01B183A083A9E7B0E09C91EC
:10233000892F90E0982F8827820F931F91838083A5
:102340003C912C919F938F931F923F931F922F93B9
:102350007F934F9388E795E09F938F930E94732814
:1023600080917609A1DF80937609909177092DB746
:102370003EB7265F3F4F0FB6F8943EBF0FBE2DBF4E
:10238000891312C0809174099091750901969093F8
:10239000750980937409019739F481E08093780975
:1023A000109275091092740980917809811105C005
:1023B000EAE7F0E0808180648083FF91EF91BF9134
:1023C000AF919F918F917F916F915F914F913F91CD
:1023D0002F910F900BBE0F900FBE0F901F9018956E
:1023E000CF93C09177098AE090E00E94AD288C2FAE
:1023F0000C2E000C990BFC01EE0FFF1FE758F64F57
:1024000081818F9380818F939F93CF938CE895E008
:102410009F938F930E9473288C2FDCDEC82F8091AE
:1024200077090F900F900F900F900F900F90C81397
:10243000DACFCF9108951092780980917709E82F2B
:10244000EE0FFF0BE758F64F11821082C3DE90911A
:1024500077098913F4CFEAE7F0E080818064808314
:1024600008958FE021DF80937609809377098F3F6D
:1024700071F0EAE7F0E08081806480838FE88083F8
:102480008FEF80937E0080937F00D5CF089587E9FA
:1024900095E09F938F930E9486280F900F90089548
:1024A0008091AA091F928F938EEA95E09F938F9354
:1024B0000E9473280F900F900F900F900895CF9265
:1024C000DF92FF920F931F93CF93DF93CDB7DEB7C9
:1024D0002A970FB6F894DEBF0FBECDBF19821A82BD
:1024E0001B821C82F92EC92ED12C1F929F9305ECC2
:1024F00015E01F930F930E9473288F2D0E94351DA6
:102500001F92FF921F930F930E94732844E050E0A4
:10251000BE016F5F7F4F88E20E94AA1E8981982FBB
:1025200092959695969593700FB6F894DEBF0FBE70
:10253000CDBFC9F1913089F431E0C31AD108DF92DF
:10254000CF9286EA92E09F938F930E9486280F9005
:102550000F900F900F9081E04EC0923089F481E08F
:10256000C81AD108DF92CF928AE892E09F938F93A6
:102570000E9486280F900F900F900F9081E03BC033
:102580009330C1F521E0C21AD108DF92CF9287E6DD
:1025900092E09F938F930E9486280F900F900F9048
:1025A0000F9081E028C08F7390E0982F88272A81B0
:1025B000820F911D2B8130E0220F331F220F331F1A
:1025C000220F331F4C81429546954770240F311DD1
:1025D0003F932F939F938F9387ED95E09F938F93D6
:1025E0000E9473280F900F900F900F900F900F90F4
:1025F00080E001C081E02A960FB6F894DEBF0FBEDE
:10260000CDBFDF91CF911F910F91FF90DF90CF90C1
:102610000895CF93E5EAF9E0C1E0C48382E08583C1
:102620003FDFEFE9F9E0C5831482E9E9F9E083E0EF
:102630008583C4834091A5095091A6096091A7099B
:102640007091A8098091A9099091AA0938DF83E0C7
:1026500098E4FC013197F1F7FC013197F1F7FC01A7
:102660003197F1F7FC013197F1F7FC013197F1F760
:10267000FC013197F1F70197F1F740919F095091D3
:10268000A0096091A1097091A2098091A30990917C
:10269000A40915DFCF9108954091A5095091A6098D
:1026A0006091A7097091A8098091A9099091AA0940
:1026B00006CF089540919F095091A0096091A1090A
:1026C0007091A2098091A3099091A409F8CE089570
:1026D0004091990950919A0960919B0970919C09C8
:1026E00080919D0990919E09EACE089540E060E0B6
:1026F00070E087E20E94331E892B41F481E08093D1
:10270000AB098EED95E00C94B228089586EF95E024
:102710000C94B2280895CF92DF92EF92FF92CF935C
:10272000DF9300D01F92CDB7DEB719821A821B82C9
:102730001C828091AB09882309F463C01092AB0915
:1027400044E050E0BE016F5F7F4F87E20E94AA1E07
:10275000892B29F086EF95E00E94B22852C0A9810A
:102760008A2F829586958695837029F088E096E079
:102770000E94B22846C0AF73B0E0BA2FAA278A8160
:10278000A82B28EE33E00E94EC260F2EFEEFCF2E72
:10279000FFE3DF2EE12CF12CF02DA70196010E9422
:1027A000C1265F934F933F932F9388E196E09F93C9
:1027B0008F930E947328AB8180E4A89FD0011124DD
:1027C0008C8186958695A82B24E730E40E94EC2620
:1027D000A70196010E94C126DA01C901805A9F40D3
:1027E000A109B109BF93AF939F938F9388E396E0BC
:1027F0009F938F930E9473280FB6F894DEBF0FBE8D
:10280000CDBF0F900F900F900F90DF91CF91FF9061
:10281000EF90DF90CF900895CF93DF93D82FC62FFE
:1028200090D088E009D78D2F07D78C2F05D78FD070
:10283000DF91CF910895CF93DF93D82FC62F81D00A
:1028400080E1FAD68D2FF8D68C2FF6D680D079D0AD
:1028500080E1F2D6C82F80E0EFD680E0EDD68C2F55
:10286000DF91CF9108950F931F93CF93DF93082F9C
:10287000162F67D088E0E0D690E0C92FD82F802FA0
:10288000DBD6C80FD11D812FD7D6182F60D01F924D
:102890001F93DF93CF9389E596E09F938F930E94D8
:1028A00073280F900F900F900F900F900F90CE0104
:1028B000DF91CF911F910F91089561E070E086E064
:1028C00090E0F9CB089560E070E086E090E0F3CB13
:1028D000089584B3816084BB089584B38E7F84BBE4
:1028E000089584B3826084BB089584B38D7F84BBD4
:1028F0000895EBE0F1E08081806880830895EBE04B
:10290000F1E080818F77808308958EB18B7F8EB9BF
:1029100008958EB184608EB9089585B18E7F85B992
:10292000089585B1816085B90895E2E0F1E0808184
:102930008E7F80830895E2E0F1E080818160808372
:102940000895E2E0F1E080818D7F80830895E2E0E8
:10295000F1E08081826080830895E2E0F1E080818F
:102960008B7F80830895E2E0F1E080818460808342
:102970000895E2E0F1E08081877F80830895E2E0BE
:10298000F1E08081886080830895E2E0F1E0808159
:10299000806180830895E2E0F1E080818F7E808312
:1029A0000895E2E0F1E08081806280830895E2E0B2
:1029B000F1E080818F7D80830895CF93DF9300D0F5
:1029C000CDB7DEB71B821A821982C4D11A8219824E
:1029D00019C08A818F9389818F938FE092E0892F2C
:1029E0008F938FE092E08F930E9473280F900F9047
:1029F0000F900F9089819A8152D089819A81019696
:102A00009A83898389819A818115984010F38B81FB
:102A10000F900F900F90DF91CF910895CF93DF9398
:102A200000D01F921F92CDB7DEB79C838B836D833E
:102A30001A8219821FC089819A812B813C81820F61
:102A4000931FFC018081882F90E0292F2F938F9373
:102A50008DE192E0892F8F938DE192E08F930E9418
:102A600073280F900F900F900F9089819A81019693
:102A70009A8389838D81282F30E089819A818217FA
:102A80009307CCF28AE090E00E94AD2800000F90FE
:102A90000F900F900F900F90DF91CF9108950F93AB
:102AA000CF93DF93CDB7DEB769970FB6F894DEBF4B
:102AB0000FBECDBF998F888F1982888D998DCC01DB
:102AC000A0E0B0E0880F991FAA1FBB1F880F991FB5
:102AD000AA1FBB1F880F991FAA1FBB1F880F991F12
:102AE000AA1FBB1F880F991FAA1FBB1F880F991F02
:102AF000AA1FBB1F8A839B83AC83BD8380E098E0C1
:102B00009F838E839E01285F3F4F4E815F818A8124
:102B10009B81AC81BD8100E1BC01CD01F8D2803147
:102B2000B9F488858823C1F481E08983898D8F93E6
:102B3000888D8F9383E292E0892F8F9383E292E0D6
:102B40008F930E9473280F900F900F900F9004C0E6
:102B500080E592E00E94B228CE01089660E15EDF37
:102B6000898169960FB6F894DEBF0FBECDBFDF91A5
:102B7000CF910F910895CF93DF931F921F92CDB7FE
:102B8000DEB7F7DE8FE958D580E056D580E054D522
:102B9000898380E051D58A83F2DE8A81282F30E054
:102BA0008981882F90E0432F4F932F93292F2F93C4
:102BB0008F938AE792E0892F8F938AE792E08F9331
:102BC0000E9473280F900F900F900F900F900F900E
:102BD00000000F900F90DF91CF910895CF93DF9376
:102BE0001F92CDB7DEB78AE08983898181508983BE
:102BF0000ED0882319F089818823B9F781E0998163
:102C0000992309F480E00F90DF91CF910895CF933D
:102C1000DF931F92CDB7DEB70FD089838981882FCC
:102C200090E08170992721E0892B09F420E0822F20
:102C30000F90DF91CF910895CF93DF93CDB7DEB79B
:102C400080EC5BD0DF91CF910895CF93DF93CDB728
:102C5000DEB780EA52D0882F90E0292F2F938F93F0
:102C60008BE892E0892F8F938BE892E08F930E94FC
:102C700073280F900F900F900F9080EB3ED0882F0D
:102C800090E0292F2F938F9387EA92E0892F8F93DB
:102C900087EA92E08F930E9473280F900F900F9015
:102CA0000F9080EC2AD0882F90E0292F2F938F93BC
:102CB00083EC92E0892F8F9383EC92E08F930E94B4
:102CC00073280F900F900F900F9080ED16D0882FE3
:102CD00090E0292F2F938F938FED92E0892F8F9380
:102CE0008FED92E08F930E9473280F900F900F90BA
:102CF0000F900000DF91CF910895CF93DF931F9243
:102D00001F92CDB7DEB78A8334DE8FE095D48A81F7
:102D100093D480E091D4898332DE89810F900F9023
:102D2000DF91CF910895CF93DF931F921F92CDB77C
:102D3000DEB789836A831DDE8FE17ED489817CD4EE
:102D40008A817AD41CDE8981D8DF0F900F90DF91C1
:102D5000CF910895CF93DF931F92CDB7DEB760E098
:102D600080EAE1DF80EAC9DF89838981882F90E0EA
:102D7000292F2F938F938BEF92E0892F8F938BEFD7
:102D800092E08F930E9473280F900F900F900F90F6
:102D900000000F90DF91CF910895CF93DF931F92A2
:102DA000CDB7DEB7E6DD86E047D4E9DD45DF8983D0
:102DB0008981882F90E0292F2F938F938BE293E0C6
:102DC000892F8F938BE293E08F930E9473280F904B
:102DD0000F900F900F908981882F90E08270992733
:102DE00021E0892B09F420E0822F0F90DF91CF9111
:102DF0000895CF93DF931F92CDB7DEB7BADD84E09D
:102E00001BD4BDDD19DF89838981882F90E0292FAC
:102E10002F938F9389E493E0892F8F9389E493E034
:102E20008F930E9473280F900F900F900F908981BD
:102E3000882F90E08270992721E0892B09F020E00B
:102E4000822F0F90DF91CF9108950F93CF93DF934F
:102E5000CDB7DEB762970FB6F894DEBF0FBECDBF19
:102E60006A877B878C879D875F874E87398B288B06
:102E70000A8B1A8219828A859B85AC85BD858C83D5
:102E80009D83AE83BF838A89282F30E08E859F85FE
:102E9000820F931F8130984008F08AC09FDE8823FC
:102EA00009F47CC066DD83E1C7D38E81C5D38D81F3
:102EB000C3D38C81C1D363DD91DE882309F464C060
:102EC0006CDF882309F456C08E859F859987888793
:102ED00050DD84E8B1D38985AFD38885ADD31B821B
:102EE0000DC08B81882F90E028893989820F931F2C
:102EF000FC018081A1D38B818F5F8B839B818A8929
:102F0000981778F33CDD6ADE882351F132DD80E1E9
:102F100093D38E8191D38D818FD38C818DD32FDDEF
:102F20005DDE882399F065DF882331F08A89882F58
:102F300090E09A83898345C086EC92E0292F2F93F5
:102F40008F930E9486280F900F903BC087EF92E0EE
:102F5000292F2F938F930E9486280F900F9031C0B6
:102F600080E393E0292F2F938F930E9486280F9060
:102F70000F9027C089E693E0292F2F938F930E940B
:102F800086280F900F901DC089E993E0292F2F9379
:102F90008F930E9486280F900F9013C082ED93E0CC
:102FA000292F2F938F930E9486280F900F9009C08E
:102FB0008BEF93E0292F2F938F930E9486280F90F9
:102FC0000F90898162960FB6F894DEBF0FBECDBF19
:102FD000DF91CF910F9108950F93CF93DF93CDB7EA
:102FE000DEB760970FB6F894DEBF0FBECDBF6A871D
:102FF0007B878C879D875F874E87288B19828A8580
:103000009B85AC85BD85072E7BE0B695A7959795EA
:1030100087957A95D1F7702D8C839D83AE83BF837E
:103020008A859B859770998788871B828889282F36
:1030300030E088859985820F931F8130984038F061
:1030400098858889890F8A8381E08B8302C088896B
:103050008A832E853F85488559858C819D81AE81E7
:10306000BF810A81BC01CD01F0DE982F8A819817BB
:10307000D1F58B818823A1F198898A81492F481B3A
:103080008A81882F90E02E853F85280F391F8C81FB
:103090009D81AE81BF810196A11DB11D042F40E02D
:1030A00050E0BC01CD01D1DE282F30E08889482FC7
:1030B00050E08A81882F90E0BA01681B790BCB0120
:1030C0002817390719F48889898316C08FE294E09C
:1030D000292F2F938F930E9486280F900F900CC05A
:1030E0008889898309C086E594E0292F2F938F93DF
:1030F0000E9486280F900F90898160960FB6F894F1
:10310000DEBF0FBECDBFDF91CF910F9108950F931A
:103110001F93CF93DF93CDB7DEB764970FB6F894C4
:10312000DEBF0FBECDBF6C877D878E879F87598B93
:10313000488B3B8B2A8B0C8B1A8219828C859D8540
:10314000AE85BF858E839F83A887B9878C89282FFA
:1031500030E088899989820F931F8138984008F060
:1031600055C03CDD882309F447C003DC83E164D209
:10317000888562D28F8160D28E815ED200DC2EDDA6
:10318000882381F1888999899B878A8788898C839C
:1031900088899989892F99278D83EBDB83E04CD22D
:1031A0008D814AD28C8148D280E046D21B820FC0EA
:1031B0008B81882F90E02A893B898901080F191F8C
:1031C00080E03AD2F80180838B818F5F8B839B8173
:1031D0008C89981768F3D3DB8C89882F90E09A83C9
:1031E00089831DC08DE794E0292F2F938F930E9430
:1031F00086280F900F9013C087EB94E0292F2F9310
:103200008F930E9486280F900F9009C081EE94E062
:10321000292F2F938F930E9486280F900F908981DA
:1032200064960FB6F894DEBF0FBECDBFDF91CF918D
:103230001F910F9108950F93CF93DF93CDB7DEB712
:1032400060970FB6F894DEBF0FBECDBF6A877B874D
:103250008C879D875F874E87288B19828A859B85FF
:10326000AC85BD85072E7BE0B695A795979587958C
:103270007A95D1F7702D8C839D83AE83BF838A8529
:103280009B859770998788871B828889282F30E0D3
:1032900088859985820F931F8130984038F09885F2
:1032A0008889890F8A8381E08B8302C088898A8319
:1032B0002E853F85488559858C819D81AE81BF8152
:1032C0000A81BC01CD0123DF982F8A819817D1F59F
:1032D0008B818823A1F198898A81492F481B8A8193
:1032E000882F90E02E853F85280F391F8C819D8186
:1032F000AE81BF810196A11DB11D042F40E050E0B9
:10330000BC01CD0104DF282F30E08889482F50E030
:103310008A81882F90E0BA01681B790BCB012817AE
:10332000390719F48889898316C086E195E0292F29
:103330002F938F930E9486280F900F900CC088893E
:10334000898309C08BE395E0292F2F938F930E94E7
:1033500086280F900F90898160960FB6F894DEBF93
:103360000FBECDBFDF91CF910F910895CF93DF9323
:10337000CDB7DEB72A970FB6F894DEBF0FBECDBF2C
:103380006F83788789879A871A8219828F819885B7
:10339000A985BA858B839C83AD83BE838F819885F5
:1033A000A985BA8581159840A105B10508F044C0EA
:1033B00015DC882309F436C0F0DC882349F1D9DA1A
:1033C00088ED3AD18D8138D18C8136D18B8134D141
:1033D000D6DA04DC882391F00CDD882329F081E023
:1033E00090E09A83898331C080E695E0292F2F935E
:1033F0008F930E9486280F900F9027C08BE895E04E
:10340000292F2F938F930E9486280F900F901DC015
:1034100085EC95E0292F2F938F930E9486280F909B
:103420000F9013C084EF95E0292F2F938F930E9464
:1034300086280F900F9009C08CE196E0292F2F93DA
:103440008F930E9486280F900F9089812A960FB63D
:10345000F894DEBF0FBECDBFDF91CF910895CF931B
:10346000DF93CDB7DEB729970FB6F894DEBF0FBE56
:10347000CDBF81E089831B821A8280E098E09D8322
:103480008C834BD067DC1B821A8236C08A819B8179
:10349000CC01A0E0B0E08E839F83A887B98783E545
:1034A00096E02B812F932A812F93292F2F938F938F
:1034B0000E9486280F900F900F900F908E819F8111
:1034C000A885B985BC01CD0151DF882381F485E64B
:1034D00096E02B812F932A812F93292F2F938F935F
:1034E0000E9486280F900F900F900F9019828A816A
:1034F0009B8101969B838A832A813B818C819D815C
:103500002817390718F2898129960FB6F894DEBF7B
:103510000FBECDBFDF91CF910895CF93DF931F9260
:10352000CDB7DEB726DA8FEF87D029DA85DB89833E
:103530008981882F90E0292F2F938F9388E693E03D
:10354000892F8F9388E693E08F930E9473280F90C2
:103550000F900F900F9089810F90DF91CF91089578
:103560001F93CF93DF931F921F92CDB7DEB785E0F5
:1035700089838EE696E00E94B22810E029C041E0DF
:10358000BE016E5F7F4F8FE041D28A81853011F19D
:1035900041E0BE016F5F7F4F8FE020D28A811F9292
:1035A0008F931F921F938FE796E09F938F930E94B4
:1035B000732889811F928F9380E996E09F938F9360
:1035C0000E9473281F5F0FB6F894DEBF0FBECDBFF9
:1035D0001431A8F2143120F08FE996E00E94B2284D
:1035E0000F900F90DF91CF911F910895CF93DF93AC
:1035F0001F92CDB7DEB741E0BE016F5F7F4F8FE016
:1036000005D289811F928F9386EC96E09F938F93CA
:103610000E9473280F900F900F900F900F90DF91E2
:10362000CF9108951DBC81E58CBDA9D97AD983D9E4
:10363000ACD999D98CC908958EBD0DB407FEFDCFC4
:103640008EB50895FC0120E030E00AC0CF0101965C
:1036500040814EBD0DB407FEFDCF2F5F3F4FFC01F3
:103660002617370798F30895FC0120E030E009C0E1
:103670001EBC0DB407FEFDCF8EB580832F5F3F4F7C
:10368000319626173707A0F30895CF93DF931F9243
:103690001F92CDB7DEB79A8389838A818EBD0DB420
:1036A00007FEFDCF89818EBD0DB407FEFDCF0F90C3
:1036B0000F90DF91CF910895EF92FF921F93CF93D8
:1036C000DF93EB01182F177090E1199F90011124DF
:1036D000E72EFF24AB0155275F934F932E293F29F7
:1036E0003F932F93DF936F931F928F938EED96E00E
:1036F0009F938F930E94732830D9812F8295807F6A
:103700008E299ADF8C2F98DF2ED98DB79EB70A9617
:103710000FB6F8949EBF0FBE8DBFDF91CF911F9162
:10372000FF90EF900895EF92FF921F93CF93DF9356
:10373000EB01182F177090E1199F90011124E72ECB
:10374000FF24AB0155275F934F932E293F293F93C9
:103750002F93DF936F931F928F938FE097E09F9348
:103760008F930E947328E1D8812F8295807F8E29C4
:1037700063DF8C2F61DFDFD88DB79EB70A960FB657
:10378000F8949EBF0FBE8DBFDF91CF911F91FF9028
:10379000EF900895CF93DF93C82FD92F80E497E05F
:1037A0000E94B228C2D88D2F806C46DF8C2F44DF58
:1037B000C2D8DF91CF910895CF93DF93C82FD92F2F
:1037C00087E597E00E94B228C8D88D2F806C34DF3F
:1037D0008C2F32DFC8D8DF91CF9108959ED886E034
:1037E0002BDF9FC80895CF9398D885E025DF80E030
:1037F00023DFC82F96D81F92CF9380ED98E09F9338
:103800008F930E9473280F900F900F900F908C2F22
:10381000CF910895EF92FF920F931F93CF93DF9371
:103820008C017B01EA01840F951F8130904220F0CA
:103830008DE697E00E94B228D1DF6FD882E0FCDEEF
:10384000C80123DFBE01C701FDDE6BD8DF91CF9138
:103850001F910F91FF90EF900895CF92DF92EF921A
:10386000FF920F931F93CF93DF93C82FD92F8B0114
:103870006A0153D883E0E0DE8D2FDEDE8C2FDCDEA4
:10388000C0E0D0E00AC078018FEFE81AF80A80E0C3
:10389000D3DEF801808321968701CC15DD0598F3EE
:1038A00040D8DF91CF911F910F91FF90EF90DF9063
:1038B000CF900895CF93DF9300D01F92CDB7DEB79E
:1038C0002CD88FEAB9DE64E070E0CE010196CCDE40
:1038D00028D83C812B819A8189811F923F931F9226
:1038E0002F931F929F931F928F9380E997E09F934E
:1038F0008F930E9473280FB6F894DEBF0FBECDBF22
:103900000F900F900F900F90DF91CF910895CF936C
:10391000DF93CDB7DEB728970FB6F894DEBF0FBEA2
:10392000CDBF5CDF8FE18D8381E48E8381E88F835F
:103930008AEF888744E050E0BE016B5F7F4F80E0F4
:1039400094E068DF44E050E0BE016F5F7F4F80E0AD
:1039500094E083DF3C812B819A8189811F923F9380
:103960001F922F931F929F931F928F9383EA97E04A
:103970009F938F930E9473280FB6F894DEBF0FBEFB
:10398000CDBF28960FB6F894DEBF0FBECDBFDF9136
:10399000CF9108959093AD098093AC0942E050E037
:1039A0006CEA79E080E090E035CF089542E050E0A5
:1039B0006CEA79E080E090E050DF8091AD098F9370
:1039C0008091AC098F9380EB97E09F938F930E9437
:1039D00073280F900F900F900F9008950F931F93DF
:1039E000CF93DF93D82F8B01C42F0E94CB148D2F40
:1039F000806222DE6C2F70E0C80124DE0E94C514B4
:103A00008C2FDF91CF911F910F9108950F931F93EA
:103A1000CF93DF93D82F8B01C42F0E94CB148D2F0F
:103A2000806A0ADE6C2F70E0C8011EDE0E94C51499
:103A30008C2FDF91CF911F910F910895CF93DF933A
:103A40001F92CDB7DEB741E050E0BE016F5F7F4F00
:103A500080E780D1892B21F087EB97E00E94B22884
:103A600089810F90DF91CF910895CF93DF931F92BB
:103A7000CDB7DEB78983843008F04FC01F928F9393
:103A800081ED97E09F938F930E94732841E0BE01E0
:103A90006F5F7F4F80E7E7D00F900F900F900F90F0
:103AA000892B09F18981E82FF0E0E65AF74F9081E0
:103AB000973058F061D083EE97E09F938F930E94E8
:103AC00073280F900F9081E039C01F928F9388EE7A
:103AD00097E09F938F930E9473280F900F900F9001
:103AE0000F9081E02BC0AADF9981891721F18AE02C
:103AF00098E00E94B228E981F0E0E65AF74F808111
:103B00008730D8F039D082E398E09F938F930E945A
:103B100073280F900F9081E011C01F928F9387E35D
:103B200098E09F938F930E9473280F900F900F90AF
:103B30000F9081E003C080E001C081E00F90DF9131
:103B4000CF9108959F938F938EE598E09F938F93E5
:103B50000E9473280F900F900F900F9008951F925E
:103B60008F9382E798E09F938F930E9473280F9022
:103B70000F900F900F90089584E98093BC00EBE0C4
:103B8000F1E080818F7B808380E005C0E3E0F8E492
:103B90003197F1F78F5F8431C8F3EBE0F1E080817A
:103BA0008064808380E005C0E3E0F8E43197F1F7BA
:103BB0008F5F8431C8F3EBE0F1E080818F7B8083FD
:103BC00080E005C0E3E0F8E43197F1F78F5F8431DE
:103BD000C8F3EBE0F1E0808180648083E9EBF0E002
:103BE00080818C7F80838081808380E18093B80096
:103BF000ECEBF0E080818460808381E08093AE090B
:103C0000089584EA8093BC0010926F0910926E09A7
:103C10008091BC00882334F080916E0990916F09E7
:103C20004E97B0F380916E0990916F094E9730F0E6
:103C300085E898E00E94B22881E008958091B9005B
:103C4000887F883071F01F928F938CE998E09F9362
:103C50008F930E9473280F900F900F900F9081E028
:103C6000089580E008950F931F93CF93DF93082F5B
:103C7000EB01142FC6DF811166C0000F0093BB005B
:103C800084E88093BC0010926F0910926E098091B5
:103C9000BC00882334F080916E0990916F094E9793
:103CA000B0F380916E0990916F098091B900887F7F
:103CB000883109F43FC084E98093BC0080E24FDF83
:103CC00081E090E042C0AE014F5F5F4F88818093FA
:103CD000BB0084E88093BC0010926F0910926E09BB
:103CE0008091BC00882334F080916E0990916F0917
:103CF0004E97B0F380916E0990916F098091B90051
:103D0000887F8832A1F01F928F938CEB98E09F936D
:103D10008F930E94732884E98093BC0080E31FDFA7
:103D20000F900F900F900F9081E090E00EC02F5FEA
:103D3000EA0101C020E0211730F284E98093BC0041
:103D400080E090E002C081E090E0DF91CF911F9190
:103D50000F910895FF920F931F93CF93DF93F82E47
:103D60008B01EA014EDF811179C08F2D90E0880F21
:103D7000991F81608093BB0084E88093BC001092FF
:103D80006F0910926E098091BC00882334F08091F5
:103D90006E0990916F094E97B0F380916E099091E2
:103DA0006F098091B900887F803409F44DC088E4A0
:103DB000D6DE84E98093BC0088ED98E0C3DE81E024
:103DC00090E04EC010926F0910926E09C130D1057B
:103DD00011F484E801C084EC8093BC0010926F0958
:103DE00010926E098091BC00882334F080916E0996
:103DF00090916F094E97B0F380916E0990916F0981
:103E00004E97D8F08091B9001F928F93DF93CF9394
:103E100081EE98E09F938F930E94732884E98093AA
:103E2000BC0088ED98E08EDE0F900F900F900F9001
:103E30000F900F9081E090E013C08091BB00F801DB
:103E4000808321970F5F1F4F1C161D060CF4BACFFD
:103E500084E98093BC0080E090E002C081E090E0C3
:103E6000DF91CF911F910F91FF9008958FEF81B94E
:103E700097EF94B987B99BEB9AB99EE39DB910BAB5
:103E800083BB9FE79093010192E790930401109206
:103E9000070180930A0188B9809302010C94D7141A
:103EA0000895CF93DF93E0EAFAE081E092E0918316
:103EB00080839383828380E0C6D0D8DFB3DB0E9407
:103EC00040108FE09FE89093EF098093EE09C0E0E7
:103ED000D0E005C08EE290E00E94AD282196C0356A
:103EE000D105C0F38AE090E00E94AD2839DB0E9442
:103EF000791042DE0E9409130E9431120E940913B8
:103F0000789487E199E00E94B228DF91CF910895DB
:103F1000C8DF88E299E00E94B22827D28091B609D2
:103F2000882321F00E94EF0D1092B609809170094C
:103F3000882341F0EBE0F1E0908181E089278083E4
:103F40001092700980917109882339F3EBE0F1E058
:103F5000908181E0892780838091B009882319F0BE
:103F600081508093B00910927109D7CF89E40895E8
:103F70009B014EE3849FC0011124BC016756794F19
:103F8000C9010C9409280895E7EFF9E060831182D4
:103F900093838283958384839783868308959FB7D1
:103FA000F8948091F809811104C0992304F578945C
:103FB0000895E7EFF9E0A481B5819D012F5F3F4FA0
:103FC000358324838C912181215021834481558123
:103FD000268137816081260F311D4217530720F05B
:103FE000268137813583248399230CF478940895AE
:103FF0009FB7F894E7EFF9E031812081321720F084
:10400000992304F578940895E7EFF9E0A281B3814C
:104010009D012F5F3F4F338322838C9381818F5F7C
:10402000818342815381268137818081280F311D10
:104030004217530720F02681378133832283992347
:104040000CF4789408958230B9F18430B8F58093F7
:10405000AF099091B709913019F0923039F003C04F
:104060009FE520E005C097E020E002C091E020E05D
:10407000813019F0833071F016C02093CD009093F9
:10408000CC0088E98093C90060E88FEF99E07CDF7D
:1040900080E00895209335019093340188E980935E
:1040A000310180E008952093C5009093C40088E911
:1040B0008093C10080E0089581E0089581E0089533
:1040C000CF93C82F8A3031F46091A20A7091A30A6D
:1040D0008DE0F6DF8091C00085FFFCCFC093C60065
:1040E00080E090E0CF910895CF93C82F8A3011F4EB
:1040F0008DE0FADF8091C80085FFFCCFC093CE0031
:1041000080E090E0CF91089580E090E008951F92C4
:104110000F920FB60F9211240BB60F922F933F936D
:104120004F935F936F937F938F939F93AF93BF93BF
:10413000CF93DF93EF93FF938091C00084FD08C07D
:104140008091C00083FD04C08091B609882341F0AE
:104150008091C60090E09093B5098093B409A1C006
:104160008091B3098F3180F08091C60090E09093E8
:10417000B5098093B4091092B30910929F0A109266
:10418000B6091092B2098DC0E091B309F0E08091B8
:10419000C600E058F54F8083E091B309F0E0E058A5
:1041A000F54F80818A3041F0E091B309F0E0E058AA
:1041B000F54F80818D3089F481E08093B60980913C
:1041C000B2098F5F8093B209E091B309F0E0E05843
:1041D000F54F10821092B30964C0E091B309F0E08A
:1041E000E058F54F8081883041F0E091B309F0E06C
:1041F000E058F54F80818F3739F58091B3098823D6
:1042000009F44FC0C0EADAE06A817B8188E058DFB8
:104210006A817B8180E254DF6A817B8188E050DFA4
:104220008091B30981508093B3098091B209815084
:104230008093B2098091B109882399F18091B109E5
:1042400081508093B1092DC0E091B309F0E0E058AE
:10425000F54F80818C3298F0E091B309F0E0E0589E
:10426000F54F80818B3758F48091B3098F5F80932D
:10427000B3098091B2098F5F8093B20912C0E091B7
:10428000B309F0E0E058F54F80818B3151F4609133
:10429000A20A7091A30A8DE013DF1092B309109265
:1042A000B209FF91EF91DF91CF91BF91AF919F91B3
:1042B0008F917F916F915F914F913F912F910F90CF
:1042C0000BBE0F900FBE0F901F9018951F920F926C
:1042D0000FB60F9211240BB60F922F933F934F936B
:1042E0005F936F937F938F939F93AF93BF93EF935E
:1042F000FF938091C80084FD04C08091C80083FFB3
:1043000008C08091CE0090E09093B5098093B409E5
:1043100019C08091CE008A3041F480E069DE80913E
:104320007F0A8F5F80937F0A0DC08D3059F08830EF
:1043300011F08F3711F433DE05C090EE980F9F35E2
:1043400008F456DEFF91EF91BF91AF919F918F914D
:104350007F916F915F914F913F912F910F900BBE85
:104360000F900FBE0F901F9018958091B20988236F
:1043700069F19091B1098091B2099817C0F48091C8
:10438000B60981110BC06091A20A7091A30AE09155
:10439000B109F0E0E058F54F808192DE8091B109DB
:1043A0008F5F8093B1098AE08093B00913C0809138
:1043B000B00981110FC08FB78F778FBF1092B109ED
:1043C0001092B2091092B309789404C01092B10906
:1043D0001092B0098091B6098823A9F080E89AE08C
:1043E0009F938F9384E399E09F938F937CD6109251
:1043F000B3091092B0091092B2091092B1090F904E
:104400000F900F900F9080917F0A882399F08FEF83
:1044100099E09F938F938EE399E09F938F9363D658
:104420008EE762DE8AE260DE8EE75EDE0F900F903E
:104430000F900F90089570D088F09F5790F0B92F8B
:104440009927B751A0F0D1F0660F771F881F991FE9
:104450001AF0BA95C9F712C0B13081F077D0B1E047
:10446000089574C0672F782F8827B85F39F0B93F57
:10447000CCF3869577956795B395D9F73EF49095EB
:104480008095709561957F4F8F4F9F4F0895E89469
:1044900009C097FB3EF490958095709561957F4F8C
:1044A0008F4F9F4F9923A9F0F92F96E9BB2793953A
:1044B000F695879577956795B795F111F8CFFAF44A
:1044C000BB0F11F460FF1BC06F5F7F4F8F4F9F4F7B
:1044D00016C0882311F096E911C0772321F09EE8D9
:1044E000872F762F05C0662371F096E8862F70E03F
:1044F00060E02AF09A95660F771F881FDAF7880F19
:104500009695879597F9089557FD9058440F551F34
:1045100059F05F3F71F04795880F97FB991F61F045
:104520009F3F79F087950895121613061406551FBC
:10453000F2CF4695F1DF08C0161617061806991F28
:10454000F1CF86957105610508940895E894BB271D
:1045500066277727CB0197F908950BD078C069D0EB
:1045600028F06ED018F0952309F05AC05FC01124CE
:10457000EECFCADFA0F3959FD1F3950F50E0551F02
:10458000629FF001729FBB27F00DB11D639FAA27A8
:10459000F00DB11DAA1F649F6627B00DA11D661FF7
:1045A000829F2227B00DA11D621F739FB00DA11D18
:1045B000621F839FA00D611D221F749F3327A00DD2
:1045C000611D231F849F600D211D822F762F6A2F6E
:1045D00011249F5750408AF0E1F088234AF0EE0FF3
:1045E000FF1FBB1F661F771F881F91505040A9F700
:1045F0009E3F510570F014C0AACF5F3FECF3983E88
:10460000DCF3869577956795B795F795E7959F5F66
:10461000C1F7FE2B880F911D9695879597F9089500
:1046200097F99F6780E870E060E008959FEF80EC65
:10463000089500240A941616170618060906089508
:1046400000240A9412161306140605060895092E6E
:104650000394000C11F4882352F0BB0F40F4BF2BDD
:1046600011F460FF04C06F5F7F4F8F4F9F4F08951D
:104670002F923F924F925F926F927F928F929F9272
:10468000AF92BF92CF92DF92EF92FF920F931F9360
:10469000CF93DF93CDB7DEB760970FB6F894DEBF48
:1046A0000FBECDBF7C011B016A01FC01178216827F
:1046B000838181FF2AC39E012F5F3F4F3901F7019C
:1046C0009381F10193FD859193FF81911F018823CF
:1046D00009F417C3853239F493FD859193FF8191D5
:1046E0001F01853231F4B70190E0C1D45601650154
:1046F000E6CF10E0512C912CFFE1F915D8F08B3268
:1047000079F038F4803279F08332A1F4F92DF06138
:104710002EC08D3261F0803369F4292D21602DC0C7
:10472000392D3260932E892D8460982E2AC0E92D70
:10473000E86015C097FC2DC020ED280F2A3088F4C2
:1047400096FE06C03AE0139F200D1124122F19C0C7
:104750008AE0589E200D1124522EE92DE0629E2EF3
:1047600010C08E3231F496FCCCC2F92DF0649F2E2D
:1047700008C08C3621F4292D2068922E02C088367C
:1047800041F4F10193FD859193FF81911F01811106
:10479000B3CF9BEB980F933020F4992D9061805EFE
:1047A00007C09BE9980F933008F059C1992D9F7E5F
:1047B00096FF16E09F73992E853619F49064992E12
:1047C00008C0863621F4392F3068932E02C01111AB
:1047D000115097FE07C01C3350F444244394410EFB
:1047E00027E00BC0183038F027E017E005C027E0BD
:1047F0009CE3492E02C0212F412C560184E0A80ED3
:10480000B11CF6016081718182819381042DA30125
:1048100028D36C01F981FC87F0FF02C0F3FF06C0CA
:1048200091FC06C092FE06C000E205C00DE203C086
:104830000BE201C000E08C858C7019F0011143C2BD
:1048400080C297FE10C04C0CFC85F4FF04C08A8126
:10485000813309F44A94141474F528E0241578F58A
:1048600088E0482E2CC096FC2AC0812F90E08C1541
:104870009D059CF03CEFC3163FEFD30674F0892DE5
:104880008068982E0AC0E2E0F0E0EC0FFD1FE10F17
:10489000F11D8081803319F411501111F4CF97FE6E
:1048A0000EC044244394410E812F90E0C816D906CF
:1048B0002CF41C1904C04424439401C010E097FE5A
:1048C00006C01C141D0434F4C601019605C085E021
:1048D00090E002C081E090E001110196112331F0D7
:1048E000212F30E02F5F3F4F820F931F252D30E0A7
:1048F0008217930714F4581A01C0512C892D89701E
:1049000041F4552031F0B70180E290E0B0D35A94E1
:10491000F8CF002321F0B701802F90E0A8D393FCBB
:1049200008C0552031F0B70180E390E0A0D35A943D
:10493000F8CF97FE4AC04601D7FE02C0812C912CC9
:10494000C60188199909F301E80FF91FFE87ED8761
:10495000960124193109388B2F87012F10E011950A
:10496000019511093FEF8316930621F4B7018EE2FA
:1049700090E07DD3C814D9044CF08F8598898815B0
:10498000990524F4ED85FE85818101C080E3F1E085
:104990008F1A91082D853E852F5F3F4F3E872D87CB
:1049A0008016910624F0B70190E061D3DBCFC814E4
:1049B000D90441F49A81963320F4953319F43C8557
:1049C00034FF81E3B70190E048C08A81813319F058
:1049D0009C859F7E9C87B70190E049D3111105C04B
:1049E00094FC16C085E690E015C0B7018EE290E019
:1049F0003ED31E5F82E001E0080FF301E80FF11DD6
:104A00008081B70190E033D3802F0113F4CFE8CF3A
:104A100085E490E0B7012BD3D7FC06C0C114D104C4
:104A200041F4EC85E4FF05C0D194C194D1088DE236
:104A300001C08BE2B70190E01AD380E32AE0C216EE
:104A4000D1042CF08F5FFAE0CF1AD108F7CFB7016D
:104A500090E00DD3B701C601C09609D349C1833692
:104A600031F0833779F0833509F052C01FC0560109
:104A700032E0A30EB11CF6018081898301E010E0D1
:104A8000630111C05601F2E0AF0EB11CF601C08007
:104A9000D18096FE03C0612F70E002C06FEF7FEF00
:104AA000C601D2D28C01F92DFF7713C0560122E046
:104AB000A20EB11CF601C080D18096FE03C0612F0A
:104AC00070E002C06FEF7FEFC601AAD28C01F92D12
:104AD000F0689F2EF3FD18C0852D90E00817190788
:104AE00098F4B70180E290E0C2D25A94F5CFF60173
:104AF00097FC859197FE81916F01B70190E0B7D245
:104B000051105A94015011090115110581F7F0C097
:104B1000843611F0893659F5560197FE09C024E014
:104B2000A20EB11CF60160817181828193810AC05D
:104B3000F2E0AF0EB11CF60160817181072E000C0E
:104B4000880B990BF92DFF769F2E97FF09C0909542
:104B50008095709561957F4F8F4F9F4FF0689F2E86
:104B60002AE030E0A3012ED3C82EC6183EC0092D7E
:104B7000853721F40F7E2AE030E01DC0097F8F3693
:104B800091F018F4883559F0BCC0803719F0883797
:104B900011F0B7C0006104FF09C0046007C094FEB3
:104BA00008C0066006C028E030E005C020E130E023
:104BB00002C020E132E0560107FF09C084E0A80EE0
:104BC000B11CF601608171818281938108C0F2E09D
:104BD000AF0EB11CF6016081718180E090E0A3010D
:104BE000F1D2C82EC6180F77902E96FE0BC0092D55
:104BF0000E7FC11650F494FE0AC092FC08C0092D25
:104C00000E7E05C0DC2C092D03C0DC2C01C0D12E8A
:104C100004FF0DC0FE01EC0DF11D8081803311F405
:104C2000097E09C002FF06C0D394D39404C0802F2C
:104C3000867809F0D39403FD10C000FF06C01C2D38
:104C4000D51478F4150D1D190CC0D51450F4B70106
:104C500080E290E00CD2D394F8CFD51410F45D1814
:104C600001C0512C04FF0FC0B70180E390E0FFD1D9
:104C700002FF16C001FD03C088E790E002C088E58E
:104C800090E0B7010CC0802F867851F001FF02C080
:104C90008BE201C080E207FD8DE2B70190E0E7D131
:104CA000C11630F4B70180E390E0E1D11150F8CFA4
:104CB000CA94F301EC0DF11D8081B70190E0D7D1CA
:104CC000C110F6CF15C0F4E0F51550F584E0581A80
:104CD00093FE1EC0011125C02C8523FF27C004EEC2
:104CE00010E0392D3071932EF8018491811121C08B
:104CF000552009F4FCCCB70180E290E0B8D15A9479
:104D0000F7CFF7018681978123C08FEF9FEF20C0F7
:104D1000B70180E290E0ABD15A945110F9CFDACFCD
:104D2000512CB701802F90E0A2D1D6CF08EE10E031
:104D3000D8CF91108052B70190E099D10F5F1F4FEB
:104D4000D3CF23E0251510F483E0C1CF512CC4CF7D
:104D500060960FB6F894DEBF0FBECDBFDF91CF9146
:104D60001F910F91FF90EF90DF90CF90BF90AF9089
:104D70009F908F907F906F905F904F903F902F907B
:104D80000895052E97FB16F400940FD057FD05D01B
:104D900029D007FC02D046F408C0509540953095C4
:104DA00021953F4F4F4F5F4F089590958095709597
:104DB00061957F4F8F4F9F4F0895A29FB001B39F82
:104DC000C001A39F700D811D1124911DB29F700D14
:104DD000811D1124911D0895F0DFB7FF0895821BF6
:104DE000930B0895A1E21A2EAA1BBB1BFD010DC057
:104DF000AA1FBB1FEE1FFF1FA217B307E407F5078B
:104E000020F0A21BB30BE40BF50B661F771F881F66
:104E1000991F1A9469F760957095809590959B01FC
:104E2000AC01BD01CF010895FC0188279927E894C2
:104E300021912032E9F3293010F02E30C8F32B32C3
:104E400039F02D3231F4689403C009D1820F911DDD
:104E5000219120532A30C8F31EF4909581959F4FDD
:104E60000895283008F027E03327DA01990F311D23
:104E700087FD916000966105710539F432602E5FFF
:104E80003D9330E32A95E1F708959F3F30F0803855
:104E90007105610509F03C5F3C5F3D93913008F07E
:104EA0008068911DDF93CF931F930F93FF92EF9232
:104EB000192F987F9695E92F96959695E90FFF27DC
:104EC000EA5BFE4F99273327EE24FF24A701E70171
:104ED00005900894079428F4360FE71EF81E491F22
:104EE000511D660F771F881F991F0694A1F7059023
:104EF000079428F4E70EF81E491F561FC11D770FAF
:104F0000881F991F661F0694A1F70590079428F43F
:104F1000F80E491F561FC71FD11D880F991F661F06
:104F2000771F0694A1F70590079420F4490F561FA8
:104F3000C71FD81F990F661F771F881F0694A9F7F0
:104F400084911095177041F0D695C7955795479560
:104F5000F794E7941A95C1F7ECEEF0E06894159099
:104F6000159135916591959105907FE27395E118C2
:104F7000F10A430B560BC90BD009C0F7E10CF11E27
:104F8000431F561FC91FD01D7EF4703311F48A953C
:104F9000E6CFE894015030F0080F0AF4002702171A
:104FA00008F4202F2395022F7A3328F079E37D939C
:104FB0002A95E9F710C07D932A9589F6069497956E
:104FC0006795379517951794E118F10A430B560B1F
:104FD000C90BD00998F023957E9173957A3308F028
:104FE00070E37C932013B8F77E9170617D9330F06D
:104FF000839571E37D9370E32A95E1F71124EF9097
:10500000FF900F911F91CF91DF91992787FD909588
:105010000895FB01DC0105900D920020E1F7089551
:10502000FC010590615070400110D8F78095909573
:105030008E0F9F1F0895FB01DC018D910190801957
:105040000110D9F3990B0895FC0161507040019053
:105050000110D8F7809590958E0F9F1F08957AE0E4
:10506000979F902D879F802D910D112408950F9368
:105070001F93CF93DF93FB01238121FD03C08FEFAB
:105080009FEF2CC022FF16C04681578124813581B5
:105090004217530744F4A081B1819D012F5F3F4F18
:1050A000318320838C93268137812F5F3F4F378355
:1050B000268314C08B01EC01FB010084F185E02DF7
:1050C0001995892BE1F6D80116968D919C91179729
:1050D000019617969C938E931697CE01DF91CF91F0
:1050E0001F910F910895CF93DF93CDB7DEB7AE0137
:1050F0004A5F5F4FFA0161917191AF018091A20AFD
:105100009091A30AB5DADF91CF9108950F931F9381
:10511000CF93DF93CDB7DEB7AE01485F5F4FDA01C3
:105120006D917D91AD0100EA1AE0F80182819381D1
:10513000DC0113962C911397286013962C9398DA20
:10514000D8011296ED91FC9113972381277F238339
:10515000DF91CF911F910F9108956091A20A7091F4
:10516000A30A85CF0F931F93CF93DF93E091A20AF9
:10517000F091A30A238121FF1BC08C01D0E0C0E085
:10518000F80181918F016091A20A7091A30ADB015D
:105190001896ED91FC911997882331F01995892B78
:1051A00079F3DFEFCFEFECCF8AE01995892B19F077
:1051B0008FEF9FEF02C08D2F9C2FDF91CF911F911A
:1051C0000F910895FA01AA27283051F1203181F179
:1051D000E8946F936E7F6E5F7F4F8F4F9F4FAF4FFF
:1051E000B1E03ED0B4E03CD0670F781F891F9A1F12
:1051F000A11D680F791F8A1F911DA11D6A0F711DC6
:10520000811D911DA11D20D009F468943F912AE0D1
:10521000269F11243019305D3193DEF6CF010895B9
:10522000462F4770405D4193B3E00FD0C9F7F6CFEA
:10523000462F4F70405D4A3318F0495D31FD4052B2
:10524000419302D0A9F7EACFB4E0A6959795879548
:1052500077956795BA95C9F7009761057105089527
:105260009B01AC010A2E06945795479537952795D3
:10527000BA95C9F7620F731F841F951FA01D08956B
:04528000F894FFCFD0
:1052840001000000030000000060208420000042B0
:105294006C6F636B203078253034783A00202530E9
:1052A400327800464C4153482D2042616420626CA0
:1052B4006F636B20666F756E6420617420626C6F1F
:1052C400636B2061646472203078253034780A007E
:1052D4004661696C75726520617474656D7074697A
:1052E4006E6720746F20726561642062616420625D
:1052F4006C6F636B206D61726B000A3078253032FD
:10530400782C203078253032780A00466C61736836
:1053140020426C6F636B204C6F636B202020203025
:1053240078253032780A00466C61736820436F6ECA
:105334006669672020202020202020307825303204
:10534400780A00466C617368205374617475732025
:10535400202020202020203078253032780A004672
:105364006C617368204469652053656C65637420BF
:105374002020203078253032780A007370695F4627
:105384006C617368556E6C6F636B416C6C426C6FCF
:10539400636B733A206C6F636B20726567206E6F6A
:1053A4007720203078253032780A007370695F46A0
:1053B4006C617368456E61626C6557726974653AB5
:1053C400203078253032780A007370695F466C614A
:1053D400736844697361626C6557726974653A20D5
:1053E4003078253032780A007370695F52657365CE
:1053F400743A20737461747573206973203078254E
:105404003032780A003031323334353637383900A7
:105414000A52656164696E672066726F6D20464C3E
:10542400415348007265636F72642025643A0A0030
:105434000A423D2030782530347820503D203078A1
:105444002530386C783A00426164207265616420CA
:105454006174203078253034782000466F756E648E
:1054640020303020617420307825303478200025B5
:105474007300636D642025732D2D00753437007E11
:105484003A2025640A006275636B7320302C312C3A
:10549400342028632C692C73312920656E61626C79
:1054A4006564006275636B3220284D6F6429206542
:1054B4006E61626C6564006275636B3420284F70A2
:1054C400744874722920656E61626C65640062754B
:1054D400636B3520287370617265322920656E61B3
:1054E400626C6564006275636B7320302C312C34FC
:1054F4002028632C692C7331292064697361626CE0
:105504006564006275636B3220284D6F64292064E2
:10551400697361626C6564006275636B3320284F44
:105524007074487472292064697361626C656400E4
:105534006275636B3520285370617265322920646B
:10554400697361626C656400763D2025640A0076A7
:105554003D20307825580A00575446000A6E6F20C3
:10556400636D643A2573200A00696E697469616C1D
:10557400697A696E672074696D65723200696E209C
:10558400696E697420636F756E7465727320616EE1
:10559400642074696D6572730041444320737973A8
:1055A40020726567203D2025580A006572726F726B
:1055B4002C20696E76616C6964204368616E6E6547
:1055C4006C006368616E6E656C203D2025752C202F
:1055D400616463203D2025582C20202575206D41D1
:1055E400200A0061637469766520414443733A205C
:1055F4003078253032780A00256420253032782529
:105604003032782025643A20202020002564202090
:1056140025753B202020004552524F523A204E6FB0
:105624002041444373204163746976650A00666CC3
:105634006F7763203D2025640061627320636820D6
:105644003D202564006D75784368616E6E656C203D
:105654003D202564200A0025752025750A007374F1
:1056640061727465642052485F5420436F6E76659E
:105674007273696F6E0052485F5420537461727480
:10568400204661696C65640052485F54205374611C
:105694006C652044617461005248203D20256C648F
:1056A400202854656E746873206F662061205065ED
:1056B4007263656E74290A0054203D20256C6420B1
:1056C4002868756E647265746873206F6620612043
:1056D400446567726565290A00616463323531384F
:1056E400203D203078253458253032580A00696E20
:1056F400205254435F636F6E66696728293B0072CA
:10570400656164205254432025643A2564202000B6
:1057140077726974653A203078253258200A00453A
:1057240052524F523A20636C6F636B20467265711C
:1057340075656E6379206E6F742061742031303228
:105744003420485A2100307825325800756E697823
:105754005365636F6E6473203D20256C750042555C
:10576400434B204441432020203078255820766143
:105774006C7565203D2030782533582E202020304C
:10578400782530327820203078253032780A004F5E
:10579400707469637320444143203078255820761F
:1057A400616C7565203D2030782533582E202020EB
:1057B40030782530327820203078253032780A004D
:1057C400696E204F70746963734461632042726F21
:1057D40061644361737400696E204255434B2044F5
:1057E40061632042726F61644361737400465720A1
:1057F4004552524F522C2077726974696E6720703B
:1058040061737420656E64206F66204652414D00BA
:105814002558203A202558203A202558203A20257A
:10582400580A0025582025582025582025580A00B4
:10583400534E3A25750A006572726F722072656163
:1058440064696E67206D7578206368616E6E656C3F
:105854000077686963684D55586368203D20256466
:10586400200A0020656C20004552524F52202D2002
:1058740053657474696E67204D5558204368616E92
:105884006E656C203D2025640A004552524F52201B
:105894002D206661696C656420746F20636F6E6689
:1058A40069726D204D5558206368616E6E656C2E6B
:1058B4000D0020656D20004552524F52202D206965
:1058C4006E76616C6964204D5558204368616E6E34
:1058D400656C203D2025640D0A000000000054572B
:1058E400492073746174757320636F646520257334
:1058F4000A00545749206572726F7220636F6465A1
:105904002025580A007477692073746172742074B6
:10591400696D656F75742E2E2E200D0074776920C5
:1059240073746172742077726F6E6720737461741C
:1059340075732025642E2E2E200D0A00627974655D
:105944002073656E7420737461747573203D203DFB
:105954003078253032580A007477694572726F7254
:10596400004552524F522072656164206661696C31
:10597400656420776974682025642062797465738E
:10598400206C6566742C207374617475733D307873
:10599400253032580D0A002E2E2E2E2E0A2E2E2E93
:1059A4002E0A2E2E2E0A2E00696E697469616C69A6
:1059B4007A656400202020203A2025730A00676F4E
:1059C4007420556172743120434F6D706C65746539
:1059D4003A2573200A00623F00626175640039361B
:0E59E4003030003131356B003436306B00004E
:00000001FF
